{
	"data": {
		"bytecode": {
			"linkReferences": {},
			"object": "60806040523480156200001157600080fd5b50604051620025e2380380620025e28339810160408190526200003491620000d8565b60008054610100600160a81b0319166101006001600160a01b0398891602179055600180546001600160a01b0319908116968816969096179055600280548616948716949094179093556003805485169286169290921790915560058054841692851692909217909155600680548316919093161790915560078054909116905562000158565b80516001600160a01b0381168114620000d357600080fd5b919050565b60008060008060008060c08789031215620000f1578182fd5b620000fc87620000bb565b95506200010c60208801620000bb565b94506200011c60408801620000bb565b93506200012c60608801620000bb565b92506200013c60808801620000bb565b91506200014c60a08801620000bb565b90509295509295509295565b61247a80620001686000396000f3fe6080604052600436106100f35760003560e01c8063566fa0cb1161008a578063b578803f11610059578063b578803f1461024f578063be7420b114610272578063c87e511714610287578063e25b3c951461029c576100f3565b8063566fa0cb146101ed57806388ffe8671461020d5780638c5782ca146102225780638fae60a514610247576100f3565b80632c6372c3116100c65780632c6372c31461017a57806343d726d6146101a15780634dc415de146101b65780634e69d560146101cb576100f3565b80630d657191146100f85780630e0801921461012e578063257877981461014557806329ac54a714610165575b600080fd5b34801561010457600080fd5b5061010d6102be565b6040516101259c9b9a99989796959493929190611f00565b60405180910390f35b34801561013a57600080fd5b5061014361045c565b005b34801561015157600080fd5b50610143610160366004611cc2565b61051d565b34801561017157600080fd5b50610143610695565b34801561018657600080fd5b5061018f6108aa565b60405161012596959493929190611e99565b3480156101ad57600080fd5b506101436108e1565b3480156101c257600080fd5b50610143610ab8565b3480156101d757600080fd5b506101e0610b2d565b6040516101259190611eed565b3480156101f957600080fd5b50610143610208366004611c8a565b610c71565b34801561021957600080fd5b50610143610d50565b34801561022e57600080fd5b50610237610f64565b604051610125949392919061233d565b610143610f7f565b34801561025b57600080fd5b5061026461120a565b604051610125929190611edb565b34801561027e57600080fd5b50610143611225565b34801561029357600080fd5b506101436112cd565b3480156102a857600080fd5b506102b16113b6565b6040516101259190611ed0565b606060008080808080808080808080600160005460ff1660038111156102f457634e487b7160e01b600052602160045260246000fd5b14806103455750600360005460ff16600381111561032257634e487b7160e01b600052602160045260246000fd5b148015610345575060175460ff161580156103455750601754610100900460ff16155b1561034e575060015b600f54600954600a54600b54600c54600d54600e546011546012546000546008996001600160a01b0390811699811698169695949392919060ff1660038111156103a857634e487b7160e01b600052602160045260246000fd5b8b8b80546103b5906123c8565b80601f01602080910402602001604051908101604052809291908181526020018280546103e1906123c8565b801561042e5780601f106104035761010080835404028352916020019161042e565b820191906000526020600020905b81548152906001019060200180831161041157829003601f168201915b50505050509b509c509c509c509c509c509c509c509c509c509c509c509c5050909192939495969798999a9b565b600160005460ff16600381111561048357634e487b7160e01b600052602160045260246000fd5b146104a95760405162461bcd60e51b81526004016104a0906122b4565b60405180910390fd5b6009546001600160a01b03163314806104cc5750600a546001600160a01b031633145b6104e85760405162461bcd60e51b81526004016104a090611fe6565b600a546001600160a01b031633141561050d576007805460ff60a01b1916905561051b565b6007805460ff60a81b191690555b565b60005461010090046001600160a01b0316331461054c5760405162461bcd60e51b81526004016104a090612013565b60175462010000900460ff16156105755760405162461bcd60e51b81526004016104a090612258565b61057f8588611401565b61059b5760405162461bcd60e51b81526004016104a090611faf565b600980546001600160a01b03808a166001600160a01b031992831617909255600a8054898416908316179055600f80549288169290911691909117905583516105eb906008906020870190611bf1565b50600e839055600d82905561060b606461060585856115b6565b906115c9565b600b81905561061b9084906115d5565b600c55601181905560648214801561063d5750600a546001600160a01b031615155b1561067357426012556011546106639061065a90620151806115b6565b601254906115e1565b60135561066e6115ed565b61067b565b61067b611603565b50506017805462ff00001916620100001790555050505050565b600154600f546001600160a01b039081169116146106c55760405162461bcd60e51b81526004016104a09061230b565b600360005460ff1660038111156106ec57634e487b7160e01b600052602160045260246000fd5b146107095760405162461bcd60e51b81526004016104a0906122df565b6009546001600160a01b031633148061072c5750600a546001600160a01b031633145b6107485760405162461bcd60e51b81526004016104a090611fe6565b6009546001600160a01b031633141561079657600754600160b01b900460ff166107845760405162461bcd60e51b81526004016104a0906121a9565b6007805460ff60b01b191690556107cd565b600754600160b81b900460ff166107bf5760405162461bcd60e51b81526004016104a0906121a9565b6007805460ff60b81b191690555b6005546040516310416cc760e01b81526001600160a01b03909116906310416cc7906107fd903390600401611e42565b600060405180830381600087803b15801561081757600080fd5b505af115801561082b573d6000803e3d6000fd5b505060175460ff1691508190506108495750601754610100900460ff165b1561087957601080546001600160a01b031916331790554260145561086c611615565b6108746116ed565b61051b565b600754600160b01b900460ff1615801561089d5750600754600160b81b900460ff16155b1561051b5761051b6115ed565b6010546012546013546014546007546001600160a01b039094169360ff600160a01b8204811691600160a81b900416909192939495565b600260005460ff16600381111561090857634e487b7160e01b600052602160045260246000fd5b14156109265760405162461bcd60e51b81526004016104a0906120cc565b600360005460ff16600381111561094d57634e487b7160e01b600052602160045260246000fd5b141561096b5760405162461bcd60e51b81526004016104a090612129565b6009546001600160a01b031633148061098e5750600a546001600160a01b031633145b6109aa5760405162461bcd60e51b81526004016104a090611fe6565b6109b26113b6565b156109bf576109bf611701565b6000805460ff1660038111156109e557634e487b7160e01b600052602160045260246000fd5b1415610a1d576009546001600160a01b03163314610a155760405162461bcd60e51b81526004016104a090611fe6565b610a1d611701565b600160005460ff166003811115610a4457634e487b7160e01b600052602160045260246000fd5b141561051b576009546001600160a01b0316331415610a75576007805460ff60a01b1916600160a01b179055610a89565b6007805460ff60a81b1916600160a81b1790555b600754600160a01b900460ff168015610aab5750600754600160a81b900460ff165b1561051b5761051b611701565b600a546001600160a01b03163314610ae25760405162461bcd60e51b81526004016104a090612157565b6000805460ff166003811115610b0857634e487b7160e01b600052602160045260246000fd5b14610b255760405162461bcd60e51b81526004016104a090612228565b61051b611701565b60005460609060ff166003811115610b5557634e487b7160e01b600052602160045260246000fd5b610b81575060408051808201909152600b81526a1a5b9a5d1a585b1a5e995960aa1b6020820152610c6e565b60005460ff166003811115610ba657634e487b7160e01b600052602160045260246000fd5b60011415610bd157506040805180820190915260068152651859dc99595960d21b6020820152610c6e565b60005460ff166003811115610bf657634e487b7160e01b600052602160045260246000fd5b60031415610c2257506040805180820190915260078152661c1b195919d95960ca1b6020820152610c6e565b60005460ff166003811115610c4757634e487b7160e01b600052602160045260246000fd5b60021415610c6e575060408051808201909152600681526518db1bdcd95960d21b60208201525b90565b6009546001600160a01b03163314610c9b5760405162461bcd60e51b81526004016104a0906121d3565b600a546001600160a01b0316158015610cb65750600d546064145b610cd25760405162461bcd60e51b81526004016104a09061227d565b6001600160a01b03811615801590610cf357506001600160a01b0381163314155b610d0f5760405162461bcd60e51b81526004016104a0906120f9565b600a80546001600160a01b0319166001600160a01b03831617905542601255601154610d429061065a90620151806115b6565b601355610d4d6115ed565b50565b600154600f546001600160a01b03908116911614610d805760405162461bcd60e51b81526004016104a09061230b565b6009546001600160a01b0316331480610da35750600a546001600160a01b031633145b610dbf5760405162461bcd60e51b81526004016104a090611fe6565b600360005460ff166003811115610de657634e487b7160e01b600052602160045260246000fd5b1480610e165750600160005460ff166003811115610e1457634e487b7160e01b600052602160045260246000fd5b145b610e325760405162461bcd60e51b81526004016104a090611fe6565b610e3a6113b6565b15610e575760405162461bcd60e51b81526004016104a09061206d565b6009546000906001600160a01b0316331415610eb357600754600160b01b900460ff1615610e975760405162461bcd60e51b81526004016104a090612181565b506007805460ff60b01b1916600160b01b179055600b54610ef5565b600754600160b81b900460ff1615610edd5760405162461bcd60e51b81526004016104a090612181565b506007805460ff60b81b1916600160b81b179055600c545b610efd611727565b600554604051633a1d9a2960e11b81526001600160a01b039091169063743b345290610f2f9033908590600401611e80565b600060405180830381600087803b158015610f4957600080fd5b505af1158015610f5d573d6000803e3d6000fd5b5050505050565b60155460175460165460ff8083169261010090041690919293565b600a546001600160a01b03163314610fa95760405162461bcd60e51b81526004016104a090612157565b6000805460ff166003811115610fcf57634e487b7160e01b600052602160045260246000fd5b14610fec5760405162461bcd60e51b81526004016104a090612228565b600754600f546001600160a01b039081169116141561111a57600c543410156110275760405162461bcd60e51b81526004016104a0906120a4565b600660009054906101000a90046001600160a01b03166001600160a01b031663d0e30db0346040518263ffffffff1660e01b81526004016000604051808303818588803b15801561107757600080fd5b505af115801561108b573d6000803e3d6000fd5b505060065460405163a9059cbb60e01b81526001600160a01b03909116935063a9059cbb92506110c2915030903490600401611e80565b602060405180830381600087803b1580156110dc57600080fd5b505af11580156110f0573d6000803e3d6000fd5b505050506040513d601f19601f820116820180604052508101906111149190611dbf565b506111af565b600354600f54600a54600c5460405163478da03d60e11b81526001600160a01b0394851694638f1b407a9461115b9490821693911691309190600401611e56565b602060405180830381600087803b15801561117557600080fd5b505af1158015611189573d6000803e3d6000fd5b505050506040513d601f19601f820116820180604052508101906111ad9190611dbf565b505b600f54600a546111cb916001600160a01b039081169116611401565b6111e75760405162461bcd60e51b81526004016104a090611f78565b426012556011546111ff9061065a90620151806115b6565b60135561051b6115ed565b60075460ff600160b01b8204811691600160b81b9004169091565b600160005460ff16600381111561124c57634e487b7160e01b600052602160045260246000fd5b146112695760405162461bcd60e51b81526004016104a0906122b4565b6009546001600160a01b031633148061128c5750600a546001600160a01b031633145b6112a85760405162461bcd60e51b81526004016104a090611fe6565b6009546001600160a01b031633141561050d576007805460ff60a01b1916905561051b565b600154600f546001600160a01b039081169116146112fd5760405162461bcd60e51b81526004016104a09061230b565b600360005460ff16600381111561132457634e487b7160e01b600052602160045260246000fd5b146113415760405162461bcd60e51b81526004016104a0906122df565b6009546001600160a01b03163314806113645750600a546001600160a01b031633145b6113805760405162461bcd60e51b81526004016104a090611fe6565b6113886113b6565b6113a45760405162461bcd60e51b81526004016104a0906121fd565b6113ae606461173b565b61051b611615565b60008060005460ff1660038111156113de57634e487b7160e01b600052602160045260246000fd5b14806113ea5750601354155b156113f757506000610c6e565b5060135442101590565b60075460009081906001600160a01b03858116911614156114a3576006546040516370a0823160e01b81526001600160a01b03909116906370a082319061144c903090600401611e42565b60206040518083038186803b15801561146457600080fd5b505afa158015611478573d6000803e3d6000fd5b505050506040513d601f19601f8201168201806040525081019061149c9190611ddf565b9050611568565b6001546001600160a01b03858116911614156114e9576002546040516370a0823160e01b81526001600160a01b03909116906370a082319061144c903090600401611e42565b6040516370a0823160e01b81526001600160a01b038516906370a0823190611515903090600401611e42565b60206040518083038186803b15801561152d57600080fd5b505afa158015611541573d6000803e3d6000fd5b505050506040513d601f19601f820116820180604052508101906115659190611ddf565b90505b6009546001600160a01b038481169116141561159757600b548114156115925760019150506115b0565b6115aa565b600e5481106115aa5760019150506115b0565b60009150505b92915050565b60006115c28284612392565b9392505050565b60006115c28284612372565b60006115c282846123b1565b60006115c2828461235a565b600080546001919060ff191682805b0217905550565b60008054819060ff19166001826115fc565b6009546001600160a01b031633141561168757600754600160b01b900460ff16158015611645575060175460ff16155b6116615760405162461bcd60e51b81526004016104a09061203f565b6017805460ff19166001179055600954601554610874916001600160a01b0316906117b2565b600754600160b81b900460ff161580156116a95750601754610100900460ff16155b6116c55760405162461bcd60e51b81526004016104a09061203f565b6017805461ff001916610100179055600a5460165461051b916001600160a01b0316906117b2565b600080546002919060ff19166001836115fc565b601080546001600160a01b031916331790554260145561171f6119fe565b61051b6116ed565b600080546003919060ff19166001836115fc565b611755606461060583600b546115b690919063ffffffff16565b601555600160005460ff16600381111561177f57634e487b7160e01b600052602160045260246000fd5b14801561178d5750600c5415155b15610d4d576117ac606461060583600c546115b690919063ffffffff16565b60165550565b600754600f546001600160a01b039081169116141561186957600654604051632e1a7d4d60e01b81526001600160a01b0390911690632e1a7d4d906117fb908490600401612334565b600060405180830381600087803b15801561181557600080fd5b505af1158015611829573d6000803e3d6000fd5b50506040516001600160a01b038516925083156108fc02915083906000818181858888f19350505050158015611863573d6000803e3d6000fd5b506119fa565b600154600f546001600160a01b03908116911614156119745760025460035460405163095ea7b360e01b81526001600160a01b039283169263095ea7b3926118b8929116908590600401611e80565b602060405180830381600087803b1580156118d257600080fd5b505af11580156118e6573d6000803e3d6000fd5b505050506040513d601f19601f8201168201806040525081019061190a9190611dbf565b50600354604051636da8c6d960e11b81526001600160a01b039091169063db518db29061193d9085908590600401611e80565b600060405180830381600087803b15801561195757600080fd5b505af115801561196b573d6000803e3d6000fd5b505050506119fa565b600f5460405163a9059cbb60e01b81526001600160a01b039091169063a9059cbb906119a69085908590600401611e80565b602060405180830381600087803b1580156119c057600080fd5b505af11580156119d4573d6000803e3d6000fd5b505050506040513d601f19601f820116820180604052508101906119f89190611dbf565b505b5050565b6000805460ff166003811115611a2457634e487b7160e01b600052602160045260246000fd5b1480611a335750611a336113b6565b15611a4757611a42606461173b565b611b9f565b6000611a67620151806106056012546014546115d590919063ffffffff16565b601154909150600090611a8a906106056107d0611a8483876115d5565b906115b6565b905081611aa057611a9b605061173b565b611ae5565b6064811015611ab357611a9b606361173b565b6107d0811115611ac757611a9b605061173b565b611ae5611ad58260646115c9565b611ae09060646123b1565b61173b565b6000611b0a611b016016546015546115e190919063ffffffff16565b600e54906115d5565b9050611b9b600060019054906101000a90046001600160a01b03166001600160a01b031663502282016040518163ffffffff1660e01b815260040160206040518083038186803b158015611b5d57600080fd5b505afa158015611b71573d6000803e3d6000fd5b505050506040513d601f19601f82011682018060405250810190611b959190611ca6565b826117b2565b5050505b6017805461ff001960ff1990911660011716610100179055600954601554611bd0916001600160a01b0316906117b2565b6016541561051b57600a5460165461051b916001600160a01b0316906117b2565b828054611bfd906123c8565b90600052602060002090601f016020900481019282611c1f5760008555611c65565b82601f10611c3857805160ff1916838001178555611c65565b82800160010185558215611c65579182015b82811115611c65578251825591602001919060010190611c4a565b50611c71929150611c75565b5090565b5b80821115611c715760008155600101611c76565b600060208284031215611c9b578081fd5b81356115c28161242f565b600060208284031215611cb7578081fd5b81516115c28161242f565b600080600080600080600060e0888a031215611cdc578283fd5b8735611ce78161242f565b96506020880135611cf78161242f565b95506040880135611d078161242f565b9450606088013567ffffffffffffffff80821115611d23578485fd5b818a0191508a601f830112611d36578485fd5b813581811115611d4857611d48612419565b604051601f8201601f19908116603f01168101908382118183101715611d7057611d70612419565b816040528281528d6020848701011115611d88578788fd5b8260208601602083013791820160200196909652989b979a50959860808101359760a0820135975060c09091013595509350505050565b600060208284031215611dd0578081fd5b815180151581146115c2578182fd5b600060208284031215611df0578081fd5b5051919050565b60008151808452815b81811015611e1c57602081850181015186830182015201611e00565b81811115611e2d5782602083870101525b50601f01601f19169290920160200192915050565b6001600160a01b0391909116815260200190565b6001600160a01b039485168152928416602084015292166040820152606081019190915260800190565b6001600160a01b03929092168252602082015260400190565b6001600160a01b0396909616865260208601949094526040850192909252606084015215156080830152151560a082015260c00190565b901515815260200190565b91151582521515602082015260400190565b6000602082526115c26020830184611df7565b60006101808252611f1561018083018f611df7565b6001600160a01b039d8e1660208401529b8d1660408301525098909a166060890152608088019690965260a087019490945260c086019290925260e085015261010084015261012083015261014082015291151561016090920191909152919050565b60208082526018908201527f4c696e6b3a206465706f736974206e6f7420656e6f7567680000000000000000604082015260600190565b6020808252601e908201527f4c696e6b3a207573657241206465706f736974206e6f7420656e6f7567680000604082015260600190565b602080825260139082015272131a5b9ace881858d8d95cdcc819195b9a5959606a1b604082015260600190565b6020808252601290820152714c696e6b3a206f6e6c7920666163746f727960701b604082015260600190565b60208082526014908201527302634b7359d1030b1b1b2b9b9903232b734b2b2160651b604082015260600190565b6020808252601c908201527f4c696e6b3a2063616e7420706c65646765206f6e206578706972652000000000604082015260600190565b6020808252600e908201526d0dcdee840cadcdeeaced0408aa8960931b604082015260600190565b602080825260139082015272131a5b9ace881bdb9b1e481d5b98db1bdcd959606a1b604082015260600190565b6020808252601690820152754c696e6b3a20756e6c617766756c206164647265737360501b604082015260600190565b602080825260149082015273131a5b9ace881bdb9b1e481d5b9c1b195919d95960621b604082015260600190565b60208082526010908201526f2634b7359d103737b63c903ab9b2b92160811b604082015260600190565b6020808252600e908201526d4c696e6b3a207265706c6564676560901b604082015260600190565b60208082526010908201526f131a5b9ace881b9bc81c1b195919d95960821b604082015260600190565b60208082526010908201526f4c696e6b3a206f6e6c7920757365724160801b604082015260600190565b6020808252601190820152704c696e6b3a206f6e6c792045787069726560781b604082015260600190565b602080825260169082015275131a5b9ace881bdb9b1e481a5b9a5d1a585b1a5e995960521b604082015260600190565b6020808252600b908201526a1a5b9a5d1a585b1a5e995960aa1b604082015260600190565b60208082526018908201527f4c696e6b3a206f6e6c79204564697461626c65204c696e6b0000000000000000604082015260600190565b602080825260119082015270131a5b9ace881bdb9b1e481859dc995959607a1b604082015260600190565b602080825260129082015271131a5b9ace881bdb9b1e481c1b195919d95960721b604082015260600190565b6020808252600f908201526e4c696e6b3a206f6e6c79206c75636160881b604082015260600190565b90815260200190565b938452911515602084015260408301521515606082015260800190565b6000821982111561236d5761236d612403565b500190565b60008261238d57634e487b7160e01b81526012600452602481fd5b500490565b60008160001904831182151516156123ac576123ac612403565b500290565b6000828210156123c3576123c3612403565b500390565b6002810460018216806123dc57607f821691505b602082108114156123fd57634e487b7160e01b600052602260045260246000fd5b50919050565b634e487b7160e01b600052601160045260246000fd5b634e487b7160e01b600052604160045260246000fd5b6001600160a01b0381168114610d4d57600080fdfea26469706673582212200fa26a32ac1a3b1de3779af218c5c0959b18f997bf439c9662c0ddc27cbb8d9b64736f6c63430008010033",
			"opcodes": "PUSH1 0x80 PUSH1 0x40 MSTORE CALLVALUE DUP1 ISZERO PUSH3 0x11 JUMPI PUSH1 0x0 DUP1 REVERT JUMPDEST POP PUSH1 0x40 MLOAD PUSH3 0x25E2 CODESIZE SUB DUP1 PUSH3 0x25E2 DUP4 CODECOPY DUP2 ADD PUSH1 0x40 DUP2 SWAP1 MSTORE PUSH3 0x34 SWAP2 PUSH3 0xD8 JUMP JUMPDEST PUSH1 0x0 DUP1 SLOAD PUSH2 0x100 PUSH1 0x1 PUSH1 0xA8 SHL SUB NOT AND PUSH2 0x100 PUSH1 0x1 PUSH1 0x1 PUSH1 0xA0 SHL SUB SWAP9 DUP10 AND MUL OR SWAP1 SSTORE PUSH1 0x1 DUP1 SLOAD PUSH1 0x1 PUSH1 0x1 PUSH1 0xA0 SHL SUB NOT SWAP1 DUP2 AND SWAP7 DUP9 AND SWAP7 SWAP1 SWAP7 OR SWAP1 SSTORE PUSH1 0x2 DUP1 SLOAD DUP7 AND SWAP5 DUP8 AND SWAP5 SWAP1 SWAP5 OR SWAP1 SWAP4 SSTORE PUSH1 0x3 DUP1 SLOAD DUP6 AND SWAP3 DUP7 AND SWAP3 SWAP1 SWAP3 OR SWAP1 SWAP2 SSTORE PUSH1 0x5 DUP1 SLOAD DUP5 AND SWAP3 DUP6 AND SWAP3 SWAP1 SWAP3 OR SWAP1 SWAP2 SSTORE PUSH1 0x6 DUP1 SLOAD DUP4 AND SWAP2 SWAP1 SWAP4 AND OR SWAP1 SWAP2 SSTORE PUSH1 0x7 DUP1 SLOAD SWAP1 SWAP2 AND SWAP1 SSTORE PUSH3 0x158 JUMP JUMPDEST DUP1 MLOAD PUSH1 0x1 PUSH1 0x1 PUSH1 0xA0 SHL SUB DUP2 AND DUP2 EQ PUSH3 0xD3 JUMPI PUSH1 0x0 DUP1 REVERT JUMPDEST SWAP2 SWAP1 POP JUMP JUMPDEST PUSH1 0x0 DUP1 PUSH1 0x0 DUP1 PUSH1 0x0 DUP1 PUSH1 0xC0 DUP8 DUP10 SUB SLT ISZERO PUSH3 0xF1 JUMPI DUP2 DUP3 REVERT JUMPDEST PUSH3 0xFC DUP8 PUSH3 0xBB JUMP JUMPDEST SWAP6 POP PUSH3 0x10C PUSH1 0x20 DUP9 ADD PUSH3 0xBB JUMP JUMPDEST SWAP5 POP PUSH3 0x11C PUSH1 0x40 DUP9 ADD PUSH3 0xBB JUMP JUMPDEST SWAP4 POP PUSH3 0x12C PUSH1 0x60 DUP9 ADD PUSH3 0xBB JUMP JUMPDEST SWAP3 POP PUSH3 0x13C PUSH1 0x80 DUP9 ADD PUSH3 0xBB JUMP JUMPDEST SWAP2 POP PUSH3 0x14C PUSH1 0xA0 DUP9 ADD PUSH3 0xBB JUMP JUMPDEST SWAP1 POP SWAP3 SWAP6 POP SWAP3 SWAP6 POP SWAP3 SWAP6 JUMP JUMPDEST PUSH2 0x247A DUP1 PUSH3 0x168 PUSH1 0x0 CODECOPY PUSH1 0x0 RETURN INVALID PUSH1 0x80 PUSH1 0x40 MSTORE PUSH1 0x4 CALLDATASIZE LT PUSH2 0xF3 JUMPI PUSH1 0x0 CALLDATALOAD PUSH1 0xE0 SHR DUP1 PUSH4 0x566FA0CB GT PUSH2 0x8A JUMPI DUP1 PUSH4 0xB578803F GT PUSH2 0x59 JUMPI DUP1 PUSH4 0xB578803F EQ PUSH2 0x24F JUMPI DUP1 PUSH4 0xBE7420B1 EQ PUSH2 0x272 JUMPI DUP1 PUSH4 0xC87E5117 EQ PUSH2 0x287 JUMPI DUP1 PUSH4 0xE25B3C95 EQ PUSH2 0x29C JUMPI PUSH2 0xF3 JUMP JUMPDEST DUP1 PUSH4 0x566FA0CB EQ PUSH2 0x1ED JUMPI DUP1 PUSH4 0x88FFE867 EQ PUSH2 0x20D JUMPI DUP1 PUSH4 0x8C5782CA EQ PUSH2 0x222 JUMPI DUP1 PUSH4 0x8FAE60A5 EQ PUSH2 0x247 JUMPI PUSH2 0xF3 JUMP JUMPDEST DUP1 PUSH4 0x2C6372C3 GT PUSH2 0xC6 JUMPI DUP1 PUSH4 0x2C6372C3 EQ PUSH2 0x17A JUMPI DUP1 PUSH4 0x43D726D6 EQ PUSH2 0x1A1 JUMPI DUP1 PUSH4 0x4DC415DE EQ PUSH2 0x1B6 JUMPI DUP1 PUSH4 0x4E69D560 EQ PUSH2 0x1CB JUMPI PUSH2 0xF3 JUMP JUMPDEST DUP1 PUSH4 0xD657191 EQ PUSH2 0xF8 JUMPI DUP1 PUSH4 0xE080192 EQ PUSH2 0x12E JUMPI DUP1 PUSH4 0x25787798 EQ PUSH2 0x145 JUMPI DUP1 PUSH4 0x29AC54A7 EQ PUSH2 0x165 JUMPI JUMPDEST PUSH1 0x0 DUP1 REVERT JUMPDEST CALLVALUE DUP1 ISZERO PUSH2 0x104 JUMPI PUSH1 0x0 DUP1 REVERT JUMPDEST POP PUSH2 0x10D PUSH2 0x2BE JUMP JUMPDEST PUSH1 0x40 MLOAD PUSH2 0x125 SWAP13 SWAP12 SWAP11 SWAP10 SWAP9 SWAP8 SWAP7 SWAP6 SWAP5 SWAP4 SWAP3 SWAP2 SWAP1 PUSH2 0x1F00 JUMP JUMPDEST PUSH1 0x40 MLOAD DUP1 SWAP2 SUB SWAP1 RETURN JUMPDEST CALLVALUE DUP1 ISZERO PUSH2 0x13A JUMPI PUSH1 0x0 DUP1 REVERT JUMPDEST POP PUSH2 0x143 PUSH2 0x45C JUMP JUMPDEST STOP JUMPDEST CALLVALUE DUP1 ISZERO PUSH2 0x151 JUMPI PUSH1 0x0 DUP1 REVERT JUMPDEST POP PUSH2 0x143 PUSH2 0x160 CALLDATASIZE PUSH1 0x4 PUSH2 0x1CC2 JUMP JUMPDEST PUSH2 0x51D JUMP JUMPDEST CALLVALUE DUP1 ISZERO PUSH2 0x171 JUMPI PUSH1 0x0 DUP1 REVERT JUMPDEST POP PUSH2 0x143 PUSH2 0x695 JUMP JUMPDEST CALLVALUE DUP1 ISZERO PUSH2 0x186 JUMPI PUSH1 0x0 DUP1 REVERT JUMPDEST POP PUSH2 0x18F PUSH2 0x8AA JUMP JUMPDEST PUSH1 0x40 MLOAD PUSH2 0x125 SWAP7 SWAP6 SWAP5 SWAP4 SWAP3 SWAP2 SWAP1 PUSH2 0x1E99 JUMP JUMPDEST CALLVALUE DUP1 ISZERO PUSH2 0x1AD JUMPI PUSH1 0x0 DUP1 REVERT JUMPDEST POP PUSH2 0x143 PUSH2 0x8E1 JUMP JUMPDEST CALLVALUE DUP1 ISZERO PUSH2 0x1C2 JUMPI PUSH1 0x0 DUP1 REVERT JUMPDEST POP PUSH2 0x143 PUSH2 0xAB8 JUMP JUMPDEST CALLVALUE DUP1 ISZERO PUSH2 0x1D7 JUMPI PUSH1 0x0 DUP1 REVERT JUMPDEST POP PUSH2 0x1E0 PUSH2 0xB2D JUMP JUMPDEST PUSH1 0x40 MLOAD PUSH2 0x125 SWAP2 SWAP1 PUSH2 0x1EED JUMP JUMPDEST CALLVALUE DUP1 ISZERO PUSH2 0x1F9 JUMPI PUSH1 0x0 DUP1 REVERT JUMPDEST POP PUSH2 0x143 PUSH2 0x208 CALLDATASIZE PUSH1 0x4 PUSH2 0x1C8A JUMP JUMPDEST PUSH2 0xC71 JUMP JUMPDEST CALLVALUE DUP1 ISZERO PUSH2 0x219 JUMPI PUSH1 0x0 DUP1 REVERT JUMPDEST POP PUSH2 0x143 PUSH2 0xD50 JUMP JUMPDEST CALLVALUE DUP1 ISZERO PUSH2 0x22E JUMPI PUSH1 0x0 DUP1 REVERT JUMPDEST POP PUSH2 0x237 PUSH2 0xF64 JUMP JUMPDEST PUSH1 0x40 MLOAD PUSH2 0x125 SWAP5 SWAP4 SWAP3 SWAP2 SWAP1 PUSH2 0x233D JUMP JUMPDEST PUSH2 0x143 PUSH2 0xF7F JUMP JUMPDEST CALLVALUE DUP1 ISZERO PUSH2 0x25B JUMPI PUSH1 0x0 DUP1 REVERT JUMPDEST POP PUSH2 0x264 PUSH2 0x120A JUMP JUMPDEST PUSH1 0x40 MLOAD PUSH2 0x125 SWAP3 SWAP2 SWAP1 PUSH2 0x1EDB JUMP JUMPDEST CALLVALUE DUP1 ISZERO PUSH2 0x27E JUMPI PUSH1 0x0 DUP1 REVERT JUMPDEST POP PUSH2 0x143 PUSH2 0x1225 JUMP JUMPDEST CALLVALUE DUP1 ISZERO PUSH2 0x293 JUMPI PUSH1 0x0 DUP1 REVERT JUMPDEST POP PUSH2 0x143 PUSH2 0x12CD JUMP JUMPDEST CALLVALUE DUP1 ISZERO PUSH2 0x2A8 JUMPI PUSH1 0x0 DUP1 REVERT JUMPDEST POP PUSH2 0x2B1 PUSH2 0x13B6 JUMP JUMPDEST PUSH1 0x40 MLOAD PUSH2 0x125 SWAP2 SWAP1 PUSH2 0x1ED0 JUMP JUMPDEST PUSH1 0x60 PUSH1 0x0 DUP1 DUP1 DUP1 DUP1 DUP1 DUP1 DUP1 DUP1 DUP1 DUP1 DUP1 PUSH1 0x1 PUSH1 0x0 SLOAD PUSH1 0xFF AND PUSH1 0x3 DUP2 GT ISZERO PUSH2 0x2F4 JUMPI PUSH4 0x4E487B71 PUSH1 0xE0 SHL PUSH1 0x0 MSTORE PUSH1 0x21 PUSH1 0x4 MSTORE PUSH1 0x24 PUSH1 0x0 REVERT JUMPDEST EQ DUP1 PUSH2 0x345 JUMPI POP PUSH1 0x3 PUSH1 0x0 SLOAD PUSH1 0xFF AND PUSH1 0x3 DUP2 GT ISZERO PUSH2 0x322 JUMPI PUSH4 0x4E487B71 PUSH1 0xE0 SHL PUSH1 0x0 MSTORE PUSH1 0x21 PUSH1 0x4 MSTORE PUSH1 0x24 PUSH1 0x0 REVERT JUMPDEST EQ DUP1 ISZERO PUSH2 0x345 JUMPI POP PUSH1 0x17 SLOAD PUSH1 0xFF AND ISZERO DUP1 ISZERO PUSH2 0x345 JUMPI POP PUSH1 0x17 SLOAD PUSH2 0x100 SWAP1 DIV PUSH1 0xFF AND ISZERO JUMPDEST ISZERO PUSH2 0x34E JUMPI POP PUSH1 0x1 JUMPDEST PUSH1 0xF SLOAD PUSH1 0x9 SLOAD PUSH1 0xA SLOAD PUSH1 0xB SLOAD PUSH1 0xC SLOAD PUSH1 0xD SLOAD PUSH1 0xE SLOAD PUSH1 0x11 SLOAD PUSH1 0x12 SLOAD PUSH1 0x0 SLOAD PUSH1 0x8 SWAP10 PUSH1 0x1 PUSH1 0x1 PUSH1 0xA0 SHL SUB SWAP1 DUP2 AND SWAP10 DUP2 AND SWAP9 AND SWAP7 SWAP6 SWAP5 SWAP4 SWAP3 SWAP2 SWAP1 PUSH1 0xFF AND PUSH1 0x3 DUP2 GT ISZERO PUSH2 0x3A8 JUMPI PUSH4 0x4E487B71 PUSH1 0xE0 SHL PUSH1 0x0 MSTORE PUSH1 0x21 PUSH1 0x4 MSTORE PUSH1 0x24 PUSH1 0x0 REVERT JUMPDEST DUP12 DUP12 DUP1 SLOAD PUSH2 0x3B5 SWAP1 PUSH2 0x23C8 JUMP JUMPDEST DUP1 PUSH1 0x1F ADD PUSH1 0x20 DUP1 SWAP2 DIV MUL PUSH1 0x20 ADD PUSH1 0x40 MLOAD SWAP1 DUP2 ADD PUSH1 0x40 MSTORE DUP1 SWAP3 SWAP2 SWAP1 DUP2 DUP2 MSTORE PUSH1 0x20 ADD DUP3 DUP1 SLOAD PUSH2 0x3E1 SWAP1 PUSH2 0x23C8 JUMP JUMPDEST DUP1 ISZERO PUSH2 0x42E JUMPI DUP1 PUSH1 0x1F LT PUSH2 0x403 JUMPI PUSH2 0x100 DUP1 DUP4 SLOAD DIV MUL DUP4 MSTORE SWAP2 PUSH1 0x20 ADD SWAP2 PUSH2 0x42E JUMP JUMPDEST DUP3 ADD SWAP2 SWAP1 PUSH1 0x0 MSTORE PUSH1 0x20 PUSH1 0x0 KECCAK256 SWAP1 JUMPDEST DUP2 SLOAD DUP2 MSTORE SWAP1 PUSH1 0x1 ADD SWAP1 PUSH1 0x20 ADD DUP1 DUP4 GT PUSH2 0x411 JUMPI DUP3 SWAP1 SUB PUSH1 0x1F AND DUP3 ADD SWAP2 JUMPDEST POP POP POP POP POP SWAP12 POP SWAP13 POP SWAP13 POP SWAP13 POP SWAP13 POP SWAP13 POP SWAP13 POP SWAP13 POP SWAP13 POP SWAP13 POP SWAP13 POP SWAP13 POP SWAP13 POP POP SWAP1 SWAP2 SWAP3 SWAP4 SWAP5 SWAP6 SWAP7 SWAP8 SWAP9 SWAP10 SWAP11 SWAP12 JUMP JUMPDEST PUSH1 0x1 PUSH1 0x0 SLOAD PUSH1 0xFF AND PUSH1 0x3 DUP2 GT ISZERO PUSH2 0x483 JUMPI PUSH4 0x4E487B71 PUSH1 0xE0 SHL PUSH1 0x0 MSTORE PUSH1 0x21 PUSH1 0x4 MSTORE PUSH1 0x24 PUSH1 0x0 REVERT JUMPDEST EQ PUSH2 0x4A9 JUMPI PUSH1 0x40 MLOAD PUSH3 0x461BCD PUSH1 0xE5 SHL DUP2 MSTORE PUSH1 0x4 ADD PUSH2 0x4A0 SWAP1 PUSH2 0x22B4 JUMP JUMPDEST PUSH1 0x40 MLOAD DUP1 SWAP2 SUB SWAP1 REVERT JUMPDEST PUSH1 0x9 SLOAD PUSH1 0x1 PUSH1 0x1 PUSH1 0xA0 SHL SUB AND CALLER EQ DUP1 PUSH2 0x4CC JUMPI POP PUSH1 0xA SLOAD PUSH1 0x1 PUSH1 0x1 PUSH1 0xA0 SHL SUB AND CALLER EQ JUMPDEST PUSH2 0x4E8 JUMPI PUSH1 0x40 MLOAD PUSH3 0x461BCD PUSH1 0xE5 SHL DUP2 MSTORE PUSH1 0x4 ADD PUSH2 0x4A0 SWAP1 PUSH2 0x1FE6 JUMP JUMPDEST PUSH1 0xA SLOAD PUSH1 0x1 PUSH1 0x1 PUSH1 0xA0 SHL SUB AND CALLER EQ ISZERO PUSH2 0x50D JUMPI PUSH1 0x7 DUP1 SLOAD PUSH1 0xFF PUSH1 0xA0 SHL NOT AND SWAP1 SSTORE PUSH2 0x51B JUMP JUMPDEST PUSH1 0x7 DUP1 SLOAD PUSH1 0xFF PUSH1 0xA8 SHL NOT AND SWAP1 SSTORE JUMPDEST JUMP JUMPDEST PUSH1 0x0 SLOAD PUSH2 0x100 SWAP1 DIV PUSH1 0x1 PUSH1 0x1 PUSH1 0xA0 SHL SUB AND CALLER EQ PUSH2 0x54C JUMPI PUSH1 0x40 MLOAD PUSH3 0x461BCD PUSH1 0xE5 SHL DUP2 MSTORE PUSH1 0x4 ADD PUSH2 0x4A0 SWAP1 PUSH2 0x2013 JUMP JUMPDEST PUSH1 0x17 SLOAD PUSH3 0x10000 SWAP1 DIV PUSH1 0xFF AND ISZERO PUSH2 0x575 JUMPI PUSH1 0x40 MLOAD PUSH3 0x461BCD PUSH1 0xE5 SHL DUP2 MSTORE PUSH1 0x4 ADD PUSH2 0x4A0 SWAP1 PUSH2 0x2258 JUMP JUMPDEST PUSH2 0x57F DUP6 DUP9 PUSH2 0x1401 JUMP JUMPDEST PUSH2 0x59B JUMPI PUSH1 0x40 MLOAD PUSH3 0x461BCD PUSH1 0xE5 SHL DUP2 MSTORE PUSH1 0x4 ADD PUSH2 0x4A0 SWAP1 PUSH2 0x1FAF JUMP JUMPDEST PUSH1 0x9 DUP1 SLOAD PUSH1 0x1 PUSH1 0x1 PUSH1 0xA0 SHL SUB DUP1 DUP11 AND PUSH1 0x1 PUSH1 0x1 PUSH1 0xA0 SHL SUB NOT SWAP3 DUP4 AND OR SWAP1 SWAP3 SSTORE PUSH1 0xA DUP1 SLOAD DUP10 DUP5 AND SWAP1 DUP4 AND OR SWAP1 SSTORE PUSH1 0xF DUP1 SLOAD SWAP3 DUP9 AND SWAP3 SWAP1 SWAP2 AND SWAP2 SWAP1 SWAP2 OR SWAP1 SSTORE DUP4 MLOAD PUSH2 0x5EB SWAP1 PUSH1 0x8 SWAP1 PUSH1 0x20 DUP8 ADD SWAP1 PUSH2 0x1BF1 JUMP JUMPDEST POP PUSH1 0xE DUP4 SWAP1 SSTORE PUSH1 0xD DUP3 SWAP1 SSTORE PUSH2 0x60B PUSH1 0x64 PUSH2 0x605 DUP6 DUP6 PUSH2 0x15B6 JUMP JUMPDEST SWAP1 PUSH2 0x15C9 JUMP JUMPDEST PUSH1 0xB DUP2 SWAP1 SSTORE PUSH2 0x61B SWAP1 DUP5 SWAP1 PUSH2 0x15D5 JUMP JUMPDEST PUSH1 0xC SSTORE PUSH1 0x11 DUP2 SWAP1 SSTORE PUSH1 0x64 DUP3 EQ DUP1 ISZERO PUSH2 0x63D JUMPI POP PUSH1 0xA SLOAD PUSH1 0x1 PUSH1 0x1 PUSH1 0xA0 SHL SUB AND ISZERO ISZERO JUMPDEST ISZERO PUSH2 0x673 JUMPI TIMESTAMP PUSH1 0x12 SSTORE PUSH1 0x11 SLOAD PUSH2 0x663 SWAP1 PUSH2 0x65A SWAP1 PUSH3 0x15180 PUSH2 0x15B6 JUMP JUMPDEST PUSH1 0x12 SLOAD SWAP1 PUSH2 0x15E1 JUMP JUMPDEST PUSH1 0x13 SSTORE PUSH2 0x66E PUSH2 0x15ED JUMP JUMPDEST PUSH2 0x67B JUMP JUMPDEST PUSH2 0x67B PUSH2 0x1603 JUMP JUMPDEST POP POP PUSH1 0x17 DUP1 SLOAD PUSH3 0xFF0000 NOT AND PUSH3 0x10000 OR SWAP1 SSTORE POP POP POP POP POP JUMP JUMPDEST PUSH1 0x1 SLOAD PUSH1 0xF SLOAD PUSH1 0x1 PUSH1 0x1 PUSH1 0xA0 SHL SUB SWAP1 DUP2 AND SWAP2 AND EQ PUSH2 0x6C5 JUMPI PUSH1 0x40 MLOAD PUSH3 0x461BCD PUSH1 0xE5 SHL DUP2 MSTORE PUSH1 0x4 ADD PUSH2 0x4A0 SWAP1 PUSH2 0x230B JUMP JUMPDEST PUSH1 0x3 PUSH1 0x0 SLOAD PUSH1 0xFF AND PUSH1 0x3 DUP2 GT ISZERO PUSH2 0x6EC JUMPI PUSH4 0x4E487B71 PUSH1 0xE0 SHL PUSH1 0x0 MSTORE PUSH1 0x21 PUSH1 0x4 MSTORE PUSH1 0x24 PUSH1 0x0 REVERT JUMPDEST EQ PUSH2 0x709 JUMPI PUSH1 0x40 MLOAD PUSH3 0x461BCD PUSH1 0xE5 SHL DUP2 MSTORE PUSH1 0x4 ADD PUSH2 0x4A0 SWAP1 PUSH2 0x22DF JUMP JUMPDEST PUSH1 0x9 SLOAD PUSH1 0x1 PUSH1 0x1 PUSH1 0xA0 SHL SUB AND CALLER EQ DUP1 PUSH2 0x72C JUMPI POP PUSH1 0xA SLOAD PUSH1 0x1 PUSH1 0x1 PUSH1 0xA0 SHL SUB AND CALLER EQ JUMPDEST PUSH2 0x748 JUMPI PUSH1 0x40 MLOAD PUSH3 0x461BCD PUSH1 0xE5 SHL DUP2 MSTORE PUSH1 0x4 ADD PUSH2 0x4A0 SWAP1 PUSH2 0x1FE6 JUMP JUMPDEST PUSH1 0x9 SLOAD PUSH1 0x1 PUSH1 0x1 PUSH1 0xA0 SHL SUB AND CALLER EQ ISZERO PUSH2 0x796 JUMPI PUSH1 0x7 SLOAD PUSH1 0x1 PUSH1 0xB0 SHL SWAP1 DIV PUSH1 0xFF AND PUSH2 0x784 JUMPI PUSH1 0x40 MLOAD PUSH3 0x461BCD PUSH1 0xE5 SHL DUP2 MSTORE PUSH1 0x4 ADD PUSH2 0x4A0 SWAP1 PUSH2 0x21A9 JUMP JUMPDEST PUSH1 0x7 DUP1 SLOAD PUSH1 0xFF PUSH1 0xB0 SHL NOT AND SWAP1 SSTORE PUSH2 0x7CD JUMP JUMPDEST PUSH1 0x7 SLOAD PUSH1 0x1 PUSH1 0xB8 SHL SWAP1 DIV PUSH1 0xFF AND PUSH2 0x7BF JUMPI PUSH1 0x40 MLOAD PUSH3 0x461BCD PUSH1 0xE5 SHL DUP2 MSTORE PUSH1 0x4 ADD PUSH2 0x4A0 SWAP1 PUSH2 0x21A9 JUMP JUMPDEST PUSH1 0x7 DUP1 SLOAD PUSH1 0xFF PUSH1 0xB8 SHL NOT AND SWAP1 SSTORE JUMPDEST PUSH1 0x5 SLOAD PUSH1 0x40 MLOAD PUSH4 0x10416CC7 PUSH1 0xE0 SHL DUP2 MSTORE PUSH1 0x1 PUSH1 0x1 PUSH1 0xA0 SHL SUB SWAP1 SWAP2 AND SWAP1 PUSH4 0x10416CC7 SWAP1 PUSH2 0x7FD SWAP1 CALLER SWAP1 PUSH1 0x4 ADD PUSH2 0x1E42 JUMP JUMPDEST PUSH1 0x0 PUSH1 0x40 MLOAD DUP1 DUP4 SUB DUP2 PUSH1 0x0 DUP8 DUP1 EXTCODESIZE ISZERO DUP1 ISZERO PUSH2 0x817 JUMPI PUSH1 0x0 DUP1 REVERT JUMPDEST POP GAS CALL ISZERO DUP1 ISZERO PUSH2 0x82B JUMPI RETURNDATASIZE PUSH1 0x0 DUP1 RETURNDATACOPY RETURNDATASIZE PUSH1 0x0 REVERT JUMPDEST POP POP PUSH1 0x17 SLOAD PUSH1 0xFF AND SWAP2 POP DUP2 SWAP1 POP PUSH2 0x849 JUMPI POP PUSH1 0x17 SLOAD PUSH2 0x100 SWAP1 DIV PUSH1 0xFF AND JUMPDEST ISZERO PUSH2 0x879 JUMPI PUSH1 0x10 DUP1 SLOAD PUSH1 0x1 PUSH1 0x1 PUSH1 0xA0 SHL SUB NOT AND CALLER OR SWAP1 SSTORE TIMESTAMP PUSH1 0x14 SSTORE PUSH2 0x86C PUSH2 0x1615 JUMP JUMPDEST PUSH2 0x874 PUSH2 0x16ED JUMP JUMPDEST PUSH2 0x51B JUMP JUMPDEST PUSH1 0x7 SLOAD PUSH1 0x1 PUSH1 0xB0 SHL SWAP1 DIV PUSH1 0xFF AND ISZERO DUP1 ISZERO PUSH2 0x89D JUMPI POP PUSH1 0x7 SLOAD PUSH1 0x1 PUSH1 0xB8 SHL SWAP1 DIV PUSH1 0xFF AND ISZERO JUMPDEST ISZERO PUSH2 0x51B JUMPI PUSH2 0x51B PUSH2 0x15ED JUMP JUMPDEST PUSH1 0x10 SLOAD PUSH1 0x12 SLOAD PUSH1 0x13 SLOAD PUSH1 0x14 SLOAD PUSH1 0x7 SLOAD PUSH1 0x1 PUSH1 0x1 PUSH1 0xA0 SHL SUB SWAP1 SWAP5 AND SWAP4 PUSH1 0xFF PUSH1 0x1 PUSH1 0xA0 SHL DUP3 DIV DUP2 AND SWAP2 PUSH1 0x1 PUSH1 0xA8 SHL SWAP1 DIV AND SWAP1 SWAP2 SWAP3 SWAP4 SWAP5 SWAP6 JUMP JUMPDEST PUSH1 0x2 PUSH1 0x0 SLOAD PUSH1 0xFF AND PUSH1 0x3 DUP2 GT ISZERO PUSH2 0x908 JUMPI PUSH4 0x4E487B71 PUSH1 0xE0 SHL PUSH1 0x0 MSTORE PUSH1 0x21 PUSH1 0x4 MSTORE PUSH1 0x24 PUSH1 0x0 REVERT JUMPDEST EQ ISZERO PUSH2 0x926 JUMPI PUSH1 0x40 MLOAD PUSH3 0x461BCD PUSH1 0xE5 SHL DUP2 MSTORE PUSH1 0x4 ADD PUSH2 0x4A0 SWAP1 PUSH2 0x20CC JUMP JUMPDEST PUSH1 0x3 PUSH1 0x0 SLOAD PUSH1 0xFF AND PUSH1 0x3 DUP2 GT ISZERO PUSH2 0x94D JUMPI PUSH4 0x4E487B71 PUSH1 0xE0 SHL PUSH1 0x0 MSTORE PUSH1 0x21 PUSH1 0x4 MSTORE PUSH1 0x24 PUSH1 0x0 REVERT JUMPDEST EQ ISZERO PUSH2 0x96B JUMPI PUSH1 0x40 MLOAD PUSH3 0x461BCD PUSH1 0xE5 SHL DUP2 MSTORE PUSH1 0x4 ADD PUSH2 0x4A0 SWAP1 PUSH2 0x2129 JUMP JUMPDEST PUSH1 0x9 SLOAD PUSH1 0x1 PUSH1 0x1 PUSH1 0xA0 SHL SUB AND CALLER EQ DUP1 PUSH2 0x98E JUMPI POP PUSH1 0xA SLOAD PUSH1 0x1 PUSH1 0x1 PUSH1 0xA0 SHL SUB AND CALLER EQ JUMPDEST PUSH2 0x9AA JUMPI PUSH1 0x40 MLOAD PUSH3 0x461BCD PUSH1 0xE5 SHL DUP2 MSTORE PUSH1 0x4 ADD PUSH2 0x4A0 SWAP1 PUSH2 0x1FE6 JUMP JUMPDEST PUSH2 0x9B2 PUSH2 0x13B6 JUMP JUMPDEST ISZERO PUSH2 0x9BF JUMPI PUSH2 0x9BF PUSH2 0x1701 JUMP JUMPDEST PUSH1 0x0 DUP1 SLOAD PUSH1 0xFF AND PUSH1 0x3 DUP2 GT ISZERO PUSH2 0x9E5 JUMPI PUSH4 0x4E487B71 PUSH1 0xE0 SHL PUSH1 0x0 MSTORE PUSH1 0x21 PUSH1 0x4 MSTORE PUSH1 0x24 PUSH1 0x0 REVERT JUMPDEST EQ ISZERO PUSH2 0xA1D JUMPI PUSH1 0x9 SLOAD PUSH1 0x1 PUSH1 0x1 PUSH1 0xA0 SHL SUB AND CALLER EQ PUSH2 0xA15 JUMPI PUSH1 0x40 MLOAD PUSH3 0x461BCD PUSH1 0xE5 SHL DUP2 MSTORE PUSH1 0x4 ADD PUSH2 0x4A0 SWAP1 PUSH2 0x1FE6 JUMP JUMPDEST PUSH2 0xA1D PUSH2 0x1701 JUMP JUMPDEST PUSH1 0x1 PUSH1 0x0 SLOAD PUSH1 0xFF AND PUSH1 0x3 DUP2 GT ISZERO PUSH2 0xA44 JUMPI PUSH4 0x4E487B71 PUSH1 0xE0 SHL PUSH1 0x0 MSTORE PUSH1 0x21 PUSH1 0x4 MSTORE PUSH1 0x24 PUSH1 0x0 REVERT JUMPDEST EQ ISZERO PUSH2 0x51B JUMPI PUSH1 0x9 SLOAD PUSH1 0x1 PUSH1 0x1 PUSH1 0xA0 SHL SUB AND CALLER EQ ISZERO PUSH2 0xA75 JUMPI PUSH1 0x7 DUP1 SLOAD PUSH1 0xFF PUSH1 0xA0 SHL NOT AND PUSH1 0x1 PUSH1 0xA0 SHL OR SWAP1 SSTORE PUSH2 0xA89 JUMP JUMPDEST PUSH1 0x7 DUP1 SLOAD PUSH1 0xFF PUSH1 0xA8 SHL NOT AND PUSH1 0x1 PUSH1 0xA8 SHL OR SWAP1 SSTORE JUMPDEST PUSH1 0x7 SLOAD PUSH1 0x1 PUSH1 0xA0 SHL SWAP1 DIV PUSH1 0xFF AND DUP1 ISZERO PUSH2 0xAAB JUMPI POP PUSH1 0x7 SLOAD PUSH1 0x1 PUSH1 0xA8 SHL SWAP1 DIV PUSH1 0xFF AND JUMPDEST ISZERO PUSH2 0x51B JUMPI PUSH2 0x51B PUSH2 0x1701 JUMP JUMPDEST PUSH1 0xA SLOAD PUSH1 0x1 PUSH1 0x1 PUSH1 0xA0 SHL SUB AND CALLER EQ PUSH2 0xAE2 JUMPI PUSH1 0x40 MLOAD PUSH3 0x461BCD PUSH1 0xE5 SHL DUP2 MSTORE PUSH1 0x4 ADD PUSH2 0x4A0 SWAP1 PUSH2 0x2157 JUMP JUMPDEST PUSH1 0x0 DUP1 SLOAD PUSH1 0xFF AND PUSH1 0x3 DUP2 GT ISZERO PUSH2 0xB08 JUMPI PUSH4 0x4E487B71 PUSH1 0xE0 SHL PUSH1 0x0 MSTORE PUSH1 0x21 PUSH1 0x4 MSTORE PUSH1 0x24 PUSH1 0x0 REVERT JUMPDEST EQ PUSH2 0xB25 JUMPI PUSH1 0x40 MLOAD PUSH3 0x461BCD PUSH1 0xE5 SHL DUP2 MSTORE PUSH1 0x4 ADD PUSH2 0x4A0 SWAP1 PUSH2 0x2228 JUMP JUMPDEST PUSH2 0x51B PUSH2 0x1701 JUMP JUMPDEST PUSH1 0x0 SLOAD PUSH1 0x60 SWAP1 PUSH1 0xFF AND PUSH1 0x3 DUP2 GT ISZERO PUSH2 0xB55 JUMPI PUSH4 0x4E487B71 PUSH1 0xE0 SHL PUSH1 0x0 MSTORE PUSH1 0x21 PUSH1 0x4 MSTORE PUSH1 0x24 PUSH1 0x0 REVERT JUMPDEST PUSH2 0xB81 JUMPI POP PUSH1 0x40 DUP1 MLOAD DUP1 DUP3 ADD SWAP1 SWAP2 MSTORE PUSH1 0xB DUP2 MSTORE PUSH11 0x1A5B9A5D1A585B1A5E9959 PUSH1 0xAA SHL PUSH1 0x20 DUP3 ADD MSTORE PUSH2 0xC6E JUMP JUMPDEST PUSH1 0x0 SLOAD PUSH1 0xFF AND PUSH1 0x3 DUP2 GT ISZERO PUSH2 0xBA6 JUMPI PUSH4 0x4E487B71 PUSH1 0xE0 SHL PUSH1 0x0 MSTORE PUSH1 0x21 PUSH1 0x4 MSTORE PUSH1 0x24 PUSH1 0x0 REVERT JUMPDEST PUSH1 0x1 EQ ISZERO PUSH2 0xBD1 JUMPI POP PUSH1 0x40 DUP1 MLOAD DUP1 DUP3 ADD SWAP1 SWAP2 MSTORE PUSH1 0x6 DUP2 MSTORE PUSH6 0x1859DC995959 PUSH1 0xD2 SHL PUSH1 0x20 DUP3 ADD MSTORE PUSH2 0xC6E JUMP JUMPDEST PUSH1 0x0 SLOAD PUSH1 0xFF AND PUSH1 0x3 DUP2 GT ISZERO PUSH2 0xBF6 JUMPI PUSH4 0x4E487B71 PUSH1 0xE0 SHL PUSH1 0x0 MSTORE PUSH1 0x21 PUSH1 0x4 MSTORE PUSH1 0x24 PUSH1 0x0 REVERT JUMPDEST PUSH1 0x3 EQ ISZERO PUSH2 0xC22 JUMPI POP PUSH1 0x40 DUP1 MLOAD DUP1 DUP3 ADD SWAP1 SWAP2 MSTORE PUSH1 0x7 DUP2 MSTORE PUSH7 0x1C1B195919D959 PUSH1 0xCA SHL PUSH1 0x20 DUP3 ADD MSTORE PUSH2 0xC6E JUMP JUMPDEST PUSH1 0x0 SLOAD PUSH1 0xFF AND PUSH1 0x3 DUP2 GT ISZERO PUSH2 0xC47 JUMPI PUSH4 0x4E487B71 PUSH1 0xE0 SHL PUSH1 0x0 MSTORE PUSH1 0x21 PUSH1 0x4 MSTORE PUSH1 0x24 PUSH1 0x0 REVERT JUMPDEST PUSH1 0x2 EQ ISZERO PUSH2 0xC6E JUMPI POP PUSH1 0x40 DUP1 MLOAD DUP1 DUP3 ADD SWAP1 SWAP2 MSTORE PUSH1 0x6 DUP2 MSTORE PUSH6 0x18DB1BDCD959 PUSH1 0xD2 SHL PUSH1 0x20 DUP3 ADD MSTORE JUMPDEST SWAP1 JUMP JUMPDEST PUSH1 0x9 SLOAD PUSH1 0x1 PUSH1 0x1 PUSH1 0xA0 SHL SUB AND CALLER EQ PUSH2 0xC9B JUMPI PUSH1 0x40 MLOAD PUSH3 0x461BCD PUSH1 0xE5 SHL DUP2 MSTORE PUSH1 0x4 ADD PUSH2 0x4A0 SWAP1 PUSH2 0x21D3 JUMP JUMPDEST PUSH1 0xA SLOAD PUSH1 0x1 PUSH1 0x1 PUSH1 0xA0 SHL SUB AND ISZERO DUP1 ISZERO PUSH2 0xCB6 JUMPI POP PUSH1 0xD SLOAD PUSH1 0x64 EQ JUMPDEST PUSH2 0xCD2 JUMPI PUSH1 0x40 MLOAD PUSH3 0x461BCD PUSH1 0xE5 SHL DUP2 MSTORE PUSH1 0x4 ADD PUSH2 0x4A0 SWAP1 PUSH2 0x227D JUMP JUMPDEST PUSH1 0x1 PUSH1 0x1 PUSH1 0xA0 SHL SUB DUP2 AND ISZERO DUP1 ISZERO SWAP1 PUSH2 0xCF3 JUMPI POP PUSH1 0x1 PUSH1 0x1 PUSH1 0xA0 SHL SUB DUP2 AND CALLER EQ ISZERO JUMPDEST PUSH2 0xD0F JUMPI PUSH1 0x40 MLOAD PUSH3 0x461BCD PUSH1 0xE5 SHL DUP2 MSTORE PUSH1 0x4 ADD PUSH2 0x4A0 SWAP1 PUSH2 0x20F9 JUMP JUMPDEST PUSH1 0xA DUP1 SLOAD PUSH1 0x1 PUSH1 0x1 PUSH1 0xA0 SHL SUB NOT AND PUSH1 0x1 PUSH1 0x1 PUSH1 0xA0 SHL SUB DUP4 AND OR SWAP1 SSTORE TIMESTAMP PUSH1 0x12 SSTORE PUSH1 0x11 SLOAD PUSH2 0xD42 SWAP1 PUSH2 0x65A SWAP1 PUSH3 0x15180 PUSH2 0x15B6 JUMP JUMPDEST PUSH1 0x13 SSTORE PUSH2 0xD4D PUSH2 0x15ED JUMP JUMPDEST POP JUMP JUMPDEST PUSH1 0x1 SLOAD PUSH1 0xF SLOAD PUSH1 0x1 PUSH1 0x1 PUSH1 0xA0 SHL SUB SWAP1 DUP2 AND SWAP2 AND EQ PUSH2 0xD80 JUMPI PUSH1 0x40 MLOAD PUSH3 0x461BCD PUSH1 0xE5 SHL DUP2 MSTORE PUSH1 0x4 ADD PUSH2 0x4A0 SWAP1 PUSH2 0x230B JUMP JUMPDEST PUSH1 0x9 SLOAD PUSH1 0x1 PUSH1 0x1 PUSH1 0xA0 SHL SUB AND CALLER EQ DUP1 PUSH2 0xDA3 JUMPI POP PUSH1 0xA SLOAD PUSH1 0x1 PUSH1 0x1 PUSH1 0xA0 SHL SUB AND CALLER EQ JUMPDEST PUSH2 0xDBF JUMPI PUSH1 0x40 MLOAD PUSH3 0x461BCD PUSH1 0xE5 SHL DUP2 MSTORE PUSH1 0x4 ADD PUSH2 0x4A0 SWAP1 PUSH2 0x1FE6 JUMP JUMPDEST PUSH1 0x3 PUSH1 0x0 SLOAD PUSH1 0xFF AND PUSH1 0x3 DUP2 GT ISZERO PUSH2 0xDE6 JUMPI PUSH4 0x4E487B71 PUSH1 0xE0 SHL PUSH1 0x0 MSTORE PUSH1 0x21 PUSH1 0x4 MSTORE PUSH1 0x24 PUSH1 0x0 REVERT JUMPDEST EQ DUP1 PUSH2 0xE16 JUMPI POP PUSH1 0x1 PUSH1 0x0 SLOAD PUSH1 0xFF AND PUSH1 0x3 DUP2 GT ISZERO PUSH2 0xE14 JUMPI PUSH4 0x4E487B71 PUSH1 0xE0 SHL PUSH1 0x0 MSTORE PUSH1 0x21 PUSH1 0x4 MSTORE PUSH1 0x24 PUSH1 0x0 REVERT JUMPDEST EQ JUMPDEST PUSH2 0xE32 JUMPI PUSH1 0x40 MLOAD PUSH3 0x461BCD PUSH1 0xE5 SHL DUP2 MSTORE PUSH1 0x4 ADD PUSH2 0x4A0 SWAP1 PUSH2 0x1FE6 JUMP JUMPDEST PUSH2 0xE3A PUSH2 0x13B6 JUMP JUMPDEST ISZERO PUSH2 0xE57 JUMPI PUSH1 0x40 MLOAD PUSH3 0x461BCD PUSH1 0xE5 SHL DUP2 MSTORE PUSH1 0x4 ADD PUSH2 0x4A0 SWAP1 PUSH2 0x206D JUMP JUMPDEST PUSH1 0x9 SLOAD PUSH1 0x0 SWAP1 PUSH1 0x1 PUSH1 0x1 PUSH1 0xA0 SHL SUB AND CALLER EQ ISZERO PUSH2 0xEB3 JUMPI PUSH1 0x7 SLOAD PUSH1 0x1 PUSH1 0xB0 SHL SWAP1 DIV PUSH1 0xFF AND ISZERO PUSH2 0xE97 JUMPI PUSH1 0x40 MLOAD PUSH3 0x461BCD PUSH1 0xE5 SHL DUP2 MSTORE PUSH1 0x4 ADD PUSH2 0x4A0 SWAP1 PUSH2 0x2181 JUMP JUMPDEST POP PUSH1 0x7 DUP1 SLOAD PUSH1 0xFF PUSH1 0xB0 SHL NOT AND PUSH1 0x1 PUSH1 0xB0 SHL OR SWAP1 SSTORE PUSH1 0xB SLOAD PUSH2 0xEF5 JUMP JUMPDEST PUSH1 0x7 SLOAD PUSH1 0x1 PUSH1 0xB8 SHL SWAP1 DIV PUSH1 0xFF AND ISZERO PUSH2 0xEDD JUMPI PUSH1 0x40 MLOAD PUSH3 0x461BCD PUSH1 0xE5 SHL DUP2 MSTORE PUSH1 0x4 ADD PUSH2 0x4A0 SWAP1 PUSH2 0x2181 JUMP JUMPDEST POP PUSH1 0x7 DUP1 SLOAD PUSH1 0xFF PUSH1 0xB8 SHL NOT AND PUSH1 0x1 PUSH1 0xB8 SHL OR SWAP1 SSTORE PUSH1 0xC SLOAD JUMPDEST PUSH2 0xEFD PUSH2 0x1727 JUMP JUMPDEST PUSH1 0x5 SLOAD PUSH1 0x40 MLOAD PUSH4 0x3A1D9A29 PUSH1 0xE1 SHL DUP2 MSTORE PUSH1 0x1 PUSH1 0x1 PUSH1 0xA0 SHL SUB SWAP1 SWAP2 AND SWAP1 PUSH4 0x743B3452 SWAP1 PUSH2 0xF2F SWAP1 CALLER SWAP1 DUP6 SWAP1 PUSH1 0x4 ADD PUSH2 0x1E80 JUMP JUMPDEST PUSH1 0x0 PUSH1 0x40 MLOAD DUP1 DUP4 SUB DUP2 PUSH1 0x0 DUP8 DUP1 EXTCODESIZE ISZERO DUP1 ISZERO PUSH2 0xF49 JUMPI PUSH1 0x0 DUP1 REVERT JUMPDEST POP GAS CALL ISZERO DUP1 ISZERO PUSH2 0xF5D JUMPI RETURNDATASIZE PUSH1 0x0 DUP1 RETURNDATACOPY RETURNDATASIZE PUSH1 0x0 REVERT JUMPDEST POP POP POP POP POP JUMP JUMPDEST PUSH1 0x15 SLOAD PUSH1 0x17 SLOAD PUSH1 0x16 SLOAD PUSH1 0xFF DUP1 DUP4 AND SWAP3 PUSH2 0x100 SWAP1 DIV AND SWAP1 SWAP2 SWAP3 SWAP4 JUMP JUMPDEST PUSH1 0xA SLOAD PUSH1 0x1 PUSH1 0x1 PUSH1 0xA0 SHL SUB AND CALLER EQ PUSH2 0xFA9 JUMPI PUSH1 0x40 MLOAD PUSH3 0x461BCD PUSH1 0xE5 SHL DUP2 MSTORE PUSH1 0x4 ADD PUSH2 0x4A0 SWAP1 PUSH2 0x2157 JUMP JUMPDEST PUSH1 0x0 DUP1 SLOAD PUSH1 0xFF AND PUSH1 0x3 DUP2 GT ISZERO PUSH2 0xFCF JUMPI PUSH4 0x4E487B71 PUSH1 0xE0 SHL PUSH1 0x0 MSTORE PUSH1 0x21 PUSH1 0x4 MSTORE PUSH1 0x24 PUSH1 0x0 REVERT JUMPDEST EQ PUSH2 0xFEC JUMPI PUSH1 0x40 MLOAD PUSH3 0x461BCD PUSH1 0xE5 SHL DUP2 MSTORE PUSH1 0x4 ADD PUSH2 0x4A0 SWAP1 PUSH2 0x2228 JUMP JUMPDEST PUSH1 0x7 SLOAD PUSH1 0xF SLOAD PUSH1 0x1 PUSH1 0x1 PUSH1 0xA0 SHL SUB SWAP1 DUP2 AND SWAP2 AND EQ ISZERO PUSH2 0x111A JUMPI PUSH1 0xC SLOAD CALLVALUE LT ISZERO PUSH2 0x1027 JUMPI PUSH1 0x40 MLOAD PUSH3 0x461BCD PUSH1 0xE5 SHL DUP2 MSTORE PUSH1 0x4 ADD PUSH2 0x4A0 SWAP1 PUSH2 0x20A4 JUMP JUMPDEST PUSH1 0x6 PUSH1 0x0 SWAP1 SLOAD SWAP1 PUSH2 0x100 EXP SWAP1 DIV PUSH1 0x1 PUSH1 0x1 PUSH1 0xA0 SHL SUB AND PUSH1 0x1 PUSH1 0x1 PUSH1 0xA0 SHL SUB AND PUSH4 0xD0E30DB0 CALLVALUE PUSH1 0x40 MLOAD DUP3 PUSH4 0xFFFFFFFF AND PUSH1 0xE0 SHL DUP2 MSTORE PUSH1 0x4 ADD PUSH1 0x0 PUSH1 0x40 MLOAD DUP1 DUP4 SUB DUP2 DUP6 DUP9 DUP1 EXTCODESIZE ISZERO DUP1 ISZERO PUSH2 0x1077 JUMPI PUSH1 0x0 DUP1 REVERT JUMPDEST POP GAS CALL ISZERO DUP1 ISZERO PUSH2 0x108B JUMPI RETURNDATASIZE PUSH1 0x0 DUP1 RETURNDATACOPY RETURNDATASIZE PUSH1 0x0 REVERT JUMPDEST POP POP PUSH1 0x6 SLOAD PUSH1 0x40 MLOAD PUSH4 0xA9059CBB PUSH1 0xE0 SHL DUP2 MSTORE PUSH1 0x1 PUSH1 0x1 PUSH1 0xA0 SHL SUB SWAP1 SWAP2 AND SWAP4 POP PUSH4 0xA9059CBB SWAP3 POP PUSH2 0x10C2 SWAP2 POP ADDRESS SWAP1 CALLVALUE SWAP1 PUSH1 0x4 ADD PUSH2 0x1E80 JUMP JUMPDEST PUSH1 0x20 PUSH1 0x40 MLOAD DUP1 DUP4 SUB DUP2 PUSH1 0x0 DUP8 DUP1 EXTCODESIZE ISZERO DUP1 ISZERO PUSH2 0x10DC JUMPI PUSH1 0x0 DUP1 REVERT JUMPDEST POP GAS CALL ISZERO DUP1 ISZERO PUSH2 0x10F0 JUMPI RETURNDATASIZE PUSH1 0x0 DUP1 RETURNDATACOPY RETURNDATASIZE PUSH1 0x0 REVERT JUMPDEST POP POP POP POP PUSH1 0x40 MLOAD RETURNDATASIZE PUSH1 0x1F NOT PUSH1 0x1F DUP3 ADD AND DUP3 ADD DUP1 PUSH1 0x40 MSTORE POP DUP2 ADD SWAP1 PUSH2 0x1114 SWAP2 SWAP1 PUSH2 0x1DBF JUMP JUMPDEST POP PUSH2 0x11AF JUMP JUMPDEST PUSH1 0x3 SLOAD PUSH1 0xF SLOAD PUSH1 0xA SLOAD PUSH1 0xC SLOAD PUSH1 0x40 MLOAD PUSH4 0x478DA03D PUSH1 0xE1 SHL DUP2 MSTORE PUSH1 0x1 PUSH1 0x1 PUSH1 0xA0 SHL SUB SWAP5 DUP6 AND SWAP5 PUSH4 0x8F1B407A SWAP5 PUSH2 0x115B SWAP5 SWAP1 DUP3 AND SWAP4 SWAP2 AND SWAP2 ADDRESS SWAP2 SWAP1 PUSH1 0x4 ADD PUSH2 0x1E56 JUMP JUMPDEST PUSH1 0x20 PUSH1 0x40 MLOAD DUP1 DUP4 SUB DUP2 PUSH1 0x0 DUP8 DUP1 EXTCODESIZE ISZERO DUP1 ISZERO PUSH2 0x1175 JUMPI PUSH1 0x0 DUP1 REVERT JUMPDEST POP GAS CALL ISZERO DUP1 ISZERO PUSH2 0x1189 JUMPI RETURNDATASIZE PUSH1 0x0 DUP1 RETURNDATACOPY RETURNDATASIZE PUSH1 0x0 REVERT JUMPDEST POP POP POP POP PUSH1 0x40 MLOAD RETURNDATASIZE PUSH1 0x1F NOT PUSH1 0x1F DUP3 ADD AND DUP3 ADD DUP1 PUSH1 0x40 MSTORE POP DUP2 ADD SWAP1 PUSH2 0x11AD SWAP2 SWAP1 PUSH2 0x1DBF JUMP JUMPDEST POP JUMPDEST PUSH1 0xF SLOAD PUSH1 0xA SLOAD PUSH2 0x11CB SWAP2 PUSH1 0x1 PUSH1 0x1 PUSH1 0xA0 SHL SUB SWAP1 DUP2 AND SWAP2 AND PUSH2 0x1401 JUMP JUMPDEST PUSH2 0x11E7 JUMPI PUSH1 0x40 MLOAD PUSH3 0x461BCD PUSH1 0xE5 SHL DUP2 MSTORE PUSH1 0x4 ADD PUSH2 0x4A0 SWAP1 PUSH2 0x1F78 JUMP JUMPDEST TIMESTAMP PUSH1 0x12 SSTORE PUSH1 0x11 SLOAD PUSH2 0x11FF SWAP1 PUSH2 0x65A SWAP1 PUSH3 0x15180 PUSH2 0x15B6 JUMP JUMPDEST PUSH1 0x13 SSTORE PUSH2 0x51B PUSH2 0x15ED JUMP JUMPDEST PUSH1 0x7 SLOAD PUSH1 0xFF PUSH1 0x1 PUSH1 0xB0 SHL DUP3 DIV DUP2 AND SWAP2 PUSH1 0x1 PUSH1 0xB8 SHL SWAP1 DIV AND SWAP1 SWAP2 JUMP JUMPDEST PUSH1 0x1 PUSH1 0x0 SLOAD PUSH1 0xFF AND PUSH1 0x3 DUP2 GT ISZERO PUSH2 0x124C JUMPI PUSH4 0x4E487B71 PUSH1 0xE0 SHL PUSH1 0x0 MSTORE PUSH1 0x21 PUSH1 0x4 MSTORE PUSH1 0x24 PUSH1 0x0 REVERT JUMPDEST EQ PUSH2 0x1269 JUMPI PUSH1 0x40 MLOAD PUSH3 0x461BCD PUSH1 0xE5 SHL DUP2 MSTORE PUSH1 0x4 ADD PUSH2 0x4A0 SWAP1 PUSH2 0x22B4 JUMP JUMPDEST PUSH1 0x9 SLOAD PUSH1 0x1 PUSH1 0x1 PUSH1 0xA0 SHL SUB AND CALLER EQ DUP1 PUSH2 0x128C JUMPI POP PUSH1 0xA SLOAD PUSH1 0x1 PUSH1 0x1 PUSH1 0xA0 SHL SUB AND CALLER EQ JUMPDEST PUSH2 0x12A8 JUMPI PUSH1 0x40 MLOAD PUSH3 0x461BCD PUSH1 0xE5 SHL DUP2 MSTORE PUSH1 0x4 ADD PUSH2 0x4A0 SWAP1 PUSH2 0x1FE6 JUMP JUMPDEST PUSH1 0x9 SLOAD PUSH1 0x1 PUSH1 0x1 PUSH1 0xA0 SHL SUB AND CALLER EQ ISZERO PUSH2 0x50D JUMPI PUSH1 0x7 DUP1 SLOAD PUSH1 0xFF PUSH1 0xA0 SHL NOT AND SWAP1 SSTORE PUSH2 0x51B JUMP JUMPDEST PUSH1 0x1 SLOAD PUSH1 0xF SLOAD PUSH1 0x1 PUSH1 0x1 PUSH1 0xA0 SHL SUB SWAP1 DUP2 AND SWAP2 AND EQ PUSH2 0x12FD JUMPI PUSH1 0x40 MLOAD PUSH3 0x461BCD PUSH1 0xE5 SHL DUP2 MSTORE PUSH1 0x4 ADD PUSH2 0x4A0 SWAP1 PUSH2 0x230B JUMP JUMPDEST PUSH1 0x3 PUSH1 0x0 SLOAD PUSH1 0xFF AND PUSH1 0x3 DUP2 GT ISZERO PUSH2 0x1324 JUMPI PUSH4 0x4E487B71 PUSH1 0xE0 SHL PUSH1 0x0 MSTORE PUSH1 0x21 PUSH1 0x4 MSTORE PUSH1 0x24 PUSH1 0x0 REVERT JUMPDEST EQ PUSH2 0x1341 JUMPI PUSH1 0x40 MLOAD PUSH3 0x461BCD PUSH1 0xE5 SHL DUP2 MSTORE PUSH1 0x4 ADD PUSH2 0x4A0 SWAP1 PUSH2 0x22DF JUMP JUMPDEST PUSH1 0x9 SLOAD PUSH1 0x1 PUSH1 0x1 PUSH1 0xA0 SHL SUB AND CALLER EQ DUP1 PUSH2 0x1364 JUMPI POP PUSH1 0xA SLOAD PUSH1 0x1 PUSH1 0x1 PUSH1 0xA0 SHL SUB AND CALLER EQ JUMPDEST PUSH2 0x1380 JUMPI PUSH1 0x40 MLOAD PUSH3 0x461BCD PUSH1 0xE5 SHL DUP2 MSTORE PUSH1 0x4 ADD PUSH2 0x4A0 SWAP1 PUSH2 0x1FE6 JUMP JUMPDEST PUSH2 0x1388 PUSH2 0x13B6 JUMP JUMPDEST PUSH2 0x13A4 JUMPI PUSH1 0x40 MLOAD PUSH3 0x461BCD PUSH1 0xE5 SHL DUP2 MSTORE PUSH1 0x4 ADD PUSH2 0x4A0 SWAP1 PUSH2 0x21FD JUMP JUMPDEST PUSH2 0x13AE PUSH1 0x64 PUSH2 0x173B JUMP JUMPDEST PUSH2 0x51B PUSH2 0x1615 JUMP JUMPDEST PUSH1 0x0 DUP1 PUSH1 0x0 SLOAD PUSH1 0xFF AND PUSH1 0x3 DUP2 GT ISZERO PUSH2 0x13DE JUMPI PUSH4 0x4E487B71 PUSH1 0xE0 SHL PUSH1 0x0 MSTORE PUSH1 0x21 PUSH1 0x4 MSTORE PUSH1 0x24 PUSH1 0x0 REVERT JUMPDEST EQ DUP1 PUSH2 0x13EA JUMPI POP PUSH1 0x13 SLOAD ISZERO JUMPDEST ISZERO PUSH2 0x13F7 JUMPI POP PUSH1 0x0 PUSH2 0xC6E JUMP JUMPDEST POP PUSH1 0x13 SLOAD TIMESTAMP LT ISZERO SWAP1 JUMP JUMPDEST PUSH1 0x7 SLOAD PUSH1 0x0 SWAP1 DUP2 SWAP1 PUSH1 0x1 PUSH1 0x1 PUSH1 0xA0 SHL SUB DUP6 DUP2 AND SWAP2 AND EQ ISZERO PUSH2 0x14A3 JUMPI PUSH1 0x6 SLOAD PUSH1 0x40 MLOAD PUSH4 0x70A08231 PUSH1 0xE0 SHL DUP2 MSTORE PUSH1 0x1 PUSH1 0x1 PUSH1 0xA0 SHL SUB SWAP1 SWAP2 AND SWAP1 PUSH4 0x70A08231 SWAP1 PUSH2 0x144C SWAP1 ADDRESS SWAP1 PUSH1 0x4 ADD PUSH2 0x1E42 JUMP JUMPDEST PUSH1 0x20 PUSH1 0x40 MLOAD DUP1 DUP4 SUB DUP2 DUP7 DUP1 EXTCODESIZE ISZERO DUP1 ISZERO PUSH2 0x1464 JUMPI PUSH1 0x0 DUP1 REVERT JUMPDEST POP GAS STATICCALL ISZERO DUP1 ISZERO PUSH2 0x1478 JUMPI RETURNDATASIZE PUSH1 0x0 DUP1 RETURNDATACOPY RETURNDATASIZE PUSH1 0x0 REVERT JUMPDEST POP POP POP POP PUSH1 0x40 MLOAD RETURNDATASIZE PUSH1 0x1F NOT PUSH1 0x1F DUP3 ADD AND DUP3 ADD DUP1 PUSH1 0x40 MSTORE POP DUP2 ADD SWAP1 PUSH2 0x149C SWAP2 SWAP1 PUSH2 0x1DDF JUMP JUMPDEST SWAP1 POP PUSH2 0x1568 JUMP JUMPDEST PUSH1 0x1 SLOAD PUSH1 0x1 PUSH1 0x1 PUSH1 0xA0 SHL SUB DUP6 DUP2 AND SWAP2 AND EQ ISZERO PUSH2 0x14E9 JUMPI PUSH1 0x2 SLOAD PUSH1 0x40 MLOAD PUSH4 0x70A08231 PUSH1 0xE0 SHL DUP2 MSTORE PUSH1 0x1 PUSH1 0x1 PUSH1 0xA0 SHL SUB SWAP1 SWAP2 AND SWAP1 PUSH4 0x70A08231 SWAP1 PUSH2 0x144C SWAP1 ADDRESS SWAP1 PUSH1 0x4 ADD PUSH2 0x1E42 JUMP JUMPDEST PUSH1 0x40 MLOAD PUSH4 0x70A08231 PUSH1 0xE0 SHL DUP2 MSTORE PUSH1 0x1 PUSH1 0x1 PUSH1 0xA0 SHL SUB DUP6 AND SWAP1 PUSH4 0x70A08231 SWAP1 PUSH2 0x1515 SWAP1 ADDRESS SWAP1 PUSH1 0x4 ADD PUSH2 0x1E42 JUMP JUMPDEST PUSH1 0x20 PUSH1 0x40 MLOAD DUP1 DUP4 SUB DUP2 DUP7 DUP1 EXTCODESIZE ISZERO DUP1 ISZERO PUSH2 0x152D JUMPI PUSH1 0x0 DUP1 REVERT JUMPDEST POP GAS STATICCALL ISZERO DUP1 ISZERO PUSH2 0x1541 JUMPI RETURNDATASIZE PUSH1 0x0 DUP1 RETURNDATACOPY RETURNDATASIZE PUSH1 0x0 REVERT JUMPDEST POP POP POP POP PUSH1 0x40 MLOAD RETURNDATASIZE PUSH1 0x1F NOT PUSH1 0x1F DUP3 ADD AND DUP3 ADD DUP1 PUSH1 0x40 MSTORE POP DUP2 ADD SWAP1 PUSH2 0x1565 SWAP2 SWAP1 PUSH2 0x1DDF JUMP JUMPDEST SWAP1 POP JUMPDEST PUSH1 0x9 SLOAD PUSH1 0x1 PUSH1 0x1 PUSH1 0xA0 SHL SUB DUP5 DUP2 AND SWAP2 AND EQ ISZERO PUSH2 0x1597 JUMPI PUSH1 0xB SLOAD DUP2 EQ ISZERO PUSH2 0x1592 JUMPI PUSH1 0x1 SWAP2 POP POP PUSH2 0x15B0 JUMP JUMPDEST PUSH2 0x15AA JUMP JUMPDEST PUSH1 0xE SLOAD DUP2 LT PUSH2 0x15AA JUMPI PUSH1 0x1 SWAP2 POP POP PUSH2 0x15B0 JUMP JUMPDEST PUSH1 0x0 SWAP2 POP POP JUMPDEST SWAP3 SWAP2 POP POP JUMP JUMPDEST PUSH1 0x0 PUSH2 0x15C2 DUP3 DUP5 PUSH2 0x2392 JUMP JUMPDEST SWAP4 SWAP3 POP POP POP JUMP JUMPDEST PUSH1 0x0 PUSH2 0x15C2 DUP3 DUP5 PUSH2 0x2372 JUMP JUMPDEST PUSH1 0x0 PUSH2 0x15C2 DUP3 DUP5 PUSH2 0x23B1 JUMP JUMPDEST PUSH1 0x0 PUSH2 0x15C2 DUP3 DUP5 PUSH2 0x235A JUMP JUMPDEST PUSH1 0x0 DUP1 SLOAD PUSH1 0x1 SWAP2 SWAP1 PUSH1 0xFF NOT AND DUP3 DUP1 JUMPDEST MUL OR SWAP1 SSTORE POP JUMP JUMPDEST PUSH1 0x0 DUP1 SLOAD DUP2 SWAP1 PUSH1 0xFF NOT AND PUSH1 0x1 DUP3 PUSH2 0x15FC JUMP JUMPDEST PUSH1 0x9 SLOAD PUSH1 0x1 PUSH1 0x1 PUSH1 0xA0 SHL SUB AND CALLER EQ ISZERO PUSH2 0x1687 JUMPI PUSH1 0x7 SLOAD PUSH1 0x1 PUSH1 0xB0 SHL SWAP1 DIV PUSH1 0xFF AND ISZERO DUP1 ISZERO PUSH2 0x1645 JUMPI POP PUSH1 0x17 SLOAD PUSH1 0xFF AND ISZERO JUMPDEST PUSH2 0x1661 JUMPI PUSH1 0x40 MLOAD PUSH3 0x461BCD PUSH1 0xE5 SHL DUP2 MSTORE PUSH1 0x4 ADD PUSH2 0x4A0 SWAP1 PUSH2 0x203F JUMP JUMPDEST PUSH1 0x17 DUP1 SLOAD PUSH1 0xFF NOT AND PUSH1 0x1 OR SWAP1 SSTORE PUSH1 0x9 SLOAD PUSH1 0x15 SLOAD PUSH2 0x874 SWAP2 PUSH1 0x1 PUSH1 0x1 PUSH1 0xA0 SHL SUB AND SWAP1 PUSH2 0x17B2 JUMP JUMPDEST PUSH1 0x7 SLOAD PUSH1 0x1 PUSH1 0xB8 SHL SWAP1 DIV PUSH1 0xFF AND ISZERO DUP1 ISZERO PUSH2 0x16A9 JUMPI POP PUSH1 0x17 SLOAD PUSH2 0x100 SWAP1 DIV PUSH1 0xFF AND ISZERO JUMPDEST PUSH2 0x16C5 JUMPI PUSH1 0x40 MLOAD PUSH3 0x461BCD PUSH1 0xE5 SHL DUP2 MSTORE PUSH1 0x4 ADD PUSH2 0x4A0 SWAP1 PUSH2 0x203F JUMP JUMPDEST PUSH1 0x17 DUP1 SLOAD PUSH2 0xFF00 NOT AND PUSH2 0x100 OR SWAP1 SSTORE PUSH1 0xA SLOAD PUSH1 0x16 SLOAD PUSH2 0x51B SWAP2 PUSH1 0x1 PUSH1 0x1 PUSH1 0xA0 SHL SUB AND SWAP1 PUSH2 0x17B2 JUMP JUMPDEST PUSH1 0x0 DUP1 SLOAD PUSH1 0x2 SWAP2 SWAP1 PUSH1 0xFF NOT AND PUSH1 0x1 DUP4 PUSH2 0x15FC JUMP JUMPDEST PUSH1 0x10 DUP1 SLOAD PUSH1 0x1 PUSH1 0x1 PUSH1 0xA0 SHL SUB NOT AND CALLER OR SWAP1 SSTORE TIMESTAMP PUSH1 0x14 SSTORE PUSH2 0x171F PUSH2 0x19FE JUMP JUMPDEST PUSH2 0x51B PUSH2 0x16ED JUMP JUMPDEST PUSH1 0x0 DUP1 SLOAD PUSH1 0x3 SWAP2 SWAP1 PUSH1 0xFF NOT AND PUSH1 0x1 DUP4 PUSH2 0x15FC JUMP JUMPDEST PUSH2 0x1755 PUSH1 0x64 PUSH2 0x605 DUP4 PUSH1 0xB SLOAD PUSH2 0x15B6 SWAP1 SWAP2 SWAP1 PUSH4 0xFFFFFFFF AND JUMP JUMPDEST PUSH1 0x15 SSTORE PUSH1 0x1 PUSH1 0x0 SLOAD PUSH1 0xFF AND PUSH1 0x3 DUP2 GT ISZERO PUSH2 0x177F JUMPI PUSH4 0x4E487B71 PUSH1 0xE0 SHL PUSH1 0x0 MSTORE PUSH1 0x21 PUSH1 0x4 MSTORE PUSH1 0x24 PUSH1 0x0 REVERT JUMPDEST EQ DUP1 ISZERO PUSH2 0x178D JUMPI POP PUSH1 0xC SLOAD ISZERO ISZERO JUMPDEST ISZERO PUSH2 0xD4D JUMPI PUSH2 0x17AC PUSH1 0x64 PUSH2 0x605 DUP4 PUSH1 0xC SLOAD PUSH2 0x15B6 SWAP1 SWAP2 SWAP1 PUSH4 0xFFFFFFFF AND JUMP JUMPDEST PUSH1 0x16 SSTORE POP JUMP JUMPDEST PUSH1 0x7 SLOAD PUSH1 0xF SLOAD PUSH1 0x1 PUSH1 0x1 PUSH1 0xA0 SHL SUB SWAP1 DUP2 AND SWAP2 AND EQ ISZERO PUSH2 0x1869 JUMPI PUSH1 0x6 SLOAD PUSH1 0x40 MLOAD PUSH4 0x2E1A7D4D PUSH1 0xE0 SHL DUP2 MSTORE PUSH1 0x1 PUSH1 0x1 PUSH1 0xA0 SHL SUB SWAP1 SWAP2 AND SWAP1 PUSH4 0x2E1A7D4D SWAP1 PUSH2 0x17FB SWAP1 DUP5 SWAP1 PUSH1 0x4 ADD PUSH2 0x2334 JUMP JUMPDEST PUSH1 0x0 PUSH1 0x40 MLOAD DUP1 DUP4 SUB DUP2 PUSH1 0x0 DUP8 DUP1 EXTCODESIZE ISZERO DUP1 ISZERO PUSH2 0x1815 JUMPI PUSH1 0x0 DUP1 REVERT JUMPDEST POP GAS CALL ISZERO DUP1 ISZERO PUSH2 0x1829 JUMPI RETURNDATASIZE PUSH1 0x0 DUP1 RETURNDATACOPY RETURNDATASIZE PUSH1 0x0 REVERT JUMPDEST POP POP PUSH1 0x40 MLOAD PUSH1 0x1 PUSH1 0x1 PUSH1 0xA0 SHL SUB DUP6 AND SWAP3 POP DUP4 ISZERO PUSH2 0x8FC MUL SWAP2 POP DUP4 SWAP1 PUSH1 0x0 DUP2 DUP2 DUP2 DUP6 DUP9 DUP9 CALL SWAP4 POP POP POP POP ISZERO DUP1 ISZERO PUSH2 0x1863 JUMPI RETURNDATASIZE PUSH1 0x0 DUP1 RETURNDATACOPY RETURNDATASIZE PUSH1 0x0 REVERT JUMPDEST POP PUSH2 0x19FA JUMP JUMPDEST PUSH1 0x1 SLOAD PUSH1 0xF SLOAD PUSH1 0x1 PUSH1 0x1 PUSH1 0xA0 SHL SUB SWAP1 DUP2 AND SWAP2 AND EQ ISZERO PUSH2 0x1974 JUMPI PUSH1 0x2 SLOAD PUSH1 0x3 SLOAD PUSH1 0x40 MLOAD PUSH4 0x95EA7B3 PUSH1 0xE0 SHL DUP2 MSTORE PUSH1 0x1 PUSH1 0x1 PUSH1 0xA0 SHL SUB SWAP3 DUP4 AND SWAP3 PUSH4 0x95EA7B3 SWAP3 PUSH2 0x18B8 SWAP3 SWAP2 AND SWAP1 DUP6 SWAP1 PUSH1 0x4 ADD PUSH2 0x1E80 JUMP JUMPDEST PUSH1 0x20 PUSH1 0x40 MLOAD DUP1 DUP4 SUB DUP2 PUSH1 0x0 DUP8 DUP1 EXTCODESIZE ISZERO DUP1 ISZERO PUSH2 0x18D2 JUMPI PUSH1 0x0 DUP1 REVERT JUMPDEST POP GAS CALL ISZERO DUP1 ISZERO PUSH2 0x18E6 JUMPI RETURNDATASIZE PUSH1 0x0 DUP1 RETURNDATACOPY RETURNDATASIZE PUSH1 0x0 REVERT JUMPDEST POP POP POP POP PUSH1 0x40 MLOAD RETURNDATASIZE PUSH1 0x1F NOT PUSH1 0x1F DUP3 ADD AND DUP3 ADD DUP1 PUSH1 0x40 MSTORE POP DUP2 ADD SWAP1 PUSH2 0x190A SWAP2 SWAP1 PUSH2 0x1DBF JUMP JUMPDEST POP PUSH1 0x3 SLOAD PUSH1 0x40 MLOAD PUSH4 0x6DA8C6D9 PUSH1 0xE1 SHL DUP2 MSTORE PUSH1 0x1 PUSH1 0x1 PUSH1 0xA0 SHL SUB SWAP1 SWAP2 AND SWAP1 PUSH4 0xDB518DB2 SWAP1 PUSH2 0x193D SWAP1 DUP6 SWAP1 DUP6 SWAP1 PUSH1 0x4 ADD PUSH2 0x1E80 JUMP JUMPDEST PUSH1 0x0 PUSH1 0x40 MLOAD DUP1 DUP4 SUB DUP2 PUSH1 0x0 DUP8 DUP1 EXTCODESIZE ISZERO DUP1 ISZERO PUSH2 0x1957 JUMPI PUSH1 0x0 DUP1 REVERT JUMPDEST POP GAS CALL ISZERO DUP1 ISZERO PUSH2 0x196B JUMPI RETURNDATASIZE PUSH1 0x0 DUP1 RETURNDATACOPY RETURNDATASIZE PUSH1 0x0 REVERT JUMPDEST POP POP POP POP PUSH2 0x19FA JUMP JUMPDEST PUSH1 0xF SLOAD PUSH1 0x40 MLOAD PUSH4 0xA9059CBB PUSH1 0xE0 SHL DUP2 MSTORE PUSH1 0x1 PUSH1 0x1 PUSH1 0xA0 SHL SUB SWAP1 SWAP2 AND SWAP1 PUSH4 0xA9059CBB SWAP1 PUSH2 0x19A6 SWAP1 DUP6 SWAP1 DUP6 SWAP1 PUSH1 0x4 ADD PUSH2 0x1E80 JUMP JUMPDEST PUSH1 0x20 PUSH1 0x40 MLOAD DUP1 DUP4 SUB DUP2 PUSH1 0x0 DUP8 DUP1 EXTCODESIZE ISZERO DUP1 ISZERO PUSH2 0x19C0 JUMPI PUSH1 0x0 DUP1 REVERT JUMPDEST POP GAS CALL ISZERO DUP1 ISZERO PUSH2 0x19D4 JUMPI RETURNDATASIZE PUSH1 0x0 DUP1 RETURNDATACOPY RETURNDATASIZE PUSH1 0x0 REVERT JUMPDEST POP POP POP POP PUSH1 0x40 MLOAD RETURNDATASIZE PUSH1 0x1F NOT PUSH1 0x1F DUP3 ADD AND DUP3 ADD DUP1 PUSH1 0x40 MSTORE POP DUP2 ADD SWAP1 PUSH2 0x19F8 SWAP2 SWAP1 PUSH2 0x1DBF JUMP JUMPDEST POP JUMPDEST POP POP JUMP JUMPDEST PUSH1 0x0 DUP1 SLOAD PUSH1 0xFF AND PUSH1 0x3 DUP2 GT ISZERO PUSH2 0x1A24 JUMPI PUSH4 0x4E487B71 PUSH1 0xE0 SHL PUSH1 0x0 MSTORE PUSH1 0x21 PUSH1 0x4 MSTORE PUSH1 0x24 PUSH1 0x0 REVERT JUMPDEST EQ DUP1 PUSH2 0x1A33 JUMPI POP PUSH2 0x1A33 PUSH2 0x13B6 JUMP JUMPDEST ISZERO PUSH2 0x1A47 JUMPI PUSH2 0x1A42 PUSH1 0x64 PUSH2 0x173B JUMP JUMPDEST PUSH2 0x1B9F JUMP JUMPDEST PUSH1 0x0 PUSH2 0x1A67 PUSH3 0x15180 PUSH2 0x605 PUSH1 0x12 SLOAD PUSH1 0x14 SLOAD PUSH2 0x15D5 SWAP1 SWAP2 SWAP1 PUSH4 0xFFFFFFFF AND JUMP JUMPDEST PUSH1 0x11 SLOAD SWAP1 SWAP2 POP PUSH1 0x0 SWAP1 PUSH2 0x1A8A SWAP1 PUSH2 0x605 PUSH2 0x7D0 PUSH2 0x1A84 DUP4 DUP8 PUSH2 0x15D5 JUMP JUMPDEST SWAP1 PUSH2 0x15B6 JUMP JUMPDEST SWAP1 POP DUP2 PUSH2 0x1AA0 JUMPI PUSH2 0x1A9B PUSH1 0x50 PUSH2 0x173B JUMP JUMPDEST PUSH2 0x1AE5 JUMP JUMPDEST PUSH1 0x64 DUP2 LT ISZERO PUSH2 0x1AB3 JUMPI PUSH2 0x1A9B PUSH1 0x63 PUSH2 0x173B JUMP JUMPDEST PUSH2 0x7D0 DUP2 GT ISZERO PUSH2 0x1AC7 JUMPI PUSH2 0x1A9B PUSH1 0x50 PUSH2 0x173B JUMP JUMPDEST PUSH2 0x1AE5 PUSH2 0x1AD5 DUP3 PUSH1 0x64 PUSH2 0x15C9 JUMP JUMPDEST PUSH2 0x1AE0 SWAP1 PUSH1 0x64 PUSH2 0x23B1 JUMP JUMPDEST PUSH2 0x173B JUMP JUMPDEST PUSH1 0x0 PUSH2 0x1B0A PUSH2 0x1B01 PUSH1 0x16 SLOAD PUSH1 0x15 SLOAD PUSH2 0x15E1 SWAP1 SWAP2 SWAP1 PUSH4 0xFFFFFFFF AND JUMP JUMPDEST PUSH1 0xE SLOAD SWAP1 PUSH2 0x15D5 JUMP JUMPDEST SWAP1 POP PUSH2 0x1B9B PUSH1 0x0 PUSH1 0x1 SWAP1 SLOAD SWAP1 PUSH2 0x100 EXP SWAP1 DIV PUSH1 0x1 PUSH1 0x1 PUSH1 0xA0 SHL SUB AND PUSH1 0x1 PUSH1 0x1 PUSH1 0xA0 SHL SUB AND PUSH4 0x50228201 PUSH1 0x40 MLOAD DUP2 PUSH4 0xFFFFFFFF AND PUSH1 0xE0 SHL DUP2 MSTORE PUSH1 0x4 ADD PUSH1 0x20 PUSH1 0x40 MLOAD DUP1 DUP4 SUB DUP2 DUP7 DUP1 EXTCODESIZE ISZERO DUP1 ISZERO PUSH2 0x1B5D JUMPI PUSH1 0x0 DUP1 REVERT JUMPDEST POP GAS STATICCALL ISZERO DUP1 ISZERO PUSH2 0x1B71 JUMPI RETURNDATASIZE PUSH1 0x0 DUP1 RETURNDATACOPY RETURNDATASIZE PUSH1 0x0 REVERT JUMPDEST POP POP POP POP PUSH1 0x40 MLOAD RETURNDATASIZE PUSH1 0x1F NOT PUSH1 0x1F DUP3 ADD AND DUP3 ADD DUP1 PUSH1 0x40 MSTORE POP DUP2 ADD SWAP1 PUSH2 0x1B95 SWAP2 SWAP1 PUSH2 0x1CA6 JUMP JUMPDEST DUP3 PUSH2 0x17B2 JUMP JUMPDEST POP POP POP JUMPDEST PUSH1 0x17 DUP1 SLOAD PUSH2 0xFF00 NOT PUSH1 0xFF NOT SWAP1 SWAP2 AND PUSH1 0x1 OR AND PUSH2 0x100 OR SWAP1 SSTORE PUSH1 0x9 SLOAD PUSH1 0x15 SLOAD PUSH2 0x1BD0 SWAP2 PUSH1 0x1 PUSH1 0x1 PUSH1 0xA0 SHL SUB AND SWAP1 PUSH2 0x17B2 JUMP JUMPDEST PUSH1 0x16 SLOAD ISZERO PUSH2 0x51B JUMPI PUSH1 0xA SLOAD PUSH1 0x16 SLOAD PUSH2 0x51B SWAP2 PUSH1 0x1 PUSH1 0x1 PUSH1 0xA0 SHL SUB AND SWAP1 PUSH2 0x17B2 JUMP JUMPDEST DUP3 DUP1 SLOAD PUSH2 0x1BFD SWAP1 PUSH2 0x23C8 JUMP JUMPDEST SWAP1 PUSH1 0x0 MSTORE PUSH1 0x20 PUSH1 0x0 KECCAK256 SWAP1 PUSH1 0x1F ADD PUSH1 0x20 SWAP1 DIV DUP2 ADD SWAP3 DUP3 PUSH2 0x1C1F JUMPI PUSH1 0x0 DUP6 SSTORE PUSH2 0x1C65 JUMP JUMPDEST DUP3 PUSH1 0x1F LT PUSH2 0x1C38 JUMPI DUP1 MLOAD PUSH1 0xFF NOT AND DUP4 DUP1 ADD OR DUP6 SSTORE PUSH2 0x1C65 JUMP JUMPDEST DUP3 DUP1 ADD PUSH1 0x1 ADD DUP6 SSTORE DUP3 ISZERO PUSH2 0x1C65 JUMPI SWAP2 DUP3 ADD JUMPDEST DUP3 DUP2 GT ISZERO PUSH2 0x1C65 JUMPI DUP3 MLOAD DUP3 SSTORE SWAP2 PUSH1 0x20 ADD SWAP2 SWAP1 PUSH1 0x1 ADD SWAP1 PUSH2 0x1C4A JUMP JUMPDEST POP PUSH2 0x1C71 SWAP3 SWAP2 POP PUSH2 0x1C75 JUMP JUMPDEST POP SWAP1 JUMP JUMPDEST JUMPDEST DUP1 DUP3 GT ISZERO PUSH2 0x1C71 JUMPI PUSH1 0x0 DUP2 SSTORE PUSH1 0x1 ADD PUSH2 0x1C76 JUMP JUMPDEST PUSH1 0x0 PUSH1 0x20 DUP3 DUP5 SUB SLT ISZERO PUSH2 0x1C9B JUMPI DUP1 DUP2 REVERT JUMPDEST DUP2 CALLDATALOAD PUSH2 0x15C2 DUP2 PUSH2 0x242F JUMP JUMPDEST PUSH1 0x0 PUSH1 0x20 DUP3 DUP5 SUB SLT ISZERO PUSH2 0x1CB7 JUMPI DUP1 DUP2 REVERT JUMPDEST DUP2 MLOAD PUSH2 0x15C2 DUP2 PUSH2 0x242F JUMP JUMPDEST PUSH1 0x0 DUP1 PUSH1 0x0 DUP1 PUSH1 0x0 DUP1 PUSH1 0x0 PUSH1 0xE0 DUP9 DUP11 SUB SLT ISZERO PUSH2 0x1CDC JUMPI DUP3 DUP4 REVERT JUMPDEST DUP8 CALLDATALOAD PUSH2 0x1CE7 DUP2 PUSH2 0x242F JUMP JUMPDEST SWAP7 POP PUSH1 0x20 DUP9 ADD CALLDATALOAD PUSH2 0x1CF7 DUP2 PUSH2 0x242F JUMP JUMPDEST SWAP6 POP PUSH1 0x40 DUP9 ADD CALLDATALOAD PUSH2 0x1D07 DUP2 PUSH2 0x242F JUMP JUMPDEST SWAP5 POP PUSH1 0x60 DUP9 ADD CALLDATALOAD PUSH8 0xFFFFFFFFFFFFFFFF DUP1 DUP3 GT ISZERO PUSH2 0x1D23 JUMPI DUP5 DUP6 REVERT JUMPDEST DUP2 DUP11 ADD SWAP2 POP DUP11 PUSH1 0x1F DUP4 ADD SLT PUSH2 0x1D36 JUMPI DUP5 DUP6 REVERT JUMPDEST DUP2 CALLDATALOAD DUP2 DUP2 GT ISZERO PUSH2 0x1D48 JUMPI PUSH2 0x1D48 PUSH2 0x2419 JUMP JUMPDEST PUSH1 0x40 MLOAD PUSH1 0x1F DUP3 ADD PUSH1 0x1F NOT SWAP1 DUP2 AND PUSH1 0x3F ADD AND DUP2 ADD SWAP1 DUP4 DUP3 GT DUP2 DUP4 LT OR ISZERO PUSH2 0x1D70 JUMPI PUSH2 0x1D70 PUSH2 0x2419 JUMP JUMPDEST DUP2 PUSH1 0x40 MSTORE DUP3 DUP2 MSTORE DUP14 PUSH1 0x20 DUP5 DUP8 ADD ADD GT ISZERO PUSH2 0x1D88 JUMPI DUP8 DUP9 REVERT JUMPDEST DUP3 PUSH1 0x20 DUP7 ADD PUSH1 0x20 DUP4 ADD CALLDATACOPY SWAP2 DUP3 ADD PUSH1 0x20 ADD SWAP7 SWAP1 SWAP7 MSTORE SWAP9 SWAP12 SWAP8 SWAP11 POP SWAP6 SWAP9 PUSH1 0x80 DUP2 ADD CALLDATALOAD SWAP8 PUSH1 0xA0 DUP3 ADD CALLDATALOAD SWAP8 POP PUSH1 0xC0 SWAP1 SWAP2 ADD CALLDATALOAD SWAP6 POP SWAP4 POP POP POP POP JUMP JUMPDEST PUSH1 0x0 PUSH1 0x20 DUP3 DUP5 SUB SLT ISZERO PUSH2 0x1DD0 JUMPI DUP1 DUP2 REVERT JUMPDEST DUP2 MLOAD DUP1 ISZERO ISZERO DUP2 EQ PUSH2 0x15C2 JUMPI DUP2 DUP3 REVERT JUMPDEST PUSH1 0x0 PUSH1 0x20 DUP3 DUP5 SUB SLT ISZERO PUSH2 0x1DF0 JUMPI DUP1 DUP2 REVERT JUMPDEST POP MLOAD SWAP2 SWAP1 POP JUMP JUMPDEST PUSH1 0x0 DUP2 MLOAD DUP1 DUP5 MSTORE DUP2 JUMPDEST DUP2 DUP2 LT ISZERO PUSH2 0x1E1C JUMPI PUSH1 0x20 DUP2 DUP6 ADD DUP2 ADD MLOAD DUP7 DUP4 ADD DUP3 ADD MSTORE ADD PUSH2 0x1E00 JUMP JUMPDEST DUP2 DUP2 GT ISZERO PUSH2 0x1E2D JUMPI DUP3 PUSH1 0x20 DUP4 DUP8 ADD ADD MSTORE JUMPDEST POP PUSH1 0x1F ADD PUSH1 0x1F NOT AND SWAP3 SWAP1 SWAP3 ADD PUSH1 0x20 ADD SWAP3 SWAP2 POP POP JUMP JUMPDEST PUSH1 0x1 PUSH1 0x1 PUSH1 0xA0 SHL SUB SWAP2 SWAP1 SWAP2 AND DUP2 MSTORE PUSH1 0x20 ADD SWAP1 JUMP JUMPDEST PUSH1 0x1 PUSH1 0x1 PUSH1 0xA0 SHL SUB SWAP5 DUP6 AND DUP2 MSTORE SWAP3 DUP5 AND PUSH1 0x20 DUP5 ADD MSTORE SWAP3 AND PUSH1 0x40 DUP3 ADD MSTORE PUSH1 0x60 DUP2 ADD SWAP2 SWAP1 SWAP2 MSTORE PUSH1 0x80 ADD SWAP1 JUMP JUMPDEST PUSH1 0x1 PUSH1 0x1 PUSH1 0xA0 SHL SUB SWAP3 SWAP1 SWAP3 AND DUP3 MSTORE PUSH1 0x20 DUP3 ADD MSTORE PUSH1 0x40 ADD SWAP1 JUMP JUMPDEST PUSH1 0x1 PUSH1 0x1 PUSH1 0xA0 SHL SUB SWAP7 SWAP1 SWAP7 AND DUP7 MSTORE PUSH1 0x20 DUP7 ADD SWAP5 SWAP1 SWAP5 MSTORE PUSH1 0x40 DUP6 ADD SWAP3 SWAP1 SWAP3 MSTORE PUSH1 0x60 DUP5 ADD MSTORE ISZERO ISZERO PUSH1 0x80 DUP4 ADD MSTORE ISZERO ISZERO PUSH1 0xA0 DUP3 ADD MSTORE PUSH1 0xC0 ADD SWAP1 JUMP JUMPDEST SWAP1 ISZERO ISZERO DUP2 MSTORE PUSH1 0x20 ADD SWAP1 JUMP JUMPDEST SWAP2 ISZERO ISZERO DUP3 MSTORE ISZERO ISZERO PUSH1 0x20 DUP3 ADD MSTORE PUSH1 0x40 ADD SWAP1 JUMP JUMPDEST PUSH1 0x0 PUSH1 0x20 DUP3 MSTORE PUSH2 0x15C2 PUSH1 0x20 DUP4 ADD DUP5 PUSH2 0x1DF7 JUMP JUMPDEST PUSH1 0x0 PUSH2 0x180 DUP3 MSTORE PUSH2 0x1F15 PUSH2 0x180 DUP4 ADD DUP16 PUSH2 0x1DF7 JUMP JUMPDEST PUSH1 0x1 PUSH1 0x1 PUSH1 0xA0 SHL SUB SWAP14 DUP15 AND PUSH1 0x20 DUP5 ADD MSTORE SWAP12 DUP14 AND PUSH1 0x40 DUP4 ADD MSTORE POP SWAP9 SWAP1 SWAP11 AND PUSH1 0x60 DUP10 ADD MSTORE PUSH1 0x80 DUP9 ADD SWAP7 SWAP1 SWAP7 MSTORE PUSH1 0xA0 DUP8 ADD SWAP5 SWAP1 SWAP5 MSTORE PUSH1 0xC0 DUP7 ADD SWAP3 SWAP1 SWAP3 MSTORE PUSH1 0xE0 DUP6 ADD MSTORE PUSH2 0x100 DUP5 ADD MSTORE PUSH2 0x120 DUP4 ADD MSTORE PUSH2 0x140 DUP3 ADD MSTORE SWAP2 ISZERO ISZERO PUSH2 0x160 SWAP1 SWAP3 ADD SWAP2 SWAP1 SWAP2 MSTORE SWAP2 SWAP1 POP JUMP JUMPDEST PUSH1 0x20 DUP1 DUP3 MSTORE PUSH1 0x18 SWAP1 DUP3 ADD MSTORE PUSH32 0x4C696E6B3A206465706F736974206E6F7420656E6F7567680000000000000000 PUSH1 0x40 DUP3 ADD MSTORE PUSH1 0x60 ADD SWAP1 JUMP JUMPDEST PUSH1 0x20 DUP1 DUP3 MSTORE PUSH1 0x1E SWAP1 DUP3 ADD MSTORE PUSH32 0x4C696E6B3A207573657241206465706F736974206E6F7420656E6F7567680000 PUSH1 0x40 DUP3 ADD MSTORE PUSH1 0x60 ADD SWAP1 JUMP JUMPDEST PUSH1 0x20 DUP1 DUP3 MSTORE PUSH1 0x13 SWAP1 DUP3 ADD MSTORE PUSH19 0x131A5B9ACE881858D8D95CDCC819195B9A5959 PUSH1 0x6A SHL PUSH1 0x40 DUP3 ADD MSTORE PUSH1 0x60 ADD SWAP1 JUMP JUMPDEST PUSH1 0x20 DUP1 DUP3 MSTORE PUSH1 0x12 SWAP1 DUP3 ADD MSTORE PUSH18 0x4C696E6B3A206F6E6C7920666163746F7279 PUSH1 0x70 SHL PUSH1 0x40 DUP3 ADD MSTORE PUSH1 0x60 ADD SWAP1 JUMP JUMPDEST PUSH1 0x20 DUP1 DUP3 MSTORE PUSH1 0x14 SWAP1 DUP3 ADD MSTORE PUSH20 0x2634B7359D1030B1B1B2B9B9903232B734B2B21 PUSH1 0x65 SHL PUSH1 0x40 DUP3 ADD MSTORE PUSH1 0x60 ADD SWAP1 JUMP JUMPDEST PUSH1 0x20 DUP1 DUP3 MSTORE PUSH1 0x1C SWAP1 DUP3 ADD MSTORE PUSH32 0x4C696E6B3A2063616E7420706C65646765206F6E206578706972652000000000 PUSH1 0x40 DUP3 ADD MSTORE PUSH1 0x60 ADD SWAP1 JUMP JUMPDEST PUSH1 0x20 DUP1 DUP3 MSTORE PUSH1 0xE SWAP1 DUP3 ADD MSTORE PUSH14 0xDCDEE840CADCDEEACED0408AA89 PUSH1 0x93 SHL PUSH1 0x40 DUP3 ADD MSTORE PUSH1 0x60 ADD SWAP1 JUMP JUMPDEST PUSH1 0x20 DUP1 DUP3 MSTORE PUSH1 0x13 SWAP1 DUP3 ADD MSTORE PUSH19 0x131A5B9ACE881BDB9B1E481D5B98DB1BDCD959 PUSH1 0x6A SHL PUSH1 0x40 DUP3 ADD MSTORE PUSH1 0x60 ADD SWAP1 JUMP JUMPDEST PUSH1 0x20 DUP1 DUP3 MSTORE PUSH1 0x16 SWAP1 DUP3 ADD MSTORE PUSH22 0x4C696E6B3A20756E6C617766756C2061646472657373 PUSH1 0x50 SHL PUSH1 0x40 DUP3 ADD MSTORE PUSH1 0x60 ADD SWAP1 JUMP JUMPDEST PUSH1 0x20 DUP1 DUP3 MSTORE PUSH1 0x14 SWAP1 DUP3 ADD MSTORE PUSH20 0x131A5B9ACE881BDB9B1E481D5B9C1B195919D959 PUSH1 0x62 SHL PUSH1 0x40 DUP3 ADD MSTORE PUSH1 0x60 ADD SWAP1 JUMP JUMPDEST PUSH1 0x20 DUP1 DUP3 MSTORE PUSH1 0x10 SWAP1 DUP3 ADD MSTORE PUSH16 0x2634B7359D103737B63C903AB9B2B921 PUSH1 0x81 SHL PUSH1 0x40 DUP3 ADD MSTORE PUSH1 0x60 ADD SWAP1 JUMP JUMPDEST PUSH1 0x20 DUP1 DUP3 MSTORE PUSH1 0xE SWAP1 DUP3 ADD MSTORE PUSH14 0x4C696E6B3A207265706C65646765 PUSH1 0x90 SHL PUSH1 0x40 DUP3 ADD MSTORE PUSH1 0x60 ADD SWAP1 JUMP JUMPDEST PUSH1 0x20 DUP1 DUP3 MSTORE PUSH1 0x10 SWAP1 DUP3 ADD MSTORE PUSH16 0x131A5B9ACE881B9BC81C1B195919D959 PUSH1 0x82 SHL PUSH1 0x40 DUP3 ADD MSTORE PUSH1 0x60 ADD SWAP1 JUMP JUMPDEST PUSH1 0x20 DUP1 DUP3 MSTORE PUSH1 0x10 SWAP1 DUP3 ADD MSTORE PUSH16 0x4C696E6B3A206F6E6C79207573657241 PUSH1 0x80 SHL PUSH1 0x40 DUP3 ADD MSTORE PUSH1 0x60 ADD SWAP1 JUMP JUMPDEST PUSH1 0x20 DUP1 DUP3 MSTORE PUSH1 0x11 SWAP1 DUP3 ADD MSTORE PUSH17 0x4C696E6B3A206F6E6C7920457870697265 PUSH1 0x78 SHL PUSH1 0x40 DUP3 ADD MSTORE PUSH1 0x60 ADD SWAP1 JUMP JUMPDEST PUSH1 0x20 DUP1 DUP3 MSTORE PUSH1 0x16 SWAP1 DUP3 ADD MSTORE PUSH22 0x131A5B9ACE881BDB9B1E481A5B9A5D1A585B1A5E9959 PUSH1 0x52 SHL PUSH1 0x40 DUP3 ADD MSTORE PUSH1 0x60 ADD SWAP1 JUMP JUMPDEST PUSH1 0x20 DUP1 DUP3 MSTORE PUSH1 0xB SWAP1 DUP3 ADD MSTORE PUSH11 0x1A5B9A5D1A585B1A5E9959 PUSH1 0xAA SHL PUSH1 0x40 DUP3 ADD MSTORE PUSH1 0x60 ADD SWAP1 JUMP JUMPDEST PUSH1 0x20 DUP1 DUP3 MSTORE PUSH1 0x18 SWAP1 DUP3 ADD MSTORE PUSH32 0x4C696E6B3A206F6E6C79204564697461626C65204C696E6B0000000000000000 PUSH1 0x40 DUP3 ADD MSTORE PUSH1 0x60 ADD SWAP1 JUMP JUMPDEST PUSH1 0x20 DUP1 DUP3 MSTORE PUSH1 0x11 SWAP1 DUP3 ADD MSTORE PUSH17 0x131A5B9ACE881BDB9B1E481859DC995959 PUSH1 0x7A SHL PUSH1 0x40 DUP3 ADD MSTORE PUSH1 0x60 ADD SWAP1 JUMP JUMPDEST PUSH1 0x20 DUP1 DUP3 MSTORE PUSH1 0x12 SWAP1 DUP3 ADD MSTORE PUSH18 0x131A5B9ACE881BDB9B1E481C1B195919D959 PUSH1 0x72 SHL PUSH1 0x40 DUP3 ADD MSTORE PUSH1 0x60 ADD SWAP1 JUMP JUMPDEST PUSH1 0x20 DUP1 DUP3 MSTORE PUSH1 0xF SWAP1 DUP3 ADD MSTORE PUSH15 0x4C696E6B3A206F6E6C79206C756361 PUSH1 0x88 SHL PUSH1 0x40 DUP3 ADD MSTORE PUSH1 0x60 ADD SWAP1 JUMP JUMPDEST SWAP1 DUP2 MSTORE PUSH1 0x20 ADD SWAP1 JUMP JUMPDEST SWAP4 DUP5 MSTORE SWAP2 ISZERO ISZERO PUSH1 0x20 DUP5 ADD MSTORE PUSH1 0x40 DUP4 ADD MSTORE ISZERO ISZERO PUSH1 0x60 DUP3 ADD MSTORE PUSH1 0x80 ADD SWAP1 JUMP JUMPDEST PUSH1 0x0 DUP3 NOT DUP3 GT ISZERO PUSH2 0x236D JUMPI PUSH2 0x236D PUSH2 0x2403 JUMP JUMPDEST POP ADD SWAP1 JUMP JUMPDEST PUSH1 0x0 DUP3 PUSH2 0x238D JUMPI PUSH4 0x4E487B71 PUSH1 0xE0 SHL DUP2 MSTORE PUSH1 0x12 PUSH1 0x4 MSTORE PUSH1 0x24 DUP2 REVERT JUMPDEST POP DIV SWAP1 JUMP JUMPDEST PUSH1 0x0 DUP2 PUSH1 0x0 NOT DIV DUP4 GT DUP3 ISZERO ISZERO AND ISZERO PUSH2 0x23AC JUMPI PUSH2 0x23AC PUSH2 0x2403 JUMP JUMPDEST POP MUL SWAP1 JUMP JUMPDEST PUSH1 0x0 DUP3 DUP3 LT ISZERO PUSH2 0x23C3 JUMPI PUSH2 0x23C3 PUSH2 0x2403 JUMP JUMPDEST POP SUB SWAP1 JUMP JUMPDEST PUSH1 0x2 DUP2 DIV PUSH1 0x1 DUP3 AND DUP1 PUSH2 0x23DC JUMPI PUSH1 0x7F DUP3 AND SWAP2 POP JUMPDEST PUSH1 0x20 DUP3 LT DUP2 EQ ISZERO PUSH2 0x23FD JUMPI PUSH4 0x4E487B71 PUSH1 0xE0 SHL PUSH1 0x0 MSTORE PUSH1 0x22 PUSH1 0x4 MSTORE PUSH1 0x24 PUSH1 0x0 REVERT JUMPDEST POP SWAP2 SWAP1 POP JUMP JUMPDEST PUSH4 0x4E487B71 PUSH1 0xE0 SHL PUSH1 0x0 MSTORE PUSH1 0x11 PUSH1 0x4 MSTORE PUSH1 0x24 PUSH1 0x0 REVERT JUMPDEST PUSH4 0x4E487B71 PUSH1 0xE0 SHL PUSH1 0x0 MSTORE PUSH1 0x41 PUSH1 0x4 MSTORE PUSH1 0x24 PUSH1 0x0 REVERT JUMPDEST PUSH1 0x1 PUSH1 0x1 PUSH1 0xA0 SHL SUB DUP2 AND DUP2 EQ PUSH2 0xD4D JUMPI PUSH1 0x0 DUP1 REVERT INVALID LOG2 PUSH5 0x6970667358 0x22 SLT KECCAK256 0xF LOG2 PUSH11 0x32AC1A3B1DE3779AF218C5 0xC0 SWAP6 SWAP12 XOR 0xF9 SWAP8 0xBF NUMBER SWAP13 SWAP7 PUSH3 0xC0DDC2 PUSH29 0xBB8D9B64736F6C63430008010033000000000000000000000000000000 "
		},
		"gasEstimates": {
			"creation": {
				"codeDepositCost": "1867600",
				"executionCost": "infinite",
				"totalCost": "infinite"
			},
			"external": {
				"agree()": "infinite",
				"close()": "infinite",
				"depledge()": "infinite",
				"getCloseInfo()": "4498",
				"getLinkInfo()": "infinite",
				"getPledgedInfo()": "1132",
				"getRecevabesInfo()": "2808",
				"getStatus()": "infinite",
				"initialize(address,address,address,string,uint256,uint256,uint256)": "infinite",
				"isExpire()": "2818",
				"pledge()": "infinite",
				"reject()": "infinite",
				"rejectClose()": "24408",
				"repealCloseReq()": "24406",
				"setUserB(address)": "infinite",
				"wtihdrawSelf()": "infinite"
			},
			"internal": {
				"_exit()": "infinite",
				"_exitSelf()": "infinite",
				"_liquidation()": "infinite",
				"_setReceivables(uint256)": "infinite",
				"_withdraw(address,uint256)": "infinite",
				"verifyDeposit(address,address)": "infinite"
			}
		},
		"methodIdentifiers": {
			"agree()": "8fae60a5",
			"close()": "43d726d6",
			"depledge()": "29ac54a7",
			"getCloseInfo()": "2c6372c3",
			"getLinkInfo()": "0d657191",
			"getPledgedInfo()": "b578803f",
			"getRecevabesInfo()": "8c5782ca",
			"getStatus()": "4e69d560",
			"initialize(address,address,address,string,uint256,uint256,uint256)": "25787798",
			"isExpire()": "e25b3c95",
			"pledge()": "88ffe867",
			"reject()": "4dc415de",
			"rejectClose()": "0e080192",
			"repealCloseReq()": "be7420b1",
			"setUserB(address)": "566fa0cb",
			"wtihdrawSelf()": "c87e5117"
		}
	},
	"abi": [
		{
			"inputs": [
				{
					"internalType": "address",
					"name": "_factory",
					"type": "address"
				},
				{
					"internalType": "address",
					"name": "_luca",
					"type": "address"
				},
				{
					"internalType": "address",
					"name": "_wluca",
					"type": "address"
				},
				{
					"internalType": "address",
					"name": "_trader",
					"type": "address"
				},
				{
					"internalType": "address",
					"name": "_weth",
					"type": "address"
				},
				{
					"internalType": "address",
					"name": "_pledger",
					"type": "address"
				}
			],
			"stateMutability": "nonpayable",
			"type": "constructor"
		},
		{
			"inputs": [],
			"name": "agree",
			"outputs": [],
			"stateMutability": "payable",
			"type": "function"
		},
		{
			"inputs": [],
			"name": "close",
			"outputs": [],
			"stateMutability": "nonpayable",
			"type": "function"
		},
		{
			"inputs": [],
			"name": "depledge",
			"outputs": [],
			"stateMutability": "nonpayable",
			"type": "function"
		},
		{
			"inputs": [],
			"name": "getCloseInfo",
			"outputs": [
				{
					"internalType": "address",
					"name": "closer_",
					"type": "address"
				},
				{
					"internalType": "uint256",
					"name": "startTime_",
					"type": "uint256"
				},
				{
					"internalType": "uint256",
					"name": "expiredTime_",
					"type": "uint256"
				},
				{
					"internalType": "uint256",
					"name": "closeTime_",
					"type": "uint256"
				},
				{
					"internalType": "bool",
					"name": "closeReqA_",
					"type": "bool"
				},
				{
					"internalType": "bool",
					"name": "closeReqB_",
					"type": "bool"
				}
			],
			"stateMutability": "view",
			"type": "function"
		},
		{
			"inputs": [],
			"name": "getLinkInfo",
			"outputs": [
				{
					"internalType": "string",
					"name": "symbol_",
					"type": "string"
				},
				{
					"internalType": "address",
					"name": "token_",
					"type": "address"
				},
				{
					"internalType": "address",
					"name": "userA_",
					"type": "address"
				},
				{
					"internalType": "address",
					"name": "userB_",
					"type": "address"
				},
				{
					"internalType": "uint256",
					"name": "amountA_",
					"type": "uint256"
				},
				{
					"internalType": "uint256",
					"name": "amountB_",
					"type": "uint256"
				},
				{
					"internalType": "uint256",
					"name": "percentA_",
					"type": "uint256"
				},
				{
					"internalType": "uint256",
					"name": "totalPlan_",
					"type": "uint256"
				},
				{
					"internalType": "uint256",
					"name": "lockDays_",
					"type": "uint256"
				},
				{
					"internalType": "uint256",
					"name": "startTime_",
					"type": "uint256"
				},
				{
					"internalType": "uint256",
					"name": "status_",
					"type": "uint256"
				},
				{
					"internalType": "bool",
					"name": "isAward_",
					"type": "bool"
				}
			],
			"stateMutability": "view",
			"type": "function"
		},
		{
			"inputs": [],
			"name": "getPledgedInfo",
			"outputs": [
				{
					"internalType": "bool",
					"name": "pledgedA_",
					"type": "bool"
				},
				{
					"internalType": "bool",
					"name": "pledgedB_",
					"type": "bool"
				}
			],
			"stateMutability": "view",
			"type": "function"
		},
		{
			"inputs": [],
			"name": "getRecevabesInfo",
			"outputs": [
				{
					"internalType": "uint256",
					"name": "receivableA_",
					"type": "uint256"
				},
				{
					"internalType": "bool",
					"name": "isExitA_",
					"type": "bool"
				},
				{
					"internalType": "uint256",
					"name": "receivableB_",
					"type": "uint256"
				},
				{
					"internalType": "bool",
					"name": "isExitB_",
					"type": "bool"
				}
			],
			"stateMutability": "view",
			"type": "function"
		},
		{
			"inputs": [],
			"name": "getStatus",
			"outputs": [
				{
					"internalType": "string",
					"name": "status_",
					"type": "string"
				}
			],
			"stateMutability": "view",
			"type": "function"
		},
		{
			"inputs": [
				{
					"internalType": "address",
					"name": "_userA",
					"type": "address"
				},
				{
					"internalType": "address",
					"name": "_userB",
					"type": "address"
				},
				{
					"internalType": "address",
					"name": "_token",
					"type": "address"
				},
				{
					"internalType": "string",
					"name": "_symbol",
					"type": "string"
				},
				{
					"internalType": "uint256",
					"name": "_amount",
					"type": "uint256"
				},
				{
					"internalType": "uint256",
					"name": "_percentA",
					"type": "uint256"
				},
				{
					"internalType": "uint256",
					"name": "_lockDays",
					"type": "uint256"
				}
			],
			"name": "initialize",
			"outputs": [],
			"stateMutability": "nonpayable",
			"type": "function"
		},
		{
			"inputs": [],
			"name": "isExpire",
			"outputs": [
				{
					"internalType": "bool",
					"name": "",
					"type": "bool"
				}
			],
			"stateMutability": "view",
			"type": "function"
		},
		{
			"inputs": [],
			"name": "pledge",
			"outputs": [],
			"stateMutability": "nonpayable",
			"type": "function"
		},
		{
			"inputs": [],
			"name": "reject",
			"outputs": [],
			"stateMutability": "nonpayable",
			"type": "function"
		},
		{
			"inputs": [],
			"name": "rejectClose",
			"outputs": [],
			"stateMutability": "nonpayable",
			"type": "function"
		},
		{
			"inputs": [],
			"name": "repealCloseReq",
			"outputs": [],
			"stateMutability": "nonpayable",
			"type": "function"
		},
		{
			"inputs": [
				{
					"internalType": "address",
					"name": "_userB",
					"type": "address"
				}
			],
			"name": "setUserB",
			"outputs": [],
			"stateMutability": "nonpayable",
			"type": "function"
		},
		{
			"inputs": [],
			"name": "wtihdrawSelf",
			"outputs": [],
			"stateMutability": "nonpayable",
			"type": "function"
		}
	]
}