{
	"data": {
		"bytecode": {
			"linkReferences": {},
			"object": "608060405234801561001057600080fd5b506121ca806100206000396000f3fe6080604052600436106100865760003560e01c80637ab4339d116100595780637ab4339d1461014c5780638525855d14610175578063af81c5b9146101a0578063e4f13f57146101c9578063f55c2ef0146101f257610086565b80633679dc461461008b578063372bd79e146100b65780634aff6754146100f35780635e4afa8014610123575b600080fd5b34801561009757600080fd5b506100a0610231565b6040516100ad9190611c7b565b60405180910390f35b3480156100c257600080fd5b506100dd60048036038101906100d8919061143b565b610237565b6040516100ea9190611b00565b60405180910390f35b61010d600480360381019061010891906114ed565b61028d565b60405161011a919061194d565b60405180910390f35b34801561012f57600080fd5b5061014a6004803603810190610145919061157c565b610b57565b005b34801561015857600080fd5b50610173600480360381019061016e9190611663565b610c22565b005b34801561018157600080fd5b5061018a610cdc565b604051610197919061194d565b60405180910390f35b3480156101ac57600080fd5b506101c760048036038101906101c2919061157c565b610d02565b005b3480156101d557600080fd5b506101f060048036038101906101eb91906116b7565b610edd565b005b3480156101fe57600080fd5b50610219600480360381019061021491906115e1565b6110a6565b60405161022893929190611a92565b60405180910390f35b60015481565b6000600260008373ffffffffffffffffffffffffffffffffffffffff1673ffffffffffffffffffffffffffffffffffffffff16815260200190815260200160002060009054906101000a900460ff169050919050565b60008060019054906101000a900473ffffffffffffffffffffffffffffffffffffffff1673ffffffffffffffffffffffffffffffffffffffff166302fb0c5e6040518163ffffffff1660e01b815260040160206040518083038186803b1580156102f657600080fd5b505afa15801561030a573d6000803e3d6000fd5b505050506040513d601f19601f8201168201806040525081019061032e91906115b8565b61033757600080fd5b61033f611274565b600080600080600080600060019054906101000a900473ffffffffffffffffffffffffffffffffffffffff1673ffffffffffffffffffffffffffffffffffffffff1663579c576a6040518163ffffffff1660e01b815260040160c06040518083038186803b1580156103b057600080fd5b505afa1580156103c4573d6000803e3d6000fd5b505050506040513d601f19601f820116820180604052508101906103e89190611464565b9550955095509550955095506040518060c001604052808773ffffffffffffffffffffffffffffffffffffffff1681526020018673ffffffffffffffffffffffffffffffffffffffff1681526020018573ffffffffffffffffffffffffffffffffffffffff1681526020018473ffffffffffffffffffffffffffffffffffffffff1681526020018381526020018281525096505050505050503373ffffffffffffffffffffffffffffffffffffffff168773ffffffffffffffffffffffffffffffffffffffff1614156104f0576040517f08c379a00000000000000000000000000000000000000000000000000000000081526004016104e790611b7b565b60405180910390fd5b60018410158015610502575060648411155b610541576040517f08c379a000000000000000000000000000000000000000000000000000000000815260040161053890611bdb565b60405180910390fd5b8060800151831015801561055957508060a001518311155b610598576040517f08c379a000000000000000000000000000000000000000000000000000000000815260040161058f90611bfb565b60405180910390fd5b60006003876040516105aa9190611936565b90815260200160405180910390206040518060600160405290816000820160009054906101000a900473ffffffffffffffffffffffffffffffffffffffff1673ffffffffffffffffffffffffffffffffffffffff1673ffffffffffffffffffffffffffffffffffffffff168152602001600182015481526020016002820160009054906101000a900460ff16151515158152505090508060400151610684576040517f08c379a000000000000000000000000000000000000000000000000000000000815260040161067b90611b9b565b60405180910390fd5b80602001518610156106cb576040517f08c379a00000000000000000000000000000000000000000000000000000000081526004016106c290611b3b565b60405180910390fd5b60006106da8360600151611113565b9050600160008154809291906106ef90611e59565b91905055506001600260008373ffffffffffffffffffffffffffffffffffffffff1673ffffffffffffffffffffffffffffffffffffffff16815260200190815260200160002060006101000a81548160ff02191690831515021790555060006107746064610766898b61117d90919063ffffffff16565b61119390919063ffffffff16565b9050600073ffffffffffffffffffffffffffffffffffffffff16836000015173ffffffffffffffffffffffffffffffffffffffff1614156108ed578034146107f1576040517f08c379a00000000000000000000000000000000000000000000000000000000081526004016107e890611b5b565b60405180910390fd5b836020015173ffffffffffffffffffffffffffffffffffffffff1663d0e30db0346040518263ffffffff1660e01b81526004016000604051808303818588803b15801561083d57600080fd5b505af1158015610851573d6000803e3d6000fd5b5050505050836020015173ffffffffffffffffffffffffffffffffffffffff1663a9059cbb83346040518363ffffffff1660e01b8152600401610895929190611a69565b602060405180830381600087803b1580156108af57600080fd5b505af11580156108c3573d6000803e3d6000fd5b505050506040513d601f19601f820116820180604052508101906108e791906115b8565b50610988565b836040015173ffffffffffffffffffffffffffffffffffffffff16638f1b407a84600001513385856040518563ffffffff1660e01b815260040161093494939291906119ed565b602060405180830381600087803b15801561094e57600080fd5b505af1158015610962573d6000803e3d6000fd5b505050506040513d601f19601f8201168201806040525081019061098691906115b8565b505b8173ffffffffffffffffffffffffffffffffffffffff16637c4b6a1b600060019054906101000a900473ffffffffffffffffffffffffffffffffffffffff16338d87600001518e8e8e8e6040518963ffffffff1660e01b81526004016109f5989796959493929190611968565b600060405180830381600087803b158015610a0f57600080fd5b505af1158015610a23573d6000803e3d6000fd5b5050505088604051610a359190611936565b60405180910390203373ffffffffffffffffffffffffffffffffffffffff167fd924d6866681d7189798250368682a2b27b18955b5269def8231a982d081a48f84604051610a83919061194d565b60405180910390a3836000015173ffffffffffffffffffffffffffffffffffffffff16836000015173ffffffffffffffffffffffffffffffffffffffff16148015610ace5750606487145b15610b4757836040015173ffffffffffffffffffffffffffffffffffffffff1663d618d8b73383896040518463ffffffff1660e01b8152600401610b1493929190611ac9565b600060405180830381600087803b158015610b2e57600080fd5b505af1158015610b42573d6000803e3d6000fd5b505050505b8194505050505095945050505050565b600260003373ffffffffffffffffffffffffffffffffffffffff1673ffffffffffffffffffffffffffffffffffffffff16815260200190815260200160002060009054906101000a900460ff16610be3576040517f08c379a0000000000000000000000000000000000000000000000000000000008152600401610bda90611c1b565b60405180910390fd5b7f786685d37b7e0e01d60ad0ed07d2a842b8a5c4a21b9c649b8d274866ded29104338383604051610c1693929190611a32565b60405180910390a15050565b60008054906101000a900460ff1615610c70576040517f08c379a0000000000000000000000000000000000000000000000000000000008152600401610c6790611bbb565b60405180910390fd5b80600060016101000a81548173ffffffffffffffffffffffffffffffffffffffff021916908373ffffffffffffffffffffffffffffffffffffffff160217905550610cbe82600060646111a9565b60016000806101000a81548160ff0219169083151502179055505050565b600060019054906101000a900473ffffffffffffffffffffffffffffffffffffffff1681565b600060019054906101000a900473ffffffffffffffffffffffffffffffffffffffff1673ffffffffffffffffffffffffffffffffffffffff163373ffffffffffffffffffffffffffffffffffffffff1614610d92576040517f08c379a0000000000000000000000000000000000000000000000000000000008152600401610d8990611c5b565b60405180910390fd5b60008273ffffffffffffffffffffffffffffffffffffffff166395d89b416040518163ffffffff1660e01b815260040160006040518083038186803b158015610dda57600080fd5b505afa158015610dee573d6000803e3d6000fd5b505050506040513d6000823e3d601f19601f82011682018060405250810190610e179190611622565b9050600081511015610e5e576040517f08c379a0000000000000000000000000000000000000000000000000000000008152600401610e5590611b1b565b60405180910390fd5b600381604051610e6e9190611936565b908152602001604051809103902060020160009054906101000a900460ff1615610ecd576040517f08c379a0000000000000000000000000000000000000000000000000000000008152600401610ec490611c3b565b60405180910390fd5b610ed88184846111a9565b505050565b600060019054906101000a900473ffffffffffffffffffffffffffffffffffffffff1673ffffffffffffffffffffffffffffffffffffffff163373ffffffffffffffffffffffffffffffffffffffff1614610f6d576040517f08c379a0000000000000000000000000000000000000000000000000000000008152600401610f6490611c5b565b60405180910390fd5b600383604051610f7d9190611936565b908152602001604051809103902060020160009054906101000a900460ff16610fdb576040517f08c379a0000000000000000000000000000000000000000000000000000000008152600401610fd290611b9b565b60405180910390fd5b60405180606001604052808373ffffffffffffffffffffffffffffffffffffffff1681526020018281526020016001151581525060038460405161101f9190611936565b908152602001604051809103902060008201518160000160006101000a81548173ffffffffffffffffffffffffffffffffffffffff021916908373ffffffffffffffffffffffffffffffffffffffff1602179055506020820151816001015560408201518160020160006101000a81548160ff021916908315150217905550905050505050565b6003818051602081018201805184825260208301602085012081835280955050505050506000915090508060000160009054906101000a900473ffffffffffffffffffffffffffffffffffffffff16908060010154908060020160009054906101000a900460ff16905083565b6000808260601b90506040517f3d602d80600a3d3981f3363d3d373d3d3d363d7300000000000000000000000081528160148201527f5af43d82803e903d91602b57fd5bf3000000000000000000000000000000000060288201526037816000f092505050919050565b6000818361118b9190611d44565b905092915050565b600081836111a19190611d13565b905092915050565b60405180606001604052808373ffffffffffffffffffffffffffffffffffffffff168152602001828152602001600115158152506003846040516111ed9190611936565b908152602001604051809103902060008201518160000160006101000a81548173ffffffffffffffffffffffffffffffffffffffff021916908373ffffffffffffffffffffffffffffffffffffffff1602179055506020820151816001015560408201518160020160006101000a81548160ff021916908315150217905550905050505050565b6040518060c00160405280600073ffffffffffffffffffffffffffffffffffffffff168152602001600073ffffffffffffffffffffffffffffffffffffffff168152602001600073ffffffffffffffffffffffffffffffffffffffff168152602001600073ffffffffffffffffffffffffffffffffffffffff16815260200160008152602001600081525090565b600061131561131084611cbb565b611c96565b90508281526020810184848401111561132d57600080fd5b611338848285611de6565b509392505050565b600061135361134e84611cbb565b611c96565b90508281526020810184848401111561136b57600080fd5b611376848285611df5565b509392505050565b60008135905061138d8161214f565b92915050565b6000815190506113a28161214f565b92915050565b6000815190506113b781612166565b92915050565b600082601f8301126113ce57600080fd5b81356113de848260208601611302565b91505092915050565b600082601f8301126113f857600080fd5b8151611408848260208601611340565b91505092915050565b6000813590506114208161217d565b92915050565b6000815190506114358161217d565b92915050565b60006020828403121561144d57600080fd5b600061145b8482850161137e565b91505092915050565b60008060008060008060c0878903121561147d57600080fd5b600061148b89828a01611393565b965050602061149c89828a01611393565b95505060406114ad89828a01611393565b94505060606114be89828a01611393565b93505060806114cf89828a01611426565b92505060a06114e089828a01611426565b9150509295509295509295565b600080600080600060a0868803121561150557600080fd5b60006115138882890161137e565b955050602086013567ffffffffffffffff81111561153057600080fd5b61153c888289016113bd565b945050604061154d88828901611411565b935050606061155e88828901611411565b925050608061156f88828901611411565b9150509295509295909350565b6000806040838503121561158f57600080fd5b600061159d8582860161137e565b92505060206115ae85828601611411565b9150509250929050565b6000602082840312156115ca57600080fd5b60006115d8848285016113a8565b91505092915050565b6000602082840312156115f357600080fd5b600082013567ffffffffffffffff81111561160d57600080fd5b611619848285016113bd565b91505092915050565b60006020828403121561163457600080fd5b600082015167ffffffffffffffff81111561164e57600080fd5b61165a848285016113e7565b91505092915050565b6000806040838503121561167657600080fd5b600083013567ffffffffffffffff81111561169057600080fd5b61169c858286016113bd565b92505060206116ad8582860161137e565b9150509250929050565b6000806000606084860312156116cc57600080fd5b600084013567ffffffffffffffff8111156116e657600080fd5b6116f2868287016113bd565b93505060206117038682870161137e565b925050604061171486828701611411565b9150509250925092565b61172781611d9e565b82525050565b61173681611db0565b82525050565b600061174782611cec565b6117518185611cf7565b9350611761818560208601611df5565b61176a81611f2f565b840191505092915050565b600061178082611cec565b61178a8185611d08565b935061179a818560208601611df5565b80840191505092915050565b60006117b3602283611cf7565b91506117be82611f40565b604082019050919050565b60006117d6601c83611cf7565b91506117e182611f8f565b602082019050919050565b60006117f9601b83611cf7565b915061180482611fb8565b602082019050919050565b600061181c601683611cf7565b915061182782611fe1565b602082019050919050565b600061183f601883611cf7565b915061184a8261200a565b602082019050919050565b6000611862600b83611cf7565b915061186d82612033565b602082019050919050565b6000611885602883611cf7565b91506118908261205c565b604082019050919050565b60006118a8601c83611cf7565b91506118b3826120ab565b602082019050919050565b60006118cb601283611cf7565b91506118d6826120d4565b602082019050919050565b60006118ee601483611cf7565b91506118f9826120fd565b602082019050919050565b6000611911600983611cf7565b915061191c82612126565b602082019050919050565b61193081611ddc565b82525050565b60006119428284611775565b915081905092915050565b6000602082019050611962600083018461171e565b92915050565b60006101008201905061197e600083018b61171e565b61198b602083018a61171e565b611998604083018961171e565b6119a5606083018861171e565b81810360808301526119b7818761173c565b90506119c660a0830186611927565b6119d360c0830185611927565b6119e060e0830184611927565b9998505050505050505050565b6000608082019050611a02600083018761171e565b611a0f602083018661171e565b611a1c604083018561171e565b611a296060830184611927565b95945050505050565b6000606082019050611a47600083018661171e565b611a54602083018561171e565b611a616040830184611927565b949350505050565b6000604082019050611a7e600083018561171e565b611a8b6020830184611927565b9392505050565b6000606082019050611aa7600083018661171e565b611ab46020830185611927565b611ac1604083018461172d565b949350505050565b6000606082019050611ade600083018661171e565b611aeb6020830185611927565b611af86040830184611927565b949350505050565b6000602082019050611b15600083018461172d565b92915050565b60006020820190508181036000830152611b34816117a6565b9050919050565b60006020820190508181036000830152611b54816117c9565b9050919050565b60006020820190508181036000830152611b74816117ec565b9050919050565b60006020820190508181036000830152611b948161180f565b9050919050565b60006020820190508181036000830152611bb481611832565b9050919050565b60006020820190508181036000830152611bd481611855565b9050919050565b60006020820190508181036000830152611bf481611878565b9050919050565b60006020820190508181036000830152611c148161189b565b9050919050565b60006020820190508181036000830152611c34816118be565b9050919050565b60006020820190508181036000830152611c54816118e1565b9050919050565b60006020820190508181036000830152611c7481611904565b9050919050565b6000602082019050611c906000830184611927565b92915050565b6000611ca0611cb1565b9050611cac8282611e28565b919050565b6000604051905090565b600067ffffffffffffffff821115611cd657611cd5611f00565b5b611cdf82611f2f565b9050602081019050919050565b600081519050919050565b600082825260208201905092915050565b600081905092915050565b6000611d1e82611ddc565b9150611d2983611ddc565b925082611d3957611d38611ed1565b5b828204905092915050565b6000611d4f82611ddc565b9150611d5a83611ddc565b9250817fffffffffffffffffffffffffffffffffffffffffffffffffffffffffffffffff0483118215151615611d9357611d92611ea2565b5b828202905092915050565b6000611da982611dbc565b9050919050565b60008115159050919050565b600073ffffffffffffffffffffffffffffffffffffffff82169050919050565b6000819050919050565b82818337600083830152505050565b60005b83811015611e13578082015181840152602081019050611df8565b83811115611e22576000848401525b50505050565b611e3182611f2f565b810181811067ffffffffffffffff82111715611e5057611e4f611f00565b5b80604052505050565b6000611e6482611ddc565b91507fffffffffffffffffffffffffffffffffffffffffffffffffffffffffffffffff821415611e9757611e96611ea2565b5b600182019050919050565b7f4e487b7100000000000000000000000000000000000000000000000000000000600052601160045260246000fd5b7f4e487b7100000000000000000000000000000000000000000000000000000000600052601260045260246000fd5b7f4e487b7100000000000000000000000000000000000000000000000000000000600052604160045260246000fd5b6000601f19601f8301169050919050565b7f466163746f72793a206e6f7420617661696c61626c6520455243323020546f6b60008201527f656e000000000000000000000000000000000000000000000000000000000000602082015250565b7f466163746f72793a20746f74616c506c616e20746f6f20736d616c6c00000000600082015250565b7f466163746f72793a2077726f6e6720616d6f756e742076616c75650000000000600082015250565b7f466163746f72793a2075736572422069732073656c6600000000000000000000600082015250565b7f466163746f72793a20746f6b656e206e6f742065786973740000000000000000600082015250565b7f696e697469616c697a6564000000000000000000000000000000000000000000600082015250565b7f466163746f72793a2070657263656e7441206e656564206265747765656e203160008201527f20616e6420313030000000000000000000000000000000000000000000000000602082015250565b7f466163746f72793a206c6f636b44617973206f7574206f662073657400000000600082015250565b7f466163746f72793a206f6e6c79204c696e6b0000000000000000000000000000600082015250565b7f466163746f72793a20746f6b656e206578697374000000000000000000000000600082015250565b7f6f6e6c792066696c650000000000000000000000000000000000000000000000600082015250565b61215881611d9e565b811461216357600080fd5b50565b61216f81611db0565b811461217a57600080fd5b50565b61218681611ddc565b811461219157600080fd5b5056fea264697066735822122078292911954932f2f223ad39a5bed3dbdb152336c355ad8ba48ff0a477dd50dd64736f6c63430008010033",
			"opcodes": "PUSH1 0x80 PUSH1 0x40 MSTORE CALLVALUE DUP1 ISZERO PUSH2 0x10 JUMPI PUSH1 0x0 DUP1 REVERT JUMPDEST POP PUSH2 0x21CA DUP1 PUSH2 0x20 PUSH1 0x0 CODECOPY PUSH1 0x0 RETURN INVALID PUSH1 0x80 PUSH1 0x40 MSTORE PUSH1 0x4 CALLDATASIZE LT PUSH2 0x86 JUMPI PUSH1 0x0 CALLDATALOAD PUSH1 0xE0 SHR DUP1 PUSH4 0x7AB4339D GT PUSH2 0x59 JUMPI DUP1 PUSH4 0x7AB4339D EQ PUSH2 0x14C JUMPI DUP1 PUSH4 0x8525855D EQ PUSH2 0x175 JUMPI DUP1 PUSH4 0xAF81C5B9 EQ PUSH2 0x1A0 JUMPI DUP1 PUSH4 0xE4F13F57 EQ PUSH2 0x1C9 JUMPI DUP1 PUSH4 0xF55C2EF0 EQ PUSH2 0x1F2 JUMPI PUSH2 0x86 JUMP JUMPDEST DUP1 PUSH4 0x3679DC46 EQ PUSH2 0x8B JUMPI DUP1 PUSH4 0x372BD79E EQ PUSH2 0xB6 JUMPI DUP1 PUSH4 0x4AFF6754 EQ PUSH2 0xF3 JUMPI DUP1 PUSH4 0x5E4AFA80 EQ PUSH2 0x123 JUMPI JUMPDEST PUSH1 0x0 DUP1 REVERT JUMPDEST CALLVALUE DUP1 ISZERO PUSH2 0x97 JUMPI PUSH1 0x0 DUP1 REVERT JUMPDEST POP PUSH2 0xA0 PUSH2 0x231 JUMP JUMPDEST PUSH1 0x40 MLOAD PUSH2 0xAD SWAP2 SWAP1 PUSH2 0x1C7B JUMP JUMPDEST PUSH1 0x40 MLOAD DUP1 SWAP2 SUB SWAP1 RETURN JUMPDEST CALLVALUE DUP1 ISZERO PUSH2 0xC2 JUMPI PUSH1 0x0 DUP1 REVERT JUMPDEST POP PUSH2 0xDD PUSH1 0x4 DUP1 CALLDATASIZE SUB DUP2 ADD SWAP1 PUSH2 0xD8 SWAP2 SWAP1 PUSH2 0x143B JUMP JUMPDEST PUSH2 0x237 JUMP JUMPDEST PUSH1 0x40 MLOAD PUSH2 0xEA SWAP2 SWAP1 PUSH2 0x1B00 JUMP JUMPDEST PUSH1 0x40 MLOAD DUP1 SWAP2 SUB SWAP1 RETURN JUMPDEST PUSH2 0x10D PUSH1 0x4 DUP1 CALLDATASIZE SUB DUP2 ADD SWAP1 PUSH2 0x108 SWAP2 SWAP1 PUSH2 0x14ED JUMP JUMPDEST PUSH2 0x28D JUMP JUMPDEST PUSH1 0x40 MLOAD PUSH2 0x11A SWAP2 SWAP1 PUSH2 0x194D JUMP JUMPDEST PUSH1 0x40 MLOAD DUP1 SWAP2 SUB SWAP1 RETURN JUMPDEST CALLVALUE DUP1 ISZERO PUSH2 0x12F JUMPI PUSH1 0x0 DUP1 REVERT JUMPDEST POP PUSH2 0x14A PUSH1 0x4 DUP1 CALLDATASIZE SUB DUP2 ADD SWAP1 PUSH2 0x145 SWAP2 SWAP1 PUSH2 0x157C JUMP JUMPDEST PUSH2 0xB57 JUMP JUMPDEST STOP JUMPDEST CALLVALUE DUP1 ISZERO PUSH2 0x158 JUMPI PUSH1 0x0 DUP1 REVERT JUMPDEST POP PUSH2 0x173 PUSH1 0x4 DUP1 CALLDATASIZE SUB DUP2 ADD SWAP1 PUSH2 0x16E SWAP2 SWAP1 PUSH2 0x1663 JUMP JUMPDEST PUSH2 0xC22 JUMP JUMPDEST STOP JUMPDEST CALLVALUE DUP1 ISZERO PUSH2 0x181 JUMPI PUSH1 0x0 DUP1 REVERT JUMPDEST POP PUSH2 0x18A PUSH2 0xCDC JUMP JUMPDEST PUSH1 0x40 MLOAD PUSH2 0x197 SWAP2 SWAP1 PUSH2 0x194D JUMP JUMPDEST PUSH1 0x40 MLOAD DUP1 SWAP2 SUB SWAP1 RETURN JUMPDEST CALLVALUE DUP1 ISZERO PUSH2 0x1AC JUMPI PUSH1 0x0 DUP1 REVERT JUMPDEST POP PUSH2 0x1C7 PUSH1 0x4 DUP1 CALLDATASIZE SUB DUP2 ADD SWAP1 PUSH2 0x1C2 SWAP2 SWAP1 PUSH2 0x157C JUMP JUMPDEST PUSH2 0xD02 JUMP JUMPDEST STOP JUMPDEST CALLVALUE DUP1 ISZERO PUSH2 0x1D5 JUMPI PUSH1 0x0 DUP1 REVERT JUMPDEST POP PUSH2 0x1F0 PUSH1 0x4 DUP1 CALLDATASIZE SUB DUP2 ADD SWAP1 PUSH2 0x1EB SWAP2 SWAP1 PUSH2 0x16B7 JUMP JUMPDEST PUSH2 0xEDD JUMP JUMPDEST STOP JUMPDEST CALLVALUE DUP1 ISZERO PUSH2 0x1FE JUMPI PUSH1 0x0 DUP1 REVERT JUMPDEST POP PUSH2 0x219 PUSH1 0x4 DUP1 CALLDATASIZE SUB DUP2 ADD SWAP1 PUSH2 0x214 SWAP2 SWAP1 PUSH2 0x15E1 JUMP JUMPDEST PUSH2 0x10A6 JUMP JUMPDEST PUSH1 0x40 MLOAD PUSH2 0x228 SWAP4 SWAP3 SWAP2 SWAP1 PUSH2 0x1A92 JUMP JUMPDEST PUSH1 0x40 MLOAD DUP1 SWAP2 SUB SWAP1 RETURN JUMPDEST PUSH1 0x1 SLOAD DUP2 JUMP JUMPDEST PUSH1 0x0 PUSH1 0x2 PUSH1 0x0 DUP4 PUSH20 0xFFFFFFFFFFFFFFFFFFFFFFFFFFFFFFFFFFFFFFFF AND PUSH20 0xFFFFFFFFFFFFFFFFFFFFFFFFFFFFFFFFFFFFFFFF AND DUP2 MSTORE PUSH1 0x20 ADD SWAP1 DUP2 MSTORE PUSH1 0x20 ADD PUSH1 0x0 KECCAK256 PUSH1 0x0 SWAP1 SLOAD SWAP1 PUSH2 0x100 EXP SWAP1 DIV PUSH1 0xFF AND SWAP1 POP SWAP2 SWAP1 POP JUMP JUMPDEST PUSH1 0x0 DUP1 PUSH1 0x1 SWAP1 SLOAD SWAP1 PUSH2 0x100 EXP SWAP1 DIV PUSH20 0xFFFFFFFFFFFFFFFFFFFFFFFFFFFFFFFFFFFFFFFF AND PUSH20 0xFFFFFFFFFFFFFFFFFFFFFFFFFFFFFFFFFFFFFFFF AND PUSH4 0x2FB0C5E PUSH1 0x40 MLOAD DUP2 PUSH4 0xFFFFFFFF AND PUSH1 0xE0 SHL DUP2 MSTORE PUSH1 0x4 ADD PUSH1 0x20 PUSH1 0x40 MLOAD DUP1 DUP4 SUB DUP2 DUP7 DUP1 EXTCODESIZE ISZERO DUP1 ISZERO PUSH2 0x2F6 JUMPI PUSH1 0x0 DUP1 REVERT JUMPDEST POP GAS STATICCALL ISZERO DUP1 ISZERO PUSH2 0x30A JUMPI RETURNDATASIZE PUSH1 0x0 DUP1 RETURNDATACOPY RETURNDATASIZE PUSH1 0x0 REVERT JUMPDEST POP POP POP POP PUSH1 0x40 MLOAD RETURNDATASIZE PUSH1 0x1F NOT PUSH1 0x1F DUP3 ADD AND DUP3 ADD DUP1 PUSH1 0x40 MSTORE POP DUP2 ADD SWAP1 PUSH2 0x32E SWAP2 SWAP1 PUSH2 0x15B8 JUMP JUMPDEST PUSH2 0x337 JUMPI PUSH1 0x0 DUP1 REVERT JUMPDEST PUSH2 0x33F PUSH2 0x1274 JUMP JUMPDEST PUSH1 0x0 DUP1 PUSH1 0x0 DUP1 PUSH1 0x0 DUP1 PUSH1 0x0 PUSH1 0x1 SWAP1 SLOAD SWAP1 PUSH2 0x100 EXP SWAP1 DIV PUSH20 0xFFFFFFFFFFFFFFFFFFFFFFFFFFFFFFFFFFFFFFFF AND PUSH20 0xFFFFFFFFFFFFFFFFFFFFFFFFFFFFFFFFFFFFFFFF AND PUSH4 0x579C576A PUSH1 0x40 MLOAD DUP2 PUSH4 0xFFFFFFFF AND PUSH1 0xE0 SHL DUP2 MSTORE PUSH1 0x4 ADD PUSH1 0xC0 PUSH1 0x40 MLOAD DUP1 DUP4 SUB DUP2 DUP7 DUP1 EXTCODESIZE ISZERO DUP1 ISZERO PUSH2 0x3B0 JUMPI PUSH1 0x0 DUP1 REVERT JUMPDEST POP GAS STATICCALL ISZERO DUP1 ISZERO PUSH2 0x3C4 JUMPI RETURNDATASIZE PUSH1 0x0 DUP1 RETURNDATACOPY RETURNDATASIZE PUSH1 0x0 REVERT JUMPDEST POP POP POP POP PUSH1 0x40 MLOAD RETURNDATASIZE PUSH1 0x1F NOT PUSH1 0x1F DUP3 ADD AND DUP3 ADD DUP1 PUSH1 0x40 MSTORE POP DUP2 ADD SWAP1 PUSH2 0x3E8 SWAP2 SWAP1 PUSH2 0x1464 JUMP JUMPDEST SWAP6 POP SWAP6 POP SWAP6 POP SWAP6 POP SWAP6 POP SWAP6 POP PUSH1 0x40 MLOAD DUP1 PUSH1 0xC0 ADD PUSH1 0x40 MSTORE DUP1 DUP8 PUSH20 0xFFFFFFFFFFFFFFFFFFFFFFFFFFFFFFFFFFFFFFFF AND DUP2 MSTORE PUSH1 0x20 ADD DUP7 PUSH20 0xFFFFFFFFFFFFFFFFFFFFFFFFFFFFFFFFFFFFFFFF AND DUP2 MSTORE PUSH1 0x20 ADD DUP6 PUSH20 0xFFFFFFFFFFFFFFFFFFFFFFFFFFFFFFFFFFFFFFFF AND DUP2 MSTORE PUSH1 0x20 ADD DUP5 PUSH20 0xFFFFFFFFFFFFFFFFFFFFFFFFFFFFFFFFFFFFFFFF AND DUP2 MSTORE PUSH1 0x20 ADD DUP4 DUP2 MSTORE PUSH1 0x20 ADD DUP3 DUP2 MSTORE POP SWAP7 POP POP POP POP POP POP POP CALLER PUSH20 0xFFFFFFFFFFFFFFFFFFFFFFFFFFFFFFFFFFFFFFFF AND DUP8 PUSH20 0xFFFFFFFFFFFFFFFFFFFFFFFFFFFFFFFFFFFFFFFF AND EQ ISZERO PUSH2 0x4F0 JUMPI PUSH1 0x40 MLOAD PUSH32 0x8C379A000000000000000000000000000000000000000000000000000000000 DUP2 MSTORE PUSH1 0x4 ADD PUSH2 0x4E7 SWAP1 PUSH2 0x1B7B JUMP JUMPDEST PUSH1 0x40 MLOAD DUP1 SWAP2 SUB SWAP1 REVERT JUMPDEST PUSH1 0x1 DUP5 LT ISZERO DUP1 ISZERO PUSH2 0x502 JUMPI POP PUSH1 0x64 DUP5 GT ISZERO JUMPDEST PUSH2 0x541 JUMPI PUSH1 0x40 MLOAD PUSH32 0x8C379A000000000000000000000000000000000000000000000000000000000 DUP2 MSTORE PUSH1 0x4 ADD PUSH2 0x538 SWAP1 PUSH2 0x1BDB JUMP JUMPDEST PUSH1 0x40 MLOAD DUP1 SWAP2 SUB SWAP1 REVERT JUMPDEST DUP1 PUSH1 0x80 ADD MLOAD DUP4 LT ISZERO DUP1 ISZERO PUSH2 0x559 JUMPI POP DUP1 PUSH1 0xA0 ADD MLOAD DUP4 GT ISZERO JUMPDEST PUSH2 0x598 JUMPI PUSH1 0x40 MLOAD PUSH32 0x8C379A000000000000000000000000000000000000000000000000000000000 DUP2 MSTORE PUSH1 0x4 ADD PUSH2 0x58F SWAP1 PUSH2 0x1BFB JUMP JUMPDEST PUSH1 0x40 MLOAD DUP1 SWAP2 SUB SWAP1 REVERT JUMPDEST PUSH1 0x0 PUSH1 0x3 DUP8 PUSH1 0x40 MLOAD PUSH2 0x5AA SWAP2 SWAP1 PUSH2 0x1936 JUMP JUMPDEST SWAP1 DUP2 MSTORE PUSH1 0x20 ADD PUSH1 0x40 MLOAD DUP1 SWAP2 SUB SWAP1 KECCAK256 PUSH1 0x40 MLOAD DUP1 PUSH1 0x60 ADD PUSH1 0x40 MSTORE SWAP1 DUP2 PUSH1 0x0 DUP3 ADD PUSH1 0x0 SWAP1 SLOAD SWAP1 PUSH2 0x100 EXP SWAP1 DIV PUSH20 0xFFFFFFFFFFFFFFFFFFFFFFFFFFFFFFFFFFFFFFFF AND PUSH20 0xFFFFFFFFFFFFFFFFFFFFFFFFFFFFFFFFFFFFFFFF AND PUSH20 0xFFFFFFFFFFFFFFFFFFFFFFFFFFFFFFFFFFFFFFFF AND DUP2 MSTORE PUSH1 0x20 ADD PUSH1 0x1 DUP3 ADD SLOAD DUP2 MSTORE PUSH1 0x20 ADD PUSH1 0x2 DUP3 ADD PUSH1 0x0 SWAP1 SLOAD SWAP1 PUSH2 0x100 EXP SWAP1 DIV PUSH1 0xFF AND ISZERO ISZERO ISZERO ISZERO DUP2 MSTORE POP POP SWAP1 POP DUP1 PUSH1 0x40 ADD MLOAD PUSH2 0x684 JUMPI PUSH1 0x40 MLOAD PUSH32 0x8C379A000000000000000000000000000000000000000000000000000000000 DUP2 MSTORE PUSH1 0x4 ADD PUSH2 0x67B SWAP1 PUSH2 0x1B9B JUMP JUMPDEST PUSH1 0x40 MLOAD DUP1 SWAP2 SUB SWAP1 REVERT JUMPDEST DUP1 PUSH1 0x20 ADD MLOAD DUP7 LT ISZERO PUSH2 0x6CB JUMPI PUSH1 0x40 MLOAD PUSH32 0x8C379A000000000000000000000000000000000000000000000000000000000 DUP2 MSTORE PUSH1 0x4 ADD PUSH2 0x6C2 SWAP1 PUSH2 0x1B3B JUMP JUMPDEST PUSH1 0x40 MLOAD DUP1 SWAP2 SUB SWAP1 REVERT JUMPDEST PUSH1 0x0 PUSH2 0x6DA DUP4 PUSH1 0x60 ADD MLOAD PUSH2 0x1113 JUMP JUMPDEST SWAP1 POP PUSH1 0x1 PUSH1 0x0 DUP2 SLOAD DUP1 SWAP3 SWAP2 SWAP1 PUSH2 0x6EF SWAP1 PUSH2 0x1E59 JUMP JUMPDEST SWAP2 SWAP1 POP SSTORE POP PUSH1 0x1 PUSH1 0x2 PUSH1 0x0 DUP4 PUSH20 0xFFFFFFFFFFFFFFFFFFFFFFFFFFFFFFFFFFFFFFFF AND PUSH20 0xFFFFFFFFFFFFFFFFFFFFFFFFFFFFFFFFFFFFFFFF AND DUP2 MSTORE PUSH1 0x20 ADD SWAP1 DUP2 MSTORE PUSH1 0x20 ADD PUSH1 0x0 KECCAK256 PUSH1 0x0 PUSH2 0x100 EXP DUP2 SLOAD DUP2 PUSH1 0xFF MUL NOT AND SWAP1 DUP4 ISZERO ISZERO MUL OR SWAP1 SSTORE POP PUSH1 0x0 PUSH2 0x774 PUSH1 0x64 PUSH2 0x766 DUP10 DUP12 PUSH2 0x117D SWAP1 SWAP2 SWAP1 PUSH4 0xFFFFFFFF AND JUMP JUMPDEST PUSH2 0x1193 SWAP1 SWAP2 SWAP1 PUSH4 0xFFFFFFFF AND JUMP JUMPDEST SWAP1 POP PUSH1 0x0 PUSH20 0xFFFFFFFFFFFFFFFFFFFFFFFFFFFFFFFFFFFFFFFF AND DUP4 PUSH1 0x0 ADD MLOAD PUSH20 0xFFFFFFFFFFFFFFFFFFFFFFFFFFFFFFFFFFFFFFFF AND EQ ISZERO PUSH2 0x8ED JUMPI DUP1 CALLVALUE EQ PUSH2 0x7F1 JUMPI PUSH1 0x40 MLOAD PUSH32 0x8C379A000000000000000000000000000000000000000000000000000000000 DUP2 MSTORE PUSH1 0x4 ADD PUSH2 0x7E8 SWAP1 PUSH2 0x1B5B JUMP JUMPDEST PUSH1 0x40 MLOAD DUP1 SWAP2 SUB SWAP1 REVERT JUMPDEST DUP4 PUSH1 0x20 ADD MLOAD PUSH20 0xFFFFFFFFFFFFFFFFFFFFFFFFFFFFFFFFFFFFFFFF AND PUSH4 0xD0E30DB0 CALLVALUE PUSH1 0x40 MLOAD DUP3 PUSH4 0xFFFFFFFF AND PUSH1 0xE0 SHL DUP2 MSTORE PUSH1 0x4 ADD PUSH1 0x0 PUSH1 0x40 MLOAD DUP1 DUP4 SUB DUP2 DUP6 DUP9 DUP1 EXTCODESIZE ISZERO DUP1 ISZERO PUSH2 0x83D JUMPI PUSH1 0x0 DUP1 REVERT JUMPDEST POP GAS CALL ISZERO DUP1 ISZERO PUSH2 0x851 JUMPI RETURNDATASIZE PUSH1 0x0 DUP1 RETURNDATACOPY RETURNDATASIZE PUSH1 0x0 REVERT JUMPDEST POP POP POP POP POP DUP4 PUSH1 0x20 ADD MLOAD PUSH20 0xFFFFFFFFFFFFFFFFFFFFFFFFFFFFFFFFFFFFFFFF AND PUSH4 0xA9059CBB DUP4 CALLVALUE PUSH1 0x40 MLOAD DUP4 PUSH4 0xFFFFFFFF AND PUSH1 0xE0 SHL DUP2 MSTORE PUSH1 0x4 ADD PUSH2 0x895 SWAP3 SWAP2 SWAP1 PUSH2 0x1A69 JUMP JUMPDEST PUSH1 0x20 PUSH1 0x40 MLOAD DUP1 DUP4 SUB DUP2 PUSH1 0x0 DUP8 DUP1 EXTCODESIZE ISZERO DUP1 ISZERO PUSH2 0x8AF JUMPI PUSH1 0x0 DUP1 REVERT JUMPDEST POP GAS CALL ISZERO DUP1 ISZERO PUSH2 0x8C3 JUMPI RETURNDATASIZE PUSH1 0x0 DUP1 RETURNDATACOPY RETURNDATASIZE PUSH1 0x0 REVERT JUMPDEST POP POP POP POP PUSH1 0x40 MLOAD RETURNDATASIZE PUSH1 0x1F NOT PUSH1 0x1F DUP3 ADD AND DUP3 ADD DUP1 PUSH1 0x40 MSTORE POP DUP2 ADD SWAP1 PUSH2 0x8E7 SWAP2 SWAP1 PUSH2 0x15B8 JUMP JUMPDEST POP PUSH2 0x988 JUMP JUMPDEST DUP4 PUSH1 0x40 ADD MLOAD PUSH20 0xFFFFFFFFFFFFFFFFFFFFFFFFFFFFFFFFFFFFFFFF AND PUSH4 0x8F1B407A DUP5 PUSH1 0x0 ADD MLOAD CALLER DUP6 DUP6 PUSH1 0x40 MLOAD DUP6 PUSH4 0xFFFFFFFF AND PUSH1 0xE0 SHL DUP2 MSTORE PUSH1 0x4 ADD PUSH2 0x934 SWAP5 SWAP4 SWAP3 SWAP2 SWAP1 PUSH2 0x19ED JUMP JUMPDEST PUSH1 0x20 PUSH1 0x40 MLOAD DUP1 DUP4 SUB DUP2 PUSH1 0x0 DUP8 DUP1 EXTCODESIZE ISZERO DUP1 ISZERO PUSH2 0x94E JUMPI PUSH1 0x0 DUP1 REVERT JUMPDEST POP GAS CALL ISZERO DUP1 ISZERO PUSH2 0x962 JUMPI RETURNDATASIZE PUSH1 0x0 DUP1 RETURNDATACOPY RETURNDATASIZE PUSH1 0x0 REVERT JUMPDEST POP POP POP POP PUSH1 0x40 MLOAD RETURNDATASIZE PUSH1 0x1F NOT PUSH1 0x1F DUP3 ADD AND DUP3 ADD DUP1 PUSH1 0x40 MSTORE POP DUP2 ADD SWAP1 PUSH2 0x986 SWAP2 SWAP1 PUSH2 0x15B8 JUMP JUMPDEST POP JUMPDEST DUP2 PUSH20 0xFFFFFFFFFFFFFFFFFFFFFFFFFFFFFFFFFFFFFFFF AND PUSH4 0x7C4B6A1B PUSH1 0x0 PUSH1 0x1 SWAP1 SLOAD SWAP1 PUSH2 0x100 EXP SWAP1 DIV PUSH20 0xFFFFFFFFFFFFFFFFFFFFFFFFFFFFFFFFFFFFFFFF AND CALLER DUP14 DUP8 PUSH1 0x0 ADD MLOAD DUP15 DUP15 DUP15 DUP15 PUSH1 0x40 MLOAD DUP10 PUSH4 0xFFFFFFFF AND PUSH1 0xE0 SHL DUP2 MSTORE PUSH1 0x4 ADD PUSH2 0x9F5 SWAP9 SWAP8 SWAP7 SWAP6 SWAP5 SWAP4 SWAP3 SWAP2 SWAP1 PUSH2 0x1968 JUMP JUMPDEST PUSH1 0x0 PUSH1 0x40 MLOAD DUP1 DUP4 SUB DUP2 PUSH1 0x0 DUP8 DUP1 EXTCODESIZE ISZERO DUP1 ISZERO PUSH2 0xA0F JUMPI PUSH1 0x0 DUP1 REVERT JUMPDEST POP GAS CALL ISZERO DUP1 ISZERO PUSH2 0xA23 JUMPI RETURNDATASIZE PUSH1 0x0 DUP1 RETURNDATACOPY RETURNDATASIZE PUSH1 0x0 REVERT JUMPDEST POP POP POP POP DUP9 PUSH1 0x40 MLOAD PUSH2 0xA35 SWAP2 SWAP1 PUSH2 0x1936 JUMP JUMPDEST PUSH1 0x40 MLOAD DUP1 SWAP2 SUB SWAP1 KECCAK256 CALLER PUSH20 0xFFFFFFFFFFFFFFFFFFFFFFFFFFFFFFFFFFFFFFFF AND PUSH32 0xD924D6866681D7189798250368682A2B27B18955B5269DEF8231A982D081A48F DUP5 PUSH1 0x40 MLOAD PUSH2 0xA83 SWAP2 SWAP1 PUSH2 0x194D JUMP JUMPDEST PUSH1 0x40 MLOAD DUP1 SWAP2 SUB SWAP1 LOG3 DUP4 PUSH1 0x0 ADD MLOAD PUSH20 0xFFFFFFFFFFFFFFFFFFFFFFFFFFFFFFFFFFFFFFFF AND DUP4 PUSH1 0x0 ADD MLOAD PUSH20 0xFFFFFFFFFFFFFFFFFFFFFFFFFFFFFFFFFFFFFFFF AND EQ DUP1 ISZERO PUSH2 0xACE JUMPI POP PUSH1 0x64 DUP8 EQ JUMPDEST ISZERO PUSH2 0xB47 JUMPI DUP4 PUSH1 0x40 ADD MLOAD PUSH20 0xFFFFFFFFFFFFFFFFFFFFFFFFFFFFFFFFFFFFFFFF AND PUSH4 0xD618D8B7 CALLER DUP4 DUP10 PUSH1 0x40 MLOAD DUP5 PUSH4 0xFFFFFFFF AND PUSH1 0xE0 SHL DUP2 MSTORE PUSH1 0x4 ADD PUSH2 0xB14 SWAP4 SWAP3 SWAP2 SWAP1 PUSH2 0x1AC9 JUMP JUMPDEST PUSH1 0x0 PUSH1 0x40 MLOAD DUP1 DUP4 SUB DUP2 PUSH1 0x0 DUP8 DUP1 EXTCODESIZE ISZERO DUP1 ISZERO PUSH2 0xB2E JUMPI PUSH1 0x0 DUP1 REVERT JUMPDEST POP GAS CALL ISZERO DUP1 ISZERO PUSH2 0xB42 JUMPI RETURNDATASIZE PUSH1 0x0 DUP1 RETURNDATACOPY RETURNDATASIZE PUSH1 0x0 REVERT JUMPDEST POP POP POP POP JUMPDEST DUP2 SWAP5 POP POP POP POP POP SWAP6 SWAP5 POP POP POP POP POP JUMP JUMPDEST PUSH1 0x2 PUSH1 0x0 CALLER PUSH20 0xFFFFFFFFFFFFFFFFFFFFFFFFFFFFFFFFFFFFFFFF AND PUSH20 0xFFFFFFFFFFFFFFFFFFFFFFFFFFFFFFFFFFFFFFFF AND DUP2 MSTORE PUSH1 0x20 ADD SWAP1 DUP2 MSTORE PUSH1 0x20 ADD PUSH1 0x0 KECCAK256 PUSH1 0x0 SWAP1 SLOAD SWAP1 PUSH2 0x100 EXP SWAP1 DIV PUSH1 0xFF AND PUSH2 0xBE3 JUMPI PUSH1 0x40 MLOAD PUSH32 0x8C379A000000000000000000000000000000000000000000000000000000000 DUP2 MSTORE PUSH1 0x4 ADD PUSH2 0xBDA SWAP1 PUSH2 0x1C1B JUMP JUMPDEST PUSH1 0x40 MLOAD DUP1 SWAP2 SUB SWAP1 REVERT JUMPDEST PUSH32 0x786685D37B7E0E01D60AD0ED07D2A842B8A5C4A21B9C649B8D274866DED29104 CALLER DUP4 DUP4 PUSH1 0x40 MLOAD PUSH2 0xC16 SWAP4 SWAP3 SWAP2 SWAP1 PUSH2 0x1A32 JUMP JUMPDEST PUSH1 0x40 MLOAD DUP1 SWAP2 SUB SWAP1 LOG1 POP POP JUMP JUMPDEST PUSH1 0x0 DUP1 SLOAD SWAP1 PUSH2 0x100 EXP SWAP1 DIV PUSH1 0xFF AND ISZERO PUSH2 0xC70 JUMPI PUSH1 0x40 MLOAD PUSH32 0x8C379A000000000000000000000000000000000000000000000000000000000 DUP2 MSTORE PUSH1 0x4 ADD PUSH2 0xC67 SWAP1 PUSH2 0x1BBB JUMP JUMPDEST PUSH1 0x40 MLOAD DUP1 SWAP2 SUB SWAP1 REVERT JUMPDEST DUP1 PUSH1 0x0 PUSH1 0x1 PUSH2 0x100 EXP DUP2 SLOAD DUP2 PUSH20 0xFFFFFFFFFFFFFFFFFFFFFFFFFFFFFFFFFFFFFFFF MUL NOT AND SWAP1 DUP4 PUSH20 0xFFFFFFFFFFFFFFFFFFFFFFFFFFFFFFFFFFFFFFFF AND MUL OR SWAP1 SSTORE POP PUSH2 0xCBE DUP3 PUSH1 0x0 PUSH1 0x64 PUSH2 0x11A9 JUMP JUMPDEST PUSH1 0x1 PUSH1 0x0 DUP1 PUSH2 0x100 EXP DUP2 SLOAD DUP2 PUSH1 0xFF MUL NOT AND SWAP1 DUP4 ISZERO ISZERO MUL OR SWAP1 SSTORE POP POP POP JUMP JUMPDEST PUSH1 0x0 PUSH1 0x1 SWAP1 SLOAD SWAP1 PUSH2 0x100 EXP SWAP1 DIV PUSH20 0xFFFFFFFFFFFFFFFFFFFFFFFFFFFFFFFFFFFFFFFF AND DUP2 JUMP JUMPDEST PUSH1 0x0 PUSH1 0x1 SWAP1 SLOAD SWAP1 PUSH2 0x100 EXP SWAP1 DIV PUSH20 0xFFFFFFFFFFFFFFFFFFFFFFFFFFFFFFFFFFFFFFFF AND PUSH20 0xFFFFFFFFFFFFFFFFFFFFFFFFFFFFFFFFFFFFFFFF AND CALLER PUSH20 0xFFFFFFFFFFFFFFFFFFFFFFFFFFFFFFFFFFFFFFFF AND EQ PUSH2 0xD92 JUMPI PUSH1 0x40 MLOAD PUSH32 0x8C379A000000000000000000000000000000000000000000000000000000000 DUP2 MSTORE PUSH1 0x4 ADD PUSH2 0xD89 SWAP1 PUSH2 0x1C5B JUMP JUMPDEST PUSH1 0x40 MLOAD DUP1 SWAP2 SUB SWAP1 REVERT JUMPDEST PUSH1 0x0 DUP3 PUSH20 0xFFFFFFFFFFFFFFFFFFFFFFFFFFFFFFFFFFFFFFFF AND PUSH4 0x95D89B41 PUSH1 0x40 MLOAD DUP2 PUSH4 0xFFFFFFFF AND PUSH1 0xE0 SHL DUP2 MSTORE PUSH1 0x4 ADD PUSH1 0x0 PUSH1 0x40 MLOAD DUP1 DUP4 SUB DUP2 DUP7 DUP1 EXTCODESIZE ISZERO DUP1 ISZERO PUSH2 0xDDA JUMPI PUSH1 0x0 DUP1 REVERT JUMPDEST POP GAS STATICCALL ISZERO DUP1 ISZERO PUSH2 0xDEE JUMPI RETURNDATASIZE PUSH1 0x0 DUP1 RETURNDATACOPY RETURNDATASIZE PUSH1 0x0 REVERT JUMPDEST POP POP POP POP PUSH1 0x40 MLOAD RETURNDATASIZE PUSH1 0x0 DUP3 RETURNDATACOPY RETURNDATASIZE PUSH1 0x1F NOT PUSH1 0x1F DUP3 ADD AND DUP3 ADD DUP1 PUSH1 0x40 MSTORE POP DUP2 ADD SWAP1 PUSH2 0xE17 SWAP2 SWAP1 PUSH2 0x1622 JUMP JUMPDEST SWAP1 POP PUSH1 0x0 DUP2 MLOAD LT ISZERO PUSH2 0xE5E JUMPI PUSH1 0x40 MLOAD PUSH32 0x8C379A000000000000000000000000000000000000000000000000000000000 DUP2 MSTORE PUSH1 0x4 ADD PUSH2 0xE55 SWAP1 PUSH2 0x1B1B JUMP JUMPDEST PUSH1 0x40 MLOAD DUP1 SWAP2 SUB SWAP1 REVERT JUMPDEST PUSH1 0x3 DUP2 PUSH1 0x40 MLOAD PUSH2 0xE6E SWAP2 SWAP1 PUSH2 0x1936 JUMP JUMPDEST SWAP1 DUP2 MSTORE PUSH1 0x20 ADD PUSH1 0x40 MLOAD DUP1 SWAP2 SUB SWAP1 KECCAK256 PUSH1 0x2 ADD PUSH1 0x0 SWAP1 SLOAD SWAP1 PUSH2 0x100 EXP SWAP1 DIV PUSH1 0xFF AND ISZERO PUSH2 0xECD JUMPI PUSH1 0x40 MLOAD PUSH32 0x8C379A000000000000000000000000000000000000000000000000000000000 DUP2 MSTORE PUSH1 0x4 ADD PUSH2 0xEC4 SWAP1 PUSH2 0x1C3B JUMP JUMPDEST PUSH1 0x40 MLOAD DUP1 SWAP2 SUB SWAP1 REVERT JUMPDEST PUSH2 0xED8 DUP2 DUP5 DUP5 PUSH2 0x11A9 JUMP JUMPDEST POP POP POP JUMP JUMPDEST PUSH1 0x0 PUSH1 0x1 SWAP1 SLOAD SWAP1 PUSH2 0x100 EXP SWAP1 DIV PUSH20 0xFFFFFFFFFFFFFFFFFFFFFFFFFFFFFFFFFFFFFFFF AND PUSH20 0xFFFFFFFFFFFFFFFFFFFFFFFFFFFFFFFFFFFFFFFF AND CALLER PUSH20 0xFFFFFFFFFFFFFFFFFFFFFFFFFFFFFFFFFFFFFFFF AND EQ PUSH2 0xF6D JUMPI PUSH1 0x40 MLOAD PUSH32 0x8C379A000000000000000000000000000000000000000000000000000000000 DUP2 MSTORE PUSH1 0x4 ADD PUSH2 0xF64 SWAP1 PUSH2 0x1C5B JUMP JUMPDEST PUSH1 0x40 MLOAD DUP1 SWAP2 SUB SWAP1 REVERT JUMPDEST PUSH1 0x3 DUP4 PUSH1 0x40 MLOAD PUSH2 0xF7D SWAP2 SWAP1 PUSH2 0x1936 JUMP JUMPDEST SWAP1 DUP2 MSTORE PUSH1 0x20 ADD PUSH1 0x40 MLOAD DUP1 SWAP2 SUB SWAP1 KECCAK256 PUSH1 0x2 ADD PUSH1 0x0 SWAP1 SLOAD SWAP1 PUSH2 0x100 EXP SWAP1 DIV PUSH1 0xFF AND PUSH2 0xFDB JUMPI PUSH1 0x40 MLOAD PUSH32 0x8C379A000000000000000000000000000000000000000000000000000000000 DUP2 MSTORE PUSH1 0x4 ADD PUSH2 0xFD2 SWAP1 PUSH2 0x1B9B JUMP JUMPDEST PUSH1 0x40 MLOAD DUP1 SWAP2 SUB SWAP1 REVERT JUMPDEST PUSH1 0x40 MLOAD DUP1 PUSH1 0x60 ADD PUSH1 0x40 MSTORE DUP1 DUP4 PUSH20 0xFFFFFFFFFFFFFFFFFFFFFFFFFFFFFFFFFFFFFFFF AND DUP2 MSTORE PUSH1 0x20 ADD DUP3 DUP2 MSTORE PUSH1 0x20 ADD PUSH1 0x1 ISZERO ISZERO DUP2 MSTORE POP PUSH1 0x3 DUP5 PUSH1 0x40 MLOAD PUSH2 0x101F SWAP2 SWAP1 PUSH2 0x1936 JUMP JUMPDEST SWAP1 DUP2 MSTORE PUSH1 0x20 ADD PUSH1 0x40 MLOAD DUP1 SWAP2 SUB SWAP1 KECCAK256 PUSH1 0x0 DUP3 ADD MLOAD DUP2 PUSH1 0x0 ADD PUSH1 0x0 PUSH2 0x100 EXP DUP2 SLOAD DUP2 PUSH20 0xFFFFFFFFFFFFFFFFFFFFFFFFFFFFFFFFFFFFFFFF MUL NOT AND SWAP1 DUP4 PUSH20 0xFFFFFFFFFFFFFFFFFFFFFFFFFFFFFFFFFFFFFFFF AND MUL OR SWAP1 SSTORE POP PUSH1 0x20 DUP3 ADD MLOAD DUP2 PUSH1 0x1 ADD SSTORE PUSH1 0x40 DUP3 ADD MLOAD DUP2 PUSH1 0x2 ADD PUSH1 0x0 PUSH2 0x100 EXP DUP2 SLOAD DUP2 PUSH1 0xFF MUL NOT AND SWAP1 DUP4 ISZERO ISZERO MUL OR SWAP1 SSTORE POP SWAP1 POP POP POP POP POP JUMP JUMPDEST PUSH1 0x3 DUP2 DUP1 MLOAD PUSH1 0x20 DUP2 ADD DUP3 ADD DUP1 MLOAD DUP5 DUP3 MSTORE PUSH1 0x20 DUP4 ADD PUSH1 0x20 DUP6 ADD KECCAK256 DUP2 DUP4 MSTORE DUP1 SWAP6 POP POP POP POP POP POP PUSH1 0x0 SWAP2 POP SWAP1 POP DUP1 PUSH1 0x0 ADD PUSH1 0x0 SWAP1 SLOAD SWAP1 PUSH2 0x100 EXP SWAP1 DIV PUSH20 0xFFFFFFFFFFFFFFFFFFFFFFFFFFFFFFFFFFFFFFFF AND SWAP1 DUP1 PUSH1 0x1 ADD SLOAD SWAP1 DUP1 PUSH1 0x2 ADD PUSH1 0x0 SWAP1 SLOAD SWAP1 PUSH2 0x100 EXP SWAP1 DIV PUSH1 0xFF AND SWAP1 POP DUP4 JUMP JUMPDEST PUSH1 0x0 DUP1 DUP3 PUSH1 0x60 SHL SWAP1 POP PUSH1 0x40 MLOAD PUSH32 0x3D602D80600A3D3981F3363D3D373D3D3D363D73000000000000000000000000 DUP2 MSTORE DUP2 PUSH1 0x14 DUP3 ADD MSTORE PUSH32 0x5AF43D82803E903D91602B57FD5BF30000000000000000000000000000000000 PUSH1 0x28 DUP3 ADD MSTORE PUSH1 0x37 DUP2 PUSH1 0x0 CREATE SWAP3 POP POP POP SWAP2 SWAP1 POP JUMP JUMPDEST PUSH1 0x0 DUP2 DUP4 PUSH2 0x118B SWAP2 SWAP1 PUSH2 0x1D44 JUMP JUMPDEST SWAP1 POP SWAP3 SWAP2 POP POP JUMP JUMPDEST PUSH1 0x0 DUP2 DUP4 PUSH2 0x11A1 SWAP2 SWAP1 PUSH2 0x1D13 JUMP JUMPDEST SWAP1 POP SWAP3 SWAP2 POP POP JUMP JUMPDEST PUSH1 0x40 MLOAD DUP1 PUSH1 0x60 ADD PUSH1 0x40 MSTORE DUP1 DUP4 PUSH20 0xFFFFFFFFFFFFFFFFFFFFFFFFFFFFFFFFFFFFFFFF AND DUP2 MSTORE PUSH1 0x20 ADD DUP3 DUP2 MSTORE PUSH1 0x20 ADD PUSH1 0x1 ISZERO ISZERO DUP2 MSTORE POP PUSH1 0x3 DUP5 PUSH1 0x40 MLOAD PUSH2 0x11ED SWAP2 SWAP1 PUSH2 0x1936 JUMP JUMPDEST SWAP1 DUP2 MSTORE PUSH1 0x20 ADD PUSH1 0x40 MLOAD DUP1 SWAP2 SUB SWAP1 KECCAK256 PUSH1 0x0 DUP3 ADD MLOAD DUP2 PUSH1 0x0 ADD PUSH1 0x0 PUSH2 0x100 EXP DUP2 SLOAD DUP2 PUSH20 0xFFFFFFFFFFFFFFFFFFFFFFFFFFFFFFFFFFFFFFFF MUL NOT AND SWAP1 DUP4 PUSH20 0xFFFFFFFFFFFFFFFFFFFFFFFFFFFFFFFFFFFFFFFF AND MUL OR SWAP1 SSTORE POP PUSH1 0x20 DUP3 ADD MLOAD DUP2 PUSH1 0x1 ADD SSTORE PUSH1 0x40 DUP3 ADD MLOAD DUP2 PUSH1 0x2 ADD PUSH1 0x0 PUSH2 0x100 EXP DUP2 SLOAD DUP2 PUSH1 0xFF MUL NOT AND SWAP1 DUP4 ISZERO ISZERO MUL OR SWAP1 SSTORE POP SWAP1 POP POP POP POP POP JUMP JUMPDEST PUSH1 0x40 MLOAD DUP1 PUSH1 0xC0 ADD PUSH1 0x40 MSTORE DUP1 PUSH1 0x0 PUSH20 0xFFFFFFFFFFFFFFFFFFFFFFFFFFFFFFFFFFFFFFFF AND DUP2 MSTORE PUSH1 0x20 ADD PUSH1 0x0 PUSH20 0xFFFFFFFFFFFFFFFFFFFFFFFFFFFFFFFFFFFFFFFF AND DUP2 MSTORE PUSH1 0x20 ADD PUSH1 0x0 PUSH20 0xFFFFFFFFFFFFFFFFFFFFFFFFFFFFFFFFFFFFFFFF AND DUP2 MSTORE PUSH1 0x20 ADD PUSH1 0x0 PUSH20 0xFFFFFFFFFFFFFFFFFFFFFFFFFFFFFFFFFFFFFFFF AND DUP2 MSTORE PUSH1 0x20 ADD PUSH1 0x0 DUP2 MSTORE PUSH1 0x20 ADD PUSH1 0x0 DUP2 MSTORE POP SWAP1 JUMP JUMPDEST PUSH1 0x0 PUSH2 0x1315 PUSH2 0x1310 DUP5 PUSH2 0x1CBB JUMP JUMPDEST PUSH2 0x1C96 JUMP JUMPDEST SWAP1 POP DUP3 DUP2 MSTORE PUSH1 0x20 DUP2 ADD DUP5 DUP5 DUP5 ADD GT ISZERO PUSH2 0x132D JUMPI PUSH1 0x0 DUP1 REVERT JUMPDEST PUSH2 0x1338 DUP5 DUP3 DUP6 PUSH2 0x1DE6 JUMP JUMPDEST POP SWAP4 SWAP3 POP POP POP JUMP JUMPDEST PUSH1 0x0 PUSH2 0x1353 PUSH2 0x134E DUP5 PUSH2 0x1CBB JUMP JUMPDEST PUSH2 0x1C96 JUMP JUMPDEST SWAP1 POP DUP3 DUP2 MSTORE PUSH1 0x20 DUP2 ADD DUP5 DUP5 DUP5 ADD GT ISZERO PUSH2 0x136B JUMPI PUSH1 0x0 DUP1 REVERT JUMPDEST PUSH2 0x1376 DUP5 DUP3 DUP6 PUSH2 0x1DF5 JUMP JUMPDEST POP SWAP4 SWAP3 POP POP POP JUMP JUMPDEST PUSH1 0x0 DUP2 CALLDATALOAD SWAP1 POP PUSH2 0x138D DUP2 PUSH2 0x214F JUMP JUMPDEST SWAP3 SWAP2 POP POP JUMP JUMPDEST PUSH1 0x0 DUP2 MLOAD SWAP1 POP PUSH2 0x13A2 DUP2 PUSH2 0x214F JUMP JUMPDEST SWAP3 SWAP2 POP POP JUMP JUMPDEST PUSH1 0x0 DUP2 MLOAD SWAP1 POP PUSH2 0x13B7 DUP2 PUSH2 0x2166 JUMP JUMPDEST SWAP3 SWAP2 POP POP JUMP JUMPDEST PUSH1 0x0 DUP3 PUSH1 0x1F DUP4 ADD SLT PUSH2 0x13CE JUMPI PUSH1 0x0 DUP1 REVERT JUMPDEST DUP2 CALLDATALOAD PUSH2 0x13DE DUP5 DUP3 PUSH1 0x20 DUP7 ADD PUSH2 0x1302 JUMP JUMPDEST SWAP2 POP POP SWAP3 SWAP2 POP POP JUMP JUMPDEST PUSH1 0x0 DUP3 PUSH1 0x1F DUP4 ADD SLT PUSH2 0x13F8 JUMPI PUSH1 0x0 DUP1 REVERT JUMPDEST DUP2 MLOAD PUSH2 0x1408 DUP5 DUP3 PUSH1 0x20 DUP7 ADD PUSH2 0x1340 JUMP JUMPDEST SWAP2 POP POP SWAP3 SWAP2 POP POP JUMP JUMPDEST PUSH1 0x0 DUP2 CALLDATALOAD SWAP1 POP PUSH2 0x1420 DUP2 PUSH2 0x217D JUMP JUMPDEST SWAP3 SWAP2 POP POP JUMP JUMPDEST PUSH1 0x0 DUP2 MLOAD SWAP1 POP PUSH2 0x1435 DUP2 PUSH2 0x217D JUMP JUMPDEST SWAP3 SWAP2 POP POP JUMP JUMPDEST PUSH1 0x0 PUSH1 0x20 DUP3 DUP5 SUB SLT ISZERO PUSH2 0x144D JUMPI PUSH1 0x0 DUP1 REVERT JUMPDEST PUSH1 0x0 PUSH2 0x145B DUP5 DUP3 DUP6 ADD PUSH2 0x137E JUMP JUMPDEST SWAP2 POP POP SWAP3 SWAP2 POP POP JUMP JUMPDEST PUSH1 0x0 DUP1 PUSH1 0x0 DUP1 PUSH1 0x0 DUP1 PUSH1 0xC0 DUP8 DUP10 SUB SLT ISZERO PUSH2 0x147D JUMPI PUSH1 0x0 DUP1 REVERT JUMPDEST PUSH1 0x0 PUSH2 0x148B DUP10 DUP3 DUP11 ADD PUSH2 0x1393 JUMP JUMPDEST SWAP7 POP POP PUSH1 0x20 PUSH2 0x149C DUP10 DUP3 DUP11 ADD PUSH2 0x1393 JUMP JUMPDEST SWAP6 POP POP PUSH1 0x40 PUSH2 0x14AD DUP10 DUP3 DUP11 ADD PUSH2 0x1393 JUMP JUMPDEST SWAP5 POP POP PUSH1 0x60 PUSH2 0x14BE DUP10 DUP3 DUP11 ADD PUSH2 0x1393 JUMP JUMPDEST SWAP4 POP POP PUSH1 0x80 PUSH2 0x14CF DUP10 DUP3 DUP11 ADD PUSH2 0x1426 JUMP JUMPDEST SWAP3 POP POP PUSH1 0xA0 PUSH2 0x14E0 DUP10 DUP3 DUP11 ADD PUSH2 0x1426 JUMP JUMPDEST SWAP2 POP POP SWAP3 SWAP6 POP SWAP3 SWAP6 POP SWAP3 SWAP6 JUMP JUMPDEST PUSH1 0x0 DUP1 PUSH1 0x0 DUP1 PUSH1 0x0 PUSH1 0xA0 DUP7 DUP9 SUB SLT ISZERO PUSH2 0x1505 JUMPI PUSH1 0x0 DUP1 REVERT JUMPDEST PUSH1 0x0 PUSH2 0x1513 DUP9 DUP3 DUP10 ADD PUSH2 0x137E JUMP JUMPDEST SWAP6 POP POP PUSH1 0x20 DUP7 ADD CALLDATALOAD PUSH8 0xFFFFFFFFFFFFFFFF DUP2 GT ISZERO PUSH2 0x1530 JUMPI PUSH1 0x0 DUP1 REVERT JUMPDEST PUSH2 0x153C DUP9 DUP3 DUP10 ADD PUSH2 0x13BD JUMP JUMPDEST SWAP5 POP POP PUSH1 0x40 PUSH2 0x154D DUP9 DUP3 DUP10 ADD PUSH2 0x1411 JUMP JUMPDEST SWAP4 POP POP PUSH1 0x60 PUSH2 0x155E DUP9 DUP3 DUP10 ADD PUSH2 0x1411 JUMP JUMPDEST SWAP3 POP POP PUSH1 0x80 PUSH2 0x156F DUP9 DUP3 DUP10 ADD PUSH2 0x1411 JUMP JUMPDEST SWAP2 POP POP SWAP3 SWAP6 POP SWAP3 SWAP6 SWAP1 SWAP4 POP JUMP JUMPDEST PUSH1 0x0 DUP1 PUSH1 0x40 DUP4 DUP6 SUB SLT ISZERO PUSH2 0x158F JUMPI PUSH1 0x0 DUP1 REVERT JUMPDEST PUSH1 0x0 PUSH2 0x159D DUP6 DUP3 DUP7 ADD PUSH2 0x137E JUMP JUMPDEST SWAP3 POP POP PUSH1 0x20 PUSH2 0x15AE DUP6 DUP3 DUP7 ADD PUSH2 0x1411 JUMP JUMPDEST SWAP2 POP POP SWAP3 POP SWAP3 SWAP1 POP JUMP JUMPDEST PUSH1 0x0 PUSH1 0x20 DUP3 DUP5 SUB SLT ISZERO PUSH2 0x15CA JUMPI PUSH1 0x0 DUP1 REVERT JUMPDEST PUSH1 0x0 PUSH2 0x15D8 DUP5 DUP3 DUP6 ADD PUSH2 0x13A8 JUMP JUMPDEST SWAP2 POP POP SWAP3 SWAP2 POP POP JUMP JUMPDEST PUSH1 0x0 PUSH1 0x20 DUP3 DUP5 SUB SLT ISZERO PUSH2 0x15F3 JUMPI PUSH1 0x0 DUP1 REVERT JUMPDEST PUSH1 0x0 DUP3 ADD CALLDATALOAD PUSH8 0xFFFFFFFFFFFFFFFF DUP2 GT ISZERO PUSH2 0x160D JUMPI PUSH1 0x0 DUP1 REVERT JUMPDEST PUSH2 0x1619 DUP5 DUP3 DUP6 ADD PUSH2 0x13BD JUMP JUMPDEST SWAP2 POP POP SWAP3 SWAP2 POP POP JUMP JUMPDEST PUSH1 0x0 PUSH1 0x20 DUP3 DUP5 SUB SLT ISZERO PUSH2 0x1634 JUMPI PUSH1 0x0 DUP1 REVERT JUMPDEST PUSH1 0x0 DUP3 ADD MLOAD PUSH8 0xFFFFFFFFFFFFFFFF DUP2 GT ISZERO PUSH2 0x164E JUMPI PUSH1 0x0 DUP1 REVERT JUMPDEST PUSH2 0x165A DUP5 DUP3 DUP6 ADD PUSH2 0x13E7 JUMP JUMPDEST SWAP2 POP POP SWAP3 SWAP2 POP POP JUMP JUMPDEST PUSH1 0x0 DUP1 PUSH1 0x40 DUP4 DUP6 SUB SLT ISZERO PUSH2 0x1676 JUMPI PUSH1 0x0 DUP1 REVERT JUMPDEST PUSH1 0x0 DUP4 ADD CALLDATALOAD PUSH8 0xFFFFFFFFFFFFFFFF DUP2 GT ISZERO PUSH2 0x1690 JUMPI PUSH1 0x0 DUP1 REVERT JUMPDEST PUSH2 0x169C DUP6 DUP3 DUP7 ADD PUSH2 0x13BD JUMP JUMPDEST SWAP3 POP POP PUSH1 0x20 PUSH2 0x16AD DUP6 DUP3 DUP7 ADD PUSH2 0x137E JUMP JUMPDEST SWAP2 POP POP SWAP3 POP SWAP3 SWAP1 POP JUMP JUMPDEST PUSH1 0x0 DUP1 PUSH1 0x0 PUSH1 0x60 DUP5 DUP7 SUB SLT ISZERO PUSH2 0x16CC JUMPI PUSH1 0x0 DUP1 REVERT JUMPDEST PUSH1 0x0 DUP5 ADD CALLDATALOAD PUSH8 0xFFFFFFFFFFFFFFFF DUP2 GT ISZERO PUSH2 0x16E6 JUMPI PUSH1 0x0 DUP1 REVERT JUMPDEST PUSH2 0x16F2 DUP7 DUP3 DUP8 ADD PUSH2 0x13BD JUMP JUMPDEST SWAP4 POP POP PUSH1 0x20 PUSH2 0x1703 DUP7 DUP3 DUP8 ADD PUSH2 0x137E JUMP JUMPDEST SWAP3 POP POP PUSH1 0x40 PUSH2 0x1714 DUP7 DUP3 DUP8 ADD PUSH2 0x1411 JUMP JUMPDEST SWAP2 POP POP SWAP3 POP SWAP3 POP SWAP3 JUMP JUMPDEST PUSH2 0x1727 DUP2 PUSH2 0x1D9E JUMP JUMPDEST DUP3 MSTORE POP POP JUMP JUMPDEST PUSH2 0x1736 DUP2 PUSH2 0x1DB0 JUMP JUMPDEST DUP3 MSTORE POP POP JUMP JUMPDEST PUSH1 0x0 PUSH2 0x1747 DUP3 PUSH2 0x1CEC JUMP JUMPDEST PUSH2 0x1751 DUP2 DUP6 PUSH2 0x1CF7 JUMP JUMPDEST SWAP4 POP PUSH2 0x1761 DUP2 DUP6 PUSH1 0x20 DUP7 ADD PUSH2 0x1DF5 JUMP JUMPDEST PUSH2 0x176A DUP2 PUSH2 0x1F2F JUMP JUMPDEST DUP5 ADD SWAP2 POP POP SWAP3 SWAP2 POP POP JUMP JUMPDEST PUSH1 0x0 PUSH2 0x1780 DUP3 PUSH2 0x1CEC JUMP JUMPDEST PUSH2 0x178A DUP2 DUP6 PUSH2 0x1D08 JUMP JUMPDEST SWAP4 POP PUSH2 0x179A DUP2 DUP6 PUSH1 0x20 DUP7 ADD PUSH2 0x1DF5 JUMP JUMPDEST DUP1 DUP5 ADD SWAP2 POP POP SWAP3 SWAP2 POP POP JUMP JUMPDEST PUSH1 0x0 PUSH2 0x17B3 PUSH1 0x22 DUP4 PUSH2 0x1CF7 JUMP JUMPDEST SWAP2 POP PUSH2 0x17BE DUP3 PUSH2 0x1F40 JUMP JUMPDEST PUSH1 0x40 DUP3 ADD SWAP1 POP SWAP2 SWAP1 POP JUMP JUMPDEST PUSH1 0x0 PUSH2 0x17D6 PUSH1 0x1C DUP4 PUSH2 0x1CF7 JUMP JUMPDEST SWAP2 POP PUSH2 0x17E1 DUP3 PUSH2 0x1F8F JUMP JUMPDEST PUSH1 0x20 DUP3 ADD SWAP1 POP SWAP2 SWAP1 POP JUMP JUMPDEST PUSH1 0x0 PUSH2 0x17F9 PUSH1 0x1B DUP4 PUSH2 0x1CF7 JUMP JUMPDEST SWAP2 POP PUSH2 0x1804 DUP3 PUSH2 0x1FB8 JUMP JUMPDEST PUSH1 0x20 DUP3 ADD SWAP1 POP SWAP2 SWAP1 POP JUMP JUMPDEST PUSH1 0x0 PUSH2 0x181C PUSH1 0x16 DUP4 PUSH2 0x1CF7 JUMP JUMPDEST SWAP2 POP PUSH2 0x1827 DUP3 PUSH2 0x1FE1 JUMP JUMPDEST PUSH1 0x20 DUP3 ADD SWAP1 POP SWAP2 SWAP1 POP JUMP JUMPDEST PUSH1 0x0 PUSH2 0x183F PUSH1 0x18 DUP4 PUSH2 0x1CF7 JUMP JUMPDEST SWAP2 POP PUSH2 0x184A DUP3 PUSH2 0x200A JUMP JUMPDEST PUSH1 0x20 DUP3 ADD SWAP1 POP SWAP2 SWAP1 POP JUMP JUMPDEST PUSH1 0x0 PUSH2 0x1862 PUSH1 0xB DUP4 PUSH2 0x1CF7 JUMP JUMPDEST SWAP2 POP PUSH2 0x186D DUP3 PUSH2 0x2033 JUMP JUMPDEST PUSH1 0x20 DUP3 ADD SWAP1 POP SWAP2 SWAP1 POP JUMP JUMPDEST PUSH1 0x0 PUSH2 0x1885 PUSH1 0x28 DUP4 PUSH2 0x1CF7 JUMP JUMPDEST SWAP2 POP PUSH2 0x1890 DUP3 PUSH2 0x205C JUMP JUMPDEST PUSH1 0x40 DUP3 ADD SWAP1 POP SWAP2 SWAP1 POP JUMP JUMPDEST PUSH1 0x0 PUSH2 0x18A8 PUSH1 0x1C DUP4 PUSH2 0x1CF7 JUMP JUMPDEST SWAP2 POP PUSH2 0x18B3 DUP3 PUSH2 0x20AB JUMP JUMPDEST PUSH1 0x20 DUP3 ADD SWAP1 POP SWAP2 SWAP1 POP JUMP JUMPDEST PUSH1 0x0 PUSH2 0x18CB PUSH1 0x12 DUP4 PUSH2 0x1CF7 JUMP JUMPDEST SWAP2 POP PUSH2 0x18D6 DUP3 PUSH2 0x20D4 JUMP JUMPDEST PUSH1 0x20 DUP3 ADD SWAP1 POP SWAP2 SWAP1 POP JUMP JUMPDEST PUSH1 0x0 PUSH2 0x18EE PUSH1 0x14 DUP4 PUSH2 0x1CF7 JUMP JUMPDEST SWAP2 POP PUSH2 0x18F9 DUP3 PUSH2 0x20FD JUMP JUMPDEST PUSH1 0x20 DUP3 ADD SWAP1 POP SWAP2 SWAP1 POP JUMP JUMPDEST PUSH1 0x0 PUSH2 0x1911 PUSH1 0x9 DUP4 PUSH2 0x1CF7 JUMP JUMPDEST SWAP2 POP PUSH2 0x191C DUP3 PUSH2 0x2126 JUMP JUMPDEST PUSH1 0x20 DUP3 ADD SWAP1 POP SWAP2 SWAP1 POP JUMP JUMPDEST PUSH2 0x1930 DUP2 PUSH2 0x1DDC JUMP JUMPDEST DUP3 MSTORE POP POP JUMP JUMPDEST PUSH1 0x0 PUSH2 0x1942 DUP3 DUP5 PUSH2 0x1775 JUMP JUMPDEST SWAP2 POP DUP2 SWAP1 POP SWAP3 SWAP2 POP POP JUMP JUMPDEST PUSH1 0x0 PUSH1 0x20 DUP3 ADD SWAP1 POP PUSH2 0x1962 PUSH1 0x0 DUP4 ADD DUP5 PUSH2 0x171E JUMP JUMPDEST SWAP3 SWAP2 POP POP JUMP JUMPDEST PUSH1 0x0 PUSH2 0x100 DUP3 ADD SWAP1 POP PUSH2 0x197E PUSH1 0x0 DUP4 ADD DUP12 PUSH2 0x171E JUMP JUMPDEST PUSH2 0x198B PUSH1 0x20 DUP4 ADD DUP11 PUSH2 0x171E JUMP JUMPDEST PUSH2 0x1998 PUSH1 0x40 DUP4 ADD DUP10 PUSH2 0x171E JUMP JUMPDEST PUSH2 0x19A5 PUSH1 0x60 DUP4 ADD DUP9 PUSH2 0x171E JUMP JUMPDEST DUP2 DUP2 SUB PUSH1 0x80 DUP4 ADD MSTORE PUSH2 0x19B7 DUP2 DUP8 PUSH2 0x173C JUMP JUMPDEST SWAP1 POP PUSH2 0x19C6 PUSH1 0xA0 DUP4 ADD DUP7 PUSH2 0x1927 JUMP JUMPDEST PUSH2 0x19D3 PUSH1 0xC0 DUP4 ADD DUP6 PUSH2 0x1927 JUMP JUMPDEST PUSH2 0x19E0 PUSH1 0xE0 DUP4 ADD DUP5 PUSH2 0x1927 JUMP JUMPDEST SWAP10 SWAP9 POP POP POP POP POP POP POP POP POP JUMP JUMPDEST PUSH1 0x0 PUSH1 0x80 DUP3 ADD SWAP1 POP PUSH2 0x1A02 PUSH1 0x0 DUP4 ADD DUP8 PUSH2 0x171E JUMP JUMPDEST PUSH2 0x1A0F PUSH1 0x20 DUP4 ADD DUP7 PUSH2 0x171E JUMP JUMPDEST PUSH2 0x1A1C PUSH1 0x40 DUP4 ADD DUP6 PUSH2 0x171E JUMP JUMPDEST PUSH2 0x1A29 PUSH1 0x60 DUP4 ADD DUP5 PUSH2 0x1927 JUMP JUMPDEST SWAP6 SWAP5 POP POP POP POP POP JUMP JUMPDEST PUSH1 0x0 PUSH1 0x60 DUP3 ADD SWAP1 POP PUSH2 0x1A47 PUSH1 0x0 DUP4 ADD DUP7 PUSH2 0x171E JUMP JUMPDEST PUSH2 0x1A54 PUSH1 0x20 DUP4 ADD DUP6 PUSH2 0x171E JUMP JUMPDEST PUSH2 0x1A61 PUSH1 0x40 DUP4 ADD DUP5 PUSH2 0x1927 JUMP JUMPDEST SWAP5 SWAP4 POP POP POP POP JUMP JUMPDEST PUSH1 0x0 PUSH1 0x40 DUP3 ADD SWAP1 POP PUSH2 0x1A7E PUSH1 0x0 DUP4 ADD DUP6 PUSH2 0x171E JUMP JUMPDEST PUSH2 0x1A8B PUSH1 0x20 DUP4 ADD DUP5 PUSH2 0x1927 JUMP JUMPDEST SWAP4 SWAP3 POP POP POP JUMP JUMPDEST PUSH1 0x0 PUSH1 0x60 DUP3 ADD SWAP1 POP PUSH2 0x1AA7 PUSH1 0x0 DUP4 ADD DUP7 PUSH2 0x171E JUMP JUMPDEST PUSH2 0x1AB4 PUSH1 0x20 DUP4 ADD DUP6 PUSH2 0x1927 JUMP JUMPDEST PUSH2 0x1AC1 PUSH1 0x40 DUP4 ADD DUP5 PUSH2 0x172D JUMP JUMPDEST SWAP5 SWAP4 POP POP POP POP JUMP JUMPDEST PUSH1 0x0 PUSH1 0x60 DUP3 ADD SWAP1 POP PUSH2 0x1ADE PUSH1 0x0 DUP4 ADD DUP7 PUSH2 0x171E JUMP JUMPDEST PUSH2 0x1AEB PUSH1 0x20 DUP4 ADD DUP6 PUSH2 0x1927 JUMP JUMPDEST PUSH2 0x1AF8 PUSH1 0x40 DUP4 ADD DUP5 PUSH2 0x1927 JUMP JUMPDEST SWAP5 SWAP4 POP POP POP POP JUMP JUMPDEST PUSH1 0x0 PUSH1 0x20 DUP3 ADD SWAP1 POP PUSH2 0x1B15 PUSH1 0x0 DUP4 ADD DUP5 PUSH2 0x172D JUMP JUMPDEST SWAP3 SWAP2 POP POP JUMP JUMPDEST PUSH1 0x0 PUSH1 0x20 DUP3 ADD SWAP1 POP DUP2 DUP2 SUB PUSH1 0x0 DUP4 ADD MSTORE PUSH2 0x1B34 DUP2 PUSH2 0x17A6 JUMP JUMPDEST SWAP1 POP SWAP2 SWAP1 POP JUMP JUMPDEST PUSH1 0x0 PUSH1 0x20 DUP3 ADD SWAP1 POP DUP2 DUP2 SUB PUSH1 0x0 DUP4 ADD MSTORE PUSH2 0x1B54 DUP2 PUSH2 0x17C9 JUMP JUMPDEST SWAP1 POP SWAP2 SWAP1 POP JUMP JUMPDEST PUSH1 0x0 PUSH1 0x20 DUP3 ADD SWAP1 POP DUP2 DUP2 SUB PUSH1 0x0 DUP4 ADD MSTORE PUSH2 0x1B74 DUP2 PUSH2 0x17EC JUMP JUMPDEST SWAP1 POP SWAP2 SWAP1 POP JUMP JUMPDEST PUSH1 0x0 PUSH1 0x20 DUP3 ADD SWAP1 POP DUP2 DUP2 SUB PUSH1 0x0 DUP4 ADD MSTORE PUSH2 0x1B94 DUP2 PUSH2 0x180F JUMP JUMPDEST SWAP1 POP SWAP2 SWAP1 POP JUMP JUMPDEST PUSH1 0x0 PUSH1 0x20 DUP3 ADD SWAP1 POP DUP2 DUP2 SUB PUSH1 0x0 DUP4 ADD MSTORE PUSH2 0x1BB4 DUP2 PUSH2 0x1832 JUMP JUMPDEST SWAP1 POP SWAP2 SWAP1 POP JUMP JUMPDEST PUSH1 0x0 PUSH1 0x20 DUP3 ADD SWAP1 POP DUP2 DUP2 SUB PUSH1 0x0 DUP4 ADD MSTORE PUSH2 0x1BD4 DUP2 PUSH2 0x1855 JUMP JUMPDEST SWAP1 POP SWAP2 SWAP1 POP JUMP JUMPDEST PUSH1 0x0 PUSH1 0x20 DUP3 ADD SWAP1 POP DUP2 DUP2 SUB PUSH1 0x0 DUP4 ADD MSTORE PUSH2 0x1BF4 DUP2 PUSH2 0x1878 JUMP JUMPDEST SWAP1 POP SWAP2 SWAP1 POP JUMP JUMPDEST PUSH1 0x0 PUSH1 0x20 DUP3 ADD SWAP1 POP DUP2 DUP2 SUB PUSH1 0x0 DUP4 ADD MSTORE PUSH2 0x1C14 DUP2 PUSH2 0x189B JUMP JUMPDEST SWAP1 POP SWAP2 SWAP1 POP JUMP JUMPDEST PUSH1 0x0 PUSH1 0x20 DUP3 ADD SWAP1 POP DUP2 DUP2 SUB PUSH1 0x0 DUP4 ADD MSTORE PUSH2 0x1C34 DUP2 PUSH2 0x18BE JUMP JUMPDEST SWAP1 POP SWAP2 SWAP1 POP JUMP JUMPDEST PUSH1 0x0 PUSH1 0x20 DUP3 ADD SWAP1 POP DUP2 DUP2 SUB PUSH1 0x0 DUP4 ADD MSTORE PUSH2 0x1C54 DUP2 PUSH2 0x18E1 JUMP JUMPDEST SWAP1 POP SWAP2 SWAP1 POP JUMP JUMPDEST PUSH1 0x0 PUSH1 0x20 DUP3 ADD SWAP1 POP DUP2 DUP2 SUB PUSH1 0x0 DUP4 ADD MSTORE PUSH2 0x1C74 DUP2 PUSH2 0x1904 JUMP JUMPDEST SWAP1 POP SWAP2 SWAP1 POP JUMP JUMPDEST PUSH1 0x0 PUSH1 0x20 DUP3 ADD SWAP1 POP PUSH2 0x1C90 PUSH1 0x0 DUP4 ADD DUP5 PUSH2 0x1927 JUMP JUMPDEST SWAP3 SWAP2 POP POP JUMP JUMPDEST PUSH1 0x0 PUSH2 0x1CA0 PUSH2 0x1CB1 JUMP JUMPDEST SWAP1 POP PUSH2 0x1CAC DUP3 DUP3 PUSH2 0x1E28 JUMP JUMPDEST SWAP2 SWAP1 POP JUMP JUMPDEST PUSH1 0x0 PUSH1 0x40 MLOAD SWAP1 POP SWAP1 JUMP JUMPDEST PUSH1 0x0 PUSH8 0xFFFFFFFFFFFFFFFF DUP3 GT ISZERO PUSH2 0x1CD6 JUMPI PUSH2 0x1CD5 PUSH2 0x1F00 JUMP JUMPDEST JUMPDEST PUSH2 0x1CDF DUP3 PUSH2 0x1F2F JUMP JUMPDEST SWAP1 POP PUSH1 0x20 DUP2 ADD SWAP1 POP SWAP2 SWAP1 POP JUMP JUMPDEST PUSH1 0x0 DUP2 MLOAD SWAP1 POP SWAP2 SWAP1 POP JUMP JUMPDEST PUSH1 0x0 DUP3 DUP3 MSTORE PUSH1 0x20 DUP3 ADD SWAP1 POP SWAP3 SWAP2 POP POP JUMP JUMPDEST PUSH1 0x0 DUP2 SWAP1 POP SWAP3 SWAP2 POP POP JUMP JUMPDEST PUSH1 0x0 PUSH2 0x1D1E DUP3 PUSH2 0x1DDC JUMP JUMPDEST SWAP2 POP PUSH2 0x1D29 DUP4 PUSH2 0x1DDC JUMP JUMPDEST SWAP3 POP DUP3 PUSH2 0x1D39 JUMPI PUSH2 0x1D38 PUSH2 0x1ED1 JUMP JUMPDEST JUMPDEST DUP3 DUP3 DIV SWAP1 POP SWAP3 SWAP2 POP POP JUMP JUMPDEST PUSH1 0x0 PUSH2 0x1D4F DUP3 PUSH2 0x1DDC JUMP JUMPDEST SWAP2 POP PUSH2 0x1D5A DUP4 PUSH2 0x1DDC JUMP JUMPDEST SWAP3 POP DUP2 PUSH32 0xFFFFFFFFFFFFFFFFFFFFFFFFFFFFFFFFFFFFFFFFFFFFFFFFFFFFFFFFFFFFFFFF DIV DUP4 GT DUP3 ISZERO ISZERO AND ISZERO PUSH2 0x1D93 JUMPI PUSH2 0x1D92 PUSH2 0x1EA2 JUMP JUMPDEST JUMPDEST DUP3 DUP3 MUL SWAP1 POP SWAP3 SWAP2 POP POP JUMP JUMPDEST PUSH1 0x0 PUSH2 0x1DA9 DUP3 PUSH2 0x1DBC JUMP JUMPDEST SWAP1 POP SWAP2 SWAP1 POP JUMP JUMPDEST PUSH1 0x0 DUP2 ISZERO ISZERO SWAP1 POP SWAP2 SWAP1 POP JUMP JUMPDEST PUSH1 0x0 PUSH20 0xFFFFFFFFFFFFFFFFFFFFFFFFFFFFFFFFFFFFFFFF DUP3 AND SWAP1 POP SWAP2 SWAP1 POP JUMP JUMPDEST PUSH1 0x0 DUP2 SWAP1 POP SWAP2 SWAP1 POP JUMP JUMPDEST DUP3 DUP2 DUP4 CALLDATACOPY PUSH1 0x0 DUP4 DUP4 ADD MSTORE POP POP POP JUMP JUMPDEST PUSH1 0x0 JUMPDEST DUP4 DUP2 LT ISZERO PUSH2 0x1E13 JUMPI DUP1 DUP3 ADD MLOAD DUP2 DUP5 ADD MSTORE PUSH1 0x20 DUP2 ADD SWAP1 POP PUSH2 0x1DF8 JUMP JUMPDEST DUP4 DUP2 GT ISZERO PUSH2 0x1E22 JUMPI PUSH1 0x0 DUP5 DUP5 ADD MSTORE JUMPDEST POP POP POP POP JUMP JUMPDEST PUSH2 0x1E31 DUP3 PUSH2 0x1F2F JUMP JUMPDEST DUP2 ADD DUP2 DUP2 LT PUSH8 0xFFFFFFFFFFFFFFFF DUP3 GT OR ISZERO PUSH2 0x1E50 JUMPI PUSH2 0x1E4F PUSH2 0x1F00 JUMP JUMPDEST JUMPDEST DUP1 PUSH1 0x40 MSTORE POP POP POP JUMP JUMPDEST PUSH1 0x0 PUSH2 0x1E64 DUP3 PUSH2 0x1DDC JUMP JUMPDEST SWAP2 POP PUSH32 0xFFFFFFFFFFFFFFFFFFFFFFFFFFFFFFFFFFFFFFFFFFFFFFFFFFFFFFFFFFFFFFFF DUP3 EQ ISZERO PUSH2 0x1E97 JUMPI PUSH2 0x1E96 PUSH2 0x1EA2 JUMP JUMPDEST JUMPDEST PUSH1 0x1 DUP3 ADD SWAP1 POP SWAP2 SWAP1 POP JUMP JUMPDEST PUSH32 0x4E487B7100000000000000000000000000000000000000000000000000000000 PUSH1 0x0 MSTORE PUSH1 0x11 PUSH1 0x4 MSTORE PUSH1 0x24 PUSH1 0x0 REVERT JUMPDEST PUSH32 0x4E487B7100000000000000000000000000000000000000000000000000000000 PUSH1 0x0 MSTORE PUSH1 0x12 PUSH1 0x4 MSTORE PUSH1 0x24 PUSH1 0x0 REVERT JUMPDEST PUSH32 0x4E487B7100000000000000000000000000000000000000000000000000000000 PUSH1 0x0 MSTORE PUSH1 0x41 PUSH1 0x4 MSTORE PUSH1 0x24 PUSH1 0x0 REVERT JUMPDEST PUSH1 0x0 PUSH1 0x1F NOT PUSH1 0x1F DUP4 ADD AND SWAP1 POP SWAP2 SWAP1 POP JUMP JUMPDEST PUSH32 0x466163746F72793A206E6F7420617661696C61626C6520455243323020546F6B PUSH1 0x0 DUP3 ADD MSTORE PUSH32 0x656E000000000000000000000000000000000000000000000000000000000000 PUSH1 0x20 DUP3 ADD MSTORE POP JUMP JUMPDEST PUSH32 0x466163746F72793A20746F74616C506C616E20746F6F20736D616C6C00000000 PUSH1 0x0 DUP3 ADD MSTORE POP JUMP JUMPDEST PUSH32 0x466163746F72793A2077726F6E6720616D6F756E742076616C75650000000000 PUSH1 0x0 DUP3 ADD MSTORE POP JUMP JUMPDEST PUSH32 0x466163746F72793A2075736572422069732073656C6600000000000000000000 PUSH1 0x0 DUP3 ADD MSTORE POP JUMP JUMPDEST PUSH32 0x466163746F72793A20746F6B656E206E6F742065786973740000000000000000 PUSH1 0x0 DUP3 ADD MSTORE POP JUMP JUMPDEST PUSH32 0x696E697469616C697A6564000000000000000000000000000000000000000000 PUSH1 0x0 DUP3 ADD MSTORE POP JUMP JUMPDEST PUSH32 0x466163746F72793A2070657263656E7441206E656564206265747765656E2031 PUSH1 0x0 DUP3 ADD MSTORE PUSH32 0x20616E6420313030000000000000000000000000000000000000000000000000 PUSH1 0x20 DUP3 ADD MSTORE POP JUMP JUMPDEST PUSH32 0x466163746F72793A206C6F636B44617973206F7574206F662073657400000000 PUSH1 0x0 DUP3 ADD MSTORE POP JUMP JUMPDEST PUSH32 0x466163746F72793A206F6E6C79204C696E6B0000000000000000000000000000 PUSH1 0x0 DUP3 ADD MSTORE POP JUMP JUMPDEST PUSH32 0x466163746F72793A20746F6B656E206578697374000000000000000000000000 PUSH1 0x0 DUP3 ADD MSTORE POP JUMP JUMPDEST PUSH32 0x6F6E6C792066696C650000000000000000000000000000000000000000000000 PUSH1 0x0 DUP3 ADD MSTORE POP JUMP JUMPDEST PUSH2 0x2158 DUP2 PUSH2 0x1D9E JUMP JUMPDEST DUP2 EQ PUSH2 0x2163 JUMPI PUSH1 0x0 DUP1 REVERT JUMPDEST POP JUMP JUMPDEST PUSH2 0x216F DUP2 PUSH2 0x1DB0 JUMP JUMPDEST DUP2 EQ PUSH2 0x217A JUMPI PUSH1 0x0 DUP1 REVERT JUMPDEST POP JUMP JUMPDEST PUSH2 0x2186 DUP2 PUSH2 0x1DDC JUMP JUMPDEST DUP2 EQ PUSH2 0x2191 JUMPI PUSH1 0x0 DUP1 REVERT JUMPDEST POP JUMP INVALID LOG2 PUSH5 0x6970667358 0x22 SLT KECCAK256 PUSH25 0x292911954932F2F223AD39A5BED3DBDB152336C355AD8BA48F CREATE LOG4 PUSH24 0xDD50DD64736F6C6343000801003300000000000000000000 "
		},
		"gasEstimates": {
			"creation": {
				"codeDepositCost": "1730000",
				"executionCost": "1820",
				"totalCost": "1731820"
			},
			"external": {
				"addToken(address,uint256)": "infinite",
				"createLink(address,string,uint256,uint256,uint256)": "infinite",
				"file()": "1286",
				"initialize(string,address)": "infinite",
				"isLink(address)": "1606",
				"linkActive(address,uint256)": "infinite",
				"tokenMap(string)": "infinite",
				"totalLink()": "1130",
				"updateTokenConfig(string,address,uint256)": "infinite"
			},
			"internal": {
				"_addToken(string memory,address,uint256)": "infinite"
			}
		},
		"methodIdentifiers": {
			"addToken(address,uint256)": "af81c5b9",
			"createLink(address,string,uint256,uint256,uint256)": "4aff6754",
			"file()": "8525855d",
			"initialize(string,address)": "7ab4339d",
			"isLink(address)": "372bd79e",
			"linkActive(address,uint256)": "5e4afa80",
			"tokenMap(string)": "f55c2ef0",
			"totalLink()": "3679dc46",
			"updateTokenConfig(string,address,uint256)": "e4f13f57"
		}
	},
	"abi": [
		{
			"anonymous": false,
			"inputs": [
				{
					"indexed": false,
					"internalType": "address",
					"name": "_link",
					"type": "address"
				},
				{
					"indexed": false,
					"internalType": "address",
					"name": "_user",
					"type": "address"
				},
				{
					"indexed": false,
					"internalType": "uint256",
					"name": "_methodId",
					"type": "uint256"
				}
			],
			"name": "LinkActive",
			"type": "event"
		},
		{
			"anonymous": false,
			"inputs": [
				{
					"indexed": true,
					"internalType": "address",
					"name": "_creater",
					"type": "address"
				},
				{
					"indexed": true,
					"internalType": "string",
					"name": "_symbol",
					"type": "string"
				},
				{
					"indexed": false,
					"internalType": "address",
					"name": "_link",
					"type": "address"
				}
			],
			"name": "LinkCreated",
			"type": "event"
		},
		{
			"inputs": [
				{
					"internalType": "address",
					"name": "_token",
					"type": "address"
				},
				{
					"internalType": "uint256",
					"name": "_min",
					"type": "uint256"
				}
			],
			"name": "addToken",
			"outputs": [],
			"stateMutability": "nonpayable",
			"type": "function"
		},
		{
			"inputs": [
				{
					"internalType": "address",
					"name": "_userB",
					"type": "address"
				},
				{
					"internalType": "string",
					"name": "_symbol",
					"type": "string"
				},
				{
					"internalType": "uint256",
					"name": "_totalPlan",
					"type": "uint256"
				},
				{
					"internalType": "uint256",
					"name": "_percentA",
					"type": "uint256"
				},
				{
					"internalType": "uint256",
					"name": "_lockDays",
					"type": "uint256"
				}
			],
			"name": "createLink",
			"outputs": [
				{
					"internalType": "address",
					"name": "",
					"type": "address"
				}
			],
			"stateMutability": "payable",
			"type": "function"
		},
		{
			"inputs": [],
			"name": "file",
			"outputs": [
				{
					"internalType": "address",
					"name": "",
					"type": "address"
				}
			],
			"stateMutability": "view",
			"type": "function"
		},
		{
			"inputs": [
				{
					"internalType": "string",
					"name": "_network",
					"type": "string"
				},
				{
					"internalType": "address",
					"name": "_file",
					"type": "address"
				}
			],
			"name": "initialize",
			"outputs": [],
			"stateMutability": "nonpayable",
			"type": "function"
		},
		{
			"inputs": [
				{
					"internalType": "address",
					"name": "_link",
					"type": "address"
				}
			],
			"name": "isLink",
			"outputs": [
				{
					"internalType": "bool",
					"name": "",
					"type": "bool"
				}
			],
			"stateMutability": "view",
			"type": "function"
		},
		{
			"inputs": [
				{
					"internalType": "address",
					"name": "_user",
					"type": "address"
				},
				{
					"internalType": "uint256",
					"name": "_methodId",
					"type": "uint256"
				}
			],
			"name": "linkActive",
			"outputs": [],
			"stateMutability": "nonpayable",
			"type": "function"
		},
		{
			"inputs": [
				{
					"internalType": "string",
					"name": "",
					"type": "string"
				}
			],
			"name": "tokenMap",
			"outputs": [
				{
					"internalType": "address",
					"name": "addr",
					"type": "address"
				},
				{
					"internalType": "uint256",
					"name": "minAmount",
					"type": "uint256"
				},
				{
					"internalType": "bool",
					"name": "isActive",
					"type": "bool"
				}
			],
			"stateMutability": "view",
			"type": "function"
		},
		{
			"inputs": [],
			"name": "totalLink",
			"outputs": [
				{
					"internalType": "uint256",
					"name": "",
					"type": "uint256"
				}
			],
			"stateMutability": "view",
			"type": "function"
		},
		{
			"inputs": [
				{
					"internalType": "string",
					"name": "_symbol",
					"type": "string"
				},
				{
					"internalType": "address",
					"name": "_token",
					"type": "address"
				},
				{
					"internalType": "uint256",
					"name": "_min",
					"type": "uint256"
				}
			],
			"name": "updateTokenConfig",
			"outputs": [],
			"stateMutability": "nonpayable",
			"type": "function"
		}
	]
}