{
	"data": {
		"bytecode": {
			"linkReferences": {},
			"object": "608060405234801561001057600080fd5b50612491806100206000396000f3fe6080604052600436106100c65760003560e01c8063715018a61161007f5780638f32d59b116100595780638f32d59b14610275578063c1f0d210146102a0578063f2fde38b146102c9578063f8974de0146102f2576100cd565b8063715018a6146102085780638456cb591461021f5780638da5cb5b1461024a576100cd565b806319ab453c146100d25780633644e515146100fb578063475ad2ea14610126578063487e14f814610163578063557e6cfe146101a057806370ae92d2146101cb576100cd565b366100cd57005b600080fd5b3480156100de57600080fd5b506100f960048036038101906100f4919061182a565b61031b565b005b34801561010757600080fd5b50610110610406565b60405161011d9190611cdf565b60405180910390f35b34801561013257600080fd5b5061014d60048036038101906101489190611853565b61040c565b60405161015a9190611eb1565b60405180910390f35b34801561016f57600080fd5b5061018a6004803603810190610185919061182a565b610431565b6040516101979190611eb1565b60405180910390f35b3480156101ac57600080fd5b506101b5610449565b6040516101c29190611d76565b60405180910390f35b3480156101d757600080fd5b506101f260048036038101906101ed919061182a565b61046f565b6040516101ff9190611eb1565b60405180910390f35b34801561021457600080fd5b5061021d610487565b005b34801561022b57600080fd5b5061023461058e565b6040516102419190611cc4565b60405180910390f35b34801561025657600080fd5b5061025f6105a1565b60405161026c9190611c2d565b60405180910390f35b34801561028157600080fd5b5061028a6105ca565b6040516102979190611cc4565b60405180910390f35b3480156102ac57600080fd5b506102c760048036038101906102c2919061188f565b610621565b005b3480156102d557600080fd5b506102f060048036038101906102eb919061182a565b611006565b005b3480156102fe57600080fd5b506103196004803603810190610314919061192a565b611059565b005b600060019054906101000a900460ff1680610341575060008054906101000a900460ff16155b610380576040517f08c379a000000000000000000000000000000000000000000000000000000000815260040161037790611df1565b60405180910390fd5b60008060019054906101000a900460ff1615905080156103d0576001600060016101000a81548160ff02191690831515021790555060016000806101000a81548160ff0219169083151502179055505b6103d86110bd565b6103e182611238565b80156104025760008060016101000a81548160ff0219169083151502179055505b5050565b60025481565b6006602052816000526040600020602052806000526040600020600091509150505481565b60056020528060005260406000206000915090505481565b600160009054906101000a900473ffffffffffffffffffffffffffffffffffffffff1681565b60046020528060005260406000206000915090505481565b61048f6105ca565b6104ce576040517f08c379a00000000000000000000000000000000000000000000000000000000081526004016104c590611e31565b60405180910390fd5b600073ffffffffffffffffffffffffffffffffffffffff16600060029054906101000a900473ffffffffffffffffffffffffffffffffffffffff1673ffffffffffffffffffffffffffffffffffffffff167f8be0079c531659141344cd1fd0a4f28419497f9722a3daafe3b4186f6b6457e060405160405180910390a360008060026101000a81548173ffffffffffffffffffffffffffffffffffffffff021916908373ffffffffffffffffffffffffffffffffffffffff160217905550565b600360009054906101000a900460ff1681565b60008060029054906101000a900473ffffffffffffffffffffffffffffffffffffffff16905090565b60008060029054906101000a900473ffffffffffffffffffffffffffffffffffffffff1673ffffffffffffffffffffffffffffffffffffffff163373ffffffffffffffffffffffffffffffffffffffff1614905090565b600360009054906101000a900460ff1615610671576040517f08c379a000000000000000000000000000000000000000000000000000000000815260040161066890611e51565b60405180910390fd5b3373ffffffffffffffffffffffffffffffffffffffff16866000600281106106c2577f4e487b7100000000000000000000000000000000000000000000000000000000600052603260045260246000fd5b6020020160208101906106d5919061182a565b73ffffffffffffffffffffffffffffffffffffffff161461072b576040517f08c379a000000000000000000000000000000000000000000000000000000000815260040161072290611e91565b60405180910390fd5b84600160028110610765577f4e487b7100000000000000000000000000000000000000000000000000000000600052603260045260246000fd5b60200201354211156107ac576040517f08c379a00000000000000000000000000000000000000000000000000000000081526004016107a390611db1565b60405180910390fd5b6000848490509050600080600460008a6000600281106107f5577f4e487b7100000000000000000000000000000000000000000000000000000000600052603260045260246000fd5b602002016020810190610808919061182a565b73ffffffffffffffffffffffffffffffffffffffff1673ffffffffffffffffffffffffffffffffffffffff16815260200190815260200160002060008154809291906108539061208d565b9190505590508484905060028461086a9190611f7d565b146108aa576040517f08c379a00000000000000000000000000000000000000000000000000000000081526004016108a190611e71565b60405180910390fd5b6000610a1660405180608001604052808c6000600281106108f4577f4e487b7100000000000000000000000000000000000000000000000000000000600052603260045260246000fd5b602002016020810190610907919061182a565b73ffffffffffffffffffffffffffffffffffffffff1681526020018c60016002811061095c577f4e487b7100000000000000000000000000000000000000000000000000000000600052603260045260246000fd5b60200201602081019061096f919061182a565b73ffffffffffffffffffffffffffffffffffffffff1681526020018b6000600281106109c4577f4e487b7100000000000000000000000000000000000000000000000000000000600052603260045260246000fd5b602002013581526020018b600160028110610a08577f4e487b7100000000000000000000000000000000000000000000000000000000600052603260045260246000fd5b6020020135815250836113a7565b905060005b84811015610b74576000610b3b8360405180606001604052808d8d87818110610a6d577f4e487b7100000000000000000000000000000000000000000000000000000000600052603260045260246000fd5b9050602002016020810190610a8291906119a5565b60ff1681526020018b8b600288610a999190611f7d565b818110610acf577f4e487b7100000000000000000000000000000000000000000000000000000000600052603260045260246000fd5b9050602002013581526020018b8b6001600289610aec9190611f7d565b610af69190611f27565b818110610b2c577f4e487b7100000000000000000000000000000000000000000000000000000000600052603260045260246000fd5b9050602002013581525061141a565b90508015610b52578480610b4e9061208d565b9550505b60068510610b605750610b74565b508080610b6c9061208d565b915050610a1b565b506006831015610bb9576040517f08c379a0000000000000000000000000000000000000000000000000000000008152600401610bb090611e11565b60405180910390fd5b88600060028110610bf3577f4e487b7100000000000000000000000000000000000000000000000000000000600052603260045260246000fd5b6020020135600560008c600060028110610c36577f4e487b7100000000000000000000000000000000000000000000000000000000600052603260045260246000fd5b602002016020810190610c49919061182a565b73ffffffffffffffffffffffffffffffffffffffff1673ffffffffffffffffffffffffffffffffffffffff1681526020019081526020016000206000828254610c929190611f27565b9250508190555088600060028110610cd3577f4e487b7100000000000000000000000000000000000000000000000000000000600052603260045260246000fd5b6020020135600660008c600060028110610d16577f4e487b7100000000000000000000000000000000000000000000000000000000600052603260045260246000fd5b602002016020810190610d29919061182a565b73ffffffffffffffffffffffffffffffffffffffff1673ffffffffffffffffffffffffffffffffffffffff16815260200190815260200160002060008481526020019081526020016000208190555060008a600160028110610db4577f4e487b7100000000000000000000000000000000000000000000000000000000600052603260045260246000fd5b602002016020810190610dc7919061182a565b90508073ffffffffffffffffffffffffffffffffffffffff1663a9059cbb8c600060028110610e1f577f4e487b7100000000000000000000000000000000000000000000000000000000600052603260045260246000fd5b602002016020810190610e32919061182a565b8c600060028110610e6c577f4e487b7100000000000000000000000000000000000000000000000000000000600052603260045260246000fd5b60200201356040518363ffffffff1660e01b8152600401610e8e929190611c9b565b602060405180830381600087803b158015610ea857600080fd5b505af1158015610ebc573d6000803e3d6000fd5b505050506040513d601f19601f82011682018060405250810190610ee09190611953565b610f1f576040517f08c379a0000000000000000000000000000000000000000000000000000000008152600401610f1690611dd1565b60405180910390fd5b8a600060028110610f59577f4e487b7100000000000000000000000000000000000000000000000000000000600052603260045260246000fd5b602002016020810190610f6c919061182a565b73ffffffffffffffffffffffffffffffffffffffff167f7575c9e41ba6d91ef21e39bd62b5b9df62fc9b0401379fdf9fe1fa372f41e7c1848c600060028110610fde577f4e487b7100000000000000000000000000000000000000000000000000000000600052603260045260246000fd5b6020020135604051610ff1929190611ecc565b60405180910390a25050505050505050505050565b61100e6105ca565b61104d576040517f08c379a000000000000000000000000000000000000000000000000000000000815260040161104490611e31565b60405180910390fd5b611056816115ac565b50565b6110616105ca565b6110a0576040517f08c379a000000000000000000000000000000000000000000000000000000000815260040161109790611e31565b60405180910390fd5b80600360006101000a81548160ff02191690831515021790555050565b600060019054906101000a900460ff16806110e3575060008054906101000a900460ff16155b611122576040517f08c379a000000000000000000000000000000000000000000000000000000000815260040161111990611df1565b60405180910390fd5b60008060019054906101000a900460ff161590508015611172576001600060016101000a81548160ff02191690831515021790555060016000806101000a81548160ff0219169083151502179055505b600033905080600060026101000a81548173ffffffffffffffffffffffffffffffffffffffff021916908373ffffffffffffffffffffffffffffffffffffffff1602179055508073ffffffffffffffffffffffffffffffffffffffff16600073ffffffffffffffffffffffffffffffffffffffff167f8be0079c531659141344cd1fd0a4f28419497f9722a3daafe3b4186f6b6457e060405160405180910390a35080156112355760008060016101000a81548160ff0219169083151502179055505b50565b600060019054906101000a900460ff168061125e575060008054906101000a900460ff16155b61129d576040517f08c379a000000000000000000000000000000000000000000000000000000000815260040161129490611df1565b60405180910390fd5b60008060019054906101000a900460ff1615905080156112ed576001600060016101000a81548160ff02191690831515021790555060016000806101000a81548160ff0219169083151502179055505b81600160006101000a81548173ffffffffffffffffffffffffffffffffffffffff021916908373ffffffffffffffffffffffffffffffffffffffff16021790555060007f47e79534a245952e8b16893a336b85a3d9ea9fa8c573f3d803afb92a79469218813060405160200161136593929190611cfa565b604051602081830303815290604052805190602001206002819055505080156113a35760008060016101000a81548160ff0219169083151502179055505b5050565b60006002548360000151846020015185604001518660600151866040516020016113d5959493929190611c48565b604051602081830303815290604052805190602001206040516020016113fc929190611bf6565b60405160208183030381529060405280519060200120905092915050565b6000806040518060400160405280601c81526020017f19457468657265756d205369676e6564204d6573736167653a0a33320000000081525090506000818560405160200161146a929190611bce565b6040516020818303038152906040528051906020012090506000600182866000015187602001518860400151604051600081526020016040526040516114b39493929190611d31565b6020604051602081039080840390855afa1580156114d5573d6000803e3d6000fd5b5050506020604051035190506000600160009054906101000a900473ffffffffffffffffffffffffffffffffffffffff1673ffffffffffffffffffffffffffffffffffffffff1663c8bc4c68836040518263ffffffff1660e01b815260040161153e9190611c2d565b60206040518083038186803b15801561155657600080fd5b505afa15801561156a573d6000803e3d6000fd5b505050506040513d601f19601f8201168201806040525081019061158e919061197c565b9050600c811080156115a05750600081115b94505050505092915050565b600073ffffffffffffffffffffffffffffffffffffffff168173ffffffffffffffffffffffffffffffffffffffff16141561161c576040517f08c379a000000000000000000000000000000000000000000000000000000000815260040161161390611d91565b60405180910390fd5b8073ffffffffffffffffffffffffffffffffffffffff16600060029054906101000a900473ffffffffffffffffffffffffffffffffffffffff1673ffffffffffffffffffffffffffffffffffffffff167f8be0079c531659141344cd1fd0a4f28419497f9722a3daafe3b4186f6b6457e060405160405180910390a380600060026101000a81548173ffffffffffffffffffffffffffffffffffffffff021916908373ffffffffffffffffffffffffffffffffffffffff16021790555050565b6000813590506116eb816123ff565b92915050565b60008190508260206002028201111561170957600080fd5b92915050565b60008083601f84011261172157600080fd5b8235905067ffffffffffffffff81111561173a57600080fd5b60208301915083602082028301111561175257600080fd5b9250929050565b60008190508260206002028201111561177157600080fd5b92915050565b60008083601f84011261178957600080fd5b8235905067ffffffffffffffff8111156117a257600080fd5b6020830191508360208202830111156117ba57600080fd5b9250929050565b6000813590506117d081612416565b92915050565b6000815190506117e581612416565b92915050565b6000813590506117fa8161242d565b92915050565b60008151905061180f8161242d565b92915050565b60008135905061182481612444565b92915050565b60006020828403121561183c57600080fd5b600061184a848285016116dc565b91505092915050565b6000806040838503121561186657600080fd5b6000611874858286016116dc565b9250506020611885858286016117eb565b9150509250929050565b60008060008060008060c087890312156118a857600080fd5b60006118b689828a016116f1565b96505060406118c789828a01611759565b955050608087013567ffffffffffffffff8111156118e457600080fd5b6118f089828a01611777565b945094505060a087013567ffffffffffffffff81111561190f57600080fd5b61191b89828a0161170f565b92509250509295509295509295565b60006020828403121561193c57600080fd5b600061194a848285016117c1565b91505092915050565b60006020828403121561196557600080fd5b6000611973848285016117d6565b91505092915050565b60006020828403121561198e57600080fd5b600061199c84828501611800565b91505092915050565b6000602082840312156119b757600080fd5b60006119c584828501611815565b91505092915050565b6119d781611fd7565b82525050565b6119e681611fe9565b82525050565b6119f581611ff5565b82525050565b611a0c611a0782611ff5565b6120d6565b82525050565b6000611a1d82611ef5565b611a278185611f00565b9350611a3781856020860161205a565b80840191505092915050565b611a4c81612036565b82525050565b6000611a5f602683611f0b565b9150611a6a8261210f565b604082019050919050565b6000611a82600283611f1c565b9150611a8d8261215e565b600282019050919050565b6000611aa5603b83611f0b565b9150611ab082612187565b604082019050919050565b6000611ac8601583611f0b565b9150611ad3826121d6565b602082019050919050565b6000611aeb602e83611f0b565b9150611af6826121ff565b604082019050919050565b6000611b0e604183611f0b565b9150611b198261224e565b606082019050919050565b6000611b31602083611f0b565b9150611b3c826122c3565b602082019050919050565b6000611b54602b83611f0b565b9150611b5f826122ec565b604082019050919050565b6000611b77603783611f0b565b9150611b828261233b565b604082019050919050565b6000611b9a604383611f0b565b9150611ba58261238a565b606082019050919050565b611bb98161201f565b82525050565b611bc881612029565b82525050565b6000611bda8285611a12565b9150611be682846119fb565b6020820191508190509392505050565b6000611c0182611a75565b9150611c0d82856119fb565b602082019150611c1d82846119fb565b6020820191508190509392505050565b6000602082019050611c4260008301846119ce565b92915050565b600060a082019050611c5d60008301886119ce565b611c6a60208301876119ce565b611c776040830186611bb0565b611c846060830185611bb0565b611c916080830184611bb0565b9695505050505050565b6000604082019050611cb060008301856119ce565b611cbd6020830184611bb0565b9392505050565b6000602082019050611cd960008301846119dd565b92915050565b6000602082019050611cf460008301846119ec565b92915050565b6000606082019050611d0f60008301866119ec565b611d1c6020830185611bb0565b611d2960408301846119ce565b949350505050565b6000608082019050611d4660008301876119ec565b611d536020830186611bbf565b611d6060408301856119ec565b611d6d60608301846119ec565b95945050505050565b6000602082019050611d8b6000830184611a43565b92915050565b60006020820190508181036000830152611daa81611a52565b9050919050565b60006020820190508181036000830152611dca81611a98565b9050919050565b60006020820190508181036000830152611dea81611abb565b9050919050565b60006020820190508181036000830152611e0a81611ade565b9050919050565b60006020820190508181036000830152611e2a81611b01565b9050919050565b60006020820190508181036000830152611e4a81611b24565b9050919050565b60006020820190508181036000830152611e6a81611b47565b9050919050565b60006020820190508181036000830152611e8a81611b6a565b9050919050565b60006020820190508181036000830152611eaa81611b8d565b9050919050565b6000602082019050611ec66000830184611bb0565b92915050565b6000604082019050611ee16000830185611bb0565b611eee6020830184611bb0565b9392505050565b600081519050919050565b600081905092915050565b600082825260208201905092915050565b600081905092915050565b6000611f328261201f565b9150611f3d8361201f565b9250827fffffffffffffffffffffffffffffffffffffffffffffffffffffffffffffffff03821115611f7257611f716120e0565b5b828201905092915050565b6000611f888261201f565b9150611f938361201f565b9250817fffffffffffffffffffffffffffffffffffffffffffffffffffffffffffffffff0483118215151615611fcc57611fcb6120e0565b5b828202905092915050565b6000611fe282611fff565b9050919050565b60008115159050919050565b6000819050919050565b600073ffffffffffffffffffffffffffffffffffffffff82169050919050565b6000819050919050565b600060ff82169050919050565b600061204182612048565b9050919050565b600061205382611fff565b9050919050565b60005b8381101561207857808201518184015260208101905061205d565b83811115612087576000848401525b50505050565b60006120988261201f565b91507fffffffffffffffffffffffffffffffffffffffffffffffffffffffffffffffff8214156120cb576120ca6120e0565b5b600182019050919050565b6000819050919050565b7f4e487b7100000000000000000000000000000000000000000000000000000000600052601160045260246000fd5b7f4f776e61626c653a206e6577206f776e657220697320746865207a65726f206160008201527f6464726573730000000000000000000000000000000000000000000000000000602082015250565b7f1901000000000000000000000000000000000000000000000000000000000000600082015250565b7f496e63656e74697665436f6e7472616374733a20546865207472616e7361637460008201527f696f6e206578636565646564207468652074696d65206c696d69740000000000602082015250565b7f546f6b656e207472616e73666572206661696c65640000000000000000000000600082015250565b7f496e697469616c697a61626c653a20636f6e747261637420697320616c72656160008201527f647920696e697469616c697a6564000000000000000000000000000000000000602082015250565b7f546865206e756d626572206f66207369676e6564206163636f756e747320646960008201527f64206e6f7420726561636820746865206d696e696d756d207468726573686f6c60208201527f6400000000000000000000000000000000000000000000000000000000000000604082015250565b7f4f776e61626c653a2063616c6c6572206973206e6f7420746865206f776e6572600082015250565b7f496e63656e74697665436f6e7472616374733a205468652073797374656d206960008201527f732073757370656e646564000000000000000000000000000000000000000000602082015250565b7f496e63656e74697665436f6e7472616374733a205369676e617475726520706160008201527f72616d65746572206c656e677468206d69736d61746368000000000000000000602082015250565b7f496e63656e74697665436f6e7472616374733a205369676e696e67207573657260008201527f7320617265206e6f74207468652073616d652061732074726164696e6720757360208201527f6572730000000000000000000000000000000000000000000000000000000000604082015250565b61240881611fd7565b811461241357600080fd5b50565b61241f81611fe9565b811461242a57600080fd5b50565b6124368161201f565b811461244157600080fd5b50565b61244d81612029565b811461245857600080fd5b5056fea2646970667358221220e6ca0e3d540efa7796dc97b79041b8befccbdaaf6b980125f2748004049e5e1f64736f6c63430008010033",
			"opcodes": "PUSH1 0x80 PUSH1 0x40 MSTORE CALLVALUE DUP1 ISZERO PUSH2 0x10 JUMPI PUSH1 0x0 DUP1 REVERT JUMPDEST POP PUSH2 0x2491 DUP1 PUSH2 0x20 PUSH1 0x0 CODECOPY PUSH1 0x0 RETURN INVALID PUSH1 0x80 PUSH1 0x40 MSTORE PUSH1 0x4 CALLDATASIZE LT PUSH2 0xC6 JUMPI PUSH1 0x0 CALLDATALOAD PUSH1 0xE0 SHR DUP1 PUSH4 0x715018A6 GT PUSH2 0x7F JUMPI DUP1 PUSH4 0x8F32D59B GT PUSH2 0x59 JUMPI DUP1 PUSH4 0x8F32D59B EQ PUSH2 0x275 JUMPI DUP1 PUSH4 0xC1F0D210 EQ PUSH2 0x2A0 JUMPI DUP1 PUSH4 0xF2FDE38B EQ PUSH2 0x2C9 JUMPI DUP1 PUSH4 0xF8974DE0 EQ PUSH2 0x2F2 JUMPI PUSH2 0xCD JUMP JUMPDEST DUP1 PUSH4 0x715018A6 EQ PUSH2 0x208 JUMPI DUP1 PUSH4 0x8456CB59 EQ PUSH2 0x21F JUMPI DUP1 PUSH4 0x8DA5CB5B EQ PUSH2 0x24A JUMPI PUSH2 0xCD JUMP JUMPDEST DUP1 PUSH4 0x19AB453C EQ PUSH2 0xD2 JUMPI DUP1 PUSH4 0x3644E515 EQ PUSH2 0xFB JUMPI DUP1 PUSH4 0x475AD2EA EQ PUSH2 0x126 JUMPI DUP1 PUSH4 0x487E14F8 EQ PUSH2 0x163 JUMPI DUP1 PUSH4 0x557E6CFE EQ PUSH2 0x1A0 JUMPI DUP1 PUSH4 0x70AE92D2 EQ PUSH2 0x1CB JUMPI PUSH2 0xCD JUMP JUMPDEST CALLDATASIZE PUSH2 0xCD JUMPI STOP JUMPDEST PUSH1 0x0 DUP1 REVERT JUMPDEST CALLVALUE DUP1 ISZERO PUSH2 0xDE JUMPI PUSH1 0x0 DUP1 REVERT JUMPDEST POP PUSH2 0xF9 PUSH1 0x4 DUP1 CALLDATASIZE SUB DUP2 ADD SWAP1 PUSH2 0xF4 SWAP2 SWAP1 PUSH2 0x182A JUMP JUMPDEST PUSH2 0x31B JUMP JUMPDEST STOP JUMPDEST CALLVALUE DUP1 ISZERO PUSH2 0x107 JUMPI PUSH1 0x0 DUP1 REVERT JUMPDEST POP PUSH2 0x110 PUSH2 0x406 JUMP JUMPDEST PUSH1 0x40 MLOAD PUSH2 0x11D SWAP2 SWAP1 PUSH2 0x1CDF JUMP JUMPDEST PUSH1 0x40 MLOAD DUP1 SWAP2 SUB SWAP1 RETURN JUMPDEST CALLVALUE DUP1 ISZERO PUSH2 0x132 JUMPI PUSH1 0x0 DUP1 REVERT JUMPDEST POP PUSH2 0x14D PUSH1 0x4 DUP1 CALLDATASIZE SUB DUP2 ADD SWAP1 PUSH2 0x148 SWAP2 SWAP1 PUSH2 0x1853 JUMP JUMPDEST PUSH2 0x40C JUMP JUMPDEST PUSH1 0x40 MLOAD PUSH2 0x15A SWAP2 SWAP1 PUSH2 0x1EB1 JUMP JUMPDEST PUSH1 0x40 MLOAD DUP1 SWAP2 SUB SWAP1 RETURN JUMPDEST CALLVALUE DUP1 ISZERO PUSH2 0x16F JUMPI PUSH1 0x0 DUP1 REVERT JUMPDEST POP PUSH2 0x18A PUSH1 0x4 DUP1 CALLDATASIZE SUB DUP2 ADD SWAP1 PUSH2 0x185 SWAP2 SWAP1 PUSH2 0x182A JUMP JUMPDEST PUSH2 0x431 JUMP JUMPDEST PUSH1 0x40 MLOAD PUSH2 0x197 SWAP2 SWAP1 PUSH2 0x1EB1 JUMP JUMPDEST PUSH1 0x40 MLOAD DUP1 SWAP2 SUB SWAP1 RETURN JUMPDEST CALLVALUE DUP1 ISZERO PUSH2 0x1AC JUMPI PUSH1 0x0 DUP1 REVERT JUMPDEST POP PUSH2 0x1B5 PUSH2 0x449 JUMP JUMPDEST PUSH1 0x40 MLOAD PUSH2 0x1C2 SWAP2 SWAP1 PUSH2 0x1D76 JUMP JUMPDEST PUSH1 0x40 MLOAD DUP1 SWAP2 SUB SWAP1 RETURN JUMPDEST CALLVALUE DUP1 ISZERO PUSH2 0x1D7 JUMPI PUSH1 0x0 DUP1 REVERT JUMPDEST POP PUSH2 0x1F2 PUSH1 0x4 DUP1 CALLDATASIZE SUB DUP2 ADD SWAP1 PUSH2 0x1ED SWAP2 SWAP1 PUSH2 0x182A JUMP JUMPDEST PUSH2 0x46F JUMP JUMPDEST PUSH1 0x40 MLOAD PUSH2 0x1FF SWAP2 SWAP1 PUSH2 0x1EB1 JUMP JUMPDEST PUSH1 0x40 MLOAD DUP1 SWAP2 SUB SWAP1 RETURN JUMPDEST CALLVALUE DUP1 ISZERO PUSH2 0x214 JUMPI PUSH1 0x0 DUP1 REVERT JUMPDEST POP PUSH2 0x21D PUSH2 0x487 JUMP JUMPDEST STOP JUMPDEST CALLVALUE DUP1 ISZERO PUSH2 0x22B JUMPI PUSH1 0x0 DUP1 REVERT JUMPDEST POP PUSH2 0x234 PUSH2 0x58E JUMP JUMPDEST PUSH1 0x40 MLOAD PUSH2 0x241 SWAP2 SWAP1 PUSH2 0x1CC4 JUMP JUMPDEST PUSH1 0x40 MLOAD DUP1 SWAP2 SUB SWAP1 RETURN JUMPDEST CALLVALUE DUP1 ISZERO PUSH2 0x256 JUMPI PUSH1 0x0 DUP1 REVERT JUMPDEST POP PUSH2 0x25F PUSH2 0x5A1 JUMP JUMPDEST PUSH1 0x40 MLOAD PUSH2 0x26C SWAP2 SWAP1 PUSH2 0x1C2D JUMP JUMPDEST PUSH1 0x40 MLOAD DUP1 SWAP2 SUB SWAP1 RETURN JUMPDEST CALLVALUE DUP1 ISZERO PUSH2 0x281 JUMPI PUSH1 0x0 DUP1 REVERT JUMPDEST POP PUSH2 0x28A PUSH2 0x5CA JUMP JUMPDEST PUSH1 0x40 MLOAD PUSH2 0x297 SWAP2 SWAP1 PUSH2 0x1CC4 JUMP JUMPDEST PUSH1 0x40 MLOAD DUP1 SWAP2 SUB SWAP1 RETURN JUMPDEST CALLVALUE DUP1 ISZERO PUSH2 0x2AC JUMPI PUSH1 0x0 DUP1 REVERT JUMPDEST POP PUSH2 0x2C7 PUSH1 0x4 DUP1 CALLDATASIZE SUB DUP2 ADD SWAP1 PUSH2 0x2C2 SWAP2 SWAP1 PUSH2 0x188F JUMP JUMPDEST PUSH2 0x621 JUMP JUMPDEST STOP JUMPDEST CALLVALUE DUP1 ISZERO PUSH2 0x2D5 JUMPI PUSH1 0x0 DUP1 REVERT JUMPDEST POP PUSH2 0x2F0 PUSH1 0x4 DUP1 CALLDATASIZE SUB DUP2 ADD SWAP1 PUSH2 0x2EB SWAP2 SWAP1 PUSH2 0x182A JUMP JUMPDEST PUSH2 0x1006 JUMP JUMPDEST STOP JUMPDEST CALLVALUE DUP1 ISZERO PUSH2 0x2FE JUMPI PUSH1 0x0 DUP1 REVERT JUMPDEST POP PUSH2 0x319 PUSH1 0x4 DUP1 CALLDATASIZE SUB DUP2 ADD SWAP1 PUSH2 0x314 SWAP2 SWAP1 PUSH2 0x192A JUMP JUMPDEST PUSH2 0x1059 JUMP JUMPDEST STOP JUMPDEST PUSH1 0x0 PUSH1 0x1 SWAP1 SLOAD SWAP1 PUSH2 0x100 EXP SWAP1 DIV PUSH1 0xFF AND DUP1 PUSH2 0x341 JUMPI POP PUSH1 0x0 DUP1 SLOAD SWAP1 PUSH2 0x100 EXP SWAP1 DIV PUSH1 0xFF AND ISZERO JUMPDEST PUSH2 0x380 JUMPI PUSH1 0x40 MLOAD PUSH32 0x8C379A000000000000000000000000000000000000000000000000000000000 DUP2 MSTORE PUSH1 0x4 ADD PUSH2 0x377 SWAP1 PUSH2 0x1DF1 JUMP JUMPDEST PUSH1 0x40 MLOAD DUP1 SWAP2 SUB SWAP1 REVERT JUMPDEST PUSH1 0x0 DUP1 PUSH1 0x1 SWAP1 SLOAD SWAP1 PUSH2 0x100 EXP SWAP1 DIV PUSH1 0xFF AND ISZERO SWAP1 POP DUP1 ISZERO PUSH2 0x3D0 JUMPI PUSH1 0x1 PUSH1 0x0 PUSH1 0x1 PUSH2 0x100 EXP DUP2 SLOAD DUP2 PUSH1 0xFF MUL NOT AND SWAP1 DUP4 ISZERO ISZERO MUL OR SWAP1 SSTORE POP PUSH1 0x1 PUSH1 0x0 DUP1 PUSH2 0x100 EXP DUP2 SLOAD DUP2 PUSH1 0xFF MUL NOT AND SWAP1 DUP4 ISZERO ISZERO MUL OR SWAP1 SSTORE POP JUMPDEST PUSH2 0x3D8 PUSH2 0x10BD JUMP JUMPDEST PUSH2 0x3E1 DUP3 PUSH2 0x1238 JUMP JUMPDEST DUP1 ISZERO PUSH2 0x402 JUMPI PUSH1 0x0 DUP1 PUSH1 0x1 PUSH2 0x100 EXP DUP2 SLOAD DUP2 PUSH1 0xFF MUL NOT AND SWAP1 DUP4 ISZERO ISZERO MUL OR SWAP1 SSTORE POP JUMPDEST POP POP JUMP JUMPDEST PUSH1 0x2 SLOAD DUP2 JUMP JUMPDEST PUSH1 0x6 PUSH1 0x20 MSTORE DUP2 PUSH1 0x0 MSTORE PUSH1 0x40 PUSH1 0x0 KECCAK256 PUSH1 0x20 MSTORE DUP1 PUSH1 0x0 MSTORE PUSH1 0x40 PUSH1 0x0 KECCAK256 PUSH1 0x0 SWAP2 POP SWAP2 POP POP SLOAD DUP2 JUMP JUMPDEST PUSH1 0x5 PUSH1 0x20 MSTORE DUP1 PUSH1 0x0 MSTORE PUSH1 0x40 PUSH1 0x0 KECCAK256 PUSH1 0x0 SWAP2 POP SWAP1 POP SLOAD DUP2 JUMP JUMPDEST PUSH1 0x1 PUSH1 0x0 SWAP1 SLOAD SWAP1 PUSH2 0x100 EXP SWAP1 DIV PUSH20 0xFFFFFFFFFFFFFFFFFFFFFFFFFFFFFFFFFFFFFFFF AND DUP2 JUMP JUMPDEST PUSH1 0x4 PUSH1 0x20 MSTORE DUP1 PUSH1 0x0 MSTORE PUSH1 0x40 PUSH1 0x0 KECCAK256 PUSH1 0x0 SWAP2 POP SWAP1 POP SLOAD DUP2 JUMP JUMPDEST PUSH2 0x48F PUSH2 0x5CA JUMP JUMPDEST PUSH2 0x4CE JUMPI PUSH1 0x40 MLOAD PUSH32 0x8C379A000000000000000000000000000000000000000000000000000000000 DUP2 MSTORE PUSH1 0x4 ADD PUSH2 0x4C5 SWAP1 PUSH2 0x1E31 JUMP JUMPDEST PUSH1 0x40 MLOAD DUP1 SWAP2 SUB SWAP1 REVERT JUMPDEST PUSH1 0x0 PUSH20 0xFFFFFFFFFFFFFFFFFFFFFFFFFFFFFFFFFFFFFFFF AND PUSH1 0x0 PUSH1 0x2 SWAP1 SLOAD SWAP1 PUSH2 0x100 EXP SWAP1 DIV PUSH20 0xFFFFFFFFFFFFFFFFFFFFFFFFFFFFFFFFFFFFFFFF AND PUSH20 0xFFFFFFFFFFFFFFFFFFFFFFFFFFFFFFFFFFFFFFFF AND PUSH32 0x8BE0079C531659141344CD1FD0A4F28419497F9722A3DAAFE3B4186F6B6457E0 PUSH1 0x40 MLOAD PUSH1 0x40 MLOAD DUP1 SWAP2 SUB SWAP1 LOG3 PUSH1 0x0 DUP1 PUSH1 0x2 PUSH2 0x100 EXP DUP2 SLOAD DUP2 PUSH20 0xFFFFFFFFFFFFFFFFFFFFFFFFFFFFFFFFFFFFFFFF MUL NOT AND SWAP1 DUP4 PUSH20 0xFFFFFFFFFFFFFFFFFFFFFFFFFFFFFFFFFFFFFFFF AND MUL OR SWAP1 SSTORE POP JUMP JUMPDEST PUSH1 0x3 PUSH1 0x0 SWAP1 SLOAD SWAP1 PUSH2 0x100 EXP SWAP1 DIV PUSH1 0xFF AND DUP2 JUMP JUMPDEST PUSH1 0x0 DUP1 PUSH1 0x2 SWAP1 SLOAD SWAP1 PUSH2 0x100 EXP SWAP1 DIV PUSH20 0xFFFFFFFFFFFFFFFFFFFFFFFFFFFFFFFFFFFFFFFF AND SWAP1 POP SWAP1 JUMP JUMPDEST PUSH1 0x0 DUP1 PUSH1 0x2 SWAP1 SLOAD SWAP1 PUSH2 0x100 EXP SWAP1 DIV PUSH20 0xFFFFFFFFFFFFFFFFFFFFFFFFFFFFFFFFFFFFFFFF AND PUSH20 0xFFFFFFFFFFFFFFFFFFFFFFFFFFFFFFFFFFFFFFFF AND CALLER PUSH20 0xFFFFFFFFFFFFFFFFFFFFFFFFFFFFFFFFFFFFFFFF AND EQ SWAP1 POP SWAP1 JUMP JUMPDEST PUSH1 0x3 PUSH1 0x0 SWAP1 SLOAD SWAP1 PUSH2 0x100 EXP SWAP1 DIV PUSH1 0xFF AND ISZERO PUSH2 0x671 JUMPI PUSH1 0x40 MLOAD PUSH32 0x8C379A000000000000000000000000000000000000000000000000000000000 DUP2 MSTORE PUSH1 0x4 ADD PUSH2 0x668 SWAP1 PUSH2 0x1E51 JUMP JUMPDEST PUSH1 0x40 MLOAD DUP1 SWAP2 SUB SWAP1 REVERT JUMPDEST CALLER PUSH20 0xFFFFFFFFFFFFFFFFFFFFFFFFFFFFFFFFFFFFFFFF AND DUP7 PUSH1 0x0 PUSH1 0x2 DUP2 LT PUSH2 0x6C2 JUMPI PUSH32 0x4E487B7100000000000000000000000000000000000000000000000000000000 PUSH1 0x0 MSTORE PUSH1 0x32 PUSH1 0x4 MSTORE PUSH1 0x24 PUSH1 0x0 REVERT JUMPDEST PUSH1 0x20 MUL ADD PUSH1 0x20 DUP2 ADD SWAP1 PUSH2 0x6D5 SWAP2 SWAP1 PUSH2 0x182A JUMP JUMPDEST PUSH20 0xFFFFFFFFFFFFFFFFFFFFFFFFFFFFFFFFFFFFFFFF AND EQ PUSH2 0x72B JUMPI PUSH1 0x40 MLOAD PUSH32 0x8C379A000000000000000000000000000000000000000000000000000000000 DUP2 MSTORE PUSH1 0x4 ADD PUSH2 0x722 SWAP1 PUSH2 0x1E91 JUMP JUMPDEST PUSH1 0x40 MLOAD DUP1 SWAP2 SUB SWAP1 REVERT JUMPDEST DUP5 PUSH1 0x1 PUSH1 0x2 DUP2 LT PUSH2 0x765 JUMPI PUSH32 0x4E487B7100000000000000000000000000000000000000000000000000000000 PUSH1 0x0 MSTORE PUSH1 0x32 PUSH1 0x4 MSTORE PUSH1 0x24 PUSH1 0x0 REVERT JUMPDEST PUSH1 0x20 MUL ADD CALLDATALOAD TIMESTAMP GT ISZERO PUSH2 0x7AC JUMPI PUSH1 0x40 MLOAD PUSH32 0x8C379A000000000000000000000000000000000000000000000000000000000 DUP2 MSTORE PUSH1 0x4 ADD PUSH2 0x7A3 SWAP1 PUSH2 0x1DB1 JUMP JUMPDEST PUSH1 0x40 MLOAD DUP1 SWAP2 SUB SWAP1 REVERT JUMPDEST PUSH1 0x0 DUP5 DUP5 SWAP1 POP SWAP1 POP PUSH1 0x0 DUP1 PUSH1 0x4 PUSH1 0x0 DUP11 PUSH1 0x0 PUSH1 0x2 DUP2 LT PUSH2 0x7F5 JUMPI PUSH32 0x4E487B7100000000000000000000000000000000000000000000000000000000 PUSH1 0x0 MSTORE PUSH1 0x32 PUSH1 0x4 MSTORE PUSH1 0x24 PUSH1 0x0 REVERT JUMPDEST PUSH1 0x20 MUL ADD PUSH1 0x20 DUP2 ADD SWAP1 PUSH2 0x808 SWAP2 SWAP1 PUSH2 0x182A JUMP JUMPDEST PUSH20 0xFFFFFFFFFFFFFFFFFFFFFFFFFFFFFFFFFFFFFFFF AND PUSH20 0xFFFFFFFFFFFFFFFFFFFFFFFFFFFFFFFFFFFFFFFF AND DUP2 MSTORE PUSH1 0x20 ADD SWAP1 DUP2 MSTORE PUSH1 0x20 ADD PUSH1 0x0 KECCAK256 PUSH1 0x0 DUP2 SLOAD DUP1 SWAP3 SWAP2 SWAP1 PUSH2 0x853 SWAP1 PUSH2 0x208D JUMP JUMPDEST SWAP2 SWAP1 POP SSTORE SWAP1 POP DUP5 DUP5 SWAP1 POP PUSH1 0x2 DUP5 PUSH2 0x86A SWAP2 SWAP1 PUSH2 0x1F7D JUMP JUMPDEST EQ PUSH2 0x8AA JUMPI PUSH1 0x40 MLOAD PUSH32 0x8C379A000000000000000000000000000000000000000000000000000000000 DUP2 MSTORE PUSH1 0x4 ADD PUSH2 0x8A1 SWAP1 PUSH2 0x1E71 JUMP JUMPDEST PUSH1 0x40 MLOAD DUP1 SWAP2 SUB SWAP1 REVERT JUMPDEST PUSH1 0x0 PUSH2 0xA16 PUSH1 0x40 MLOAD DUP1 PUSH1 0x80 ADD PUSH1 0x40 MSTORE DUP1 DUP13 PUSH1 0x0 PUSH1 0x2 DUP2 LT PUSH2 0x8F4 JUMPI PUSH32 0x4E487B7100000000000000000000000000000000000000000000000000000000 PUSH1 0x0 MSTORE PUSH1 0x32 PUSH1 0x4 MSTORE PUSH1 0x24 PUSH1 0x0 REVERT JUMPDEST PUSH1 0x20 MUL ADD PUSH1 0x20 DUP2 ADD SWAP1 PUSH2 0x907 SWAP2 SWAP1 PUSH2 0x182A JUMP JUMPDEST PUSH20 0xFFFFFFFFFFFFFFFFFFFFFFFFFFFFFFFFFFFFFFFF AND DUP2 MSTORE PUSH1 0x20 ADD DUP13 PUSH1 0x1 PUSH1 0x2 DUP2 LT PUSH2 0x95C JUMPI PUSH32 0x4E487B7100000000000000000000000000000000000000000000000000000000 PUSH1 0x0 MSTORE PUSH1 0x32 PUSH1 0x4 MSTORE PUSH1 0x24 PUSH1 0x0 REVERT JUMPDEST PUSH1 0x20 MUL ADD PUSH1 0x20 DUP2 ADD SWAP1 PUSH2 0x96F SWAP2 SWAP1 PUSH2 0x182A JUMP JUMPDEST PUSH20 0xFFFFFFFFFFFFFFFFFFFFFFFFFFFFFFFFFFFFFFFF AND DUP2 MSTORE PUSH1 0x20 ADD DUP12 PUSH1 0x0 PUSH1 0x2 DUP2 LT PUSH2 0x9C4 JUMPI PUSH32 0x4E487B7100000000000000000000000000000000000000000000000000000000 PUSH1 0x0 MSTORE PUSH1 0x32 PUSH1 0x4 MSTORE PUSH1 0x24 PUSH1 0x0 REVERT JUMPDEST PUSH1 0x20 MUL ADD CALLDATALOAD DUP2 MSTORE PUSH1 0x20 ADD DUP12 PUSH1 0x1 PUSH1 0x2 DUP2 LT PUSH2 0xA08 JUMPI PUSH32 0x4E487B7100000000000000000000000000000000000000000000000000000000 PUSH1 0x0 MSTORE PUSH1 0x32 PUSH1 0x4 MSTORE PUSH1 0x24 PUSH1 0x0 REVERT JUMPDEST PUSH1 0x20 MUL ADD CALLDATALOAD DUP2 MSTORE POP DUP4 PUSH2 0x13A7 JUMP JUMPDEST SWAP1 POP PUSH1 0x0 JUMPDEST DUP5 DUP2 LT ISZERO PUSH2 0xB74 JUMPI PUSH1 0x0 PUSH2 0xB3B DUP4 PUSH1 0x40 MLOAD DUP1 PUSH1 0x60 ADD PUSH1 0x40 MSTORE DUP1 DUP14 DUP14 DUP8 DUP2 DUP2 LT PUSH2 0xA6D JUMPI PUSH32 0x4E487B7100000000000000000000000000000000000000000000000000000000 PUSH1 0x0 MSTORE PUSH1 0x32 PUSH1 0x4 MSTORE PUSH1 0x24 PUSH1 0x0 REVERT JUMPDEST SWAP1 POP PUSH1 0x20 MUL ADD PUSH1 0x20 DUP2 ADD SWAP1 PUSH2 0xA82 SWAP2 SWAP1 PUSH2 0x19A5 JUMP JUMPDEST PUSH1 0xFF AND DUP2 MSTORE PUSH1 0x20 ADD DUP12 DUP12 PUSH1 0x2 DUP9 PUSH2 0xA99 SWAP2 SWAP1 PUSH2 0x1F7D JUMP JUMPDEST DUP2 DUP2 LT PUSH2 0xACF JUMPI PUSH32 0x4E487B7100000000000000000000000000000000000000000000000000000000 PUSH1 0x0 MSTORE PUSH1 0x32 PUSH1 0x4 MSTORE PUSH1 0x24 PUSH1 0x0 REVERT JUMPDEST SWAP1 POP PUSH1 0x20 MUL ADD CALLDATALOAD DUP2 MSTORE PUSH1 0x20 ADD DUP12 DUP12 PUSH1 0x1 PUSH1 0x2 DUP10 PUSH2 0xAEC SWAP2 SWAP1 PUSH2 0x1F7D JUMP JUMPDEST PUSH2 0xAF6 SWAP2 SWAP1 PUSH2 0x1F27 JUMP JUMPDEST DUP2 DUP2 LT PUSH2 0xB2C JUMPI PUSH32 0x4E487B7100000000000000000000000000000000000000000000000000000000 PUSH1 0x0 MSTORE PUSH1 0x32 PUSH1 0x4 MSTORE PUSH1 0x24 PUSH1 0x0 REVERT JUMPDEST SWAP1 POP PUSH1 0x20 MUL ADD CALLDATALOAD DUP2 MSTORE POP PUSH2 0x141A JUMP JUMPDEST SWAP1 POP DUP1 ISZERO PUSH2 0xB52 JUMPI DUP5 DUP1 PUSH2 0xB4E SWAP1 PUSH2 0x208D JUMP JUMPDEST SWAP6 POP POP JUMPDEST PUSH1 0x6 DUP6 LT PUSH2 0xB60 JUMPI POP PUSH2 0xB74 JUMP JUMPDEST POP DUP1 DUP1 PUSH2 0xB6C SWAP1 PUSH2 0x208D JUMP JUMPDEST SWAP2 POP POP PUSH2 0xA1B JUMP JUMPDEST POP PUSH1 0x6 DUP4 LT ISZERO PUSH2 0xBB9 JUMPI PUSH1 0x40 MLOAD PUSH32 0x8C379A000000000000000000000000000000000000000000000000000000000 DUP2 MSTORE PUSH1 0x4 ADD PUSH2 0xBB0 SWAP1 PUSH2 0x1E11 JUMP JUMPDEST PUSH1 0x40 MLOAD DUP1 SWAP2 SUB SWAP1 REVERT JUMPDEST DUP9 PUSH1 0x0 PUSH1 0x2 DUP2 LT PUSH2 0xBF3 JUMPI PUSH32 0x4E487B7100000000000000000000000000000000000000000000000000000000 PUSH1 0x0 MSTORE PUSH1 0x32 PUSH1 0x4 MSTORE PUSH1 0x24 PUSH1 0x0 REVERT JUMPDEST PUSH1 0x20 MUL ADD CALLDATALOAD PUSH1 0x5 PUSH1 0x0 DUP13 PUSH1 0x0 PUSH1 0x2 DUP2 LT PUSH2 0xC36 JUMPI PUSH32 0x4E487B7100000000000000000000000000000000000000000000000000000000 PUSH1 0x0 MSTORE PUSH1 0x32 PUSH1 0x4 MSTORE PUSH1 0x24 PUSH1 0x0 REVERT JUMPDEST PUSH1 0x20 MUL ADD PUSH1 0x20 DUP2 ADD SWAP1 PUSH2 0xC49 SWAP2 SWAP1 PUSH2 0x182A JUMP JUMPDEST PUSH20 0xFFFFFFFFFFFFFFFFFFFFFFFFFFFFFFFFFFFFFFFF AND PUSH20 0xFFFFFFFFFFFFFFFFFFFFFFFFFFFFFFFFFFFFFFFF AND DUP2 MSTORE PUSH1 0x20 ADD SWAP1 DUP2 MSTORE PUSH1 0x20 ADD PUSH1 0x0 KECCAK256 PUSH1 0x0 DUP3 DUP3 SLOAD PUSH2 0xC92 SWAP2 SWAP1 PUSH2 0x1F27 JUMP JUMPDEST SWAP3 POP POP DUP2 SWAP1 SSTORE POP DUP9 PUSH1 0x0 PUSH1 0x2 DUP2 LT PUSH2 0xCD3 JUMPI PUSH32 0x4E487B7100000000000000000000000000000000000000000000000000000000 PUSH1 0x0 MSTORE PUSH1 0x32 PUSH1 0x4 MSTORE PUSH1 0x24 PUSH1 0x0 REVERT JUMPDEST PUSH1 0x20 MUL ADD CALLDATALOAD PUSH1 0x6 PUSH1 0x0 DUP13 PUSH1 0x0 PUSH1 0x2 DUP2 LT PUSH2 0xD16 JUMPI PUSH32 0x4E487B7100000000000000000000000000000000000000000000000000000000 PUSH1 0x0 MSTORE PUSH1 0x32 PUSH1 0x4 MSTORE PUSH1 0x24 PUSH1 0x0 REVERT JUMPDEST PUSH1 0x20 MUL ADD PUSH1 0x20 DUP2 ADD SWAP1 PUSH2 0xD29 SWAP2 SWAP1 PUSH2 0x182A JUMP JUMPDEST PUSH20 0xFFFFFFFFFFFFFFFFFFFFFFFFFFFFFFFFFFFFFFFF AND PUSH20 0xFFFFFFFFFFFFFFFFFFFFFFFFFFFFFFFFFFFFFFFF AND DUP2 MSTORE PUSH1 0x20 ADD SWAP1 DUP2 MSTORE PUSH1 0x20 ADD PUSH1 0x0 KECCAK256 PUSH1 0x0 DUP5 DUP2 MSTORE PUSH1 0x20 ADD SWAP1 DUP2 MSTORE PUSH1 0x20 ADD PUSH1 0x0 KECCAK256 DUP2 SWAP1 SSTORE POP PUSH1 0x0 DUP11 PUSH1 0x1 PUSH1 0x2 DUP2 LT PUSH2 0xDB4 JUMPI PUSH32 0x4E487B7100000000000000000000000000000000000000000000000000000000 PUSH1 0x0 MSTORE PUSH1 0x32 PUSH1 0x4 MSTORE PUSH1 0x24 PUSH1 0x0 REVERT JUMPDEST PUSH1 0x20 MUL ADD PUSH1 0x20 DUP2 ADD SWAP1 PUSH2 0xDC7 SWAP2 SWAP1 PUSH2 0x182A JUMP JUMPDEST SWAP1 POP DUP1 PUSH20 0xFFFFFFFFFFFFFFFFFFFFFFFFFFFFFFFFFFFFFFFF AND PUSH4 0xA9059CBB DUP13 PUSH1 0x0 PUSH1 0x2 DUP2 LT PUSH2 0xE1F JUMPI PUSH32 0x4E487B7100000000000000000000000000000000000000000000000000000000 PUSH1 0x0 MSTORE PUSH1 0x32 PUSH1 0x4 MSTORE PUSH1 0x24 PUSH1 0x0 REVERT JUMPDEST PUSH1 0x20 MUL ADD PUSH1 0x20 DUP2 ADD SWAP1 PUSH2 0xE32 SWAP2 SWAP1 PUSH2 0x182A JUMP JUMPDEST DUP13 PUSH1 0x0 PUSH1 0x2 DUP2 LT PUSH2 0xE6C JUMPI PUSH32 0x4E487B7100000000000000000000000000000000000000000000000000000000 PUSH1 0x0 MSTORE PUSH1 0x32 PUSH1 0x4 MSTORE PUSH1 0x24 PUSH1 0x0 REVERT JUMPDEST PUSH1 0x20 MUL ADD CALLDATALOAD PUSH1 0x40 MLOAD DUP4 PUSH4 0xFFFFFFFF AND PUSH1 0xE0 SHL DUP2 MSTORE PUSH1 0x4 ADD PUSH2 0xE8E SWAP3 SWAP2 SWAP1 PUSH2 0x1C9B JUMP JUMPDEST PUSH1 0x20 PUSH1 0x40 MLOAD DUP1 DUP4 SUB DUP2 PUSH1 0x0 DUP8 DUP1 EXTCODESIZE ISZERO DUP1 ISZERO PUSH2 0xEA8 JUMPI PUSH1 0x0 DUP1 REVERT JUMPDEST POP GAS CALL ISZERO DUP1 ISZERO PUSH2 0xEBC JUMPI RETURNDATASIZE PUSH1 0x0 DUP1 RETURNDATACOPY RETURNDATASIZE PUSH1 0x0 REVERT JUMPDEST POP POP POP POP PUSH1 0x40 MLOAD RETURNDATASIZE PUSH1 0x1F NOT PUSH1 0x1F DUP3 ADD AND DUP3 ADD DUP1 PUSH1 0x40 MSTORE POP DUP2 ADD SWAP1 PUSH2 0xEE0 SWAP2 SWAP1 PUSH2 0x1953 JUMP JUMPDEST PUSH2 0xF1F JUMPI PUSH1 0x40 MLOAD PUSH32 0x8C379A000000000000000000000000000000000000000000000000000000000 DUP2 MSTORE PUSH1 0x4 ADD PUSH2 0xF16 SWAP1 PUSH2 0x1DD1 JUMP JUMPDEST PUSH1 0x40 MLOAD DUP1 SWAP2 SUB SWAP1 REVERT JUMPDEST DUP11 PUSH1 0x0 PUSH1 0x2 DUP2 LT PUSH2 0xF59 JUMPI PUSH32 0x4E487B7100000000000000000000000000000000000000000000000000000000 PUSH1 0x0 MSTORE PUSH1 0x32 PUSH1 0x4 MSTORE PUSH1 0x24 PUSH1 0x0 REVERT JUMPDEST PUSH1 0x20 MUL ADD PUSH1 0x20 DUP2 ADD SWAP1 PUSH2 0xF6C SWAP2 SWAP1 PUSH2 0x182A JUMP JUMPDEST PUSH20 0xFFFFFFFFFFFFFFFFFFFFFFFFFFFFFFFFFFFFFFFF AND PUSH32 0x7575C9E41BA6D91EF21E39BD62B5B9DF62FC9B0401379FDF9FE1FA372F41E7C1 DUP5 DUP13 PUSH1 0x0 PUSH1 0x2 DUP2 LT PUSH2 0xFDE JUMPI PUSH32 0x4E487B7100000000000000000000000000000000000000000000000000000000 PUSH1 0x0 MSTORE PUSH1 0x32 PUSH1 0x4 MSTORE PUSH1 0x24 PUSH1 0x0 REVERT JUMPDEST PUSH1 0x20 MUL ADD CALLDATALOAD PUSH1 0x40 MLOAD PUSH2 0xFF1 SWAP3 SWAP2 SWAP1 PUSH2 0x1ECC JUMP JUMPDEST PUSH1 0x40 MLOAD DUP1 SWAP2 SUB SWAP1 LOG2 POP POP POP POP POP POP POP POP POP POP POP JUMP JUMPDEST PUSH2 0x100E PUSH2 0x5CA JUMP JUMPDEST PUSH2 0x104D JUMPI PUSH1 0x40 MLOAD PUSH32 0x8C379A000000000000000000000000000000000000000000000000000000000 DUP2 MSTORE PUSH1 0x4 ADD PUSH2 0x1044 SWAP1 PUSH2 0x1E31 JUMP JUMPDEST PUSH1 0x40 MLOAD DUP1 SWAP2 SUB SWAP1 REVERT JUMPDEST PUSH2 0x1056 DUP2 PUSH2 0x15AC JUMP JUMPDEST POP JUMP JUMPDEST PUSH2 0x1061 PUSH2 0x5CA JUMP JUMPDEST PUSH2 0x10A0 JUMPI PUSH1 0x40 MLOAD PUSH32 0x8C379A000000000000000000000000000000000000000000000000000000000 DUP2 MSTORE PUSH1 0x4 ADD PUSH2 0x1097 SWAP1 PUSH2 0x1E31 JUMP JUMPDEST PUSH1 0x40 MLOAD DUP1 SWAP2 SUB SWAP1 REVERT JUMPDEST DUP1 PUSH1 0x3 PUSH1 0x0 PUSH2 0x100 EXP DUP2 SLOAD DUP2 PUSH1 0xFF MUL NOT AND SWAP1 DUP4 ISZERO ISZERO MUL OR SWAP1 SSTORE POP POP JUMP JUMPDEST PUSH1 0x0 PUSH1 0x1 SWAP1 SLOAD SWAP1 PUSH2 0x100 EXP SWAP1 DIV PUSH1 0xFF AND DUP1 PUSH2 0x10E3 JUMPI POP PUSH1 0x0 DUP1 SLOAD SWAP1 PUSH2 0x100 EXP SWAP1 DIV PUSH1 0xFF AND ISZERO JUMPDEST PUSH2 0x1122 JUMPI PUSH1 0x40 MLOAD PUSH32 0x8C379A000000000000000000000000000000000000000000000000000000000 DUP2 MSTORE PUSH1 0x4 ADD PUSH2 0x1119 SWAP1 PUSH2 0x1DF1 JUMP JUMPDEST PUSH1 0x40 MLOAD DUP1 SWAP2 SUB SWAP1 REVERT JUMPDEST PUSH1 0x0 DUP1 PUSH1 0x1 SWAP1 SLOAD SWAP1 PUSH2 0x100 EXP SWAP1 DIV PUSH1 0xFF AND ISZERO SWAP1 POP DUP1 ISZERO PUSH2 0x1172 JUMPI PUSH1 0x1 PUSH1 0x0 PUSH1 0x1 PUSH2 0x100 EXP DUP2 SLOAD DUP2 PUSH1 0xFF MUL NOT AND SWAP1 DUP4 ISZERO ISZERO MUL OR SWAP1 SSTORE POP PUSH1 0x1 PUSH1 0x0 DUP1 PUSH2 0x100 EXP DUP2 SLOAD DUP2 PUSH1 0xFF MUL NOT AND SWAP1 DUP4 ISZERO ISZERO MUL OR SWAP1 SSTORE POP JUMPDEST PUSH1 0x0 CALLER SWAP1 POP DUP1 PUSH1 0x0 PUSH1 0x2 PUSH2 0x100 EXP DUP2 SLOAD DUP2 PUSH20 0xFFFFFFFFFFFFFFFFFFFFFFFFFFFFFFFFFFFFFFFF MUL NOT AND SWAP1 DUP4 PUSH20 0xFFFFFFFFFFFFFFFFFFFFFFFFFFFFFFFFFFFFFFFF AND MUL OR SWAP1 SSTORE POP DUP1 PUSH20 0xFFFFFFFFFFFFFFFFFFFFFFFFFFFFFFFFFFFFFFFF AND PUSH1 0x0 PUSH20 0xFFFFFFFFFFFFFFFFFFFFFFFFFFFFFFFFFFFFFFFF AND PUSH32 0x8BE0079C531659141344CD1FD0A4F28419497F9722A3DAAFE3B4186F6B6457E0 PUSH1 0x40 MLOAD PUSH1 0x40 MLOAD DUP1 SWAP2 SUB SWAP1 LOG3 POP DUP1 ISZERO PUSH2 0x1235 JUMPI PUSH1 0x0 DUP1 PUSH1 0x1 PUSH2 0x100 EXP DUP2 SLOAD DUP2 PUSH1 0xFF MUL NOT AND SWAP1 DUP4 ISZERO ISZERO MUL OR SWAP1 SSTORE POP JUMPDEST POP JUMP JUMPDEST PUSH1 0x0 PUSH1 0x1 SWAP1 SLOAD SWAP1 PUSH2 0x100 EXP SWAP1 DIV PUSH1 0xFF AND DUP1 PUSH2 0x125E JUMPI POP PUSH1 0x0 DUP1 SLOAD SWAP1 PUSH2 0x100 EXP SWAP1 DIV PUSH1 0xFF AND ISZERO JUMPDEST PUSH2 0x129D JUMPI PUSH1 0x40 MLOAD PUSH32 0x8C379A000000000000000000000000000000000000000000000000000000000 DUP2 MSTORE PUSH1 0x4 ADD PUSH2 0x1294 SWAP1 PUSH2 0x1DF1 JUMP JUMPDEST PUSH1 0x40 MLOAD DUP1 SWAP2 SUB SWAP1 REVERT JUMPDEST PUSH1 0x0 DUP1 PUSH1 0x1 SWAP1 SLOAD SWAP1 PUSH2 0x100 EXP SWAP1 DIV PUSH1 0xFF AND ISZERO SWAP1 POP DUP1 ISZERO PUSH2 0x12ED JUMPI PUSH1 0x1 PUSH1 0x0 PUSH1 0x1 PUSH2 0x100 EXP DUP2 SLOAD DUP2 PUSH1 0xFF MUL NOT AND SWAP1 DUP4 ISZERO ISZERO MUL OR SWAP1 SSTORE POP PUSH1 0x1 PUSH1 0x0 DUP1 PUSH2 0x100 EXP DUP2 SLOAD DUP2 PUSH1 0xFF MUL NOT AND SWAP1 DUP4 ISZERO ISZERO MUL OR SWAP1 SSTORE POP JUMPDEST DUP2 PUSH1 0x1 PUSH1 0x0 PUSH2 0x100 EXP DUP2 SLOAD DUP2 PUSH20 0xFFFFFFFFFFFFFFFFFFFFFFFFFFFFFFFFFFFFFFFF MUL NOT AND SWAP1 DUP4 PUSH20 0xFFFFFFFFFFFFFFFFFFFFFFFFFFFFFFFFFFFFFFFF AND MUL OR SWAP1 SSTORE POP PUSH1 0x0 PUSH32 0x47E79534A245952E8B16893A336B85A3D9EA9FA8C573F3D803AFB92A79469218 DUP2 ADDRESS PUSH1 0x40 MLOAD PUSH1 0x20 ADD PUSH2 0x1365 SWAP4 SWAP3 SWAP2 SWAP1 PUSH2 0x1CFA JUMP JUMPDEST PUSH1 0x40 MLOAD PUSH1 0x20 DUP2 DUP4 SUB SUB DUP2 MSTORE SWAP1 PUSH1 0x40 MSTORE DUP1 MLOAD SWAP1 PUSH1 0x20 ADD KECCAK256 PUSH1 0x2 DUP2 SWAP1 SSTORE POP POP DUP1 ISZERO PUSH2 0x13A3 JUMPI PUSH1 0x0 DUP1 PUSH1 0x1 PUSH2 0x100 EXP DUP2 SLOAD DUP2 PUSH1 0xFF MUL NOT AND SWAP1 DUP4 ISZERO ISZERO MUL OR SWAP1 SSTORE POP JUMPDEST POP POP JUMP JUMPDEST PUSH1 0x0 PUSH1 0x2 SLOAD DUP4 PUSH1 0x0 ADD MLOAD DUP5 PUSH1 0x20 ADD MLOAD DUP6 PUSH1 0x40 ADD MLOAD DUP7 PUSH1 0x60 ADD MLOAD DUP7 PUSH1 0x40 MLOAD PUSH1 0x20 ADD PUSH2 0x13D5 SWAP6 SWAP5 SWAP4 SWAP3 SWAP2 SWAP1 PUSH2 0x1C48 JUMP JUMPDEST PUSH1 0x40 MLOAD PUSH1 0x20 DUP2 DUP4 SUB SUB DUP2 MSTORE SWAP1 PUSH1 0x40 MSTORE DUP1 MLOAD SWAP1 PUSH1 0x20 ADD KECCAK256 PUSH1 0x40 MLOAD PUSH1 0x20 ADD PUSH2 0x13FC SWAP3 SWAP2 SWAP1 PUSH2 0x1BF6 JUMP JUMPDEST PUSH1 0x40 MLOAD PUSH1 0x20 DUP2 DUP4 SUB SUB DUP2 MSTORE SWAP1 PUSH1 0x40 MSTORE DUP1 MLOAD SWAP1 PUSH1 0x20 ADD KECCAK256 SWAP1 POP SWAP3 SWAP2 POP POP JUMP JUMPDEST PUSH1 0x0 DUP1 PUSH1 0x40 MLOAD DUP1 PUSH1 0x40 ADD PUSH1 0x40 MSTORE DUP1 PUSH1 0x1C DUP2 MSTORE PUSH1 0x20 ADD PUSH32 0x19457468657265756D205369676E6564204D6573736167653A0A333200000000 DUP2 MSTORE POP SWAP1 POP PUSH1 0x0 DUP2 DUP6 PUSH1 0x40 MLOAD PUSH1 0x20 ADD PUSH2 0x146A SWAP3 SWAP2 SWAP1 PUSH2 0x1BCE JUMP JUMPDEST PUSH1 0x40 MLOAD PUSH1 0x20 DUP2 DUP4 SUB SUB DUP2 MSTORE SWAP1 PUSH1 0x40 MSTORE DUP1 MLOAD SWAP1 PUSH1 0x20 ADD KECCAK256 SWAP1 POP PUSH1 0x0 PUSH1 0x1 DUP3 DUP7 PUSH1 0x0 ADD MLOAD DUP8 PUSH1 0x20 ADD MLOAD DUP9 PUSH1 0x40 ADD MLOAD PUSH1 0x40 MLOAD PUSH1 0x0 DUP2 MSTORE PUSH1 0x20 ADD PUSH1 0x40 MSTORE PUSH1 0x40 MLOAD PUSH2 0x14B3 SWAP5 SWAP4 SWAP3 SWAP2 SWAP1 PUSH2 0x1D31 JUMP JUMPDEST PUSH1 0x20 PUSH1 0x40 MLOAD PUSH1 0x20 DUP2 SUB SWAP1 DUP1 DUP5 SUB SWAP1 DUP6 GAS STATICCALL ISZERO DUP1 ISZERO PUSH2 0x14D5 JUMPI RETURNDATASIZE PUSH1 0x0 DUP1 RETURNDATACOPY RETURNDATASIZE PUSH1 0x0 REVERT JUMPDEST POP POP POP PUSH1 0x20 PUSH1 0x40 MLOAD SUB MLOAD SWAP1 POP PUSH1 0x0 PUSH1 0x1 PUSH1 0x0 SWAP1 SLOAD SWAP1 PUSH2 0x100 EXP SWAP1 DIV PUSH20 0xFFFFFFFFFFFFFFFFFFFFFFFFFFFFFFFFFFFFFFFF AND PUSH20 0xFFFFFFFFFFFFFFFFFFFFFFFFFFFFFFFFFFFFFFFF AND PUSH4 0xC8BC4C68 DUP4 PUSH1 0x40 MLOAD DUP3 PUSH4 0xFFFFFFFF AND PUSH1 0xE0 SHL DUP2 MSTORE PUSH1 0x4 ADD PUSH2 0x153E SWAP2 SWAP1 PUSH2 0x1C2D JUMP JUMPDEST PUSH1 0x20 PUSH1 0x40 MLOAD DUP1 DUP4 SUB DUP2 DUP7 DUP1 EXTCODESIZE ISZERO DUP1 ISZERO PUSH2 0x1556 JUMPI PUSH1 0x0 DUP1 REVERT JUMPDEST POP GAS STATICCALL ISZERO DUP1 ISZERO PUSH2 0x156A JUMPI RETURNDATASIZE PUSH1 0x0 DUP1 RETURNDATACOPY RETURNDATASIZE PUSH1 0x0 REVERT JUMPDEST POP POP POP POP PUSH1 0x40 MLOAD RETURNDATASIZE PUSH1 0x1F NOT PUSH1 0x1F DUP3 ADD AND DUP3 ADD DUP1 PUSH1 0x40 MSTORE POP DUP2 ADD SWAP1 PUSH2 0x158E SWAP2 SWAP1 PUSH2 0x197C JUMP JUMPDEST SWAP1 POP PUSH1 0xC DUP2 LT DUP1 ISZERO PUSH2 0x15A0 JUMPI POP PUSH1 0x0 DUP2 GT JUMPDEST SWAP5 POP POP POP POP POP SWAP3 SWAP2 POP POP JUMP JUMPDEST PUSH1 0x0 PUSH20 0xFFFFFFFFFFFFFFFFFFFFFFFFFFFFFFFFFFFFFFFF AND DUP2 PUSH20 0xFFFFFFFFFFFFFFFFFFFFFFFFFFFFFFFFFFFFFFFF AND EQ ISZERO PUSH2 0x161C JUMPI PUSH1 0x40 MLOAD PUSH32 0x8C379A000000000000000000000000000000000000000000000000000000000 DUP2 MSTORE PUSH1 0x4 ADD PUSH2 0x1613 SWAP1 PUSH2 0x1D91 JUMP JUMPDEST PUSH1 0x40 MLOAD DUP1 SWAP2 SUB SWAP1 REVERT JUMPDEST DUP1 PUSH20 0xFFFFFFFFFFFFFFFFFFFFFFFFFFFFFFFFFFFFFFFF AND PUSH1 0x0 PUSH1 0x2 SWAP1 SLOAD SWAP1 PUSH2 0x100 EXP SWAP1 DIV PUSH20 0xFFFFFFFFFFFFFFFFFFFFFFFFFFFFFFFFFFFFFFFF AND PUSH20 0xFFFFFFFFFFFFFFFFFFFFFFFFFFFFFFFFFFFFFFFF AND PUSH32 0x8BE0079C531659141344CD1FD0A4F28419497F9722A3DAAFE3B4186F6B6457E0 PUSH1 0x40 MLOAD PUSH1 0x40 MLOAD DUP1 SWAP2 SUB SWAP1 LOG3 DUP1 PUSH1 0x0 PUSH1 0x2 PUSH2 0x100 EXP DUP2 SLOAD DUP2 PUSH20 0xFFFFFFFFFFFFFFFFFFFFFFFFFFFFFFFFFFFFFFFF MUL NOT AND SWAP1 DUP4 PUSH20 0xFFFFFFFFFFFFFFFFFFFFFFFFFFFFFFFFFFFFFFFF AND MUL OR SWAP1 SSTORE POP POP JUMP JUMPDEST PUSH1 0x0 DUP2 CALLDATALOAD SWAP1 POP PUSH2 0x16EB DUP2 PUSH2 0x23FF JUMP JUMPDEST SWAP3 SWAP2 POP POP JUMP JUMPDEST PUSH1 0x0 DUP2 SWAP1 POP DUP3 PUSH1 0x20 PUSH1 0x2 MUL DUP3 ADD GT ISZERO PUSH2 0x1709 JUMPI PUSH1 0x0 DUP1 REVERT JUMPDEST SWAP3 SWAP2 POP POP JUMP JUMPDEST PUSH1 0x0 DUP1 DUP4 PUSH1 0x1F DUP5 ADD SLT PUSH2 0x1721 JUMPI PUSH1 0x0 DUP1 REVERT JUMPDEST DUP3 CALLDATALOAD SWAP1 POP PUSH8 0xFFFFFFFFFFFFFFFF DUP2 GT ISZERO PUSH2 0x173A JUMPI PUSH1 0x0 DUP1 REVERT JUMPDEST PUSH1 0x20 DUP4 ADD SWAP2 POP DUP4 PUSH1 0x20 DUP3 MUL DUP4 ADD GT ISZERO PUSH2 0x1752 JUMPI PUSH1 0x0 DUP1 REVERT JUMPDEST SWAP3 POP SWAP3 SWAP1 POP JUMP JUMPDEST PUSH1 0x0 DUP2 SWAP1 POP DUP3 PUSH1 0x20 PUSH1 0x2 MUL DUP3 ADD GT ISZERO PUSH2 0x1771 JUMPI PUSH1 0x0 DUP1 REVERT JUMPDEST SWAP3 SWAP2 POP POP JUMP JUMPDEST PUSH1 0x0 DUP1 DUP4 PUSH1 0x1F DUP5 ADD SLT PUSH2 0x1789 JUMPI PUSH1 0x0 DUP1 REVERT JUMPDEST DUP3 CALLDATALOAD SWAP1 POP PUSH8 0xFFFFFFFFFFFFFFFF DUP2 GT ISZERO PUSH2 0x17A2 JUMPI PUSH1 0x0 DUP1 REVERT JUMPDEST PUSH1 0x20 DUP4 ADD SWAP2 POP DUP4 PUSH1 0x20 DUP3 MUL DUP4 ADD GT ISZERO PUSH2 0x17BA JUMPI PUSH1 0x0 DUP1 REVERT JUMPDEST SWAP3 POP SWAP3 SWAP1 POP JUMP JUMPDEST PUSH1 0x0 DUP2 CALLDATALOAD SWAP1 POP PUSH2 0x17D0 DUP2 PUSH2 0x2416 JUMP JUMPDEST SWAP3 SWAP2 POP POP JUMP JUMPDEST PUSH1 0x0 DUP2 MLOAD SWAP1 POP PUSH2 0x17E5 DUP2 PUSH2 0x2416 JUMP JUMPDEST SWAP3 SWAP2 POP POP JUMP JUMPDEST PUSH1 0x0 DUP2 CALLDATALOAD SWAP1 POP PUSH2 0x17FA DUP2 PUSH2 0x242D JUMP JUMPDEST SWAP3 SWAP2 POP POP JUMP JUMPDEST PUSH1 0x0 DUP2 MLOAD SWAP1 POP PUSH2 0x180F DUP2 PUSH2 0x242D JUMP JUMPDEST SWAP3 SWAP2 POP POP JUMP JUMPDEST PUSH1 0x0 DUP2 CALLDATALOAD SWAP1 POP PUSH2 0x1824 DUP2 PUSH2 0x2444 JUMP JUMPDEST SWAP3 SWAP2 POP POP JUMP JUMPDEST PUSH1 0x0 PUSH1 0x20 DUP3 DUP5 SUB SLT ISZERO PUSH2 0x183C JUMPI PUSH1 0x0 DUP1 REVERT JUMPDEST PUSH1 0x0 PUSH2 0x184A DUP5 DUP3 DUP6 ADD PUSH2 0x16DC JUMP JUMPDEST SWAP2 POP POP SWAP3 SWAP2 POP POP JUMP JUMPDEST PUSH1 0x0 DUP1 PUSH1 0x40 DUP4 DUP6 SUB SLT ISZERO PUSH2 0x1866 JUMPI PUSH1 0x0 DUP1 REVERT JUMPDEST PUSH1 0x0 PUSH2 0x1874 DUP6 DUP3 DUP7 ADD PUSH2 0x16DC JUMP JUMPDEST SWAP3 POP POP PUSH1 0x20 PUSH2 0x1885 DUP6 DUP3 DUP7 ADD PUSH2 0x17EB JUMP JUMPDEST SWAP2 POP POP SWAP3 POP SWAP3 SWAP1 POP JUMP JUMPDEST PUSH1 0x0 DUP1 PUSH1 0x0 DUP1 PUSH1 0x0 DUP1 PUSH1 0xC0 DUP8 DUP10 SUB SLT ISZERO PUSH2 0x18A8 JUMPI PUSH1 0x0 DUP1 REVERT JUMPDEST PUSH1 0x0 PUSH2 0x18B6 DUP10 DUP3 DUP11 ADD PUSH2 0x16F1 JUMP JUMPDEST SWAP7 POP POP PUSH1 0x40 PUSH2 0x18C7 DUP10 DUP3 DUP11 ADD PUSH2 0x1759 JUMP JUMPDEST SWAP6 POP POP PUSH1 0x80 DUP8 ADD CALLDATALOAD PUSH8 0xFFFFFFFFFFFFFFFF DUP2 GT ISZERO PUSH2 0x18E4 JUMPI PUSH1 0x0 DUP1 REVERT JUMPDEST PUSH2 0x18F0 DUP10 DUP3 DUP11 ADD PUSH2 0x1777 JUMP JUMPDEST SWAP5 POP SWAP5 POP POP PUSH1 0xA0 DUP8 ADD CALLDATALOAD PUSH8 0xFFFFFFFFFFFFFFFF DUP2 GT ISZERO PUSH2 0x190F JUMPI PUSH1 0x0 DUP1 REVERT JUMPDEST PUSH2 0x191B DUP10 DUP3 DUP11 ADD PUSH2 0x170F JUMP JUMPDEST SWAP3 POP SWAP3 POP POP SWAP3 SWAP6 POP SWAP3 SWAP6 POP SWAP3 SWAP6 JUMP JUMPDEST PUSH1 0x0 PUSH1 0x20 DUP3 DUP5 SUB SLT ISZERO PUSH2 0x193C JUMPI PUSH1 0x0 DUP1 REVERT JUMPDEST PUSH1 0x0 PUSH2 0x194A DUP5 DUP3 DUP6 ADD PUSH2 0x17C1 JUMP JUMPDEST SWAP2 POP POP SWAP3 SWAP2 POP POP JUMP JUMPDEST PUSH1 0x0 PUSH1 0x20 DUP3 DUP5 SUB SLT ISZERO PUSH2 0x1965 JUMPI PUSH1 0x0 DUP1 REVERT JUMPDEST PUSH1 0x0 PUSH2 0x1973 DUP5 DUP3 DUP6 ADD PUSH2 0x17D6 JUMP JUMPDEST SWAP2 POP POP SWAP3 SWAP2 POP POP JUMP JUMPDEST PUSH1 0x0 PUSH1 0x20 DUP3 DUP5 SUB SLT ISZERO PUSH2 0x198E JUMPI PUSH1 0x0 DUP1 REVERT JUMPDEST PUSH1 0x0 PUSH2 0x199C DUP5 DUP3 DUP6 ADD PUSH2 0x1800 JUMP JUMPDEST SWAP2 POP POP SWAP3 SWAP2 POP POP JUMP JUMPDEST PUSH1 0x0 PUSH1 0x20 DUP3 DUP5 SUB SLT ISZERO PUSH2 0x19B7 JUMPI PUSH1 0x0 DUP1 REVERT JUMPDEST PUSH1 0x0 PUSH2 0x19C5 DUP5 DUP3 DUP6 ADD PUSH2 0x1815 JUMP JUMPDEST SWAP2 POP POP SWAP3 SWAP2 POP POP JUMP JUMPDEST PUSH2 0x19D7 DUP2 PUSH2 0x1FD7 JUMP JUMPDEST DUP3 MSTORE POP POP JUMP JUMPDEST PUSH2 0x19E6 DUP2 PUSH2 0x1FE9 JUMP JUMPDEST DUP3 MSTORE POP POP JUMP JUMPDEST PUSH2 0x19F5 DUP2 PUSH2 0x1FF5 JUMP JUMPDEST DUP3 MSTORE POP POP JUMP JUMPDEST PUSH2 0x1A0C PUSH2 0x1A07 DUP3 PUSH2 0x1FF5 JUMP JUMPDEST PUSH2 0x20D6 JUMP JUMPDEST DUP3 MSTORE POP POP JUMP JUMPDEST PUSH1 0x0 PUSH2 0x1A1D DUP3 PUSH2 0x1EF5 JUMP JUMPDEST PUSH2 0x1A27 DUP2 DUP6 PUSH2 0x1F00 JUMP JUMPDEST SWAP4 POP PUSH2 0x1A37 DUP2 DUP6 PUSH1 0x20 DUP7 ADD PUSH2 0x205A JUMP JUMPDEST DUP1 DUP5 ADD SWAP2 POP POP SWAP3 SWAP2 POP POP JUMP JUMPDEST PUSH2 0x1A4C DUP2 PUSH2 0x2036 JUMP JUMPDEST DUP3 MSTORE POP POP JUMP JUMPDEST PUSH1 0x0 PUSH2 0x1A5F PUSH1 0x26 DUP4 PUSH2 0x1F0B JUMP JUMPDEST SWAP2 POP PUSH2 0x1A6A DUP3 PUSH2 0x210F JUMP JUMPDEST PUSH1 0x40 DUP3 ADD SWAP1 POP SWAP2 SWAP1 POP JUMP JUMPDEST PUSH1 0x0 PUSH2 0x1A82 PUSH1 0x2 DUP4 PUSH2 0x1F1C JUMP JUMPDEST SWAP2 POP PUSH2 0x1A8D DUP3 PUSH2 0x215E JUMP JUMPDEST PUSH1 0x2 DUP3 ADD SWAP1 POP SWAP2 SWAP1 POP JUMP JUMPDEST PUSH1 0x0 PUSH2 0x1AA5 PUSH1 0x3B DUP4 PUSH2 0x1F0B JUMP JUMPDEST SWAP2 POP PUSH2 0x1AB0 DUP3 PUSH2 0x2187 JUMP JUMPDEST PUSH1 0x40 DUP3 ADD SWAP1 POP SWAP2 SWAP1 POP JUMP JUMPDEST PUSH1 0x0 PUSH2 0x1AC8 PUSH1 0x15 DUP4 PUSH2 0x1F0B JUMP JUMPDEST SWAP2 POP PUSH2 0x1AD3 DUP3 PUSH2 0x21D6 JUMP JUMPDEST PUSH1 0x20 DUP3 ADD SWAP1 POP SWAP2 SWAP1 POP JUMP JUMPDEST PUSH1 0x0 PUSH2 0x1AEB PUSH1 0x2E DUP4 PUSH2 0x1F0B JUMP JUMPDEST SWAP2 POP PUSH2 0x1AF6 DUP3 PUSH2 0x21FF JUMP JUMPDEST PUSH1 0x40 DUP3 ADD SWAP1 POP SWAP2 SWAP1 POP JUMP JUMPDEST PUSH1 0x0 PUSH2 0x1B0E PUSH1 0x41 DUP4 PUSH2 0x1F0B JUMP JUMPDEST SWAP2 POP PUSH2 0x1B19 DUP3 PUSH2 0x224E JUMP JUMPDEST PUSH1 0x60 DUP3 ADD SWAP1 POP SWAP2 SWAP1 POP JUMP JUMPDEST PUSH1 0x0 PUSH2 0x1B31 PUSH1 0x20 DUP4 PUSH2 0x1F0B JUMP JUMPDEST SWAP2 POP PUSH2 0x1B3C DUP3 PUSH2 0x22C3 JUMP JUMPDEST PUSH1 0x20 DUP3 ADD SWAP1 POP SWAP2 SWAP1 POP JUMP JUMPDEST PUSH1 0x0 PUSH2 0x1B54 PUSH1 0x2B DUP4 PUSH2 0x1F0B JUMP JUMPDEST SWAP2 POP PUSH2 0x1B5F DUP3 PUSH2 0x22EC JUMP JUMPDEST PUSH1 0x40 DUP3 ADD SWAP1 POP SWAP2 SWAP1 POP JUMP JUMPDEST PUSH1 0x0 PUSH2 0x1B77 PUSH1 0x37 DUP4 PUSH2 0x1F0B JUMP JUMPDEST SWAP2 POP PUSH2 0x1B82 DUP3 PUSH2 0x233B JUMP JUMPDEST PUSH1 0x40 DUP3 ADD SWAP1 POP SWAP2 SWAP1 POP JUMP JUMPDEST PUSH1 0x0 PUSH2 0x1B9A PUSH1 0x43 DUP4 PUSH2 0x1F0B JUMP JUMPDEST SWAP2 POP PUSH2 0x1BA5 DUP3 PUSH2 0x238A JUMP JUMPDEST PUSH1 0x60 DUP3 ADD SWAP1 POP SWAP2 SWAP1 POP JUMP JUMPDEST PUSH2 0x1BB9 DUP2 PUSH2 0x201F JUMP JUMPDEST DUP3 MSTORE POP POP JUMP JUMPDEST PUSH2 0x1BC8 DUP2 PUSH2 0x2029 JUMP JUMPDEST DUP3 MSTORE POP POP JUMP JUMPDEST PUSH1 0x0 PUSH2 0x1BDA DUP3 DUP6 PUSH2 0x1A12 JUMP JUMPDEST SWAP2 POP PUSH2 0x1BE6 DUP3 DUP5 PUSH2 0x19FB JUMP JUMPDEST PUSH1 0x20 DUP3 ADD SWAP2 POP DUP2 SWAP1 POP SWAP4 SWAP3 POP POP POP JUMP JUMPDEST PUSH1 0x0 PUSH2 0x1C01 DUP3 PUSH2 0x1A75 JUMP JUMPDEST SWAP2 POP PUSH2 0x1C0D DUP3 DUP6 PUSH2 0x19FB JUMP JUMPDEST PUSH1 0x20 DUP3 ADD SWAP2 POP PUSH2 0x1C1D DUP3 DUP5 PUSH2 0x19FB JUMP JUMPDEST PUSH1 0x20 DUP3 ADD SWAP2 POP DUP2 SWAP1 POP SWAP4 SWAP3 POP POP POP JUMP JUMPDEST PUSH1 0x0 PUSH1 0x20 DUP3 ADD SWAP1 POP PUSH2 0x1C42 PUSH1 0x0 DUP4 ADD DUP5 PUSH2 0x19CE JUMP JUMPDEST SWAP3 SWAP2 POP POP JUMP JUMPDEST PUSH1 0x0 PUSH1 0xA0 DUP3 ADD SWAP1 POP PUSH2 0x1C5D PUSH1 0x0 DUP4 ADD DUP9 PUSH2 0x19CE JUMP JUMPDEST PUSH2 0x1C6A PUSH1 0x20 DUP4 ADD DUP8 PUSH2 0x19CE JUMP JUMPDEST PUSH2 0x1C77 PUSH1 0x40 DUP4 ADD DUP7 PUSH2 0x1BB0 JUMP JUMPDEST PUSH2 0x1C84 PUSH1 0x60 DUP4 ADD DUP6 PUSH2 0x1BB0 JUMP JUMPDEST PUSH2 0x1C91 PUSH1 0x80 DUP4 ADD DUP5 PUSH2 0x1BB0 JUMP JUMPDEST SWAP7 SWAP6 POP POP POP POP POP POP JUMP JUMPDEST PUSH1 0x0 PUSH1 0x40 DUP3 ADD SWAP1 POP PUSH2 0x1CB0 PUSH1 0x0 DUP4 ADD DUP6 PUSH2 0x19CE JUMP JUMPDEST PUSH2 0x1CBD PUSH1 0x20 DUP4 ADD DUP5 PUSH2 0x1BB0 JUMP JUMPDEST SWAP4 SWAP3 POP POP POP JUMP JUMPDEST PUSH1 0x0 PUSH1 0x20 DUP3 ADD SWAP1 POP PUSH2 0x1CD9 PUSH1 0x0 DUP4 ADD DUP5 PUSH2 0x19DD JUMP JUMPDEST SWAP3 SWAP2 POP POP JUMP JUMPDEST PUSH1 0x0 PUSH1 0x20 DUP3 ADD SWAP1 POP PUSH2 0x1CF4 PUSH1 0x0 DUP4 ADD DUP5 PUSH2 0x19EC JUMP JUMPDEST SWAP3 SWAP2 POP POP JUMP JUMPDEST PUSH1 0x0 PUSH1 0x60 DUP3 ADD SWAP1 POP PUSH2 0x1D0F PUSH1 0x0 DUP4 ADD DUP7 PUSH2 0x19EC JUMP JUMPDEST PUSH2 0x1D1C PUSH1 0x20 DUP4 ADD DUP6 PUSH2 0x1BB0 JUMP JUMPDEST PUSH2 0x1D29 PUSH1 0x40 DUP4 ADD DUP5 PUSH2 0x19CE JUMP JUMPDEST SWAP5 SWAP4 POP POP POP POP JUMP JUMPDEST PUSH1 0x0 PUSH1 0x80 DUP3 ADD SWAP1 POP PUSH2 0x1D46 PUSH1 0x0 DUP4 ADD DUP8 PUSH2 0x19EC JUMP JUMPDEST PUSH2 0x1D53 PUSH1 0x20 DUP4 ADD DUP7 PUSH2 0x1BBF JUMP JUMPDEST PUSH2 0x1D60 PUSH1 0x40 DUP4 ADD DUP6 PUSH2 0x19EC JUMP JUMPDEST PUSH2 0x1D6D PUSH1 0x60 DUP4 ADD DUP5 PUSH2 0x19EC JUMP JUMPDEST SWAP6 SWAP5 POP POP POP POP POP JUMP JUMPDEST PUSH1 0x0 PUSH1 0x20 DUP3 ADD SWAP1 POP PUSH2 0x1D8B PUSH1 0x0 DUP4 ADD DUP5 PUSH2 0x1A43 JUMP JUMPDEST SWAP3 SWAP2 POP POP JUMP JUMPDEST PUSH1 0x0 PUSH1 0x20 DUP3 ADD SWAP1 POP DUP2 DUP2 SUB PUSH1 0x0 DUP4 ADD MSTORE PUSH2 0x1DAA DUP2 PUSH2 0x1A52 JUMP JUMPDEST SWAP1 POP SWAP2 SWAP1 POP JUMP JUMPDEST PUSH1 0x0 PUSH1 0x20 DUP3 ADD SWAP1 POP DUP2 DUP2 SUB PUSH1 0x0 DUP4 ADD MSTORE PUSH2 0x1DCA DUP2 PUSH2 0x1A98 JUMP JUMPDEST SWAP1 POP SWAP2 SWAP1 POP JUMP JUMPDEST PUSH1 0x0 PUSH1 0x20 DUP3 ADD SWAP1 POP DUP2 DUP2 SUB PUSH1 0x0 DUP4 ADD MSTORE PUSH2 0x1DEA DUP2 PUSH2 0x1ABB JUMP JUMPDEST SWAP1 POP SWAP2 SWAP1 POP JUMP JUMPDEST PUSH1 0x0 PUSH1 0x20 DUP3 ADD SWAP1 POP DUP2 DUP2 SUB PUSH1 0x0 DUP4 ADD MSTORE PUSH2 0x1E0A DUP2 PUSH2 0x1ADE JUMP JUMPDEST SWAP1 POP SWAP2 SWAP1 POP JUMP JUMPDEST PUSH1 0x0 PUSH1 0x20 DUP3 ADD SWAP1 POP DUP2 DUP2 SUB PUSH1 0x0 DUP4 ADD MSTORE PUSH2 0x1E2A DUP2 PUSH2 0x1B01 JUMP JUMPDEST SWAP1 POP SWAP2 SWAP1 POP JUMP JUMPDEST PUSH1 0x0 PUSH1 0x20 DUP3 ADD SWAP1 POP DUP2 DUP2 SUB PUSH1 0x0 DUP4 ADD MSTORE PUSH2 0x1E4A DUP2 PUSH2 0x1B24 JUMP JUMPDEST SWAP1 POP SWAP2 SWAP1 POP JUMP JUMPDEST PUSH1 0x0 PUSH1 0x20 DUP3 ADD SWAP1 POP DUP2 DUP2 SUB PUSH1 0x0 DUP4 ADD MSTORE PUSH2 0x1E6A DUP2 PUSH2 0x1B47 JUMP JUMPDEST SWAP1 POP SWAP2 SWAP1 POP JUMP JUMPDEST PUSH1 0x0 PUSH1 0x20 DUP3 ADD SWAP1 POP DUP2 DUP2 SUB PUSH1 0x0 DUP4 ADD MSTORE PUSH2 0x1E8A DUP2 PUSH2 0x1B6A JUMP JUMPDEST SWAP1 POP SWAP2 SWAP1 POP JUMP JUMPDEST PUSH1 0x0 PUSH1 0x20 DUP3 ADD SWAP1 POP DUP2 DUP2 SUB PUSH1 0x0 DUP4 ADD MSTORE PUSH2 0x1EAA DUP2 PUSH2 0x1B8D JUMP JUMPDEST SWAP1 POP SWAP2 SWAP1 POP JUMP JUMPDEST PUSH1 0x0 PUSH1 0x20 DUP3 ADD SWAP1 POP PUSH2 0x1EC6 PUSH1 0x0 DUP4 ADD DUP5 PUSH2 0x1BB0 JUMP JUMPDEST SWAP3 SWAP2 POP POP JUMP JUMPDEST PUSH1 0x0 PUSH1 0x40 DUP3 ADD SWAP1 POP PUSH2 0x1EE1 PUSH1 0x0 DUP4 ADD DUP6 PUSH2 0x1BB0 JUMP JUMPDEST PUSH2 0x1EEE PUSH1 0x20 DUP4 ADD DUP5 PUSH2 0x1BB0 JUMP JUMPDEST SWAP4 SWAP3 POP POP POP JUMP JUMPDEST PUSH1 0x0 DUP2 MLOAD SWAP1 POP SWAP2 SWAP1 POP JUMP JUMPDEST PUSH1 0x0 DUP2 SWAP1 POP SWAP3 SWAP2 POP POP JUMP JUMPDEST PUSH1 0x0 DUP3 DUP3 MSTORE PUSH1 0x20 DUP3 ADD SWAP1 POP SWAP3 SWAP2 POP POP JUMP JUMPDEST PUSH1 0x0 DUP2 SWAP1 POP SWAP3 SWAP2 POP POP JUMP JUMPDEST PUSH1 0x0 PUSH2 0x1F32 DUP3 PUSH2 0x201F JUMP JUMPDEST SWAP2 POP PUSH2 0x1F3D DUP4 PUSH2 0x201F JUMP JUMPDEST SWAP3 POP DUP3 PUSH32 0xFFFFFFFFFFFFFFFFFFFFFFFFFFFFFFFFFFFFFFFFFFFFFFFFFFFFFFFFFFFFFFFF SUB DUP3 GT ISZERO PUSH2 0x1F72 JUMPI PUSH2 0x1F71 PUSH2 0x20E0 JUMP JUMPDEST JUMPDEST DUP3 DUP3 ADD SWAP1 POP SWAP3 SWAP2 POP POP JUMP JUMPDEST PUSH1 0x0 PUSH2 0x1F88 DUP3 PUSH2 0x201F JUMP JUMPDEST SWAP2 POP PUSH2 0x1F93 DUP4 PUSH2 0x201F JUMP JUMPDEST SWAP3 POP DUP2 PUSH32 0xFFFFFFFFFFFFFFFFFFFFFFFFFFFFFFFFFFFFFFFFFFFFFFFFFFFFFFFFFFFFFFFF DIV DUP4 GT DUP3 ISZERO ISZERO AND ISZERO PUSH2 0x1FCC JUMPI PUSH2 0x1FCB PUSH2 0x20E0 JUMP JUMPDEST JUMPDEST DUP3 DUP3 MUL SWAP1 POP SWAP3 SWAP2 POP POP JUMP JUMPDEST PUSH1 0x0 PUSH2 0x1FE2 DUP3 PUSH2 0x1FFF JUMP JUMPDEST SWAP1 POP SWAP2 SWAP1 POP JUMP JUMPDEST PUSH1 0x0 DUP2 ISZERO ISZERO SWAP1 POP SWAP2 SWAP1 POP JUMP JUMPDEST PUSH1 0x0 DUP2 SWAP1 POP SWAP2 SWAP1 POP JUMP JUMPDEST PUSH1 0x0 PUSH20 0xFFFFFFFFFFFFFFFFFFFFFFFFFFFFFFFFFFFFFFFF DUP3 AND SWAP1 POP SWAP2 SWAP1 POP JUMP JUMPDEST PUSH1 0x0 DUP2 SWAP1 POP SWAP2 SWAP1 POP JUMP JUMPDEST PUSH1 0x0 PUSH1 0xFF DUP3 AND SWAP1 POP SWAP2 SWAP1 POP JUMP JUMPDEST PUSH1 0x0 PUSH2 0x2041 DUP3 PUSH2 0x2048 JUMP JUMPDEST SWAP1 POP SWAP2 SWAP1 POP JUMP JUMPDEST PUSH1 0x0 PUSH2 0x2053 DUP3 PUSH2 0x1FFF JUMP JUMPDEST SWAP1 POP SWAP2 SWAP1 POP JUMP JUMPDEST PUSH1 0x0 JUMPDEST DUP4 DUP2 LT ISZERO PUSH2 0x2078 JUMPI DUP1 DUP3 ADD MLOAD DUP2 DUP5 ADD MSTORE PUSH1 0x20 DUP2 ADD SWAP1 POP PUSH2 0x205D JUMP JUMPDEST DUP4 DUP2 GT ISZERO PUSH2 0x2087 JUMPI PUSH1 0x0 DUP5 DUP5 ADD MSTORE JUMPDEST POP POP POP POP JUMP JUMPDEST PUSH1 0x0 PUSH2 0x2098 DUP3 PUSH2 0x201F JUMP JUMPDEST SWAP2 POP PUSH32 0xFFFFFFFFFFFFFFFFFFFFFFFFFFFFFFFFFFFFFFFFFFFFFFFFFFFFFFFFFFFFFFFF DUP3 EQ ISZERO PUSH2 0x20CB JUMPI PUSH2 0x20CA PUSH2 0x20E0 JUMP JUMPDEST JUMPDEST PUSH1 0x1 DUP3 ADD SWAP1 POP SWAP2 SWAP1 POP JUMP JUMPDEST PUSH1 0x0 DUP2 SWAP1 POP SWAP2 SWAP1 POP JUMP JUMPDEST PUSH32 0x4E487B7100000000000000000000000000000000000000000000000000000000 PUSH1 0x0 MSTORE PUSH1 0x11 PUSH1 0x4 MSTORE PUSH1 0x24 PUSH1 0x0 REVERT JUMPDEST PUSH32 0x4F776E61626C653A206E6577206F776E657220697320746865207A65726F2061 PUSH1 0x0 DUP3 ADD MSTORE PUSH32 0x6464726573730000000000000000000000000000000000000000000000000000 PUSH1 0x20 DUP3 ADD MSTORE POP JUMP JUMPDEST PUSH32 0x1901000000000000000000000000000000000000000000000000000000000000 PUSH1 0x0 DUP3 ADD MSTORE POP JUMP JUMPDEST PUSH32 0x496E63656E74697665436F6E7472616374733A20546865207472616E73616374 PUSH1 0x0 DUP3 ADD MSTORE PUSH32 0x696F6E206578636565646564207468652074696D65206C696D69740000000000 PUSH1 0x20 DUP3 ADD MSTORE POP JUMP JUMPDEST PUSH32 0x546F6B656E207472616E73666572206661696C65640000000000000000000000 PUSH1 0x0 DUP3 ADD MSTORE POP JUMP JUMPDEST PUSH32 0x496E697469616C697A61626C653A20636F6E747261637420697320616C726561 PUSH1 0x0 DUP3 ADD MSTORE PUSH32 0x647920696E697469616C697A6564000000000000000000000000000000000000 PUSH1 0x20 DUP3 ADD MSTORE POP JUMP JUMPDEST PUSH32 0x546865206E756D626572206F66207369676E6564206163636F756E7473206469 PUSH1 0x0 DUP3 ADD MSTORE PUSH32 0x64206E6F7420726561636820746865206D696E696D756D207468726573686F6C PUSH1 0x20 DUP3 ADD MSTORE PUSH32 0x6400000000000000000000000000000000000000000000000000000000000000 PUSH1 0x40 DUP3 ADD MSTORE POP JUMP JUMPDEST PUSH32 0x4F776E61626C653A2063616C6C6572206973206E6F7420746865206F776E6572 PUSH1 0x0 DUP3 ADD MSTORE POP JUMP JUMPDEST PUSH32 0x496E63656E74697665436F6E7472616374733A205468652073797374656D2069 PUSH1 0x0 DUP3 ADD MSTORE PUSH32 0x732073757370656E646564000000000000000000000000000000000000000000 PUSH1 0x20 DUP3 ADD MSTORE POP JUMP JUMPDEST PUSH32 0x496E63656E74697665436F6E7472616374733A205369676E6174757265207061 PUSH1 0x0 DUP3 ADD MSTORE PUSH32 0x72616D65746572206C656E677468206D69736D61746368000000000000000000 PUSH1 0x20 DUP3 ADD MSTORE POP JUMP JUMPDEST PUSH32 0x496E63656E74697665436F6E7472616374733A205369676E696E672075736572 PUSH1 0x0 DUP3 ADD MSTORE PUSH32 0x7320617265206E6F74207468652073616D652061732074726164696E67207573 PUSH1 0x20 DUP3 ADD MSTORE PUSH32 0x6572730000000000000000000000000000000000000000000000000000000000 PUSH1 0x40 DUP3 ADD MSTORE POP JUMP JUMPDEST PUSH2 0x2408 DUP2 PUSH2 0x1FD7 JUMP JUMPDEST DUP2 EQ PUSH2 0x2413 JUMPI PUSH1 0x0 DUP1 REVERT JUMPDEST POP JUMP JUMPDEST PUSH2 0x241F DUP2 PUSH2 0x1FE9 JUMP JUMPDEST DUP2 EQ PUSH2 0x242A JUMPI PUSH1 0x0 DUP1 REVERT JUMPDEST POP JUMP JUMPDEST PUSH2 0x2436 DUP2 PUSH2 0x201F JUMP JUMPDEST DUP2 EQ PUSH2 0x2441 JUMPI PUSH1 0x0 DUP1 REVERT JUMPDEST POP JUMP JUMPDEST PUSH2 0x244D DUP2 PUSH2 0x2029 JUMP JUMPDEST DUP2 EQ PUSH2 0x2458 JUMPI PUSH1 0x0 DUP1 REVERT JUMPDEST POP JUMP INVALID LOG2 PUSH5 0x6970667358 0x22 SLT KECCAK256 0xE6 0xCA 0xE RETURNDATASIZE SLOAD 0xE STATICCALL PUSH24 0x96DC97B79041B8BEFCCBDAAF6B980125F2748004049E5E1F PUSH5 0x736F6C6343 STOP ADDMOD ADD STOP CALLER "
		},
		"gasEstimates": {
			"creation": {
				"codeDepositCost": "1872200",
				"executionCost": "1976",
				"totalCost": "1874176"
			},
			"external": {
				"DOMAIN_SEPARATOR()": "1152",
				"init(address)": "infinite",
				"isOwner()": "1268",
				"nonce(address)": "1625",
				"owner()": "1339",
				"pause()": "1216",
				"pledgeContract()": "1346",
				"renounceOwnership()": "24470",
				"transferOwnership(address)": "24891",
				"updatePause(bool)": "22322",
				"withdrawAmounts(address,uint256)": "infinite",
				"withdrawSums(address)": "1581",
				"withdrawToken(address[2],uint256[2],uint8[],bytes32[])": "infinite"
			},
			"internal": {
				"__Incentive_init_unchained(address)": "infinite",
				"getDigest(struct Incentive.Data memory,uint256)": "infinite",
				"verifySign(bytes32,struct Incentive.Sig memory)": "infinite"
			}
		},
		"methodIdentifiers": {
			"DOMAIN_SEPARATOR()": "3644e515",
			"init(address)": "19ab453c",
			"isOwner()": "8f32d59b",
			"nonce(address)": "70ae92d2",
			"owner()": "8da5cb5b",
			"pause()": "8456cb59",
			"pledgeContract()": "557e6cfe",
			"renounceOwnership()": "715018a6",
			"transferOwnership(address)": "f2fde38b",
			"updatePause(bool)": "f8974de0",
			"withdrawAmounts(address,uint256)": "475ad2ea",
			"withdrawSums(address)": "487e14f8",
			"withdrawToken(address[2],uint256[2],uint8[],bytes32[])": "c1f0d210"
		}
	},
	"abi": [
		{
			"anonymous": false,
			"inputs": [
				{
					"indexed": true,
					"internalType": "address",
					"name": "previousOwner",
					"type": "address"
				},
				{
					"indexed": true,
					"internalType": "address",
					"name": "newOwner",
					"type": "address"
				}
			],
			"name": "OwnershipTransferred",
			"type": "event"
		},
		{
			"anonymous": false,
			"inputs": [
				{
					"indexed": true,
					"internalType": "address",
					"name": "_userAddr",
					"type": "address"
				},
				{
					"indexed": false,
					"internalType": "uint256",
					"name": "_nonce",
					"type": "uint256"
				},
				{
					"indexed": false,
					"internalType": "uint256",
					"name": "_amount",
					"type": "uint256"
				}
			],
			"name": "WithdrawToken",
			"type": "event"
		},
		{
			"inputs": [],
			"name": "DOMAIN_SEPARATOR",
			"outputs": [
				{
					"internalType": "bytes32",
					"name": "",
					"type": "bytes32"
				}
			],
			"stateMutability": "view",
			"type": "function"
		},
		{
			"inputs": [
				{
					"internalType": "address",
					"name": "_pledgeContract",
					"type": "address"
				}
			],
			"name": "init",
			"outputs": [],
			"stateMutability": "nonpayable",
			"type": "function"
		},
		{
			"inputs": [],
			"name": "isOwner",
			"outputs": [
				{
					"internalType": "bool",
					"name": "",
					"type": "bool"
				}
			],
			"stateMutability": "view",
			"type": "function"
		},
		{
			"inputs": [
				{
					"internalType": "address",
					"name": "",
					"type": "address"
				}
			],
			"name": "nonce",
			"outputs": [
				{
					"internalType": "uint256",
					"name": "",
					"type": "uint256"
				}
			],
			"stateMutability": "view",
			"type": "function"
		},
		{
			"inputs": [],
			"name": "owner",
			"outputs": [
				{
					"internalType": "address",
					"name": "",
					"type": "address"
				}
			],
			"stateMutability": "view",
			"type": "function"
		},
		{
			"inputs": [],
			"name": "pause",
			"outputs": [
				{
					"internalType": "bool",
					"name": "",
					"type": "bool"
				}
			],
			"stateMutability": "view",
			"type": "function"
		},
		{
			"inputs": [],
			"name": "pledgeContract",
			"outputs": [
				{
					"internalType": "contract IPledgeContract",
					"name": "",
					"type": "address"
				}
			],
			"stateMutability": "view",
			"type": "function"
		},
		{
			"inputs": [],
			"name": "renounceOwnership",
			"outputs": [],
			"stateMutability": "nonpayable",
			"type": "function"
		},
		{
			"inputs": [
				{
					"internalType": "address",
					"name": "newOwner",
					"type": "address"
				}
			],
			"name": "transferOwnership",
			"outputs": [],
			"stateMutability": "nonpayable",
			"type": "function"
		},
		{
			"inputs": [
				{
					"internalType": "bool",
					"name": "_sta",
					"type": "bool"
				}
			],
			"name": "updatePause",
			"outputs": [],
			"stateMutability": "nonpayable",
			"type": "function"
		},
		{
			"inputs": [
				{
					"internalType": "address",
					"name": "",
					"type": "address"
				},
				{
					"internalType": "uint256",
					"name": "",
					"type": "uint256"
				}
			],
			"name": "withdrawAmounts",
			"outputs": [
				{
					"internalType": "uint256",
					"name": "",
					"type": "uint256"
				}
			],
			"stateMutability": "view",
			"type": "function"
		},
		{
			"inputs": [
				{
					"internalType": "address",
					"name": "",
					"type": "address"
				}
			],
			"name": "withdrawSums",
			"outputs": [
				{
					"internalType": "uint256",
					"name": "",
					"type": "uint256"
				}
			],
			"stateMutability": "view",
			"type": "function"
		},
		{
			"inputs": [
				{
					"internalType": "address[2]",
					"name": "addrs",
					"type": "address[2]"
				},
				{
					"internalType": "uint256[2]",
					"name": "uints",
					"type": "uint256[2]"
				},
				{
					"internalType": "uint8[]",
					"name": "vs",
					"type": "uint8[]"
				},
				{
					"internalType": "bytes32[]",
					"name": "rssMetadata",
					"type": "bytes32[]"
				}
			],
			"name": "withdrawToken",
			"outputs": [],
			"stateMutability": "nonpayable",
			"type": "function"
		},
		{
			"stateMutability": "payable",
			"type": "receive"
		}
	]
}