{
	"data": {
		"bytecode": {
			"linkReferences": {},
			"object": "608060405234801561001057600080fd5b50614941806100206000396000f3fe6080604052600436106100f75760003560e01c80637c4b6a1b1161008a578063be7420b111610059578063be7420b1146102a3578063c87e5117146102ba578063e25b3c95146102d1578063f216ed8a146102fc576100fe565b80637c4b6a1b146102165780638c5782ca1461023f5780638fae60a51461026d578063b578803f14610277576100fe565b806343d726d6116100c657806343d726d6146101945780634dc415de146101ab5780634e69d560146101c2578063566fa0cb146101ed576100fe565b80630d657191146101005780630e0801921461013657806329ac54a71461014d5780632c6372c314610164576100fe565b366100fe57005b005b34801561010c57600080fd5b50610115610325565b60405161012d9c9b9a99989796959493929190613e47565b60405180910390f35b34801561014257600080fd5b5061014b610536565b005b34801561015957600080fd5b50610162610730565b005b34801561017057600080fd5b50610179610ce3565b60405161018b96959493929190613d80565b60405180910390f35b3480156101a057600080fd5b506101a9610d4c565b005b3480156101b757600080fd5b506101c0611113565b005b3480156101ce57600080fd5b506101d761122b565b6040516101e49190613e25565b60405180910390f35b3480156101f957600080fd5b50610214600480360381019061020f9190613793565b61140c565b005b34801561022257600080fd5b5061023d60048036038101906102389190613868565b611672565b005b34801561024b57600080fd5b50610254611980565b60405161026494939291906141a3565b60405180910390f35b6102756119ba565b005b34801561028357600080fd5b5061028c611fa3565b60405161029a929190613dfc565b60405180910390f35b3480156102af57600080fd5b506102b8611fce565b005b3480156102c657600080fd5b506102cf6121c8565b005b3480156102dd57600080fd5b506102e66124b7565b6040516102f39190613de1565b60405180910390f35b34801561030857600080fd5b50610323600480360381019061031e9190613793565b612514565b005b60606000806000806000806000806000806000806001600381111561034d5761034c6144ba565b5b60008054906101000a900460ff16600381111561036d5761036c6144ba565b5b14806103db5750600380811115610387576103866144ba565b5b60008054906101000a900460ff1660038111156103a7576103a66144ba565b5b1480156103da5750601160009054906101000a900460ff161580156103d95750601160019054906101000a900460ff16155b5b5b156103e557600190505b6002600960009054906101000a900473ffffffffffffffffffffffffffffffffffffffff16600360009054906101000a900473ffffffffffffffffffffffffffffffffffffffff16600460009054906101000a900473ffffffffffffffffffffffffffffffffffffffff16600554600654600754600854600b54600c5460008054906101000a900460ff166003811115610482576104816144ba565b5b8b8b805461048f906143f9565b80601f01602080910402602001604051908101604052809291908181526020018280546104bb906143f9565b80156105085780601f106104dd57610100808354040283529160200191610508565b820191906000526020600020905b8154815290600101906020018083116104eb57829003601f168201915b50505050509b509c509c509c509c509c509c509c509c509c509c509c509c5050909192939495969798999a9b565b6001600381111561054a576105496144ba565b5b60008054906101000a900460ff16600381111561056a576105696144ba565b5b146105aa576040517f08c379a00000000000000000000000000000000000000000000000000000000081526004016105a190614128565b60405180910390fd5b600360009054906101000a900473ffffffffffffffffffffffffffffffffffffffff1673ffffffffffffffffffffffffffffffffffffffff163373ffffffffffffffffffffffffffffffffffffffff1614806106535750600460009054906101000a900473ffffffffffffffffffffffffffffffffffffffff1673ffffffffffffffffffffffffffffffffffffffff163373ffffffffffffffffffffffffffffffffffffffff16145b610692576040517f08c379a000000000000000000000000000000000000000000000000000000000815260040161068990613f08565b60405180910390fd5b61069c6007612b4f565b600460009054906101000a900473ffffffffffffffffffffffffffffffffffffffff1673ffffffffffffffffffffffffffffffffffffffff163373ffffffffffffffffffffffffffffffffffffffff161415610712576000600160146101000a81548160ff02191690831515021790555061072e565b6000600160156101000a81548160ff0219169083151502179055505b565b600060019054906101000a900473ffffffffffffffffffffffffffffffffffffffff1673ffffffffffffffffffffffffffffffffffffffff16634411b7616040518163ffffffff1660e01b815260040160206040518083038186803b15801561079857600080fd5b505afa1580156107ac573d6000803e3d6000fd5b505050506040513d601f19601f820116820180604052508101906107d091906137c0565b73ffffffffffffffffffffffffffffffffffffffff16600960009054906101000a900473ffffffffffffffffffffffffffffffffffffffff1673ffffffffffffffffffffffffffffffffffffffff161461085f576040517f08c379a000000000000000000000000000000000000000000000000000000000815260040161085690614168565b60405180910390fd5b600380811115610872576108716144ba565b5b60008054906101000a900460ff166003811115610892576108916144ba565b5b146108d2576040517f08c379a00000000000000000000000000000000000000000000000000000000081526004016108c990614148565b60405180910390fd5b600360009054906101000a900473ffffffffffffffffffffffffffffffffffffffff1673ffffffffffffffffffffffffffffffffffffffff163373ffffffffffffffffffffffffffffffffffffffff16148061097b5750600460009054906101000a900473ffffffffffffffffffffffffffffffffffffffff1673ffffffffffffffffffffffffffffffffffffffff163373ffffffffffffffffffffffffffffffffffffffff16145b6109ba576040517f08c379a00000000000000000000000000000000000000000000000000000000081526004016109b190613f08565b60405180910390fd5b600360009054906101000a900473ffffffffffffffffffffffffffffffffffffffff1673ffffffffffffffffffffffffffffffffffffffff163373ffffffffffffffffffffffffffffffffffffffff161415610a7f57600160169054906101000a900460ff16610a5f576040517f08c379a0000000000000000000000000000000000000000000000000000000008152600401610a5690614028565b60405180910390fd5b6000600160166101000a81548160ff021916908315150217905550610aea565b600160179054906101000a900460ff16610ace576040517f08c379a0000000000000000000000000000000000000000000000000000000008152600401610ac590614028565b60405180910390fd5b6000600160176101000a81548160ff0219169083151502179055505b610af46004612b4f565b600060019054906101000a900473ffffffffffffffffffffffffffffffffffffffff1673ffffffffffffffffffffffffffffffffffffffff166388ffe8676040518163ffffffff1660e01b815260040160206040518083038186803b158015610b5c57600080fd5b505afa158015610b70573d6000803e3d6000fd5b505050506040513d601f19601f82011682018060405250810190610b9491906137c0565b73ffffffffffffffffffffffffffffffffffffffff166375df04d8336040518263ffffffff1660e01b8152600401610bcc9190613c89565b602060405180830381600087803b158015610be657600080fd5b505af1158015610bfa573d6000803e3d6000fd5b505050506040513d601f19601f82011682018060405250810190610c1e919061393a565b50601160009054906101000a900460ff1680610c465750601160019054906101000a900460ff165b15610ca85733600a60006101000a81548173ffffffffffffffffffffffffffffffffffffffff021916908373ffffffffffffffffffffffffffffffffffffffff16021790555042600e81905550610c9b612bf3565b610ca3612db5565b610ce1565b600160169054906101000a900460ff16158015610cd25750600160179054906101000a900460ff16155b15610ce057610cdf612de1565b5b5b565b600080600080600080600a60009054906101000a900473ffffffffffffffffffffffffffffffffffffffff16600c54600d54600e54600160149054906101000a900460ff16600160159054906101000a900460ff16955095509550955095509550909192939495565b60026003811115610d6057610d5f6144ba565b5b60008054906101000a900460ff166003811115610d8057610d7f6144ba565b5b1415610dc1576040517f08c379a0000000000000000000000000000000000000000000000000000000008152600401610db890613f68565b60405180910390fd5b600380811115610dd457610dd36144ba565b5b60008054906101000a900460ff166003811115610df457610df36144ba565b5b1415610e35576040517f08c379a0000000000000000000000000000000000000000000000000000000008152600401610e2c90613fa8565b60405180910390fd5b600360009054906101000a900473ffffffffffffffffffffffffffffffffffffffff1673ffffffffffffffffffffffffffffffffffffffff163373ffffffffffffffffffffffffffffffffffffffff161480610ede5750600460009054906101000a900473ffffffffffffffffffffffffffffffffffffffff1673ffffffffffffffffffffffffffffffffffffffff163373ffffffffffffffffffffffffffffffffffffffff16145b610f1d576040517f08c379a0000000000000000000000000000000000000000000000000000000008152600401610f1490613f08565b60405180910390fd5b610f276005612b4f565b610f2f6124b7565b15610f3d57610f3c612e0d565b5b60006003811115610f5157610f506144ba565b5b60008054906101000a900460ff166003811115610f7157610f706144ba565b5b141561101057600360009054906101000a900473ffffffffffffffffffffffffffffffffffffffff1673ffffffffffffffffffffffffffffffffffffffff163373ffffffffffffffffffffffffffffffffffffffff1614611007576040517f08c379a0000000000000000000000000000000000000000000000000000000008152600401610ffe90613f08565b60405180910390fd5b61100f612e0d565b5b60016003811115611024576110236144ba565b5b60008054906101000a900460ff166003811115611044576110436144ba565b5b141561111157600360009054906101000a900473ffffffffffffffffffffffffffffffffffffffff1673ffffffffffffffffffffffffffffffffffffffff163373ffffffffffffffffffffffffffffffffffffffff1614156110bf5760018060146101000a81548160ff0219169083151502179055506110da565b60018060156101000a81548160ff0219169083151502179055505b600160149054906101000a900460ff1680156111025750600160159054906101000a900460ff165b156111105761110f612e0d565b5b5b565b600460009054906101000a900473ffffffffffffffffffffffffffffffffffffffff1673ffffffffffffffffffffffffffffffffffffffff163373ffffffffffffffffffffffffffffffffffffffff16146111a3576040517f08c379a000000000000000000000000000000000000000000000000000000000815260040161119a90613fc8565b60405180910390fd5b600060038111156111b7576111b66144ba565b5b60008054906101000a900460ff1660038111156111d7576111d66144ba565b5b14611217576040517f08c379a000000000000000000000000000000000000000000000000000000000815260040161120e906140c8565b60405180910390fd5b6112216002612b4f565b611229612e0d565b565b606060008054906101000a900460ff16600381111561124d5761124c6144ba565b5b60006003811115611261576112606144ba565b5b14156112a4576040518060400160405280600b81526020017f696e697469616c697a65640000000000000000000000000000000000000000008152509050611409565b60008054906101000a900460ff1660038111156112c4576112c36144ba565b5b600160038111156112d8576112d76144ba565b5b141561131b576040518060400160405280600681526020017f61677265656400000000000000000000000000000000000000000000000000008152509050611409565b60008054906101000a900460ff16600381111561133b5761133a6144ba565b5b60038081111561134e5761134d6144ba565b5b1415611391576040518060400160405280600781526020017f706c6564676564000000000000000000000000000000000000000000000000008152509050611409565b60008054906101000a900460ff1660038111156113b1576113b06144ba565b5b600260038111156113c5576113c46144ba565b5b1415611408576040518060400160405280600681526020017f636c6f73656400000000000000000000000000000000000000000000000000008152509050611409565b5b90565b600360009054906101000a900473ffffffffffffffffffffffffffffffffffffffff1673ffffffffffffffffffffffffffffffffffffffff163373ffffffffffffffffffffffffffffffffffffffff161461149c576040517f08c379a000000000000000000000000000000000000000000000000000000000815260040161149390614088565b60405180910390fd5b600073ffffffffffffffffffffffffffffffffffffffff16600460009054906101000a900473ffffffffffffffffffffffffffffffffffffffff1673ffffffffffffffffffffffffffffffffffffffff161480156114fc57506064600754145b61153b576040517f08c379a000000000000000000000000000000000000000000000000000000000815260040161153290614108565b60405180910390fd5b600073ffffffffffffffffffffffffffffffffffffffff168173ffffffffffffffffffffffffffffffffffffffff16141580156115a457503373ffffffffffffffffffffffffffffffffffffffff168173ffffffffffffffffffffffffffffffffffffffff1614155b6115e3576040517f08c379a00000000000000000000000000000000000000000000000000000000081526004016115da90613f88565b60405180910390fd5b6115ed6000612b4f565b80600460006101000a81548173ffffffffffffffffffffffffffffffffffffffff021916908373ffffffffffffffffffffffffffffffffffffffff16021790555042600c8190555061166161165062015180600b54612e6790919063ffffffff16565b600c54612e7d90919063ffffffff16565b600d8190555061166f612de1565b50565b601160029054906101000a900460ff16156116c2576040517f08c379a00000000000000000000000000000000000000000000000000000000081526004016116b9906140e8565b60405180910390fd5b33888888888860016000806001600360006004600060096000600260008c91905090805190602001906116f692919061362c565b508b91906101000a81548173ffffffffffffffffffffffffffffffffffffffff021916908373ffffffffffffffffffffffffffffffffffffffff1602179055508a91906101000a81548173ffffffffffffffffffffffffffffffffffffffff021916908373ffffffffffffffffffffffffffffffffffffffff1602179055508991906101000a81548173ffffffffffffffffffffffffffffffffffffffff021916908373ffffffffffffffffffffffffffffffffffffffff1602179055508891906101000a81548173ffffffffffffffffffffffffffffffffffffffff021916908373ffffffffffffffffffffffffffffffffffffffff1602179055508791906101000a81548173ffffffffffffffffffffffffffffffffffffffff021916908373ffffffffffffffffffffffffffffffffffffffff160217905550505050505050828261186060646118528688612e6790919063ffffffff16565b612e9390919063ffffffff16565b61187560055487612ea990919063ffffffff16565b8460086000600760006005600060066000600b60008a91905055899190505588919050558791905055869190505550505050506064821480156119075750600073ffffffffffffffffffffffffffffffffffffffff16600460009054906101000a900473ffffffffffffffffffffffffffffffffffffffff1673ffffffffffffffffffffffffffffffffffffffff1614155b156119525742600c8190555061193f61192e62015180600b54612e6790919063ffffffff16565b600c54612e7d90919063ffffffff16565b600d8190555061194d612de1565b61195b565b61195a612ebf565b5b6001601160026101000a81548160ff0219169083151502179055505050505050505050565b600080600080600f54601160009054906101000a900460ff16601054601160019054906101000a900460ff16935093509350935090919293565b600460009054906101000a900473ffffffffffffffffffffffffffffffffffffffff1673ffffffffffffffffffffffffffffffffffffffff163373ffffffffffffffffffffffffffffffffffffffff1614611a4a576040517f08c379a0000000000000000000000000000000000000000000000000000000008152600401611a4190613fc8565b60405180910390fd5b60006003811115611a5e57611a5d6144ba565b5b60008054906101000a900460ff166003811115611a7e57611a7d6144ba565b5b14611abe576040517f08c379a0000000000000000000000000000000000000000000000000000000008152600401611ab5906140c8565b60405180910390fd5b611ac86001612b4f565b60008060008060019054906101000a900473ffffffffffffffffffffffffffffffffffffffff1673ffffffffffffffffffffffffffffffffffffffff1663bacb6bb76040518163ffffffff1660e01b815260040160a06040518083038186803b158015611b3457600080fd5b505afa158015611b48573d6000803e3d6000fd5b505050506040513d601f19601f82011682018060405250810190611b6c91906137ed565b5093509350509250600073ffffffffffffffffffffffffffffffffffffffff16600960009054906101000a900473ffffffffffffffffffffffffffffffffffffffff1673ffffffffffffffffffffffffffffffffffffffff161415611d03576006543414611c0f576040517f08c379a0000000000000000000000000000000000000000000000000000000008152600401611c0690614008565b60405180910390fd5b8173ffffffffffffffffffffffffffffffffffffffff1663d0e30db0346040518263ffffffff1660e01b81526004016000604051808303818588803b158015611c5757600080fd5b505af1158015611c6b573d6000803e3d6000fd5b50505050508173ffffffffffffffffffffffffffffffffffffffff1663a9059cbb30346040518363ffffffff1660e01b8152600401611cab929190613ce9565b602060405180830381600087803b158015611cc557600080fd5b505af1158015611cd9573d6000803e3d6000fd5b505050506040513d601f19601f82011682018060405250810190611cfd919061393a565b50611ddc565b8073ffffffffffffffffffffffffffffffffffffffff16638f1b407a600960009054906101000a900473ffffffffffffffffffffffffffffffffffffffff16600460009054906101000a900473ffffffffffffffffffffffffffffffffffffffff16306006546040518563ffffffff1660e01b8152600401611d889493929190613ca4565b602060405180830381600087803b158015611da257600080fd5b505af1158015611db6573d6000803e3d6000fd5b505050506040513d601f19601f82011682018060405250810190611dda919061393a565b505b42600c81905550611e0f611dfe62015180600b54612e6790919063ffffffff16565b600c54612e7d90919063ffffffff16565b600d81905550611e1d612de1565b8273ffffffffffffffffffffffffffffffffffffffff16600960009054906101000a900473ffffffffffffffffffffffffffffffffffffffff1673ffffffffffffffffffffffffffffffffffffffff161415611f9e578073ffffffffffffffffffffffffffffffffffffffff1663d618d8b7600360009054906101000a900473ffffffffffffffffffffffffffffffffffffffff16600554600b546040518463ffffffff1660e01b8152600401611ed693929190613d49565b600060405180830381600087803b158015611ef057600080fd5b505af1158015611f04573d6000803e3d6000fd5b505050508073ffffffffffffffffffffffffffffffffffffffff1663d618d8b7600460009054906101000a900473ffffffffffffffffffffffffffffffffffffffff16600654600b546040518463ffffffff1660e01b8152600401611f6b93929190613d49565b600060405180830381600087803b158015611f8557600080fd5b505af1158015611f99573d6000803e3d6000fd5b505050505b505050565b600080600160169054906101000a900460ff16600160179054906101000a900460ff16915091509091565b60016003811115611fe257611fe16144ba565b5b60008054906101000a900460ff166003811115612002576120016144ba565b5b14612042576040517f08c379a000000000000000000000000000000000000000000000000000000000815260040161203990614128565b60405180910390fd5b600360009054906101000a900473ffffffffffffffffffffffffffffffffffffffff1673ffffffffffffffffffffffffffffffffffffffff163373ffffffffffffffffffffffffffffffffffffffff1614806120eb5750600460009054906101000a900473ffffffffffffffffffffffffffffffffffffffff1673ffffffffffffffffffffffffffffffffffffffff163373ffffffffffffffffffffffffffffffffffffffff16145b61212a576040517f08c379a000000000000000000000000000000000000000000000000000000000815260040161212190613f08565b60405180910390fd5b6121346006612b4f565b600360009054906101000a900473ffffffffffffffffffffffffffffffffffffffff1673ffffffffffffffffffffffffffffffffffffffff163373ffffffffffffffffffffffffffffffffffffffff1614156121aa576000600160146101000a81548160ff0219169083151502179055506121c6565b6000600160156101000a81548160ff0219169083151502179055505b565b600060019054906101000a900473ffffffffffffffffffffffffffffffffffffffff1673ffffffffffffffffffffffffffffffffffffffff16634411b7616040518163ffffffff1660e01b815260040160206040518083038186803b15801561223057600080fd5b505afa158015612244573d6000803e3d6000fd5b505050506040513d601f19601f8201168201806040525081019061226891906137c0565b73ffffffffffffffffffffffffffffffffffffffff16600960009054906101000a900473ffffffffffffffffffffffffffffffffffffffff1673ffffffffffffffffffffffffffffffffffffffff16146122f7576040517f08c379a00000000000000000000000000000000000000000000000000000000081526004016122ee90614168565b60405180910390fd5b60038081111561230a576123096144ba565b5b60008054906101000a900460ff16600381111561232a576123296144ba565b5b1461236a576040517f08c379a000000000000000000000000000000000000000000000000000000000815260040161236190614148565b60405180910390fd5b600360009054906101000a900473ffffffffffffffffffffffffffffffffffffffff1673ffffffffffffffffffffffffffffffffffffffff163373ffffffffffffffffffffffffffffffffffffffff1614806124135750600460009054906101000a900473ffffffffffffffffffffffffffffffffffffffff1673ffffffffffffffffffffffffffffffffffffffff163373ffffffffffffffffffffffffffffffffffffffff16145b612452576040517f08c379a000000000000000000000000000000000000000000000000000000000815260040161244990613f08565b60405180910390fd5b61245a6124b7565b612499576040517f08c379a0000000000000000000000000000000000000000000000000000000008152600401612490906140a8565b60405180910390fd5b6124a36008612b4f565b6124ad6064612eeb565b6124b5612bf3565b565b60008060038111156124cc576124cb6144ba565b5b60008054906101000a900460ff1660038111156124ec576124eb6144ba565b5b14806124fa57506000600d54145b156125085760009050612511565b600d5442101590505b90565b600060019054906101000a900473ffffffffffffffffffffffffffffffffffffffff1673ffffffffffffffffffffffffffffffffffffffff16634411b7616040518163ffffffff1660e01b815260040160206040518083038186803b15801561257c57600080fd5b505afa158015612590573d6000803e3d6000fd5b505050506040513d601f19601f820116820180604052508101906125b491906137c0565b73ffffffffffffffffffffffffffffffffffffffff16600960009054906101000a900473ffffffffffffffffffffffffffffffffffffffff1673ffffffffffffffffffffffffffffffffffffffff1614612643576040517f08c379a000000000000000000000000000000000000000000000000000000000815260040161263a90614168565b60405180910390fd5b600360009054906101000a900473ffffffffffffffffffffffffffffffffffffffff1673ffffffffffffffffffffffffffffffffffffffff163373ffffffffffffffffffffffffffffffffffffffff1614806126ec5750600460009054906101000a900473ffffffffffffffffffffffffffffffffffffffff1673ffffffffffffffffffffffffffffffffffffffff163373ffffffffffffffffffffffffffffffffffffffff16145b61272b576040517f08c379a000000000000000000000000000000000000000000000000000000000815260040161272290613f08565b60405180910390fd5b60038081111561273e5761273d6144ba565b5b60008054906101000a900460ff16600381111561275e5761275d6144ba565b5b148061279b575060016003811115612779576127786144ba565b5b60008054906101000a900460ff166003811115612799576127986144ba565b5b145b6127da576040517f08c379a00000000000000000000000000000000000000000000000000000000081526004016127d190613f08565b60405180910390fd5b6127e26124b7565b15612822576040517f08c379a000000000000000000000000000000000000000000000000000000000815260040161281990613f48565b60405180910390fd5b600160149054906101000a900460ff1615801561284c5750600160159054906101000a900460ff16155b61288b576040517f08c379a000000000000000000000000000000000000000000000000000000000815260040161288290614068565b60405180910390fd5b6128956003612b4f565b6000600360009054906101000a900473ffffffffffffffffffffffffffffffffffffffff1673ffffffffffffffffffffffffffffffffffffffff163373ffffffffffffffffffffffffffffffffffffffff16141561296157600160169054906101000a900460ff161561293d576040517f08c379a000000000000000000000000000000000000000000000000000000000815260040161293490613fe8565b60405180910390fd5b60018060166101000a81548160ff02191690831515021790555060055490506129d1565b600160179054906101000a900460ff16156129b1576040517f08c379a00000000000000000000000000000000000000000000000000000000081526004016129a890613fe8565b60405180910390fd5b60018060176101000a81548160ff02191690831515021790555060065490505b60008111612a14576040517f08c379a0000000000000000000000000000000000000000000000000000000008152600401612a0b90614048565b60405180910390fd5b612a1c612f94565b600060019054906101000a900473ffffffffffffffffffffffffffffffffffffffff1673ffffffffffffffffffffffffffffffffffffffff166388ffe8676040518163ffffffff1660e01b815260040160206040518083038186803b158015612a8457600080fd5b505afa158015612a98573d6000803e3d6000fd5b505050506040513d601f19601f82011682018060405250810190612abc91906137c0565b73ffffffffffffffffffffffffffffffffffffffff16639eea8dac8383336040518463ffffffff1660e01b8152600401612af893929190613d12565b602060405180830381600087803b158015612b1257600080fd5b505af1158015612b26573d6000803e3d6000fd5b505050506040513d601f19601f82011682018060405250810190612b4a919061393a565b505050565b600160009054906101000a900473ffffffffffffffffffffffffffffffffffffffff1673ffffffffffffffffffffffffffffffffffffffff16635e4afa8033836008811115612ba157612ba06144ba565b5b6040518363ffffffff1660e01b8152600401612bbe929190613ce9565b600060405180830381600087803b158015612bd857600080fd5b505af1158015612bec573d6000803e3d6000fd5b5050505050565b600360009054906101000a900473ffffffffffffffffffffffffffffffffffffffff1673ffffffffffffffffffffffffffffffffffffffff163373ffffffffffffffffffffffffffffffffffffffff161415612d0057600160169054906101000a900460ff16158015612c735750601160009054906101000a900460ff16155b612cb2576040517f08c379a0000000000000000000000000000000000000000000000000000000008152600401612ca990613f28565b60405180910390fd5b6001601160006101000a81548160ff021916908315150217905550612cfb600360009054906101000a900473ffffffffffffffffffffffffffffffffffffffff16600f54612fc0565b612db3565b600160179054906101000a900460ff16158015612d2a5750601160019054906101000a900460ff16155b612d69576040517f08c379a0000000000000000000000000000000000000000000000000000000008152600401612d6090613f28565b60405180910390fd5b6001601160016101000a81548160ff021916908315150217905550612db2600460009054906101000a900473ffffffffffffffffffffffffffffffffffffffff16601054612fc0565b5b565b60026000806101000a81548160ff02191690836003811115612dda57612dd96144ba565b5b0217905550565b60016000806101000a81548160ff02191690836003811115612e0657612e056144ba565b5b0217905550565b33600a60006101000a81548173ffffffffffffffffffffffffffffffffffffffff021916908373ffffffffffffffffffffffffffffffffffffffff16021790555042600e81905550612e5d61338d565b612e65612db5565b565b60008183612e7591906142e1565b905092915050565b60008183612e8b919061425a565b905092915050565b60008183612ea191906142b0565b905092915050565b60008183612eb7919061433b565b905092915050565b60008060006101000a81548160ff02191690836003811115612ee457612ee36144ba565b5b0217905550565b612f136064612f0583600554612e6790919063ffffffff16565b612e9390919063ffffffff16565b600f8190555060016003811115612f2d57612f2c6144ba565b5b60008054906101000a900460ff166003811115612f4d57612f4c6144ba565b5b148015612f5d5750600060065414155b15612f9157612f8a6064612f7c83600654612e6790919063ffffffff16565b612e9390919063ffffffff16565b6010819055505b50565b60036000806101000a81548160ff02191690836003811115612fb957612fb86144ba565b5b0217905550565b600080600080600060019054906101000a900473ffffffffffffffffffffffffffffffffffffffff1673ffffffffffffffffffffffffffffffffffffffff1663bacb6bb76040518163ffffffff1660e01b815260040160a06040518083038186803b15801561302e57600080fd5b505afa158015613042573d6000803e3d6000fd5b505050506040513d601f19601f8201168201806040525081019061306691906137ed565b509350935093509350600073ffffffffffffffffffffffffffffffffffffffff16600960009054906101000a900473ffffffffffffffffffffffffffffffffffffffff1673ffffffffffffffffffffffffffffffffffffffff16141561317d578173ffffffffffffffffffffffffffffffffffffffff16632e1a7d4d866040518263ffffffff1660e01b81526004016130ff9190614188565b600060405180830381600087803b15801561311957600080fd5b505af115801561312d573d6000803e3d6000fd5b505050508573ffffffffffffffffffffffffffffffffffffffff166108fc869081150290604051600060405180830381858888f19350505050158015613177573d6000803e3d6000fd5b50613385565b8373ffffffffffffffffffffffffffffffffffffffff16600960009054906101000a900473ffffffffffffffffffffffffffffffffffffffff1673ffffffffffffffffffffffffffffffffffffffff1614156132d3578273ffffffffffffffffffffffffffffffffffffffff1663095ea7b382876040518363ffffffff1660e01b815260040161320e929190613ce9565b602060405180830381600087803b15801561322857600080fd5b505af115801561323c573d6000803e3d6000fd5b505050506040513d601f19601f82011682018060405250810190613260919061393a565b508073ffffffffffffffffffffffffffffffffffffffff1663db518db287876040518363ffffffff1660e01b815260040161329c929190613ce9565b600060405180830381600087803b1580156132b657600080fd5b505af11580156132ca573d6000803e3d6000fd5b50505050613384565b600960009054906101000a900473ffffffffffffffffffffffffffffffffffffffff1673ffffffffffffffffffffffffffffffffffffffff1663a9059cbb87876040518363ffffffff1660e01b8152600401613330929190613ce9565b602060405180830381600087803b15801561334a57600080fd5b505af115801561335e573d6000803e3d6000fd5b505050506040513d601f19601f82011682018060405250810190613382919061393a565b505b5b505050505050565b600060038111156133a1576133a06144ba565b5b60008054906101000a900460ff1660038111156133c1576133c06144ba565b5b14806133d157506133d06124b7565b5b156133e5576133e06064612eeb565b61358c565b600061341362015180613405600c54600e54612ea990919063ffffffff16565b612e9390919063ffffffff16565b90506000613454600b5461344661271061343886600b54612ea990919063ffffffff16565b612e6790919063ffffffff16565b612e9390919063ffffffff16565b90506064811161346d576134686063612eeb565b6134b0565b6105dc8110613485576134806055612eeb565b6134af565b6134ae6134a960648361271061349b919061433b565b612e9390919063ffffffff16565b612eeb565b5b5b60006134dd6134cc601054600f54612e7d90919063ffffffff16565b600854612ea990919063ffffffff16565b9050613588600060019054906101000a900473ffffffffffffffffffffffffffffffffffffffff1673ffffffffffffffffffffffffffffffffffffffff1663913e77ad6040518163ffffffff1660e01b815260040160206040518083038186803b15801561354a57600080fd5b505afa15801561355e573d6000803e3d6000fd5b505050506040513d601f19601f8201168201806040525081019061358291906137c0565b82612fc0565b5050505b6001601160006101000a81548160ff0219169083151502179055506001601160016101000a81548160ff0219169083151502179055506135f0600360009054906101000a900473ffffffffffffffffffffffffffffffffffffffff16600f54612fc0565b6000601054111561362a57613629600460009054906101000a900473ffffffffffffffffffffffffffffffffffffffff16601054612fc0565b5b565b828054613638906143f9565b90600052602060002090601f01602090048101928261365a57600085556136a1565b82601f1061367357805160ff19168380011785556136a1565b828001600101855582156136a1579182015b828111156136a0578251825591602001919060010190613685565b5b5090506136ae91906136b2565b5090565b5b808211156136cb5760008160009055506001016136b3565b5090565b60006136e26136dd8461420d565b6141e8565b9050828152602081018484840111156136fe576136fd61454c565b5b6137098482856143b7565b509392505050565b600081359050613720816148c6565b92915050565b600081519050613735816148c6565b92915050565b60008151905061374a816148dd565b92915050565b600082601f83011261376557613764614547565b5b81356137758482602086016136cf565b91505092915050565b60008135905061378d816148f4565b92915050565b6000602082840312156137a9576137a8614556565b5b60006137b784828501613711565b91505092915050565b6000602082840312156137d6576137d5614556565b5b60006137e484828501613726565b91505092915050565b600080600080600060a0868803121561380957613808614556565b5b600061381788828901613726565b955050602061382888828901613726565b945050604061383988828901613726565b935050606061384a88828901613726565b925050608061385b88828901613726565b9150509295509295909350565b600080600080600080600080610100898b03121561388957613888614556565b5b60006138978b828c01613711565b98505060206138a88b828c01613711565b97505060406138b98b828c01613711565b96505060606138ca8b828c01613711565b955050608089013567ffffffffffffffff8111156138eb576138ea614551565b5b6138f78b828c01613750565b94505060a06139088b828c0161377e565b93505060c06139198b828c0161377e565b92505060e061392a8b828c0161377e565b9150509295985092959890939650565b6000602082840312156139505761394f614556565b5b600061395e8482850161373b565b91505092915050565b6139708161436f565b82525050565b61397f81614381565b82525050565b60006139908261423e565b61399a8185614249565b93506139aa8185602086016143c6565b6139b38161455b565b840191505092915050565b60006139cb601383614249565b91506139d68261456c565b602082019050919050565b60006139ee601483614249565b91506139f982614595565b602082019050919050565b6000613a11601183614249565b9150613a1c826145be565b602082019050919050565b6000613a34601383614249565b9150613a3f826145e7565b602082019050919050565b6000613a57601683614249565b9150613a6282614610565b602082019050919050565b6000613a7a601483614249565b9150613a8582614639565b602082019050919050565b6000613a9d601083614249565b9150613aa882614662565b602082019050919050565b6000613ac0600e83614249565b9150613acb8261468b565b602082019050919050565b6000613ae3601983614249565b9150613aee826146b4565b602082019050919050565b6000613b06601083614249565b9150613b11826146dd565b602082019050919050565b6000613b29600e83614249565b9150613b3482614706565b602082019050919050565b6000613b4c602d83614249565b9150613b578261472f565b604082019050919050565b6000613b6f601083614249565b9150613b7a8261477e565b602082019050919050565b6000613b92601183614249565b9150613b9d826147a7565b602082019050919050565b6000613bb5601683614249565b9150613bc0826147d0565b602082019050919050565b6000613bd8600b83614249565b9150613be3826147f9565b602082019050919050565b6000613bfb601883614249565b9150613c0682614822565b602082019050919050565b6000613c1e601183614249565b9150613c298261484b565b602082019050919050565b6000613c41601283614249565b9150613c4c82614874565b602082019050919050565b6000613c64600f83614249565b9150613c6f8261489d565b602082019050919050565b613c83816143ad565b82525050565b6000602082019050613c9e6000830184613967565b92915050565b6000608082019050613cb96000830187613967565b613cc66020830186613967565b613cd36040830185613967565b613ce06060830184613c7a565b95945050505050565b6000604082019050613cfe6000830185613967565b613d0b6020830184613c7a565b9392505050565b6000606082019050613d276000830186613967565b613d346020830185613c7a565b613d416040830184613967565b949350505050565b6000606082019050613d5e6000830186613967565b613d6b6020830185613c7a565b613d786040830184613c7a565b949350505050565b600060c082019050613d956000830189613967565b613da26020830188613c7a565b613daf6040830187613c7a565b613dbc6060830186613c7a565b613dc96080830185613976565b613dd660a0830184613976565b979650505050505050565b6000602082019050613df66000830184613976565b92915050565b6000604082019050613e116000830185613976565b613e1e6020830184613976565b9392505050565b60006020820190508181036000830152613e3f8184613985565b905092915050565b6000610180820190508181036000830152613e62818f613985565b9050613e71602083018e613967565b613e7e604083018d613967565b613e8b606083018c613967565b613e98608083018b613c7a565b613ea560a083018a613c7a565b613eb260c0830189613c7a565b613ebf60e0830188613c7a565b613ecd610100830187613c7a565b613edb610120830186613c7a565b613ee9610140830185613c7a565b613ef7610160830184613976565b9d9c50505050505050505050505050565b60006020820190508181036000830152613f21816139be565b9050919050565b60006020820190508181036000830152613f41816139e1565b9050919050565b60006020820190508181036000830152613f6181613a04565b9050919050565b60006020820190508181036000830152613f8181613a27565b9050919050565b60006020820190508181036000830152613fa181613a4a565b9050919050565b60006020820190508181036000830152613fc181613a6d565b9050919050565b60006020820190508181036000830152613fe181613a90565b9050919050565b6000602082019050818103600083015261400181613ab3565b9050919050565b6000602082019050818103600083015261402181613ad6565b9050919050565b6000602082019050818103600083015261404181613af9565b9050919050565b6000602082019050818103600083015261406181613b1c565b9050919050565b6000602082019050818103600083015261408181613b3f565b9050919050565b600060208201905081810360008301526140a181613b62565b9050919050565b600060208201905081810360008301526140c181613b85565b9050919050565b600060208201905081810360008301526140e181613ba8565b9050919050565b6000602082019050818103600083015261410181613bcb565b9050919050565b6000602082019050818103600083015261412181613bee565b9050919050565b6000602082019050818103600083015261414181613c11565b9050919050565b6000602082019050818103600083015261416181613c34565b9050919050565b6000602082019050818103600083015261418181613c57565b9050919050565b600060208201905061419d6000830184613c7a565b92915050565b60006080820190506141b86000830187613c7a565b6141c56020830186613976565b6141d26040830185613c7a565b6141df6060830184613976565b95945050505050565b60006141f2614203565b90506141fe828261442b565b919050565b6000604051905090565b600067ffffffffffffffff82111561422857614227614518565b5b6142318261455b565b9050602081019050919050565b600081519050919050565b600082825260208201905092915050565b6000614265826143ad565b9150614270836143ad565b9250827fffffffffffffffffffffffffffffffffffffffffffffffffffffffffffffffff038211156142a5576142a461445c565b5b828201905092915050565b60006142bb826143ad565b91506142c6836143ad565b9250826142d6576142d561448b565b5b828204905092915050565b60006142ec826143ad565b91506142f7836143ad565b9250817fffffffffffffffffffffffffffffffffffffffffffffffffffffffffffffffff04831182151516156143305761432f61445c565b5b828202905092915050565b6000614346826143ad565b9150614351836143ad565b9250828210156143645761436361445c565b5b828203905092915050565b600061437a8261438d565b9050919050565b60008115159050919050565b600073ffffffffffffffffffffffffffffffffffffffff82169050919050565b6000819050919050565b82818337600083830152505050565b60005b838110156143e45780820151818401526020810190506143c9565b838111156143f3576000848401525b50505050565b6000600282049050600182168061441157607f821691505b60208210811415614425576144246144e9565b5b50919050565b6144348261455b565b810181811067ffffffffffffffff8211171561445357614452614518565b5b80604052505050565b7f4e487b7100000000000000000000000000000000000000000000000000000000600052601160045260246000fd5b7f4e487b7100000000000000000000000000000000000000000000000000000000600052601260045260246000fd5b7f4e487b7100000000000000000000000000000000000000000000000000000000600052602160045260246000fd5b7f4e487b7100000000000000000000000000000000000000000000000000000000600052602260045260246000fd5b7f4e487b7100000000000000000000000000000000000000000000000000000000600052604160045260246000fd5b600080fd5b600080fd5b600080fd5b600080fd5b6000601f19601f8301169050919050565b7f4c696e6b3a206163636573732064656e69656400000000000000000000000000600082015250565b7f4c696e6b3a206163636573732064656e69656420000000000000000000000000600082015250565b7f4c696e6b3a206c696e6b20657870697265000000000000000000000000000000600082015250565b7f4c696e6b3a206f6e6c7920756e636c6f73656400000000000000000000000000600082015250565b7f4c696e6b3a20756e6c617766756c206164647265737300000000000000000000600082015250565b7f4c696e6b3a206f6e6c7920756e706c6564676564000000000000000000000000600082015250565b7f4c696e6b3a206e6f6c7920757365724200000000000000000000000000000000600082015250565b7f4c696e6b3a207265706c65646765000000000000000000000000000000000000600082015250565b7f4c696e6b3a2077726f6e6720616d6f756e74206f662045544800000000000000600082015250565b7f4c696e6b3a206e6f20706c656467656400000000000000000000000000000000600082015250565b7f4c696e6b3a203020616d6f756e74000000000000000000000000000000000000600082015250565b7f4c696e6b3a20706c656173652068616e646c652074686520636c6f73696e672060008201527f70726f6365737320666972737400000000000000000000000000000000000000602082015250565b7f4c696e6b3a206f6e6c7920757365724100000000000000000000000000000000600082015250565b7f4c696e6b3a206f6e6c7920457870697265000000000000000000000000000000600082015250565b7f4c696e6b3a206f6e6c7920696e697469616c697a656400000000000000000000600082015250565b7f696e697469616c697a6564000000000000000000000000000000000000000000600082015250565b7f4c696e6b3a206f6e6c79204564697461626c65204c696e6b0000000000000000600082015250565b7f4c696e6b3a206f6e6c7920616772656564000000000000000000000000000000600082015250565b7f4c696e6b3a206f6e6c7920706c65646765640000000000000000000000000000600082015250565b7f4c696e6b3a206f6e6c79206c7563610000000000000000000000000000000000600082015250565b6148cf8161436f565b81146148da57600080fd5b50565b6148e681614381565b81146148f157600080fd5b50565b6148fd816143ad565b811461490857600080fd5b5056fea2646970667358221220db84a7552d0fa85c85effef853b0e5d595a5984ebf9260c7632af564706b4a6964736f6c63430008070033",
			"opcodes": "PUSH1 0x80 PUSH1 0x40 MSTORE CALLVALUE DUP1 ISZERO PUSH2 0x10 JUMPI PUSH1 0x0 DUP1 REVERT JUMPDEST POP PUSH2 0x4941 DUP1 PUSH2 0x20 PUSH1 0x0 CODECOPY PUSH1 0x0 RETURN INVALID PUSH1 0x80 PUSH1 0x40 MSTORE PUSH1 0x4 CALLDATASIZE LT PUSH2 0xF7 JUMPI PUSH1 0x0 CALLDATALOAD PUSH1 0xE0 SHR DUP1 PUSH4 0x7C4B6A1B GT PUSH2 0x8A JUMPI DUP1 PUSH4 0xBE7420B1 GT PUSH2 0x59 JUMPI DUP1 PUSH4 0xBE7420B1 EQ PUSH2 0x2A3 JUMPI DUP1 PUSH4 0xC87E5117 EQ PUSH2 0x2BA JUMPI DUP1 PUSH4 0xE25B3C95 EQ PUSH2 0x2D1 JUMPI DUP1 PUSH4 0xF216ED8A EQ PUSH2 0x2FC JUMPI PUSH2 0xFE JUMP JUMPDEST DUP1 PUSH4 0x7C4B6A1B EQ PUSH2 0x216 JUMPI DUP1 PUSH4 0x8C5782CA EQ PUSH2 0x23F JUMPI DUP1 PUSH4 0x8FAE60A5 EQ PUSH2 0x26D JUMPI DUP1 PUSH4 0xB578803F EQ PUSH2 0x277 JUMPI PUSH2 0xFE JUMP JUMPDEST DUP1 PUSH4 0x43D726D6 GT PUSH2 0xC6 JUMPI DUP1 PUSH4 0x43D726D6 EQ PUSH2 0x194 JUMPI DUP1 PUSH4 0x4DC415DE EQ PUSH2 0x1AB JUMPI DUP1 PUSH4 0x4E69D560 EQ PUSH2 0x1C2 JUMPI DUP1 PUSH4 0x566FA0CB EQ PUSH2 0x1ED JUMPI PUSH2 0xFE JUMP JUMPDEST DUP1 PUSH4 0xD657191 EQ PUSH2 0x100 JUMPI DUP1 PUSH4 0xE080192 EQ PUSH2 0x136 JUMPI DUP1 PUSH4 0x29AC54A7 EQ PUSH2 0x14D JUMPI DUP1 PUSH4 0x2C6372C3 EQ PUSH2 0x164 JUMPI PUSH2 0xFE JUMP JUMPDEST CALLDATASIZE PUSH2 0xFE JUMPI STOP JUMPDEST STOP JUMPDEST CALLVALUE DUP1 ISZERO PUSH2 0x10C JUMPI PUSH1 0x0 DUP1 REVERT JUMPDEST POP PUSH2 0x115 PUSH2 0x325 JUMP JUMPDEST PUSH1 0x40 MLOAD PUSH2 0x12D SWAP13 SWAP12 SWAP11 SWAP10 SWAP9 SWAP8 SWAP7 SWAP6 SWAP5 SWAP4 SWAP3 SWAP2 SWAP1 PUSH2 0x3E47 JUMP JUMPDEST PUSH1 0x40 MLOAD DUP1 SWAP2 SUB SWAP1 RETURN JUMPDEST CALLVALUE DUP1 ISZERO PUSH2 0x142 JUMPI PUSH1 0x0 DUP1 REVERT JUMPDEST POP PUSH2 0x14B PUSH2 0x536 JUMP JUMPDEST STOP JUMPDEST CALLVALUE DUP1 ISZERO PUSH2 0x159 JUMPI PUSH1 0x0 DUP1 REVERT JUMPDEST POP PUSH2 0x162 PUSH2 0x730 JUMP JUMPDEST STOP JUMPDEST CALLVALUE DUP1 ISZERO PUSH2 0x170 JUMPI PUSH1 0x0 DUP1 REVERT JUMPDEST POP PUSH2 0x179 PUSH2 0xCE3 JUMP JUMPDEST PUSH1 0x40 MLOAD PUSH2 0x18B SWAP7 SWAP6 SWAP5 SWAP4 SWAP3 SWAP2 SWAP1 PUSH2 0x3D80 JUMP JUMPDEST PUSH1 0x40 MLOAD DUP1 SWAP2 SUB SWAP1 RETURN JUMPDEST CALLVALUE DUP1 ISZERO PUSH2 0x1A0 JUMPI PUSH1 0x0 DUP1 REVERT JUMPDEST POP PUSH2 0x1A9 PUSH2 0xD4C JUMP JUMPDEST STOP JUMPDEST CALLVALUE DUP1 ISZERO PUSH2 0x1B7 JUMPI PUSH1 0x0 DUP1 REVERT JUMPDEST POP PUSH2 0x1C0 PUSH2 0x1113 JUMP JUMPDEST STOP JUMPDEST CALLVALUE DUP1 ISZERO PUSH2 0x1CE JUMPI PUSH1 0x0 DUP1 REVERT JUMPDEST POP PUSH2 0x1D7 PUSH2 0x122B JUMP JUMPDEST PUSH1 0x40 MLOAD PUSH2 0x1E4 SWAP2 SWAP1 PUSH2 0x3E25 JUMP JUMPDEST PUSH1 0x40 MLOAD DUP1 SWAP2 SUB SWAP1 RETURN JUMPDEST CALLVALUE DUP1 ISZERO PUSH2 0x1F9 JUMPI PUSH1 0x0 DUP1 REVERT JUMPDEST POP PUSH2 0x214 PUSH1 0x4 DUP1 CALLDATASIZE SUB DUP2 ADD SWAP1 PUSH2 0x20F SWAP2 SWAP1 PUSH2 0x3793 JUMP JUMPDEST PUSH2 0x140C JUMP JUMPDEST STOP JUMPDEST CALLVALUE DUP1 ISZERO PUSH2 0x222 JUMPI PUSH1 0x0 DUP1 REVERT JUMPDEST POP PUSH2 0x23D PUSH1 0x4 DUP1 CALLDATASIZE SUB DUP2 ADD SWAP1 PUSH2 0x238 SWAP2 SWAP1 PUSH2 0x3868 JUMP JUMPDEST PUSH2 0x1672 JUMP JUMPDEST STOP JUMPDEST CALLVALUE DUP1 ISZERO PUSH2 0x24B JUMPI PUSH1 0x0 DUP1 REVERT JUMPDEST POP PUSH2 0x254 PUSH2 0x1980 JUMP JUMPDEST PUSH1 0x40 MLOAD PUSH2 0x264 SWAP5 SWAP4 SWAP3 SWAP2 SWAP1 PUSH2 0x41A3 JUMP JUMPDEST PUSH1 0x40 MLOAD DUP1 SWAP2 SUB SWAP1 RETURN JUMPDEST PUSH2 0x275 PUSH2 0x19BA JUMP JUMPDEST STOP JUMPDEST CALLVALUE DUP1 ISZERO PUSH2 0x283 JUMPI PUSH1 0x0 DUP1 REVERT JUMPDEST POP PUSH2 0x28C PUSH2 0x1FA3 JUMP JUMPDEST PUSH1 0x40 MLOAD PUSH2 0x29A SWAP3 SWAP2 SWAP1 PUSH2 0x3DFC JUMP JUMPDEST PUSH1 0x40 MLOAD DUP1 SWAP2 SUB SWAP1 RETURN JUMPDEST CALLVALUE DUP1 ISZERO PUSH2 0x2AF JUMPI PUSH1 0x0 DUP1 REVERT JUMPDEST POP PUSH2 0x2B8 PUSH2 0x1FCE JUMP JUMPDEST STOP JUMPDEST CALLVALUE DUP1 ISZERO PUSH2 0x2C6 JUMPI PUSH1 0x0 DUP1 REVERT JUMPDEST POP PUSH2 0x2CF PUSH2 0x21C8 JUMP JUMPDEST STOP JUMPDEST CALLVALUE DUP1 ISZERO PUSH2 0x2DD JUMPI PUSH1 0x0 DUP1 REVERT JUMPDEST POP PUSH2 0x2E6 PUSH2 0x24B7 JUMP JUMPDEST PUSH1 0x40 MLOAD PUSH2 0x2F3 SWAP2 SWAP1 PUSH2 0x3DE1 JUMP JUMPDEST PUSH1 0x40 MLOAD DUP1 SWAP2 SUB SWAP1 RETURN JUMPDEST CALLVALUE DUP1 ISZERO PUSH2 0x308 JUMPI PUSH1 0x0 DUP1 REVERT JUMPDEST POP PUSH2 0x323 PUSH1 0x4 DUP1 CALLDATASIZE SUB DUP2 ADD SWAP1 PUSH2 0x31E SWAP2 SWAP1 PUSH2 0x3793 JUMP JUMPDEST PUSH2 0x2514 JUMP JUMPDEST STOP JUMPDEST PUSH1 0x60 PUSH1 0x0 DUP1 PUSH1 0x0 DUP1 PUSH1 0x0 DUP1 PUSH1 0x0 DUP1 PUSH1 0x0 DUP1 PUSH1 0x0 DUP1 PUSH1 0x1 PUSH1 0x3 DUP2 GT ISZERO PUSH2 0x34D JUMPI PUSH2 0x34C PUSH2 0x44BA JUMP JUMPDEST JUMPDEST PUSH1 0x0 DUP1 SLOAD SWAP1 PUSH2 0x100 EXP SWAP1 DIV PUSH1 0xFF AND PUSH1 0x3 DUP2 GT ISZERO PUSH2 0x36D JUMPI PUSH2 0x36C PUSH2 0x44BA JUMP JUMPDEST JUMPDEST EQ DUP1 PUSH2 0x3DB JUMPI POP PUSH1 0x3 DUP1 DUP2 GT ISZERO PUSH2 0x387 JUMPI PUSH2 0x386 PUSH2 0x44BA JUMP JUMPDEST JUMPDEST PUSH1 0x0 DUP1 SLOAD SWAP1 PUSH2 0x100 EXP SWAP1 DIV PUSH1 0xFF AND PUSH1 0x3 DUP2 GT ISZERO PUSH2 0x3A7 JUMPI PUSH2 0x3A6 PUSH2 0x44BA JUMP JUMPDEST JUMPDEST EQ DUP1 ISZERO PUSH2 0x3DA JUMPI POP PUSH1 0x11 PUSH1 0x0 SWAP1 SLOAD SWAP1 PUSH2 0x100 EXP SWAP1 DIV PUSH1 0xFF AND ISZERO DUP1 ISZERO PUSH2 0x3D9 JUMPI POP PUSH1 0x11 PUSH1 0x1 SWAP1 SLOAD SWAP1 PUSH2 0x100 EXP SWAP1 DIV PUSH1 0xFF AND ISZERO JUMPDEST JUMPDEST JUMPDEST ISZERO PUSH2 0x3E5 JUMPI PUSH1 0x1 SWAP1 POP JUMPDEST PUSH1 0x2 PUSH1 0x9 PUSH1 0x0 SWAP1 SLOAD SWAP1 PUSH2 0x100 EXP SWAP1 DIV PUSH20 0xFFFFFFFFFFFFFFFFFFFFFFFFFFFFFFFFFFFFFFFF AND PUSH1 0x3 PUSH1 0x0 SWAP1 SLOAD SWAP1 PUSH2 0x100 EXP SWAP1 DIV PUSH20 0xFFFFFFFFFFFFFFFFFFFFFFFFFFFFFFFFFFFFFFFF AND PUSH1 0x4 PUSH1 0x0 SWAP1 SLOAD SWAP1 PUSH2 0x100 EXP SWAP1 DIV PUSH20 0xFFFFFFFFFFFFFFFFFFFFFFFFFFFFFFFFFFFFFFFF AND PUSH1 0x5 SLOAD PUSH1 0x6 SLOAD PUSH1 0x7 SLOAD PUSH1 0x8 SLOAD PUSH1 0xB SLOAD PUSH1 0xC SLOAD PUSH1 0x0 DUP1 SLOAD SWAP1 PUSH2 0x100 EXP SWAP1 DIV PUSH1 0xFF AND PUSH1 0x3 DUP2 GT ISZERO PUSH2 0x482 JUMPI PUSH2 0x481 PUSH2 0x44BA JUMP JUMPDEST JUMPDEST DUP12 DUP12 DUP1 SLOAD PUSH2 0x48F SWAP1 PUSH2 0x43F9 JUMP JUMPDEST DUP1 PUSH1 0x1F ADD PUSH1 0x20 DUP1 SWAP2 DIV MUL PUSH1 0x20 ADD PUSH1 0x40 MLOAD SWAP1 DUP2 ADD PUSH1 0x40 MSTORE DUP1 SWAP3 SWAP2 SWAP1 DUP2 DUP2 MSTORE PUSH1 0x20 ADD DUP3 DUP1 SLOAD PUSH2 0x4BB SWAP1 PUSH2 0x43F9 JUMP JUMPDEST DUP1 ISZERO PUSH2 0x508 JUMPI DUP1 PUSH1 0x1F LT PUSH2 0x4DD JUMPI PUSH2 0x100 DUP1 DUP4 SLOAD DIV MUL DUP4 MSTORE SWAP2 PUSH1 0x20 ADD SWAP2 PUSH2 0x508 JUMP JUMPDEST DUP3 ADD SWAP2 SWAP1 PUSH1 0x0 MSTORE PUSH1 0x20 PUSH1 0x0 KECCAK256 SWAP1 JUMPDEST DUP2 SLOAD DUP2 MSTORE SWAP1 PUSH1 0x1 ADD SWAP1 PUSH1 0x20 ADD DUP1 DUP4 GT PUSH2 0x4EB JUMPI DUP3 SWAP1 SUB PUSH1 0x1F AND DUP3 ADD SWAP2 JUMPDEST POP POP POP POP POP SWAP12 POP SWAP13 POP SWAP13 POP SWAP13 POP SWAP13 POP SWAP13 POP SWAP13 POP SWAP13 POP SWAP13 POP SWAP13 POP SWAP13 POP SWAP13 POP SWAP13 POP POP SWAP1 SWAP2 SWAP3 SWAP4 SWAP5 SWAP6 SWAP7 SWAP8 SWAP9 SWAP10 SWAP11 SWAP12 JUMP JUMPDEST PUSH1 0x1 PUSH1 0x3 DUP2 GT ISZERO PUSH2 0x54A JUMPI PUSH2 0x549 PUSH2 0x44BA JUMP JUMPDEST JUMPDEST PUSH1 0x0 DUP1 SLOAD SWAP1 PUSH2 0x100 EXP SWAP1 DIV PUSH1 0xFF AND PUSH1 0x3 DUP2 GT ISZERO PUSH2 0x56A JUMPI PUSH2 0x569 PUSH2 0x44BA JUMP JUMPDEST JUMPDEST EQ PUSH2 0x5AA JUMPI PUSH1 0x40 MLOAD PUSH32 0x8C379A000000000000000000000000000000000000000000000000000000000 DUP2 MSTORE PUSH1 0x4 ADD PUSH2 0x5A1 SWAP1 PUSH2 0x4128 JUMP JUMPDEST PUSH1 0x40 MLOAD DUP1 SWAP2 SUB SWAP1 REVERT JUMPDEST PUSH1 0x3 PUSH1 0x0 SWAP1 SLOAD SWAP1 PUSH2 0x100 EXP SWAP1 DIV PUSH20 0xFFFFFFFFFFFFFFFFFFFFFFFFFFFFFFFFFFFFFFFF AND PUSH20 0xFFFFFFFFFFFFFFFFFFFFFFFFFFFFFFFFFFFFFFFF AND CALLER PUSH20 0xFFFFFFFFFFFFFFFFFFFFFFFFFFFFFFFFFFFFFFFF AND EQ DUP1 PUSH2 0x653 JUMPI POP PUSH1 0x4 PUSH1 0x0 SWAP1 SLOAD SWAP1 PUSH2 0x100 EXP SWAP1 DIV PUSH20 0xFFFFFFFFFFFFFFFFFFFFFFFFFFFFFFFFFFFFFFFF AND PUSH20 0xFFFFFFFFFFFFFFFFFFFFFFFFFFFFFFFFFFFFFFFF AND CALLER PUSH20 0xFFFFFFFFFFFFFFFFFFFFFFFFFFFFFFFFFFFFFFFF AND EQ JUMPDEST PUSH2 0x692 JUMPI PUSH1 0x40 MLOAD PUSH32 0x8C379A000000000000000000000000000000000000000000000000000000000 DUP2 MSTORE PUSH1 0x4 ADD PUSH2 0x689 SWAP1 PUSH2 0x3F08 JUMP JUMPDEST PUSH1 0x40 MLOAD DUP1 SWAP2 SUB SWAP1 REVERT JUMPDEST PUSH2 0x69C PUSH1 0x7 PUSH2 0x2B4F JUMP JUMPDEST PUSH1 0x4 PUSH1 0x0 SWAP1 SLOAD SWAP1 PUSH2 0x100 EXP SWAP1 DIV PUSH20 0xFFFFFFFFFFFFFFFFFFFFFFFFFFFFFFFFFFFFFFFF AND PUSH20 0xFFFFFFFFFFFFFFFFFFFFFFFFFFFFFFFFFFFFFFFF AND CALLER PUSH20 0xFFFFFFFFFFFFFFFFFFFFFFFFFFFFFFFFFFFFFFFF AND EQ ISZERO PUSH2 0x712 JUMPI PUSH1 0x0 PUSH1 0x1 PUSH1 0x14 PUSH2 0x100 EXP DUP2 SLOAD DUP2 PUSH1 0xFF MUL NOT AND SWAP1 DUP4 ISZERO ISZERO MUL OR SWAP1 SSTORE POP PUSH2 0x72E JUMP JUMPDEST PUSH1 0x0 PUSH1 0x1 PUSH1 0x15 PUSH2 0x100 EXP DUP2 SLOAD DUP2 PUSH1 0xFF MUL NOT AND SWAP1 DUP4 ISZERO ISZERO MUL OR SWAP1 SSTORE POP JUMPDEST JUMP JUMPDEST PUSH1 0x0 PUSH1 0x1 SWAP1 SLOAD SWAP1 PUSH2 0x100 EXP SWAP1 DIV PUSH20 0xFFFFFFFFFFFFFFFFFFFFFFFFFFFFFFFFFFFFFFFF AND PUSH20 0xFFFFFFFFFFFFFFFFFFFFFFFFFFFFFFFFFFFFFFFF AND PUSH4 0x4411B761 PUSH1 0x40 MLOAD DUP2 PUSH4 0xFFFFFFFF AND PUSH1 0xE0 SHL DUP2 MSTORE PUSH1 0x4 ADD PUSH1 0x20 PUSH1 0x40 MLOAD DUP1 DUP4 SUB DUP2 DUP7 DUP1 EXTCODESIZE ISZERO DUP1 ISZERO PUSH2 0x798 JUMPI PUSH1 0x0 DUP1 REVERT JUMPDEST POP GAS STATICCALL ISZERO DUP1 ISZERO PUSH2 0x7AC JUMPI RETURNDATASIZE PUSH1 0x0 DUP1 RETURNDATACOPY RETURNDATASIZE PUSH1 0x0 REVERT JUMPDEST POP POP POP POP PUSH1 0x40 MLOAD RETURNDATASIZE PUSH1 0x1F NOT PUSH1 0x1F DUP3 ADD AND DUP3 ADD DUP1 PUSH1 0x40 MSTORE POP DUP2 ADD SWAP1 PUSH2 0x7D0 SWAP2 SWAP1 PUSH2 0x37C0 JUMP JUMPDEST PUSH20 0xFFFFFFFFFFFFFFFFFFFFFFFFFFFFFFFFFFFFFFFF AND PUSH1 0x9 PUSH1 0x0 SWAP1 SLOAD SWAP1 PUSH2 0x100 EXP SWAP1 DIV PUSH20 0xFFFFFFFFFFFFFFFFFFFFFFFFFFFFFFFFFFFFFFFF AND PUSH20 0xFFFFFFFFFFFFFFFFFFFFFFFFFFFFFFFFFFFFFFFF AND EQ PUSH2 0x85F JUMPI PUSH1 0x40 MLOAD PUSH32 0x8C379A000000000000000000000000000000000000000000000000000000000 DUP2 MSTORE PUSH1 0x4 ADD PUSH2 0x856 SWAP1 PUSH2 0x4168 JUMP JUMPDEST PUSH1 0x40 MLOAD DUP1 SWAP2 SUB SWAP1 REVERT JUMPDEST PUSH1 0x3 DUP1 DUP2 GT ISZERO PUSH2 0x872 JUMPI PUSH2 0x871 PUSH2 0x44BA JUMP JUMPDEST JUMPDEST PUSH1 0x0 DUP1 SLOAD SWAP1 PUSH2 0x100 EXP SWAP1 DIV PUSH1 0xFF AND PUSH1 0x3 DUP2 GT ISZERO PUSH2 0x892 JUMPI PUSH2 0x891 PUSH2 0x44BA JUMP JUMPDEST JUMPDEST EQ PUSH2 0x8D2 JUMPI PUSH1 0x40 MLOAD PUSH32 0x8C379A000000000000000000000000000000000000000000000000000000000 DUP2 MSTORE PUSH1 0x4 ADD PUSH2 0x8C9 SWAP1 PUSH2 0x4148 JUMP JUMPDEST PUSH1 0x40 MLOAD DUP1 SWAP2 SUB SWAP1 REVERT JUMPDEST PUSH1 0x3 PUSH1 0x0 SWAP1 SLOAD SWAP1 PUSH2 0x100 EXP SWAP1 DIV PUSH20 0xFFFFFFFFFFFFFFFFFFFFFFFFFFFFFFFFFFFFFFFF AND PUSH20 0xFFFFFFFFFFFFFFFFFFFFFFFFFFFFFFFFFFFFFFFF AND CALLER PUSH20 0xFFFFFFFFFFFFFFFFFFFFFFFFFFFFFFFFFFFFFFFF AND EQ DUP1 PUSH2 0x97B JUMPI POP PUSH1 0x4 PUSH1 0x0 SWAP1 SLOAD SWAP1 PUSH2 0x100 EXP SWAP1 DIV PUSH20 0xFFFFFFFFFFFFFFFFFFFFFFFFFFFFFFFFFFFFFFFF AND PUSH20 0xFFFFFFFFFFFFFFFFFFFFFFFFFFFFFFFFFFFFFFFF AND CALLER PUSH20 0xFFFFFFFFFFFFFFFFFFFFFFFFFFFFFFFFFFFFFFFF AND EQ JUMPDEST PUSH2 0x9BA JUMPI PUSH1 0x40 MLOAD PUSH32 0x8C379A000000000000000000000000000000000000000000000000000000000 DUP2 MSTORE PUSH1 0x4 ADD PUSH2 0x9B1 SWAP1 PUSH2 0x3F08 JUMP JUMPDEST PUSH1 0x40 MLOAD DUP1 SWAP2 SUB SWAP1 REVERT JUMPDEST PUSH1 0x3 PUSH1 0x0 SWAP1 SLOAD SWAP1 PUSH2 0x100 EXP SWAP1 DIV PUSH20 0xFFFFFFFFFFFFFFFFFFFFFFFFFFFFFFFFFFFFFFFF AND PUSH20 0xFFFFFFFFFFFFFFFFFFFFFFFFFFFFFFFFFFFFFFFF AND CALLER PUSH20 0xFFFFFFFFFFFFFFFFFFFFFFFFFFFFFFFFFFFFFFFF AND EQ ISZERO PUSH2 0xA7F JUMPI PUSH1 0x1 PUSH1 0x16 SWAP1 SLOAD SWAP1 PUSH2 0x100 EXP SWAP1 DIV PUSH1 0xFF AND PUSH2 0xA5F JUMPI PUSH1 0x40 MLOAD PUSH32 0x8C379A000000000000000000000000000000000000000000000000000000000 DUP2 MSTORE PUSH1 0x4 ADD PUSH2 0xA56 SWAP1 PUSH2 0x4028 JUMP JUMPDEST PUSH1 0x40 MLOAD DUP1 SWAP2 SUB SWAP1 REVERT JUMPDEST PUSH1 0x0 PUSH1 0x1 PUSH1 0x16 PUSH2 0x100 EXP DUP2 SLOAD DUP2 PUSH1 0xFF MUL NOT AND SWAP1 DUP4 ISZERO ISZERO MUL OR SWAP1 SSTORE POP PUSH2 0xAEA JUMP JUMPDEST PUSH1 0x1 PUSH1 0x17 SWAP1 SLOAD SWAP1 PUSH2 0x100 EXP SWAP1 DIV PUSH1 0xFF AND PUSH2 0xACE JUMPI PUSH1 0x40 MLOAD PUSH32 0x8C379A000000000000000000000000000000000000000000000000000000000 DUP2 MSTORE PUSH1 0x4 ADD PUSH2 0xAC5 SWAP1 PUSH2 0x4028 JUMP JUMPDEST PUSH1 0x40 MLOAD DUP1 SWAP2 SUB SWAP1 REVERT JUMPDEST PUSH1 0x0 PUSH1 0x1 PUSH1 0x17 PUSH2 0x100 EXP DUP2 SLOAD DUP2 PUSH1 0xFF MUL NOT AND SWAP1 DUP4 ISZERO ISZERO MUL OR SWAP1 SSTORE POP JUMPDEST PUSH2 0xAF4 PUSH1 0x4 PUSH2 0x2B4F JUMP JUMPDEST PUSH1 0x0 PUSH1 0x1 SWAP1 SLOAD SWAP1 PUSH2 0x100 EXP SWAP1 DIV PUSH20 0xFFFFFFFFFFFFFFFFFFFFFFFFFFFFFFFFFFFFFFFF AND PUSH20 0xFFFFFFFFFFFFFFFFFFFFFFFFFFFFFFFFFFFFFFFF AND PUSH4 0x88FFE867 PUSH1 0x40 MLOAD DUP2 PUSH4 0xFFFFFFFF AND PUSH1 0xE0 SHL DUP2 MSTORE PUSH1 0x4 ADD PUSH1 0x20 PUSH1 0x40 MLOAD DUP1 DUP4 SUB DUP2 DUP7 DUP1 EXTCODESIZE ISZERO DUP1 ISZERO PUSH2 0xB5C JUMPI PUSH1 0x0 DUP1 REVERT JUMPDEST POP GAS STATICCALL ISZERO DUP1 ISZERO PUSH2 0xB70 JUMPI RETURNDATASIZE PUSH1 0x0 DUP1 RETURNDATACOPY RETURNDATASIZE PUSH1 0x0 REVERT JUMPDEST POP POP POP POP PUSH1 0x40 MLOAD RETURNDATASIZE PUSH1 0x1F NOT PUSH1 0x1F DUP3 ADD AND DUP3 ADD DUP1 PUSH1 0x40 MSTORE POP DUP2 ADD SWAP1 PUSH2 0xB94 SWAP2 SWAP1 PUSH2 0x37C0 JUMP JUMPDEST PUSH20 0xFFFFFFFFFFFFFFFFFFFFFFFFFFFFFFFFFFFFFFFF AND PUSH4 0x75DF04D8 CALLER PUSH1 0x40 MLOAD DUP3 PUSH4 0xFFFFFFFF AND PUSH1 0xE0 SHL DUP2 MSTORE PUSH1 0x4 ADD PUSH2 0xBCC SWAP2 SWAP1 PUSH2 0x3C89 JUMP JUMPDEST PUSH1 0x20 PUSH1 0x40 MLOAD DUP1 DUP4 SUB DUP2 PUSH1 0x0 DUP8 DUP1 EXTCODESIZE ISZERO DUP1 ISZERO PUSH2 0xBE6 JUMPI PUSH1 0x0 DUP1 REVERT JUMPDEST POP GAS CALL ISZERO DUP1 ISZERO PUSH2 0xBFA JUMPI RETURNDATASIZE PUSH1 0x0 DUP1 RETURNDATACOPY RETURNDATASIZE PUSH1 0x0 REVERT JUMPDEST POP POP POP POP PUSH1 0x40 MLOAD RETURNDATASIZE PUSH1 0x1F NOT PUSH1 0x1F DUP3 ADD AND DUP3 ADD DUP1 PUSH1 0x40 MSTORE POP DUP2 ADD SWAP1 PUSH2 0xC1E SWAP2 SWAP1 PUSH2 0x393A JUMP JUMPDEST POP PUSH1 0x11 PUSH1 0x0 SWAP1 SLOAD SWAP1 PUSH2 0x100 EXP SWAP1 DIV PUSH1 0xFF AND DUP1 PUSH2 0xC46 JUMPI POP PUSH1 0x11 PUSH1 0x1 SWAP1 SLOAD SWAP1 PUSH2 0x100 EXP SWAP1 DIV PUSH1 0xFF AND JUMPDEST ISZERO PUSH2 0xCA8 JUMPI CALLER PUSH1 0xA PUSH1 0x0 PUSH2 0x100 EXP DUP2 SLOAD DUP2 PUSH20 0xFFFFFFFFFFFFFFFFFFFFFFFFFFFFFFFFFFFFFFFF MUL NOT AND SWAP1 DUP4 PUSH20 0xFFFFFFFFFFFFFFFFFFFFFFFFFFFFFFFFFFFFFFFF AND MUL OR SWAP1 SSTORE POP TIMESTAMP PUSH1 0xE DUP2 SWAP1 SSTORE POP PUSH2 0xC9B PUSH2 0x2BF3 JUMP JUMPDEST PUSH2 0xCA3 PUSH2 0x2DB5 JUMP JUMPDEST PUSH2 0xCE1 JUMP JUMPDEST PUSH1 0x1 PUSH1 0x16 SWAP1 SLOAD SWAP1 PUSH2 0x100 EXP SWAP1 DIV PUSH1 0xFF AND ISZERO DUP1 ISZERO PUSH2 0xCD2 JUMPI POP PUSH1 0x1 PUSH1 0x17 SWAP1 SLOAD SWAP1 PUSH2 0x100 EXP SWAP1 DIV PUSH1 0xFF AND ISZERO JUMPDEST ISZERO PUSH2 0xCE0 JUMPI PUSH2 0xCDF PUSH2 0x2DE1 JUMP JUMPDEST JUMPDEST JUMPDEST JUMP JUMPDEST PUSH1 0x0 DUP1 PUSH1 0x0 DUP1 PUSH1 0x0 DUP1 PUSH1 0xA PUSH1 0x0 SWAP1 SLOAD SWAP1 PUSH2 0x100 EXP SWAP1 DIV PUSH20 0xFFFFFFFFFFFFFFFFFFFFFFFFFFFFFFFFFFFFFFFF AND PUSH1 0xC SLOAD PUSH1 0xD SLOAD PUSH1 0xE SLOAD PUSH1 0x1 PUSH1 0x14 SWAP1 SLOAD SWAP1 PUSH2 0x100 EXP SWAP1 DIV PUSH1 0xFF AND PUSH1 0x1 PUSH1 0x15 SWAP1 SLOAD SWAP1 PUSH2 0x100 EXP SWAP1 DIV PUSH1 0xFF AND SWAP6 POP SWAP6 POP SWAP6 POP SWAP6 POP SWAP6 POP SWAP6 POP SWAP1 SWAP2 SWAP3 SWAP4 SWAP5 SWAP6 JUMP JUMPDEST PUSH1 0x2 PUSH1 0x3 DUP2 GT ISZERO PUSH2 0xD60 JUMPI PUSH2 0xD5F PUSH2 0x44BA JUMP JUMPDEST JUMPDEST PUSH1 0x0 DUP1 SLOAD SWAP1 PUSH2 0x100 EXP SWAP1 DIV PUSH1 0xFF AND PUSH1 0x3 DUP2 GT ISZERO PUSH2 0xD80 JUMPI PUSH2 0xD7F PUSH2 0x44BA JUMP JUMPDEST JUMPDEST EQ ISZERO PUSH2 0xDC1 JUMPI PUSH1 0x40 MLOAD PUSH32 0x8C379A000000000000000000000000000000000000000000000000000000000 DUP2 MSTORE PUSH1 0x4 ADD PUSH2 0xDB8 SWAP1 PUSH2 0x3F68 JUMP JUMPDEST PUSH1 0x40 MLOAD DUP1 SWAP2 SUB SWAP1 REVERT JUMPDEST PUSH1 0x3 DUP1 DUP2 GT ISZERO PUSH2 0xDD4 JUMPI PUSH2 0xDD3 PUSH2 0x44BA JUMP JUMPDEST JUMPDEST PUSH1 0x0 DUP1 SLOAD SWAP1 PUSH2 0x100 EXP SWAP1 DIV PUSH1 0xFF AND PUSH1 0x3 DUP2 GT ISZERO PUSH2 0xDF4 JUMPI PUSH2 0xDF3 PUSH2 0x44BA JUMP JUMPDEST JUMPDEST EQ ISZERO PUSH2 0xE35 JUMPI PUSH1 0x40 MLOAD PUSH32 0x8C379A000000000000000000000000000000000000000000000000000000000 DUP2 MSTORE PUSH1 0x4 ADD PUSH2 0xE2C SWAP1 PUSH2 0x3FA8 JUMP JUMPDEST PUSH1 0x40 MLOAD DUP1 SWAP2 SUB SWAP1 REVERT JUMPDEST PUSH1 0x3 PUSH1 0x0 SWAP1 SLOAD SWAP1 PUSH2 0x100 EXP SWAP1 DIV PUSH20 0xFFFFFFFFFFFFFFFFFFFFFFFFFFFFFFFFFFFFFFFF AND PUSH20 0xFFFFFFFFFFFFFFFFFFFFFFFFFFFFFFFFFFFFFFFF AND CALLER PUSH20 0xFFFFFFFFFFFFFFFFFFFFFFFFFFFFFFFFFFFFFFFF AND EQ DUP1 PUSH2 0xEDE JUMPI POP PUSH1 0x4 PUSH1 0x0 SWAP1 SLOAD SWAP1 PUSH2 0x100 EXP SWAP1 DIV PUSH20 0xFFFFFFFFFFFFFFFFFFFFFFFFFFFFFFFFFFFFFFFF AND PUSH20 0xFFFFFFFFFFFFFFFFFFFFFFFFFFFFFFFFFFFFFFFF AND CALLER PUSH20 0xFFFFFFFFFFFFFFFFFFFFFFFFFFFFFFFFFFFFFFFF AND EQ JUMPDEST PUSH2 0xF1D JUMPI PUSH1 0x40 MLOAD PUSH32 0x8C379A000000000000000000000000000000000000000000000000000000000 DUP2 MSTORE PUSH1 0x4 ADD PUSH2 0xF14 SWAP1 PUSH2 0x3F08 JUMP JUMPDEST PUSH1 0x40 MLOAD DUP1 SWAP2 SUB SWAP1 REVERT JUMPDEST PUSH2 0xF27 PUSH1 0x5 PUSH2 0x2B4F JUMP JUMPDEST PUSH2 0xF2F PUSH2 0x24B7 JUMP JUMPDEST ISZERO PUSH2 0xF3D JUMPI PUSH2 0xF3C PUSH2 0x2E0D JUMP JUMPDEST JUMPDEST PUSH1 0x0 PUSH1 0x3 DUP2 GT ISZERO PUSH2 0xF51 JUMPI PUSH2 0xF50 PUSH2 0x44BA JUMP JUMPDEST JUMPDEST PUSH1 0x0 DUP1 SLOAD SWAP1 PUSH2 0x100 EXP SWAP1 DIV PUSH1 0xFF AND PUSH1 0x3 DUP2 GT ISZERO PUSH2 0xF71 JUMPI PUSH2 0xF70 PUSH2 0x44BA JUMP JUMPDEST JUMPDEST EQ ISZERO PUSH2 0x1010 JUMPI PUSH1 0x3 PUSH1 0x0 SWAP1 SLOAD SWAP1 PUSH2 0x100 EXP SWAP1 DIV PUSH20 0xFFFFFFFFFFFFFFFFFFFFFFFFFFFFFFFFFFFFFFFF AND PUSH20 0xFFFFFFFFFFFFFFFFFFFFFFFFFFFFFFFFFFFFFFFF AND CALLER PUSH20 0xFFFFFFFFFFFFFFFFFFFFFFFFFFFFFFFFFFFFFFFF AND EQ PUSH2 0x1007 JUMPI PUSH1 0x40 MLOAD PUSH32 0x8C379A000000000000000000000000000000000000000000000000000000000 DUP2 MSTORE PUSH1 0x4 ADD PUSH2 0xFFE SWAP1 PUSH2 0x3F08 JUMP JUMPDEST PUSH1 0x40 MLOAD DUP1 SWAP2 SUB SWAP1 REVERT JUMPDEST PUSH2 0x100F PUSH2 0x2E0D JUMP JUMPDEST JUMPDEST PUSH1 0x1 PUSH1 0x3 DUP2 GT ISZERO PUSH2 0x1024 JUMPI PUSH2 0x1023 PUSH2 0x44BA JUMP JUMPDEST JUMPDEST PUSH1 0x0 DUP1 SLOAD SWAP1 PUSH2 0x100 EXP SWAP1 DIV PUSH1 0xFF AND PUSH1 0x3 DUP2 GT ISZERO PUSH2 0x1044 JUMPI PUSH2 0x1043 PUSH2 0x44BA JUMP JUMPDEST JUMPDEST EQ ISZERO PUSH2 0x1111 JUMPI PUSH1 0x3 PUSH1 0x0 SWAP1 SLOAD SWAP1 PUSH2 0x100 EXP SWAP1 DIV PUSH20 0xFFFFFFFFFFFFFFFFFFFFFFFFFFFFFFFFFFFFFFFF AND PUSH20 0xFFFFFFFFFFFFFFFFFFFFFFFFFFFFFFFFFFFFFFFF AND CALLER PUSH20 0xFFFFFFFFFFFFFFFFFFFFFFFFFFFFFFFFFFFFFFFF AND EQ ISZERO PUSH2 0x10BF JUMPI PUSH1 0x1 DUP1 PUSH1 0x14 PUSH2 0x100 EXP DUP2 SLOAD DUP2 PUSH1 0xFF MUL NOT AND SWAP1 DUP4 ISZERO ISZERO MUL OR SWAP1 SSTORE POP PUSH2 0x10DA JUMP JUMPDEST PUSH1 0x1 DUP1 PUSH1 0x15 PUSH2 0x100 EXP DUP2 SLOAD DUP2 PUSH1 0xFF MUL NOT AND SWAP1 DUP4 ISZERO ISZERO MUL OR SWAP1 SSTORE POP JUMPDEST PUSH1 0x1 PUSH1 0x14 SWAP1 SLOAD SWAP1 PUSH2 0x100 EXP SWAP1 DIV PUSH1 0xFF AND DUP1 ISZERO PUSH2 0x1102 JUMPI POP PUSH1 0x1 PUSH1 0x15 SWAP1 SLOAD SWAP1 PUSH2 0x100 EXP SWAP1 DIV PUSH1 0xFF AND JUMPDEST ISZERO PUSH2 0x1110 JUMPI PUSH2 0x110F PUSH2 0x2E0D JUMP JUMPDEST JUMPDEST JUMPDEST JUMP JUMPDEST PUSH1 0x4 PUSH1 0x0 SWAP1 SLOAD SWAP1 PUSH2 0x100 EXP SWAP1 DIV PUSH20 0xFFFFFFFFFFFFFFFFFFFFFFFFFFFFFFFFFFFFFFFF AND PUSH20 0xFFFFFFFFFFFFFFFFFFFFFFFFFFFFFFFFFFFFFFFF AND CALLER PUSH20 0xFFFFFFFFFFFFFFFFFFFFFFFFFFFFFFFFFFFFFFFF AND EQ PUSH2 0x11A3 JUMPI PUSH1 0x40 MLOAD PUSH32 0x8C379A000000000000000000000000000000000000000000000000000000000 DUP2 MSTORE PUSH1 0x4 ADD PUSH2 0x119A SWAP1 PUSH2 0x3FC8 JUMP JUMPDEST PUSH1 0x40 MLOAD DUP1 SWAP2 SUB SWAP1 REVERT JUMPDEST PUSH1 0x0 PUSH1 0x3 DUP2 GT ISZERO PUSH2 0x11B7 JUMPI PUSH2 0x11B6 PUSH2 0x44BA JUMP JUMPDEST JUMPDEST PUSH1 0x0 DUP1 SLOAD SWAP1 PUSH2 0x100 EXP SWAP1 DIV PUSH1 0xFF AND PUSH1 0x3 DUP2 GT ISZERO PUSH2 0x11D7 JUMPI PUSH2 0x11D6 PUSH2 0x44BA JUMP JUMPDEST JUMPDEST EQ PUSH2 0x1217 JUMPI PUSH1 0x40 MLOAD PUSH32 0x8C379A000000000000000000000000000000000000000000000000000000000 DUP2 MSTORE PUSH1 0x4 ADD PUSH2 0x120E SWAP1 PUSH2 0x40C8 JUMP JUMPDEST PUSH1 0x40 MLOAD DUP1 SWAP2 SUB SWAP1 REVERT JUMPDEST PUSH2 0x1221 PUSH1 0x2 PUSH2 0x2B4F JUMP JUMPDEST PUSH2 0x1229 PUSH2 0x2E0D JUMP JUMPDEST JUMP JUMPDEST PUSH1 0x60 PUSH1 0x0 DUP1 SLOAD SWAP1 PUSH2 0x100 EXP SWAP1 DIV PUSH1 0xFF AND PUSH1 0x3 DUP2 GT ISZERO PUSH2 0x124D JUMPI PUSH2 0x124C PUSH2 0x44BA JUMP JUMPDEST JUMPDEST PUSH1 0x0 PUSH1 0x3 DUP2 GT ISZERO PUSH2 0x1261 JUMPI PUSH2 0x1260 PUSH2 0x44BA JUMP JUMPDEST JUMPDEST EQ ISZERO PUSH2 0x12A4 JUMPI PUSH1 0x40 MLOAD DUP1 PUSH1 0x40 ADD PUSH1 0x40 MSTORE DUP1 PUSH1 0xB DUP2 MSTORE PUSH1 0x20 ADD PUSH32 0x696E697469616C697A6564000000000000000000000000000000000000000000 DUP2 MSTORE POP SWAP1 POP PUSH2 0x1409 JUMP JUMPDEST PUSH1 0x0 DUP1 SLOAD SWAP1 PUSH2 0x100 EXP SWAP1 DIV PUSH1 0xFF AND PUSH1 0x3 DUP2 GT ISZERO PUSH2 0x12C4 JUMPI PUSH2 0x12C3 PUSH2 0x44BA JUMP JUMPDEST JUMPDEST PUSH1 0x1 PUSH1 0x3 DUP2 GT ISZERO PUSH2 0x12D8 JUMPI PUSH2 0x12D7 PUSH2 0x44BA JUMP JUMPDEST JUMPDEST EQ ISZERO PUSH2 0x131B JUMPI PUSH1 0x40 MLOAD DUP1 PUSH1 0x40 ADD PUSH1 0x40 MSTORE DUP1 PUSH1 0x6 DUP2 MSTORE PUSH1 0x20 ADD PUSH32 0x6167726565640000000000000000000000000000000000000000000000000000 DUP2 MSTORE POP SWAP1 POP PUSH2 0x1409 JUMP JUMPDEST PUSH1 0x0 DUP1 SLOAD SWAP1 PUSH2 0x100 EXP SWAP1 DIV PUSH1 0xFF AND PUSH1 0x3 DUP2 GT ISZERO PUSH2 0x133B JUMPI PUSH2 0x133A PUSH2 0x44BA JUMP JUMPDEST JUMPDEST PUSH1 0x3 DUP1 DUP2 GT ISZERO PUSH2 0x134E JUMPI PUSH2 0x134D PUSH2 0x44BA JUMP JUMPDEST JUMPDEST EQ ISZERO PUSH2 0x1391 JUMPI PUSH1 0x40 MLOAD DUP1 PUSH1 0x40 ADD PUSH1 0x40 MSTORE DUP1 PUSH1 0x7 DUP2 MSTORE PUSH1 0x20 ADD PUSH32 0x706C656467656400000000000000000000000000000000000000000000000000 DUP2 MSTORE POP SWAP1 POP PUSH2 0x1409 JUMP JUMPDEST PUSH1 0x0 DUP1 SLOAD SWAP1 PUSH2 0x100 EXP SWAP1 DIV PUSH1 0xFF AND PUSH1 0x3 DUP2 GT ISZERO PUSH2 0x13B1 JUMPI PUSH2 0x13B0 PUSH2 0x44BA JUMP JUMPDEST JUMPDEST PUSH1 0x2 PUSH1 0x3 DUP2 GT ISZERO PUSH2 0x13C5 JUMPI PUSH2 0x13C4 PUSH2 0x44BA JUMP JUMPDEST JUMPDEST EQ ISZERO PUSH2 0x1408 JUMPI PUSH1 0x40 MLOAD DUP1 PUSH1 0x40 ADD PUSH1 0x40 MSTORE DUP1 PUSH1 0x6 DUP2 MSTORE PUSH1 0x20 ADD PUSH32 0x636C6F7365640000000000000000000000000000000000000000000000000000 DUP2 MSTORE POP SWAP1 POP PUSH2 0x1409 JUMP JUMPDEST JUMPDEST SWAP1 JUMP JUMPDEST PUSH1 0x3 PUSH1 0x0 SWAP1 SLOAD SWAP1 PUSH2 0x100 EXP SWAP1 DIV PUSH20 0xFFFFFFFFFFFFFFFFFFFFFFFFFFFFFFFFFFFFFFFF AND PUSH20 0xFFFFFFFFFFFFFFFFFFFFFFFFFFFFFFFFFFFFFFFF AND CALLER PUSH20 0xFFFFFFFFFFFFFFFFFFFFFFFFFFFFFFFFFFFFFFFF AND EQ PUSH2 0x149C JUMPI PUSH1 0x40 MLOAD PUSH32 0x8C379A000000000000000000000000000000000000000000000000000000000 DUP2 MSTORE PUSH1 0x4 ADD PUSH2 0x1493 SWAP1 PUSH2 0x4088 JUMP JUMPDEST PUSH1 0x40 MLOAD DUP1 SWAP2 SUB SWAP1 REVERT JUMPDEST PUSH1 0x0 PUSH20 0xFFFFFFFFFFFFFFFFFFFFFFFFFFFFFFFFFFFFFFFF AND PUSH1 0x4 PUSH1 0x0 SWAP1 SLOAD SWAP1 PUSH2 0x100 EXP SWAP1 DIV PUSH20 0xFFFFFFFFFFFFFFFFFFFFFFFFFFFFFFFFFFFFFFFF AND PUSH20 0xFFFFFFFFFFFFFFFFFFFFFFFFFFFFFFFFFFFFFFFF AND EQ DUP1 ISZERO PUSH2 0x14FC JUMPI POP PUSH1 0x64 PUSH1 0x7 SLOAD EQ JUMPDEST PUSH2 0x153B JUMPI PUSH1 0x40 MLOAD PUSH32 0x8C379A000000000000000000000000000000000000000000000000000000000 DUP2 MSTORE PUSH1 0x4 ADD PUSH2 0x1532 SWAP1 PUSH2 0x4108 JUMP JUMPDEST PUSH1 0x40 MLOAD DUP1 SWAP2 SUB SWAP1 REVERT JUMPDEST PUSH1 0x0 PUSH20 0xFFFFFFFFFFFFFFFFFFFFFFFFFFFFFFFFFFFFFFFF AND DUP2 PUSH20 0xFFFFFFFFFFFFFFFFFFFFFFFFFFFFFFFFFFFFFFFF AND EQ ISZERO DUP1 ISZERO PUSH2 0x15A4 JUMPI POP CALLER PUSH20 0xFFFFFFFFFFFFFFFFFFFFFFFFFFFFFFFFFFFFFFFF AND DUP2 PUSH20 0xFFFFFFFFFFFFFFFFFFFFFFFFFFFFFFFFFFFFFFFF AND EQ ISZERO JUMPDEST PUSH2 0x15E3 JUMPI PUSH1 0x40 MLOAD PUSH32 0x8C379A000000000000000000000000000000000000000000000000000000000 DUP2 MSTORE PUSH1 0x4 ADD PUSH2 0x15DA SWAP1 PUSH2 0x3F88 JUMP JUMPDEST PUSH1 0x40 MLOAD DUP1 SWAP2 SUB SWAP1 REVERT JUMPDEST PUSH2 0x15ED PUSH1 0x0 PUSH2 0x2B4F JUMP JUMPDEST DUP1 PUSH1 0x4 PUSH1 0x0 PUSH2 0x100 EXP DUP2 SLOAD DUP2 PUSH20 0xFFFFFFFFFFFFFFFFFFFFFFFFFFFFFFFFFFFFFFFF MUL NOT AND SWAP1 DUP4 PUSH20 0xFFFFFFFFFFFFFFFFFFFFFFFFFFFFFFFFFFFFFFFF AND MUL OR SWAP1 SSTORE POP TIMESTAMP PUSH1 0xC DUP2 SWAP1 SSTORE POP PUSH2 0x1661 PUSH2 0x1650 PUSH3 0x15180 PUSH1 0xB SLOAD PUSH2 0x2E67 SWAP1 SWAP2 SWAP1 PUSH4 0xFFFFFFFF AND JUMP JUMPDEST PUSH1 0xC SLOAD PUSH2 0x2E7D SWAP1 SWAP2 SWAP1 PUSH4 0xFFFFFFFF AND JUMP JUMPDEST PUSH1 0xD DUP2 SWAP1 SSTORE POP PUSH2 0x166F PUSH2 0x2DE1 JUMP JUMPDEST POP JUMP JUMPDEST PUSH1 0x11 PUSH1 0x2 SWAP1 SLOAD SWAP1 PUSH2 0x100 EXP SWAP1 DIV PUSH1 0xFF AND ISZERO PUSH2 0x16C2 JUMPI PUSH1 0x40 MLOAD PUSH32 0x8C379A000000000000000000000000000000000000000000000000000000000 DUP2 MSTORE PUSH1 0x4 ADD PUSH2 0x16B9 SWAP1 PUSH2 0x40E8 JUMP JUMPDEST PUSH1 0x40 MLOAD DUP1 SWAP2 SUB SWAP1 REVERT JUMPDEST CALLER DUP9 DUP9 DUP9 DUP9 DUP9 PUSH1 0x1 PUSH1 0x0 DUP1 PUSH1 0x1 PUSH1 0x3 PUSH1 0x0 PUSH1 0x4 PUSH1 0x0 PUSH1 0x9 PUSH1 0x0 PUSH1 0x2 PUSH1 0x0 DUP13 SWAP2 SWAP1 POP SWAP1 DUP1 MLOAD SWAP1 PUSH1 0x20 ADD SWAP1 PUSH2 0x16F6 SWAP3 SWAP2 SWAP1 PUSH2 0x362C JUMP JUMPDEST POP DUP12 SWAP2 SWAP1 PUSH2 0x100 EXP DUP2 SLOAD DUP2 PUSH20 0xFFFFFFFFFFFFFFFFFFFFFFFFFFFFFFFFFFFFFFFF MUL NOT AND SWAP1 DUP4 PUSH20 0xFFFFFFFFFFFFFFFFFFFFFFFFFFFFFFFFFFFFFFFF AND MUL OR SWAP1 SSTORE POP DUP11 SWAP2 SWAP1 PUSH2 0x100 EXP DUP2 SLOAD DUP2 PUSH20 0xFFFFFFFFFFFFFFFFFFFFFFFFFFFFFFFFFFFFFFFF MUL NOT AND SWAP1 DUP4 PUSH20 0xFFFFFFFFFFFFFFFFFFFFFFFFFFFFFFFFFFFFFFFF AND MUL OR SWAP1 SSTORE POP DUP10 SWAP2 SWAP1 PUSH2 0x100 EXP DUP2 SLOAD DUP2 PUSH20 0xFFFFFFFFFFFFFFFFFFFFFFFFFFFFFFFFFFFFFFFF MUL NOT AND SWAP1 DUP4 PUSH20 0xFFFFFFFFFFFFFFFFFFFFFFFFFFFFFFFFFFFFFFFF AND MUL OR SWAP1 SSTORE POP DUP9 SWAP2 SWAP1 PUSH2 0x100 EXP DUP2 SLOAD DUP2 PUSH20 0xFFFFFFFFFFFFFFFFFFFFFFFFFFFFFFFFFFFFFFFF MUL NOT AND SWAP1 DUP4 PUSH20 0xFFFFFFFFFFFFFFFFFFFFFFFFFFFFFFFFFFFFFFFF AND MUL OR SWAP1 SSTORE POP DUP8 SWAP2 SWAP1 PUSH2 0x100 EXP DUP2 SLOAD DUP2 PUSH20 0xFFFFFFFFFFFFFFFFFFFFFFFFFFFFFFFFFFFFFFFF MUL NOT AND SWAP1 DUP4 PUSH20 0xFFFFFFFFFFFFFFFFFFFFFFFFFFFFFFFFFFFFFFFF AND MUL OR SWAP1 SSTORE POP POP POP POP POP POP POP DUP3 DUP3 PUSH2 0x1860 PUSH1 0x64 PUSH2 0x1852 DUP7 DUP9 PUSH2 0x2E67 SWAP1 SWAP2 SWAP1 PUSH4 0xFFFFFFFF AND JUMP JUMPDEST PUSH2 0x2E93 SWAP1 SWAP2 SWAP1 PUSH4 0xFFFFFFFF AND JUMP JUMPDEST PUSH2 0x1875 PUSH1 0x5 SLOAD DUP8 PUSH2 0x2EA9 SWAP1 SWAP2 SWAP1 PUSH4 0xFFFFFFFF AND JUMP JUMPDEST DUP5 PUSH1 0x8 PUSH1 0x0 PUSH1 0x7 PUSH1 0x0 PUSH1 0x5 PUSH1 0x0 PUSH1 0x6 PUSH1 0x0 PUSH1 0xB PUSH1 0x0 DUP11 SWAP2 SWAP1 POP SSTORE DUP10 SWAP2 SWAP1 POP SSTORE DUP9 SWAP2 SWAP1 POP SSTORE DUP8 SWAP2 SWAP1 POP SSTORE DUP7 SWAP2 SWAP1 POP SSTORE POP POP POP POP POP PUSH1 0x64 DUP3 EQ DUP1 ISZERO PUSH2 0x1907 JUMPI POP PUSH1 0x0 PUSH20 0xFFFFFFFFFFFFFFFFFFFFFFFFFFFFFFFFFFFFFFFF AND PUSH1 0x4 PUSH1 0x0 SWAP1 SLOAD SWAP1 PUSH2 0x100 EXP SWAP1 DIV PUSH20 0xFFFFFFFFFFFFFFFFFFFFFFFFFFFFFFFFFFFFFFFF AND PUSH20 0xFFFFFFFFFFFFFFFFFFFFFFFFFFFFFFFFFFFFFFFF AND EQ ISZERO JUMPDEST ISZERO PUSH2 0x1952 JUMPI TIMESTAMP PUSH1 0xC DUP2 SWAP1 SSTORE POP PUSH2 0x193F PUSH2 0x192E PUSH3 0x15180 PUSH1 0xB SLOAD PUSH2 0x2E67 SWAP1 SWAP2 SWAP1 PUSH4 0xFFFFFFFF AND JUMP JUMPDEST PUSH1 0xC SLOAD PUSH2 0x2E7D SWAP1 SWAP2 SWAP1 PUSH4 0xFFFFFFFF AND JUMP JUMPDEST PUSH1 0xD DUP2 SWAP1 SSTORE POP PUSH2 0x194D PUSH2 0x2DE1 JUMP JUMPDEST PUSH2 0x195B JUMP JUMPDEST PUSH2 0x195A PUSH2 0x2EBF JUMP JUMPDEST JUMPDEST PUSH1 0x1 PUSH1 0x11 PUSH1 0x2 PUSH2 0x100 EXP DUP2 SLOAD DUP2 PUSH1 0xFF MUL NOT AND SWAP1 DUP4 ISZERO ISZERO MUL OR SWAP1 SSTORE POP POP POP POP POP POP POP POP POP JUMP JUMPDEST PUSH1 0x0 DUP1 PUSH1 0x0 DUP1 PUSH1 0xF SLOAD PUSH1 0x11 PUSH1 0x0 SWAP1 SLOAD SWAP1 PUSH2 0x100 EXP SWAP1 DIV PUSH1 0xFF AND PUSH1 0x10 SLOAD PUSH1 0x11 PUSH1 0x1 SWAP1 SLOAD SWAP1 PUSH2 0x100 EXP SWAP1 DIV PUSH1 0xFF AND SWAP4 POP SWAP4 POP SWAP4 POP SWAP4 POP SWAP1 SWAP2 SWAP3 SWAP4 JUMP JUMPDEST PUSH1 0x4 PUSH1 0x0 SWAP1 SLOAD SWAP1 PUSH2 0x100 EXP SWAP1 DIV PUSH20 0xFFFFFFFFFFFFFFFFFFFFFFFFFFFFFFFFFFFFFFFF AND PUSH20 0xFFFFFFFFFFFFFFFFFFFFFFFFFFFFFFFFFFFFFFFF AND CALLER PUSH20 0xFFFFFFFFFFFFFFFFFFFFFFFFFFFFFFFFFFFFFFFF AND EQ PUSH2 0x1A4A JUMPI PUSH1 0x40 MLOAD PUSH32 0x8C379A000000000000000000000000000000000000000000000000000000000 DUP2 MSTORE PUSH1 0x4 ADD PUSH2 0x1A41 SWAP1 PUSH2 0x3FC8 JUMP JUMPDEST PUSH1 0x40 MLOAD DUP1 SWAP2 SUB SWAP1 REVERT JUMPDEST PUSH1 0x0 PUSH1 0x3 DUP2 GT ISZERO PUSH2 0x1A5E JUMPI PUSH2 0x1A5D PUSH2 0x44BA JUMP JUMPDEST JUMPDEST PUSH1 0x0 DUP1 SLOAD SWAP1 PUSH2 0x100 EXP SWAP1 DIV PUSH1 0xFF AND PUSH1 0x3 DUP2 GT ISZERO PUSH2 0x1A7E JUMPI PUSH2 0x1A7D PUSH2 0x44BA JUMP JUMPDEST JUMPDEST EQ PUSH2 0x1ABE JUMPI PUSH1 0x40 MLOAD PUSH32 0x8C379A000000000000000000000000000000000000000000000000000000000 DUP2 MSTORE PUSH1 0x4 ADD PUSH2 0x1AB5 SWAP1 PUSH2 0x40C8 JUMP JUMPDEST PUSH1 0x40 MLOAD DUP1 SWAP2 SUB SWAP1 REVERT JUMPDEST PUSH2 0x1AC8 PUSH1 0x1 PUSH2 0x2B4F JUMP JUMPDEST PUSH1 0x0 DUP1 PUSH1 0x0 DUP1 PUSH1 0x1 SWAP1 SLOAD SWAP1 PUSH2 0x100 EXP SWAP1 DIV PUSH20 0xFFFFFFFFFFFFFFFFFFFFFFFFFFFFFFFFFFFFFFFF AND PUSH20 0xFFFFFFFFFFFFFFFFFFFFFFFFFFFFFFFFFFFFFFFF AND PUSH4 0xBACB6BB7 PUSH1 0x40 MLOAD DUP2 PUSH4 0xFFFFFFFF AND PUSH1 0xE0 SHL DUP2 MSTORE PUSH1 0x4 ADD PUSH1 0xA0 PUSH1 0x40 MLOAD DUP1 DUP4 SUB DUP2 DUP7 DUP1 EXTCODESIZE ISZERO DUP1 ISZERO PUSH2 0x1B34 JUMPI PUSH1 0x0 DUP1 REVERT JUMPDEST POP GAS STATICCALL ISZERO DUP1 ISZERO PUSH2 0x1B48 JUMPI RETURNDATASIZE PUSH1 0x0 DUP1 RETURNDATACOPY RETURNDATASIZE PUSH1 0x0 REVERT JUMPDEST POP POP POP POP PUSH1 0x40 MLOAD RETURNDATASIZE PUSH1 0x1F NOT PUSH1 0x1F DUP3 ADD AND DUP3 ADD DUP1 PUSH1 0x40 MSTORE POP DUP2 ADD SWAP1 PUSH2 0x1B6C SWAP2 SWAP1 PUSH2 0x37ED JUMP JUMPDEST POP SWAP4 POP SWAP4 POP POP SWAP3 POP PUSH1 0x0 PUSH20 0xFFFFFFFFFFFFFFFFFFFFFFFFFFFFFFFFFFFFFFFF AND PUSH1 0x9 PUSH1 0x0 SWAP1 SLOAD SWAP1 PUSH2 0x100 EXP SWAP1 DIV PUSH20 0xFFFFFFFFFFFFFFFFFFFFFFFFFFFFFFFFFFFFFFFF AND PUSH20 0xFFFFFFFFFFFFFFFFFFFFFFFFFFFFFFFFFFFFFFFF AND EQ ISZERO PUSH2 0x1D03 JUMPI PUSH1 0x6 SLOAD CALLVALUE EQ PUSH2 0x1C0F JUMPI PUSH1 0x40 MLOAD PUSH32 0x8C379A000000000000000000000000000000000000000000000000000000000 DUP2 MSTORE PUSH1 0x4 ADD PUSH2 0x1C06 SWAP1 PUSH2 0x4008 JUMP JUMPDEST PUSH1 0x40 MLOAD DUP1 SWAP2 SUB SWAP1 REVERT JUMPDEST DUP2 PUSH20 0xFFFFFFFFFFFFFFFFFFFFFFFFFFFFFFFFFFFFFFFF AND PUSH4 0xD0E30DB0 CALLVALUE PUSH1 0x40 MLOAD DUP3 PUSH4 0xFFFFFFFF AND PUSH1 0xE0 SHL DUP2 MSTORE PUSH1 0x4 ADD PUSH1 0x0 PUSH1 0x40 MLOAD DUP1 DUP4 SUB DUP2 DUP6 DUP9 DUP1 EXTCODESIZE ISZERO DUP1 ISZERO PUSH2 0x1C57 JUMPI PUSH1 0x0 DUP1 REVERT JUMPDEST POP GAS CALL ISZERO DUP1 ISZERO PUSH2 0x1C6B JUMPI RETURNDATASIZE PUSH1 0x0 DUP1 RETURNDATACOPY RETURNDATASIZE PUSH1 0x0 REVERT JUMPDEST POP POP POP POP POP DUP2 PUSH20 0xFFFFFFFFFFFFFFFFFFFFFFFFFFFFFFFFFFFFFFFF AND PUSH4 0xA9059CBB ADDRESS CALLVALUE PUSH1 0x40 MLOAD DUP4 PUSH4 0xFFFFFFFF AND PUSH1 0xE0 SHL DUP2 MSTORE PUSH1 0x4 ADD PUSH2 0x1CAB SWAP3 SWAP2 SWAP1 PUSH2 0x3CE9 JUMP JUMPDEST PUSH1 0x20 PUSH1 0x40 MLOAD DUP1 DUP4 SUB DUP2 PUSH1 0x0 DUP8 DUP1 EXTCODESIZE ISZERO DUP1 ISZERO PUSH2 0x1CC5 JUMPI PUSH1 0x0 DUP1 REVERT JUMPDEST POP GAS CALL ISZERO DUP1 ISZERO PUSH2 0x1CD9 JUMPI RETURNDATASIZE PUSH1 0x0 DUP1 RETURNDATACOPY RETURNDATASIZE PUSH1 0x0 REVERT JUMPDEST POP POP POP POP PUSH1 0x40 MLOAD RETURNDATASIZE PUSH1 0x1F NOT PUSH1 0x1F DUP3 ADD AND DUP3 ADD DUP1 PUSH1 0x40 MSTORE POP DUP2 ADD SWAP1 PUSH2 0x1CFD SWAP2 SWAP1 PUSH2 0x393A JUMP JUMPDEST POP PUSH2 0x1DDC JUMP JUMPDEST DUP1 PUSH20 0xFFFFFFFFFFFFFFFFFFFFFFFFFFFFFFFFFFFFFFFF AND PUSH4 0x8F1B407A PUSH1 0x9 PUSH1 0x0 SWAP1 SLOAD SWAP1 PUSH2 0x100 EXP SWAP1 DIV PUSH20 0xFFFFFFFFFFFFFFFFFFFFFFFFFFFFFFFFFFFFFFFF AND PUSH1 0x4 PUSH1 0x0 SWAP1 SLOAD SWAP1 PUSH2 0x100 EXP SWAP1 DIV PUSH20 0xFFFFFFFFFFFFFFFFFFFFFFFFFFFFFFFFFFFFFFFF AND ADDRESS PUSH1 0x6 SLOAD PUSH1 0x40 MLOAD DUP6 PUSH4 0xFFFFFFFF AND PUSH1 0xE0 SHL DUP2 MSTORE PUSH1 0x4 ADD PUSH2 0x1D88 SWAP5 SWAP4 SWAP3 SWAP2 SWAP1 PUSH2 0x3CA4 JUMP JUMPDEST PUSH1 0x20 PUSH1 0x40 MLOAD DUP1 DUP4 SUB DUP2 PUSH1 0x0 DUP8 DUP1 EXTCODESIZE ISZERO DUP1 ISZERO PUSH2 0x1DA2 JUMPI PUSH1 0x0 DUP1 REVERT JUMPDEST POP GAS CALL ISZERO DUP1 ISZERO PUSH2 0x1DB6 JUMPI RETURNDATASIZE PUSH1 0x0 DUP1 RETURNDATACOPY RETURNDATASIZE PUSH1 0x0 REVERT JUMPDEST POP POP POP POP PUSH1 0x40 MLOAD RETURNDATASIZE PUSH1 0x1F NOT PUSH1 0x1F DUP3 ADD AND DUP3 ADD DUP1 PUSH1 0x40 MSTORE POP DUP2 ADD SWAP1 PUSH2 0x1DDA SWAP2 SWAP1 PUSH2 0x393A JUMP JUMPDEST POP JUMPDEST TIMESTAMP PUSH1 0xC DUP2 SWAP1 SSTORE POP PUSH2 0x1E0F PUSH2 0x1DFE PUSH3 0x15180 PUSH1 0xB SLOAD PUSH2 0x2E67 SWAP1 SWAP2 SWAP1 PUSH4 0xFFFFFFFF AND JUMP JUMPDEST PUSH1 0xC SLOAD PUSH2 0x2E7D SWAP1 SWAP2 SWAP1 PUSH4 0xFFFFFFFF AND JUMP JUMPDEST PUSH1 0xD DUP2 SWAP1 SSTORE POP PUSH2 0x1E1D PUSH2 0x2DE1 JUMP JUMPDEST DUP3 PUSH20 0xFFFFFFFFFFFFFFFFFFFFFFFFFFFFFFFFFFFFFFFF AND PUSH1 0x9 PUSH1 0x0 SWAP1 SLOAD SWAP1 PUSH2 0x100 EXP SWAP1 DIV PUSH20 0xFFFFFFFFFFFFFFFFFFFFFFFFFFFFFFFFFFFFFFFF AND PUSH20 0xFFFFFFFFFFFFFFFFFFFFFFFFFFFFFFFFFFFFFFFF AND EQ ISZERO PUSH2 0x1F9E JUMPI DUP1 PUSH20 0xFFFFFFFFFFFFFFFFFFFFFFFFFFFFFFFFFFFFFFFF AND PUSH4 0xD618D8B7 PUSH1 0x3 PUSH1 0x0 SWAP1 SLOAD SWAP1 PUSH2 0x100 EXP SWAP1 DIV PUSH20 0xFFFFFFFFFFFFFFFFFFFFFFFFFFFFFFFFFFFFFFFF AND PUSH1 0x5 SLOAD PUSH1 0xB SLOAD PUSH1 0x40 MLOAD DUP5 PUSH4 0xFFFFFFFF AND PUSH1 0xE0 SHL DUP2 MSTORE PUSH1 0x4 ADD PUSH2 0x1ED6 SWAP4 SWAP3 SWAP2 SWAP1 PUSH2 0x3D49 JUMP JUMPDEST PUSH1 0x0 PUSH1 0x40 MLOAD DUP1 DUP4 SUB DUP2 PUSH1 0x0 DUP8 DUP1 EXTCODESIZE ISZERO DUP1 ISZERO PUSH2 0x1EF0 JUMPI PUSH1 0x0 DUP1 REVERT JUMPDEST POP GAS CALL ISZERO DUP1 ISZERO PUSH2 0x1F04 JUMPI RETURNDATASIZE PUSH1 0x0 DUP1 RETURNDATACOPY RETURNDATASIZE PUSH1 0x0 REVERT JUMPDEST POP POP POP POP DUP1 PUSH20 0xFFFFFFFFFFFFFFFFFFFFFFFFFFFFFFFFFFFFFFFF AND PUSH4 0xD618D8B7 PUSH1 0x4 PUSH1 0x0 SWAP1 SLOAD SWAP1 PUSH2 0x100 EXP SWAP1 DIV PUSH20 0xFFFFFFFFFFFFFFFFFFFFFFFFFFFFFFFFFFFFFFFF AND PUSH1 0x6 SLOAD PUSH1 0xB SLOAD PUSH1 0x40 MLOAD DUP5 PUSH4 0xFFFFFFFF AND PUSH1 0xE0 SHL DUP2 MSTORE PUSH1 0x4 ADD PUSH2 0x1F6B SWAP4 SWAP3 SWAP2 SWAP1 PUSH2 0x3D49 JUMP JUMPDEST PUSH1 0x0 PUSH1 0x40 MLOAD DUP1 DUP4 SUB DUP2 PUSH1 0x0 DUP8 DUP1 EXTCODESIZE ISZERO DUP1 ISZERO PUSH2 0x1F85 JUMPI PUSH1 0x0 DUP1 REVERT JUMPDEST POP GAS CALL ISZERO DUP1 ISZERO PUSH2 0x1F99 JUMPI RETURNDATASIZE PUSH1 0x0 DUP1 RETURNDATACOPY RETURNDATASIZE PUSH1 0x0 REVERT JUMPDEST POP POP POP POP JUMPDEST POP POP POP JUMP JUMPDEST PUSH1 0x0 DUP1 PUSH1 0x1 PUSH1 0x16 SWAP1 SLOAD SWAP1 PUSH2 0x100 EXP SWAP1 DIV PUSH1 0xFF AND PUSH1 0x1 PUSH1 0x17 SWAP1 SLOAD SWAP1 PUSH2 0x100 EXP SWAP1 DIV PUSH1 0xFF AND SWAP2 POP SWAP2 POP SWAP1 SWAP2 JUMP JUMPDEST PUSH1 0x1 PUSH1 0x3 DUP2 GT ISZERO PUSH2 0x1FE2 JUMPI PUSH2 0x1FE1 PUSH2 0x44BA JUMP JUMPDEST JUMPDEST PUSH1 0x0 DUP1 SLOAD SWAP1 PUSH2 0x100 EXP SWAP1 DIV PUSH1 0xFF AND PUSH1 0x3 DUP2 GT ISZERO PUSH2 0x2002 JUMPI PUSH2 0x2001 PUSH2 0x44BA JUMP JUMPDEST JUMPDEST EQ PUSH2 0x2042 JUMPI PUSH1 0x40 MLOAD PUSH32 0x8C379A000000000000000000000000000000000000000000000000000000000 DUP2 MSTORE PUSH1 0x4 ADD PUSH2 0x2039 SWAP1 PUSH2 0x4128 JUMP JUMPDEST PUSH1 0x40 MLOAD DUP1 SWAP2 SUB SWAP1 REVERT JUMPDEST PUSH1 0x3 PUSH1 0x0 SWAP1 SLOAD SWAP1 PUSH2 0x100 EXP SWAP1 DIV PUSH20 0xFFFFFFFFFFFFFFFFFFFFFFFFFFFFFFFFFFFFFFFF AND PUSH20 0xFFFFFFFFFFFFFFFFFFFFFFFFFFFFFFFFFFFFFFFF AND CALLER PUSH20 0xFFFFFFFFFFFFFFFFFFFFFFFFFFFFFFFFFFFFFFFF AND EQ DUP1 PUSH2 0x20EB JUMPI POP PUSH1 0x4 PUSH1 0x0 SWAP1 SLOAD SWAP1 PUSH2 0x100 EXP SWAP1 DIV PUSH20 0xFFFFFFFFFFFFFFFFFFFFFFFFFFFFFFFFFFFFFFFF AND PUSH20 0xFFFFFFFFFFFFFFFFFFFFFFFFFFFFFFFFFFFFFFFF AND CALLER PUSH20 0xFFFFFFFFFFFFFFFFFFFFFFFFFFFFFFFFFFFFFFFF AND EQ JUMPDEST PUSH2 0x212A JUMPI PUSH1 0x40 MLOAD PUSH32 0x8C379A000000000000000000000000000000000000000000000000000000000 DUP2 MSTORE PUSH1 0x4 ADD PUSH2 0x2121 SWAP1 PUSH2 0x3F08 JUMP JUMPDEST PUSH1 0x40 MLOAD DUP1 SWAP2 SUB SWAP1 REVERT JUMPDEST PUSH2 0x2134 PUSH1 0x6 PUSH2 0x2B4F JUMP JUMPDEST PUSH1 0x3 PUSH1 0x0 SWAP1 SLOAD SWAP1 PUSH2 0x100 EXP SWAP1 DIV PUSH20 0xFFFFFFFFFFFFFFFFFFFFFFFFFFFFFFFFFFFFFFFF AND PUSH20 0xFFFFFFFFFFFFFFFFFFFFFFFFFFFFFFFFFFFFFFFF AND CALLER PUSH20 0xFFFFFFFFFFFFFFFFFFFFFFFFFFFFFFFFFFFFFFFF AND EQ ISZERO PUSH2 0x21AA JUMPI PUSH1 0x0 PUSH1 0x1 PUSH1 0x14 PUSH2 0x100 EXP DUP2 SLOAD DUP2 PUSH1 0xFF MUL NOT AND SWAP1 DUP4 ISZERO ISZERO MUL OR SWAP1 SSTORE POP PUSH2 0x21C6 JUMP JUMPDEST PUSH1 0x0 PUSH1 0x1 PUSH1 0x15 PUSH2 0x100 EXP DUP2 SLOAD DUP2 PUSH1 0xFF MUL NOT AND SWAP1 DUP4 ISZERO ISZERO MUL OR SWAP1 SSTORE POP JUMPDEST JUMP JUMPDEST PUSH1 0x0 PUSH1 0x1 SWAP1 SLOAD SWAP1 PUSH2 0x100 EXP SWAP1 DIV PUSH20 0xFFFFFFFFFFFFFFFFFFFFFFFFFFFFFFFFFFFFFFFF AND PUSH20 0xFFFFFFFFFFFFFFFFFFFFFFFFFFFFFFFFFFFFFFFF AND PUSH4 0x4411B761 PUSH1 0x40 MLOAD DUP2 PUSH4 0xFFFFFFFF AND PUSH1 0xE0 SHL DUP2 MSTORE PUSH1 0x4 ADD PUSH1 0x20 PUSH1 0x40 MLOAD DUP1 DUP4 SUB DUP2 DUP7 DUP1 EXTCODESIZE ISZERO DUP1 ISZERO PUSH2 0x2230 JUMPI PUSH1 0x0 DUP1 REVERT JUMPDEST POP GAS STATICCALL ISZERO DUP1 ISZERO PUSH2 0x2244 JUMPI RETURNDATASIZE PUSH1 0x0 DUP1 RETURNDATACOPY RETURNDATASIZE PUSH1 0x0 REVERT JUMPDEST POP POP POP POP PUSH1 0x40 MLOAD RETURNDATASIZE PUSH1 0x1F NOT PUSH1 0x1F DUP3 ADD AND DUP3 ADD DUP1 PUSH1 0x40 MSTORE POP DUP2 ADD SWAP1 PUSH2 0x2268 SWAP2 SWAP1 PUSH2 0x37C0 JUMP JUMPDEST PUSH20 0xFFFFFFFFFFFFFFFFFFFFFFFFFFFFFFFFFFFFFFFF AND PUSH1 0x9 PUSH1 0x0 SWAP1 SLOAD SWAP1 PUSH2 0x100 EXP SWAP1 DIV PUSH20 0xFFFFFFFFFFFFFFFFFFFFFFFFFFFFFFFFFFFFFFFF AND PUSH20 0xFFFFFFFFFFFFFFFFFFFFFFFFFFFFFFFFFFFFFFFF AND EQ PUSH2 0x22F7 JUMPI PUSH1 0x40 MLOAD PUSH32 0x8C379A000000000000000000000000000000000000000000000000000000000 DUP2 MSTORE PUSH1 0x4 ADD PUSH2 0x22EE SWAP1 PUSH2 0x4168 JUMP JUMPDEST PUSH1 0x40 MLOAD DUP1 SWAP2 SUB SWAP1 REVERT JUMPDEST PUSH1 0x3 DUP1 DUP2 GT ISZERO PUSH2 0x230A JUMPI PUSH2 0x2309 PUSH2 0x44BA JUMP JUMPDEST JUMPDEST PUSH1 0x0 DUP1 SLOAD SWAP1 PUSH2 0x100 EXP SWAP1 DIV PUSH1 0xFF AND PUSH1 0x3 DUP2 GT ISZERO PUSH2 0x232A JUMPI PUSH2 0x2329 PUSH2 0x44BA JUMP JUMPDEST JUMPDEST EQ PUSH2 0x236A JUMPI PUSH1 0x40 MLOAD PUSH32 0x8C379A000000000000000000000000000000000000000000000000000000000 DUP2 MSTORE PUSH1 0x4 ADD PUSH2 0x2361 SWAP1 PUSH2 0x4148 JUMP JUMPDEST PUSH1 0x40 MLOAD DUP1 SWAP2 SUB SWAP1 REVERT JUMPDEST PUSH1 0x3 PUSH1 0x0 SWAP1 SLOAD SWAP1 PUSH2 0x100 EXP SWAP1 DIV PUSH20 0xFFFFFFFFFFFFFFFFFFFFFFFFFFFFFFFFFFFFFFFF AND PUSH20 0xFFFFFFFFFFFFFFFFFFFFFFFFFFFFFFFFFFFFFFFF AND CALLER PUSH20 0xFFFFFFFFFFFFFFFFFFFFFFFFFFFFFFFFFFFFFFFF AND EQ DUP1 PUSH2 0x2413 JUMPI POP PUSH1 0x4 PUSH1 0x0 SWAP1 SLOAD SWAP1 PUSH2 0x100 EXP SWAP1 DIV PUSH20 0xFFFFFFFFFFFFFFFFFFFFFFFFFFFFFFFFFFFFFFFF AND PUSH20 0xFFFFFFFFFFFFFFFFFFFFFFFFFFFFFFFFFFFFFFFF AND CALLER PUSH20 0xFFFFFFFFFFFFFFFFFFFFFFFFFFFFFFFFFFFFFFFF AND EQ JUMPDEST PUSH2 0x2452 JUMPI PUSH1 0x40 MLOAD PUSH32 0x8C379A000000000000000000000000000000000000000000000000000000000 DUP2 MSTORE PUSH1 0x4 ADD PUSH2 0x2449 SWAP1 PUSH2 0x3F08 JUMP JUMPDEST PUSH1 0x40 MLOAD DUP1 SWAP2 SUB SWAP1 REVERT JUMPDEST PUSH2 0x245A PUSH2 0x24B7 JUMP JUMPDEST PUSH2 0x2499 JUMPI PUSH1 0x40 MLOAD PUSH32 0x8C379A000000000000000000000000000000000000000000000000000000000 DUP2 MSTORE PUSH1 0x4 ADD PUSH2 0x2490 SWAP1 PUSH2 0x40A8 JUMP JUMPDEST PUSH1 0x40 MLOAD DUP1 SWAP2 SUB SWAP1 REVERT JUMPDEST PUSH2 0x24A3 PUSH1 0x8 PUSH2 0x2B4F JUMP JUMPDEST PUSH2 0x24AD PUSH1 0x64 PUSH2 0x2EEB JUMP JUMPDEST PUSH2 0x24B5 PUSH2 0x2BF3 JUMP JUMPDEST JUMP JUMPDEST PUSH1 0x0 DUP1 PUSH1 0x3 DUP2 GT ISZERO PUSH2 0x24CC JUMPI PUSH2 0x24CB PUSH2 0x44BA JUMP JUMPDEST JUMPDEST PUSH1 0x0 DUP1 SLOAD SWAP1 PUSH2 0x100 EXP SWAP1 DIV PUSH1 0xFF AND PUSH1 0x3 DUP2 GT ISZERO PUSH2 0x24EC JUMPI PUSH2 0x24EB PUSH2 0x44BA JUMP JUMPDEST JUMPDEST EQ DUP1 PUSH2 0x24FA JUMPI POP PUSH1 0x0 PUSH1 0xD SLOAD EQ JUMPDEST ISZERO PUSH2 0x2508 JUMPI PUSH1 0x0 SWAP1 POP PUSH2 0x2511 JUMP JUMPDEST PUSH1 0xD SLOAD TIMESTAMP LT ISZERO SWAP1 POP JUMPDEST SWAP1 JUMP JUMPDEST PUSH1 0x0 PUSH1 0x1 SWAP1 SLOAD SWAP1 PUSH2 0x100 EXP SWAP1 DIV PUSH20 0xFFFFFFFFFFFFFFFFFFFFFFFFFFFFFFFFFFFFFFFF AND PUSH20 0xFFFFFFFFFFFFFFFFFFFFFFFFFFFFFFFFFFFFFFFF AND PUSH4 0x4411B761 PUSH1 0x40 MLOAD DUP2 PUSH4 0xFFFFFFFF AND PUSH1 0xE0 SHL DUP2 MSTORE PUSH1 0x4 ADD PUSH1 0x20 PUSH1 0x40 MLOAD DUP1 DUP4 SUB DUP2 DUP7 DUP1 EXTCODESIZE ISZERO DUP1 ISZERO PUSH2 0x257C JUMPI PUSH1 0x0 DUP1 REVERT JUMPDEST POP GAS STATICCALL ISZERO DUP1 ISZERO PUSH2 0x2590 JUMPI RETURNDATASIZE PUSH1 0x0 DUP1 RETURNDATACOPY RETURNDATASIZE PUSH1 0x0 REVERT JUMPDEST POP POP POP POP PUSH1 0x40 MLOAD RETURNDATASIZE PUSH1 0x1F NOT PUSH1 0x1F DUP3 ADD AND DUP3 ADD DUP1 PUSH1 0x40 MSTORE POP DUP2 ADD SWAP1 PUSH2 0x25B4 SWAP2 SWAP1 PUSH2 0x37C0 JUMP JUMPDEST PUSH20 0xFFFFFFFFFFFFFFFFFFFFFFFFFFFFFFFFFFFFFFFF AND PUSH1 0x9 PUSH1 0x0 SWAP1 SLOAD SWAP1 PUSH2 0x100 EXP SWAP1 DIV PUSH20 0xFFFFFFFFFFFFFFFFFFFFFFFFFFFFFFFFFFFFFFFF AND PUSH20 0xFFFFFFFFFFFFFFFFFFFFFFFFFFFFFFFFFFFFFFFF AND EQ PUSH2 0x2643 JUMPI PUSH1 0x40 MLOAD PUSH32 0x8C379A000000000000000000000000000000000000000000000000000000000 DUP2 MSTORE PUSH1 0x4 ADD PUSH2 0x263A SWAP1 PUSH2 0x4168 JUMP JUMPDEST PUSH1 0x40 MLOAD DUP1 SWAP2 SUB SWAP1 REVERT JUMPDEST PUSH1 0x3 PUSH1 0x0 SWAP1 SLOAD SWAP1 PUSH2 0x100 EXP SWAP1 DIV PUSH20 0xFFFFFFFFFFFFFFFFFFFFFFFFFFFFFFFFFFFFFFFF AND PUSH20 0xFFFFFFFFFFFFFFFFFFFFFFFFFFFFFFFFFFFFFFFF AND CALLER PUSH20 0xFFFFFFFFFFFFFFFFFFFFFFFFFFFFFFFFFFFFFFFF AND EQ DUP1 PUSH2 0x26EC JUMPI POP PUSH1 0x4 PUSH1 0x0 SWAP1 SLOAD SWAP1 PUSH2 0x100 EXP SWAP1 DIV PUSH20 0xFFFFFFFFFFFFFFFFFFFFFFFFFFFFFFFFFFFFFFFF AND PUSH20 0xFFFFFFFFFFFFFFFFFFFFFFFFFFFFFFFFFFFFFFFF AND CALLER PUSH20 0xFFFFFFFFFFFFFFFFFFFFFFFFFFFFFFFFFFFFFFFF AND EQ JUMPDEST PUSH2 0x272B JUMPI PUSH1 0x40 MLOAD PUSH32 0x8C379A000000000000000000000000000000000000000000000000000000000 DUP2 MSTORE PUSH1 0x4 ADD PUSH2 0x2722 SWAP1 PUSH2 0x3F08 JUMP JUMPDEST PUSH1 0x40 MLOAD DUP1 SWAP2 SUB SWAP1 REVERT JUMPDEST PUSH1 0x3 DUP1 DUP2 GT ISZERO PUSH2 0x273E JUMPI PUSH2 0x273D PUSH2 0x44BA JUMP JUMPDEST JUMPDEST PUSH1 0x0 DUP1 SLOAD SWAP1 PUSH2 0x100 EXP SWAP1 DIV PUSH1 0xFF AND PUSH1 0x3 DUP2 GT ISZERO PUSH2 0x275E JUMPI PUSH2 0x275D PUSH2 0x44BA JUMP JUMPDEST JUMPDEST EQ DUP1 PUSH2 0x279B JUMPI POP PUSH1 0x1 PUSH1 0x3 DUP2 GT ISZERO PUSH2 0x2779 JUMPI PUSH2 0x2778 PUSH2 0x44BA JUMP JUMPDEST JUMPDEST PUSH1 0x0 DUP1 SLOAD SWAP1 PUSH2 0x100 EXP SWAP1 DIV PUSH1 0xFF AND PUSH1 0x3 DUP2 GT ISZERO PUSH2 0x2799 JUMPI PUSH2 0x2798 PUSH2 0x44BA JUMP JUMPDEST JUMPDEST EQ JUMPDEST PUSH2 0x27DA JUMPI PUSH1 0x40 MLOAD PUSH32 0x8C379A000000000000000000000000000000000000000000000000000000000 DUP2 MSTORE PUSH1 0x4 ADD PUSH2 0x27D1 SWAP1 PUSH2 0x3F08 JUMP JUMPDEST PUSH1 0x40 MLOAD DUP1 SWAP2 SUB SWAP1 REVERT JUMPDEST PUSH2 0x27E2 PUSH2 0x24B7 JUMP JUMPDEST ISZERO PUSH2 0x2822 JUMPI PUSH1 0x40 MLOAD PUSH32 0x8C379A000000000000000000000000000000000000000000000000000000000 DUP2 MSTORE PUSH1 0x4 ADD PUSH2 0x2819 SWAP1 PUSH2 0x3F48 JUMP JUMPDEST PUSH1 0x40 MLOAD DUP1 SWAP2 SUB SWAP1 REVERT JUMPDEST PUSH1 0x1 PUSH1 0x14 SWAP1 SLOAD SWAP1 PUSH2 0x100 EXP SWAP1 DIV PUSH1 0xFF AND ISZERO DUP1 ISZERO PUSH2 0x284C JUMPI POP PUSH1 0x1 PUSH1 0x15 SWAP1 SLOAD SWAP1 PUSH2 0x100 EXP SWAP1 DIV PUSH1 0xFF AND ISZERO JUMPDEST PUSH2 0x288B JUMPI PUSH1 0x40 MLOAD PUSH32 0x8C379A000000000000000000000000000000000000000000000000000000000 DUP2 MSTORE PUSH1 0x4 ADD PUSH2 0x2882 SWAP1 PUSH2 0x4068 JUMP JUMPDEST PUSH1 0x40 MLOAD DUP1 SWAP2 SUB SWAP1 REVERT JUMPDEST PUSH2 0x2895 PUSH1 0x3 PUSH2 0x2B4F JUMP JUMPDEST PUSH1 0x0 PUSH1 0x3 PUSH1 0x0 SWAP1 SLOAD SWAP1 PUSH2 0x100 EXP SWAP1 DIV PUSH20 0xFFFFFFFFFFFFFFFFFFFFFFFFFFFFFFFFFFFFFFFF AND PUSH20 0xFFFFFFFFFFFFFFFFFFFFFFFFFFFFFFFFFFFFFFFF AND CALLER PUSH20 0xFFFFFFFFFFFFFFFFFFFFFFFFFFFFFFFFFFFFFFFF AND EQ ISZERO PUSH2 0x2961 JUMPI PUSH1 0x1 PUSH1 0x16 SWAP1 SLOAD SWAP1 PUSH2 0x100 EXP SWAP1 DIV PUSH1 0xFF AND ISZERO PUSH2 0x293D JUMPI PUSH1 0x40 MLOAD PUSH32 0x8C379A000000000000000000000000000000000000000000000000000000000 DUP2 MSTORE PUSH1 0x4 ADD PUSH2 0x2934 SWAP1 PUSH2 0x3FE8 JUMP JUMPDEST PUSH1 0x40 MLOAD DUP1 SWAP2 SUB SWAP1 REVERT JUMPDEST PUSH1 0x1 DUP1 PUSH1 0x16 PUSH2 0x100 EXP DUP2 SLOAD DUP2 PUSH1 0xFF MUL NOT AND SWAP1 DUP4 ISZERO ISZERO MUL OR SWAP1 SSTORE POP PUSH1 0x5 SLOAD SWAP1 POP PUSH2 0x29D1 JUMP JUMPDEST PUSH1 0x1 PUSH1 0x17 SWAP1 SLOAD SWAP1 PUSH2 0x100 EXP SWAP1 DIV PUSH1 0xFF AND ISZERO PUSH2 0x29B1 JUMPI PUSH1 0x40 MLOAD PUSH32 0x8C379A000000000000000000000000000000000000000000000000000000000 DUP2 MSTORE PUSH1 0x4 ADD PUSH2 0x29A8 SWAP1 PUSH2 0x3FE8 JUMP JUMPDEST PUSH1 0x40 MLOAD DUP1 SWAP2 SUB SWAP1 REVERT JUMPDEST PUSH1 0x1 DUP1 PUSH1 0x17 PUSH2 0x100 EXP DUP2 SLOAD DUP2 PUSH1 0xFF MUL NOT AND SWAP1 DUP4 ISZERO ISZERO MUL OR SWAP1 SSTORE POP PUSH1 0x6 SLOAD SWAP1 POP JUMPDEST PUSH1 0x0 DUP2 GT PUSH2 0x2A14 JUMPI PUSH1 0x40 MLOAD PUSH32 0x8C379A000000000000000000000000000000000000000000000000000000000 DUP2 MSTORE PUSH1 0x4 ADD PUSH2 0x2A0B SWAP1 PUSH2 0x4048 JUMP JUMPDEST PUSH1 0x40 MLOAD DUP1 SWAP2 SUB SWAP1 REVERT JUMPDEST PUSH2 0x2A1C PUSH2 0x2F94 JUMP JUMPDEST PUSH1 0x0 PUSH1 0x1 SWAP1 SLOAD SWAP1 PUSH2 0x100 EXP SWAP1 DIV PUSH20 0xFFFFFFFFFFFFFFFFFFFFFFFFFFFFFFFFFFFFFFFF AND PUSH20 0xFFFFFFFFFFFFFFFFFFFFFFFFFFFFFFFFFFFFFFFF AND PUSH4 0x88FFE867 PUSH1 0x40 MLOAD DUP2 PUSH4 0xFFFFFFFF AND PUSH1 0xE0 SHL DUP2 MSTORE PUSH1 0x4 ADD PUSH1 0x20 PUSH1 0x40 MLOAD DUP1 DUP4 SUB DUP2 DUP7 DUP1 EXTCODESIZE ISZERO DUP1 ISZERO PUSH2 0x2A84 JUMPI PUSH1 0x0 DUP1 REVERT JUMPDEST POP GAS STATICCALL ISZERO DUP1 ISZERO PUSH2 0x2A98 JUMPI RETURNDATASIZE PUSH1 0x0 DUP1 RETURNDATACOPY RETURNDATASIZE PUSH1 0x0 REVERT JUMPDEST POP POP POP POP PUSH1 0x40 MLOAD RETURNDATASIZE PUSH1 0x1F NOT PUSH1 0x1F DUP3 ADD AND DUP3 ADD DUP1 PUSH1 0x40 MSTORE POP DUP2 ADD SWAP1 PUSH2 0x2ABC SWAP2 SWAP1 PUSH2 0x37C0 JUMP JUMPDEST PUSH20 0xFFFFFFFFFFFFFFFFFFFFFFFFFFFFFFFFFFFFFFFF AND PUSH4 0x9EEA8DAC DUP4 DUP4 CALLER PUSH1 0x40 MLOAD DUP5 PUSH4 0xFFFFFFFF AND PUSH1 0xE0 SHL DUP2 MSTORE PUSH1 0x4 ADD PUSH2 0x2AF8 SWAP4 SWAP3 SWAP2 SWAP1 PUSH2 0x3D12 JUMP JUMPDEST PUSH1 0x20 PUSH1 0x40 MLOAD DUP1 DUP4 SUB DUP2 PUSH1 0x0 DUP8 DUP1 EXTCODESIZE ISZERO DUP1 ISZERO PUSH2 0x2B12 JUMPI PUSH1 0x0 DUP1 REVERT JUMPDEST POP GAS CALL ISZERO DUP1 ISZERO PUSH2 0x2B26 JUMPI RETURNDATASIZE PUSH1 0x0 DUP1 RETURNDATACOPY RETURNDATASIZE PUSH1 0x0 REVERT JUMPDEST POP POP POP POP PUSH1 0x40 MLOAD RETURNDATASIZE PUSH1 0x1F NOT PUSH1 0x1F DUP3 ADD AND DUP3 ADD DUP1 PUSH1 0x40 MSTORE POP DUP2 ADD SWAP1 PUSH2 0x2B4A SWAP2 SWAP1 PUSH2 0x393A JUMP JUMPDEST POP POP POP JUMP JUMPDEST PUSH1 0x1 PUSH1 0x0 SWAP1 SLOAD SWAP1 PUSH2 0x100 EXP SWAP1 DIV PUSH20 0xFFFFFFFFFFFFFFFFFFFFFFFFFFFFFFFFFFFFFFFF AND PUSH20 0xFFFFFFFFFFFFFFFFFFFFFFFFFFFFFFFFFFFFFFFF AND PUSH4 0x5E4AFA80 CALLER DUP4 PUSH1 0x8 DUP2 GT ISZERO PUSH2 0x2BA1 JUMPI PUSH2 0x2BA0 PUSH2 0x44BA JUMP JUMPDEST JUMPDEST PUSH1 0x40 MLOAD DUP4 PUSH4 0xFFFFFFFF AND PUSH1 0xE0 SHL DUP2 MSTORE PUSH1 0x4 ADD PUSH2 0x2BBE SWAP3 SWAP2 SWAP1 PUSH2 0x3CE9 JUMP JUMPDEST PUSH1 0x0 PUSH1 0x40 MLOAD DUP1 DUP4 SUB DUP2 PUSH1 0x0 DUP8 DUP1 EXTCODESIZE ISZERO DUP1 ISZERO PUSH2 0x2BD8 JUMPI PUSH1 0x0 DUP1 REVERT JUMPDEST POP GAS CALL ISZERO DUP1 ISZERO PUSH2 0x2BEC JUMPI RETURNDATASIZE PUSH1 0x0 DUP1 RETURNDATACOPY RETURNDATASIZE PUSH1 0x0 REVERT JUMPDEST POP POP POP POP POP JUMP JUMPDEST PUSH1 0x3 PUSH1 0x0 SWAP1 SLOAD SWAP1 PUSH2 0x100 EXP SWAP1 DIV PUSH20 0xFFFFFFFFFFFFFFFFFFFFFFFFFFFFFFFFFFFFFFFF AND PUSH20 0xFFFFFFFFFFFFFFFFFFFFFFFFFFFFFFFFFFFFFFFF AND CALLER PUSH20 0xFFFFFFFFFFFFFFFFFFFFFFFFFFFFFFFFFFFFFFFF AND EQ ISZERO PUSH2 0x2D00 JUMPI PUSH1 0x1 PUSH1 0x16 SWAP1 SLOAD SWAP1 PUSH2 0x100 EXP SWAP1 DIV PUSH1 0xFF AND ISZERO DUP1 ISZERO PUSH2 0x2C73 JUMPI POP PUSH1 0x11 PUSH1 0x0 SWAP1 SLOAD SWAP1 PUSH2 0x100 EXP SWAP1 DIV PUSH1 0xFF AND ISZERO JUMPDEST PUSH2 0x2CB2 JUMPI PUSH1 0x40 MLOAD PUSH32 0x8C379A000000000000000000000000000000000000000000000000000000000 DUP2 MSTORE PUSH1 0x4 ADD PUSH2 0x2CA9 SWAP1 PUSH2 0x3F28 JUMP JUMPDEST PUSH1 0x40 MLOAD DUP1 SWAP2 SUB SWAP1 REVERT JUMPDEST PUSH1 0x1 PUSH1 0x11 PUSH1 0x0 PUSH2 0x100 EXP DUP2 SLOAD DUP2 PUSH1 0xFF MUL NOT AND SWAP1 DUP4 ISZERO ISZERO MUL OR SWAP1 SSTORE POP PUSH2 0x2CFB PUSH1 0x3 PUSH1 0x0 SWAP1 SLOAD SWAP1 PUSH2 0x100 EXP SWAP1 DIV PUSH20 0xFFFFFFFFFFFFFFFFFFFFFFFFFFFFFFFFFFFFFFFF AND PUSH1 0xF SLOAD PUSH2 0x2FC0 JUMP JUMPDEST PUSH2 0x2DB3 JUMP JUMPDEST PUSH1 0x1 PUSH1 0x17 SWAP1 SLOAD SWAP1 PUSH2 0x100 EXP SWAP1 DIV PUSH1 0xFF AND ISZERO DUP1 ISZERO PUSH2 0x2D2A JUMPI POP PUSH1 0x11 PUSH1 0x1 SWAP1 SLOAD SWAP1 PUSH2 0x100 EXP SWAP1 DIV PUSH1 0xFF AND ISZERO JUMPDEST PUSH2 0x2D69 JUMPI PUSH1 0x40 MLOAD PUSH32 0x8C379A000000000000000000000000000000000000000000000000000000000 DUP2 MSTORE PUSH1 0x4 ADD PUSH2 0x2D60 SWAP1 PUSH2 0x3F28 JUMP JUMPDEST PUSH1 0x40 MLOAD DUP1 SWAP2 SUB SWAP1 REVERT JUMPDEST PUSH1 0x1 PUSH1 0x11 PUSH1 0x1 PUSH2 0x100 EXP DUP2 SLOAD DUP2 PUSH1 0xFF MUL NOT AND SWAP1 DUP4 ISZERO ISZERO MUL OR SWAP1 SSTORE POP PUSH2 0x2DB2 PUSH1 0x4 PUSH1 0x0 SWAP1 SLOAD SWAP1 PUSH2 0x100 EXP SWAP1 DIV PUSH20 0xFFFFFFFFFFFFFFFFFFFFFFFFFFFFFFFFFFFFFFFF AND PUSH1 0x10 SLOAD PUSH2 0x2FC0 JUMP JUMPDEST JUMPDEST JUMP JUMPDEST PUSH1 0x2 PUSH1 0x0 DUP1 PUSH2 0x100 EXP DUP2 SLOAD DUP2 PUSH1 0xFF MUL NOT AND SWAP1 DUP4 PUSH1 0x3 DUP2 GT ISZERO PUSH2 0x2DDA JUMPI PUSH2 0x2DD9 PUSH2 0x44BA JUMP JUMPDEST JUMPDEST MUL OR SWAP1 SSTORE POP JUMP JUMPDEST PUSH1 0x1 PUSH1 0x0 DUP1 PUSH2 0x100 EXP DUP2 SLOAD DUP2 PUSH1 0xFF MUL NOT AND SWAP1 DUP4 PUSH1 0x3 DUP2 GT ISZERO PUSH2 0x2E06 JUMPI PUSH2 0x2E05 PUSH2 0x44BA JUMP JUMPDEST JUMPDEST MUL OR SWAP1 SSTORE POP JUMP JUMPDEST CALLER PUSH1 0xA PUSH1 0x0 PUSH2 0x100 EXP DUP2 SLOAD DUP2 PUSH20 0xFFFFFFFFFFFFFFFFFFFFFFFFFFFFFFFFFFFFFFFF MUL NOT AND SWAP1 DUP4 PUSH20 0xFFFFFFFFFFFFFFFFFFFFFFFFFFFFFFFFFFFFFFFF AND MUL OR SWAP1 SSTORE POP TIMESTAMP PUSH1 0xE DUP2 SWAP1 SSTORE POP PUSH2 0x2E5D PUSH2 0x338D JUMP JUMPDEST PUSH2 0x2E65 PUSH2 0x2DB5 JUMP JUMPDEST JUMP JUMPDEST PUSH1 0x0 DUP2 DUP4 PUSH2 0x2E75 SWAP2 SWAP1 PUSH2 0x42E1 JUMP JUMPDEST SWAP1 POP SWAP3 SWAP2 POP POP JUMP JUMPDEST PUSH1 0x0 DUP2 DUP4 PUSH2 0x2E8B SWAP2 SWAP1 PUSH2 0x425A JUMP JUMPDEST SWAP1 POP SWAP3 SWAP2 POP POP JUMP JUMPDEST PUSH1 0x0 DUP2 DUP4 PUSH2 0x2EA1 SWAP2 SWAP1 PUSH2 0x42B0 JUMP JUMPDEST SWAP1 POP SWAP3 SWAP2 POP POP JUMP JUMPDEST PUSH1 0x0 DUP2 DUP4 PUSH2 0x2EB7 SWAP2 SWAP1 PUSH2 0x433B JUMP JUMPDEST SWAP1 POP SWAP3 SWAP2 POP POP JUMP JUMPDEST PUSH1 0x0 DUP1 PUSH1 0x0 PUSH2 0x100 EXP DUP2 SLOAD DUP2 PUSH1 0xFF MUL NOT AND SWAP1 DUP4 PUSH1 0x3 DUP2 GT ISZERO PUSH2 0x2EE4 JUMPI PUSH2 0x2EE3 PUSH2 0x44BA JUMP JUMPDEST JUMPDEST MUL OR SWAP1 SSTORE POP JUMP JUMPDEST PUSH2 0x2F13 PUSH1 0x64 PUSH2 0x2F05 DUP4 PUSH1 0x5 SLOAD PUSH2 0x2E67 SWAP1 SWAP2 SWAP1 PUSH4 0xFFFFFFFF AND JUMP JUMPDEST PUSH2 0x2E93 SWAP1 SWAP2 SWAP1 PUSH4 0xFFFFFFFF AND JUMP JUMPDEST PUSH1 0xF DUP2 SWAP1 SSTORE POP PUSH1 0x1 PUSH1 0x3 DUP2 GT ISZERO PUSH2 0x2F2D JUMPI PUSH2 0x2F2C PUSH2 0x44BA JUMP JUMPDEST JUMPDEST PUSH1 0x0 DUP1 SLOAD SWAP1 PUSH2 0x100 EXP SWAP1 DIV PUSH1 0xFF AND PUSH1 0x3 DUP2 GT ISZERO PUSH2 0x2F4D JUMPI PUSH2 0x2F4C PUSH2 0x44BA JUMP JUMPDEST JUMPDEST EQ DUP1 ISZERO PUSH2 0x2F5D JUMPI POP PUSH1 0x0 PUSH1 0x6 SLOAD EQ ISZERO JUMPDEST ISZERO PUSH2 0x2F91 JUMPI PUSH2 0x2F8A PUSH1 0x64 PUSH2 0x2F7C DUP4 PUSH1 0x6 SLOAD PUSH2 0x2E67 SWAP1 SWAP2 SWAP1 PUSH4 0xFFFFFFFF AND JUMP JUMPDEST PUSH2 0x2E93 SWAP1 SWAP2 SWAP1 PUSH4 0xFFFFFFFF AND JUMP JUMPDEST PUSH1 0x10 DUP2 SWAP1 SSTORE POP JUMPDEST POP JUMP JUMPDEST PUSH1 0x3 PUSH1 0x0 DUP1 PUSH2 0x100 EXP DUP2 SLOAD DUP2 PUSH1 0xFF MUL NOT AND SWAP1 DUP4 PUSH1 0x3 DUP2 GT ISZERO PUSH2 0x2FB9 JUMPI PUSH2 0x2FB8 PUSH2 0x44BA JUMP JUMPDEST JUMPDEST MUL OR SWAP1 SSTORE POP JUMP JUMPDEST PUSH1 0x0 DUP1 PUSH1 0x0 DUP1 PUSH1 0x0 PUSH1 0x1 SWAP1 SLOAD SWAP1 PUSH2 0x100 EXP SWAP1 DIV PUSH20 0xFFFFFFFFFFFFFFFFFFFFFFFFFFFFFFFFFFFFFFFF AND PUSH20 0xFFFFFFFFFFFFFFFFFFFFFFFFFFFFFFFFFFFFFFFF AND PUSH4 0xBACB6BB7 PUSH1 0x40 MLOAD DUP2 PUSH4 0xFFFFFFFF AND PUSH1 0xE0 SHL DUP2 MSTORE PUSH1 0x4 ADD PUSH1 0xA0 PUSH1 0x40 MLOAD DUP1 DUP4 SUB DUP2 DUP7 DUP1 EXTCODESIZE ISZERO DUP1 ISZERO PUSH2 0x302E JUMPI PUSH1 0x0 DUP1 REVERT JUMPDEST POP GAS STATICCALL ISZERO DUP1 ISZERO PUSH2 0x3042 JUMPI RETURNDATASIZE PUSH1 0x0 DUP1 RETURNDATACOPY RETURNDATASIZE PUSH1 0x0 REVERT JUMPDEST POP POP POP POP PUSH1 0x40 MLOAD RETURNDATASIZE PUSH1 0x1F NOT PUSH1 0x1F DUP3 ADD AND DUP3 ADD DUP1 PUSH1 0x40 MSTORE POP DUP2 ADD SWAP1 PUSH2 0x3066 SWAP2 SWAP1 PUSH2 0x37ED JUMP JUMPDEST POP SWAP4 POP SWAP4 POP SWAP4 POP SWAP4 POP PUSH1 0x0 PUSH20 0xFFFFFFFFFFFFFFFFFFFFFFFFFFFFFFFFFFFFFFFF AND PUSH1 0x9 PUSH1 0x0 SWAP1 SLOAD SWAP1 PUSH2 0x100 EXP SWAP1 DIV PUSH20 0xFFFFFFFFFFFFFFFFFFFFFFFFFFFFFFFFFFFFFFFF AND PUSH20 0xFFFFFFFFFFFFFFFFFFFFFFFFFFFFFFFFFFFFFFFF AND EQ ISZERO PUSH2 0x317D JUMPI DUP2 PUSH20 0xFFFFFFFFFFFFFFFFFFFFFFFFFFFFFFFFFFFFFFFF AND PUSH4 0x2E1A7D4D DUP7 PUSH1 0x40 MLOAD DUP3 PUSH4 0xFFFFFFFF AND PUSH1 0xE0 SHL DUP2 MSTORE PUSH1 0x4 ADD PUSH2 0x30FF SWAP2 SWAP1 PUSH2 0x4188 JUMP JUMPDEST PUSH1 0x0 PUSH1 0x40 MLOAD DUP1 DUP4 SUB DUP2 PUSH1 0x0 DUP8 DUP1 EXTCODESIZE ISZERO DUP1 ISZERO PUSH2 0x3119 JUMPI PUSH1 0x0 DUP1 REVERT JUMPDEST POP GAS CALL ISZERO DUP1 ISZERO PUSH2 0x312D JUMPI RETURNDATASIZE PUSH1 0x0 DUP1 RETURNDATACOPY RETURNDATASIZE PUSH1 0x0 REVERT JUMPDEST POP POP POP POP DUP6 PUSH20 0xFFFFFFFFFFFFFFFFFFFFFFFFFFFFFFFFFFFFFFFF AND PUSH2 0x8FC DUP7 SWAP1 DUP2 ISZERO MUL SWAP1 PUSH1 0x40 MLOAD PUSH1 0x0 PUSH1 0x40 MLOAD DUP1 DUP4 SUB DUP2 DUP6 DUP9 DUP9 CALL SWAP4 POP POP POP POP ISZERO DUP1 ISZERO PUSH2 0x3177 JUMPI RETURNDATASIZE PUSH1 0x0 DUP1 RETURNDATACOPY RETURNDATASIZE PUSH1 0x0 REVERT JUMPDEST POP PUSH2 0x3385 JUMP JUMPDEST DUP4 PUSH20 0xFFFFFFFFFFFFFFFFFFFFFFFFFFFFFFFFFFFFFFFF AND PUSH1 0x9 PUSH1 0x0 SWAP1 SLOAD SWAP1 PUSH2 0x100 EXP SWAP1 DIV PUSH20 0xFFFFFFFFFFFFFFFFFFFFFFFFFFFFFFFFFFFFFFFF AND PUSH20 0xFFFFFFFFFFFFFFFFFFFFFFFFFFFFFFFFFFFFFFFF AND EQ ISZERO PUSH2 0x32D3 JUMPI DUP3 PUSH20 0xFFFFFFFFFFFFFFFFFFFFFFFFFFFFFFFFFFFFFFFF AND PUSH4 0x95EA7B3 DUP3 DUP8 PUSH1 0x40 MLOAD DUP4 PUSH4 0xFFFFFFFF AND PUSH1 0xE0 SHL DUP2 MSTORE PUSH1 0x4 ADD PUSH2 0x320E SWAP3 SWAP2 SWAP1 PUSH2 0x3CE9 JUMP JUMPDEST PUSH1 0x20 PUSH1 0x40 MLOAD DUP1 DUP4 SUB DUP2 PUSH1 0x0 DUP8 DUP1 EXTCODESIZE ISZERO DUP1 ISZERO PUSH2 0x3228 JUMPI PUSH1 0x0 DUP1 REVERT JUMPDEST POP GAS CALL ISZERO DUP1 ISZERO PUSH2 0x323C JUMPI RETURNDATASIZE PUSH1 0x0 DUP1 RETURNDATACOPY RETURNDATASIZE PUSH1 0x0 REVERT JUMPDEST POP POP POP POP PUSH1 0x40 MLOAD RETURNDATASIZE PUSH1 0x1F NOT PUSH1 0x1F DUP3 ADD AND DUP3 ADD DUP1 PUSH1 0x40 MSTORE POP DUP2 ADD SWAP1 PUSH2 0x3260 SWAP2 SWAP1 PUSH2 0x393A JUMP JUMPDEST POP DUP1 PUSH20 0xFFFFFFFFFFFFFFFFFFFFFFFFFFFFFFFFFFFFFFFF AND PUSH4 0xDB518DB2 DUP8 DUP8 PUSH1 0x40 MLOAD DUP4 PUSH4 0xFFFFFFFF AND PUSH1 0xE0 SHL DUP2 MSTORE PUSH1 0x4 ADD PUSH2 0x329C SWAP3 SWAP2 SWAP1 PUSH2 0x3CE9 JUMP JUMPDEST PUSH1 0x0 PUSH1 0x40 MLOAD DUP1 DUP4 SUB DUP2 PUSH1 0x0 DUP8 DUP1 EXTCODESIZE ISZERO DUP1 ISZERO PUSH2 0x32B6 JUMPI PUSH1 0x0 DUP1 REVERT JUMPDEST POP GAS CALL ISZERO DUP1 ISZERO PUSH2 0x32CA JUMPI RETURNDATASIZE PUSH1 0x0 DUP1 RETURNDATACOPY RETURNDATASIZE PUSH1 0x0 REVERT JUMPDEST POP POP POP POP PUSH2 0x3384 JUMP JUMPDEST PUSH1 0x9 PUSH1 0x0 SWAP1 SLOAD SWAP1 PUSH2 0x100 EXP SWAP1 DIV PUSH20 0xFFFFFFFFFFFFFFFFFFFFFFFFFFFFFFFFFFFFFFFF AND PUSH20 0xFFFFFFFFFFFFFFFFFFFFFFFFFFFFFFFFFFFFFFFF AND PUSH4 0xA9059CBB DUP8 DUP8 PUSH1 0x40 MLOAD DUP4 PUSH4 0xFFFFFFFF AND PUSH1 0xE0 SHL DUP2 MSTORE PUSH1 0x4 ADD PUSH2 0x3330 SWAP3 SWAP2 SWAP1 PUSH2 0x3CE9 JUMP JUMPDEST PUSH1 0x20 PUSH1 0x40 MLOAD DUP1 DUP4 SUB DUP2 PUSH1 0x0 DUP8 DUP1 EXTCODESIZE ISZERO DUP1 ISZERO PUSH2 0x334A JUMPI PUSH1 0x0 DUP1 REVERT JUMPDEST POP GAS CALL ISZERO DUP1 ISZERO PUSH2 0x335E JUMPI RETURNDATASIZE PUSH1 0x0 DUP1 RETURNDATACOPY RETURNDATASIZE PUSH1 0x0 REVERT JUMPDEST POP POP POP POP PUSH1 0x40 MLOAD RETURNDATASIZE PUSH1 0x1F NOT PUSH1 0x1F DUP3 ADD AND DUP3 ADD DUP1 PUSH1 0x40 MSTORE POP DUP2 ADD SWAP1 PUSH2 0x3382 SWAP2 SWAP1 PUSH2 0x393A JUMP JUMPDEST POP JUMPDEST JUMPDEST POP POP POP POP POP POP JUMP JUMPDEST PUSH1 0x0 PUSH1 0x3 DUP2 GT ISZERO PUSH2 0x33A1 JUMPI PUSH2 0x33A0 PUSH2 0x44BA JUMP JUMPDEST JUMPDEST PUSH1 0x0 DUP1 SLOAD SWAP1 PUSH2 0x100 EXP SWAP1 DIV PUSH1 0xFF AND PUSH1 0x3 DUP2 GT ISZERO PUSH2 0x33C1 JUMPI PUSH2 0x33C0 PUSH2 0x44BA JUMP JUMPDEST JUMPDEST EQ DUP1 PUSH2 0x33D1 JUMPI POP PUSH2 0x33D0 PUSH2 0x24B7 JUMP JUMPDEST JUMPDEST ISZERO PUSH2 0x33E5 JUMPI PUSH2 0x33E0 PUSH1 0x64 PUSH2 0x2EEB JUMP JUMPDEST PUSH2 0x358C JUMP JUMPDEST PUSH1 0x0 PUSH2 0x3413 PUSH3 0x15180 PUSH2 0x3405 PUSH1 0xC SLOAD PUSH1 0xE SLOAD PUSH2 0x2EA9 SWAP1 SWAP2 SWAP1 PUSH4 0xFFFFFFFF AND JUMP JUMPDEST PUSH2 0x2E93 SWAP1 SWAP2 SWAP1 PUSH4 0xFFFFFFFF AND JUMP JUMPDEST SWAP1 POP PUSH1 0x0 PUSH2 0x3454 PUSH1 0xB SLOAD PUSH2 0x3446 PUSH2 0x2710 PUSH2 0x3438 DUP7 PUSH1 0xB SLOAD PUSH2 0x2EA9 SWAP1 SWAP2 SWAP1 PUSH4 0xFFFFFFFF AND JUMP JUMPDEST PUSH2 0x2E67 SWAP1 SWAP2 SWAP1 PUSH4 0xFFFFFFFF AND JUMP JUMPDEST PUSH2 0x2E93 SWAP1 SWAP2 SWAP1 PUSH4 0xFFFFFFFF AND JUMP JUMPDEST SWAP1 POP PUSH1 0x64 DUP2 GT PUSH2 0x346D JUMPI PUSH2 0x3468 PUSH1 0x63 PUSH2 0x2EEB JUMP JUMPDEST PUSH2 0x34B0 JUMP JUMPDEST PUSH2 0x5DC DUP2 LT PUSH2 0x3485 JUMPI PUSH2 0x3480 PUSH1 0x55 PUSH2 0x2EEB JUMP JUMPDEST PUSH2 0x34AF JUMP JUMPDEST PUSH2 0x34AE PUSH2 0x34A9 PUSH1 0x64 DUP4 PUSH2 0x2710 PUSH2 0x349B SWAP2 SWAP1 PUSH2 0x433B JUMP JUMPDEST PUSH2 0x2E93 SWAP1 SWAP2 SWAP1 PUSH4 0xFFFFFFFF AND JUMP JUMPDEST PUSH2 0x2EEB JUMP JUMPDEST JUMPDEST JUMPDEST PUSH1 0x0 PUSH2 0x34DD PUSH2 0x34CC PUSH1 0x10 SLOAD PUSH1 0xF SLOAD PUSH2 0x2E7D SWAP1 SWAP2 SWAP1 PUSH4 0xFFFFFFFF AND JUMP JUMPDEST PUSH1 0x8 SLOAD PUSH2 0x2EA9 SWAP1 SWAP2 SWAP1 PUSH4 0xFFFFFFFF AND JUMP JUMPDEST SWAP1 POP PUSH2 0x3588 PUSH1 0x0 PUSH1 0x1 SWAP1 SLOAD SWAP1 PUSH2 0x100 EXP SWAP1 DIV PUSH20 0xFFFFFFFFFFFFFFFFFFFFFFFFFFFFFFFFFFFFFFFF AND PUSH20 0xFFFFFFFFFFFFFFFFFFFFFFFFFFFFFFFFFFFFFFFF AND PUSH4 0x913E77AD PUSH1 0x40 MLOAD DUP2 PUSH4 0xFFFFFFFF AND PUSH1 0xE0 SHL DUP2 MSTORE PUSH1 0x4 ADD PUSH1 0x20 PUSH1 0x40 MLOAD DUP1 DUP4 SUB DUP2 DUP7 DUP1 EXTCODESIZE ISZERO DUP1 ISZERO PUSH2 0x354A JUMPI PUSH1 0x0 DUP1 REVERT JUMPDEST POP GAS STATICCALL ISZERO DUP1 ISZERO PUSH2 0x355E JUMPI RETURNDATASIZE PUSH1 0x0 DUP1 RETURNDATACOPY RETURNDATASIZE PUSH1 0x0 REVERT JUMPDEST POP POP POP POP PUSH1 0x40 MLOAD RETURNDATASIZE PUSH1 0x1F NOT PUSH1 0x1F DUP3 ADD AND DUP3 ADD DUP1 PUSH1 0x40 MSTORE POP DUP2 ADD SWAP1 PUSH2 0x3582 SWAP2 SWAP1 PUSH2 0x37C0 JUMP JUMPDEST DUP3 PUSH2 0x2FC0 JUMP JUMPDEST POP POP POP JUMPDEST PUSH1 0x1 PUSH1 0x11 PUSH1 0x0 PUSH2 0x100 EXP DUP2 SLOAD DUP2 PUSH1 0xFF MUL NOT AND SWAP1 DUP4 ISZERO ISZERO MUL OR SWAP1 SSTORE POP PUSH1 0x1 PUSH1 0x11 PUSH1 0x1 PUSH2 0x100 EXP DUP2 SLOAD DUP2 PUSH1 0xFF MUL NOT AND SWAP1 DUP4 ISZERO ISZERO MUL OR SWAP1 SSTORE POP PUSH2 0x35F0 PUSH1 0x3 PUSH1 0x0 SWAP1 SLOAD SWAP1 PUSH2 0x100 EXP SWAP1 DIV PUSH20 0xFFFFFFFFFFFFFFFFFFFFFFFFFFFFFFFFFFFFFFFF AND PUSH1 0xF SLOAD PUSH2 0x2FC0 JUMP JUMPDEST PUSH1 0x0 PUSH1 0x10 SLOAD GT ISZERO PUSH2 0x362A JUMPI PUSH2 0x3629 PUSH1 0x4 PUSH1 0x0 SWAP1 SLOAD SWAP1 PUSH2 0x100 EXP SWAP1 DIV PUSH20 0xFFFFFFFFFFFFFFFFFFFFFFFFFFFFFFFFFFFFFFFF AND PUSH1 0x10 SLOAD PUSH2 0x2FC0 JUMP JUMPDEST JUMPDEST JUMP JUMPDEST DUP3 DUP1 SLOAD PUSH2 0x3638 SWAP1 PUSH2 0x43F9 JUMP JUMPDEST SWAP1 PUSH1 0x0 MSTORE PUSH1 0x20 PUSH1 0x0 KECCAK256 SWAP1 PUSH1 0x1F ADD PUSH1 0x20 SWAP1 DIV DUP2 ADD SWAP3 DUP3 PUSH2 0x365A JUMPI PUSH1 0x0 DUP6 SSTORE PUSH2 0x36A1 JUMP JUMPDEST DUP3 PUSH1 0x1F LT PUSH2 0x3673 JUMPI DUP1 MLOAD PUSH1 0xFF NOT AND DUP4 DUP1 ADD OR DUP6 SSTORE PUSH2 0x36A1 JUMP JUMPDEST DUP3 DUP1 ADD PUSH1 0x1 ADD DUP6 SSTORE DUP3 ISZERO PUSH2 0x36A1 JUMPI SWAP2 DUP3 ADD JUMPDEST DUP3 DUP2 GT ISZERO PUSH2 0x36A0 JUMPI DUP3 MLOAD DUP3 SSTORE SWAP2 PUSH1 0x20 ADD SWAP2 SWAP1 PUSH1 0x1 ADD SWAP1 PUSH2 0x3685 JUMP JUMPDEST JUMPDEST POP SWAP1 POP PUSH2 0x36AE SWAP2 SWAP1 PUSH2 0x36B2 JUMP JUMPDEST POP SWAP1 JUMP JUMPDEST JUMPDEST DUP1 DUP3 GT ISZERO PUSH2 0x36CB JUMPI PUSH1 0x0 DUP2 PUSH1 0x0 SWAP1 SSTORE POP PUSH1 0x1 ADD PUSH2 0x36B3 JUMP JUMPDEST POP SWAP1 JUMP JUMPDEST PUSH1 0x0 PUSH2 0x36E2 PUSH2 0x36DD DUP5 PUSH2 0x420D JUMP JUMPDEST PUSH2 0x41E8 JUMP JUMPDEST SWAP1 POP DUP3 DUP2 MSTORE PUSH1 0x20 DUP2 ADD DUP5 DUP5 DUP5 ADD GT ISZERO PUSH2 0x36FE JUMPI PUSH2 0x36FD PUSH2 0x454C JUMP JUMPDEST JUMPDEST PUSH2 0x3709 DUP5 DUP3 DUP6 PUSH2 0x43B7 JUMP JUMPDEST POP SWAP4 SWAP3 POP POP POP JUMP JUMPDEST PUSH1 0x0 DUP2 CALLDATALOAD SWAP1 POP PUSH2 0x3720 DUP2 PUSH2 0x48C6 JUMP JUMPDEST SWAP3 SWAP2 POP POP JUMP JUMPDEST PUSH1 0x0 DUP2 MLOAD SWAP1 POP PUSH2 0x3735 DUP2 PUSH2 0x48C6 JUMP JUMPDEST SWAP3 SWAP2 POP POP JUMP JUMPDEST PUSH1 0x0 DUP2 MLOAD SWAP1 POP PUSH2 0x374A DUP2 PUSH2 0x48DD JUMP JUMPDEST SWAP3 SWAP2 POP POP JUMP JUMPDEST PUSH1 0x0 DUP3 PUSH1 0x1F DUP4 ADD SLT PUSH2 0x3765 JUMPI PUSH2 0x3764 PUSH2 0x4547 JUMP JUMPDEST JUMPDEST DUP2 CALLDATALOAD PUSH2 0x3775 DUP5 DUP3 PUSH1 0x20 DUP7 ADD PUSH2 0x36CF JUMP JUMPDEST SWAP2 POP POP SWAP3 SWAP2 POP POP JUMP JUMPDEST PUSH1 0x0 DUP2 CALLDATALOAD SWAP1 POP PUSH2 0x378D DUP2 PUSH2 0x48F4 JUMP JUMPDEST SWAP3 SWAP2 POP POP JUMP JUMPDEST PUSH1 0x0 PUSH1 0x20 DUP3 DUP5 SUB SLT ISZERO PUSH2 0x37A9 JUMPI PUSH2 0x37A8 PUSH2 0x4556 JUMP JUMPDEST JUMPDEST PUSH1 0x0 PUSH2 0x37B7 DUP5 DUP3 DUP6 ADD PUSH2 0x3711 JUMP JUMPDEST SWAP2 POP POP SWAP3 SWAP2 POP POP JUMP JUMPDEST PUSH1 0x0 PUSH1 0x20 DUP3 DUP5 SUB SLT ISZERO PUSH2 0x37D6 JUMPI PUSH2 0x37D5 PUSH2 0x4556 JUMP JUMPDEST JUMPDEST PUSH1 0x0 PUSH2 0x37E4 DUP5 DUP3 DUP6 ADD PUSH2 0x3726 JUMP JUMPDEST SWAP2 POP POP SWAP3 SWAP2 POP POP JUMP JUMPDEST PUSH1 0x0 DUP1 PUSH1 0x0 DUP1 PUSH1 0x0 PUSH1 0xA0 DUP7 DUP9 SUB SLT ISZERO PUSH2 0x3809 JUMPI PUSH2 0x3808 PUSH2 0x4556 JUMP JUMPDEST JUMPDEST PUSH1 0x0 PUSH2 0x3817 DUP9 DUP3 DUP10 ADD PUSH2 0x3726 JUMP JUMPDEST SWAP6 POP POP PUSH1 0x20 PUSH2 0x3828 DUP9 DUP3 DUP10 ADD PUSH2 0x3726 JUMP JUMPDEST SWAP5 POP POP PUSH1 0x40 PUSH2 0x3839 DUP9 DUP3 DUP10 ADD PUSH2 0x3726 JUMP JUMPDEST SWAP4 POP POP PUSH1 0x60 PUSH2 0x384A DUP9 DUP3 DUP10 ADD PUSH2 0x3726 JUMP JUMPDEST SWAP3 POP POP PUSH1 0x80 PUSH2 0x385B DUP9 DUP3 DUP10 ADD PUSH2 0x3726 JUMP JUMPDEST SWAP2 POP POP SWAP3 SWAP6 POP SWAP3 SWAP6 SWAP1 SWAP4 POP JUMP JUMPDEST PUSH1 0x0 DUP1 PUSH1 0x0 DUP1 PUSH1 0x0 DUP1 PUSH1 0x0 DUP1 PUSH2 0x100 DUP10 DUP12 SUB SLT ISZERO PUSH2 0x3889 JUMPI PUSH2 0x3888 PUSH2 0x4556 JUMP JUMPDEST JUMPDEST PUSH1 0x0 PUSH2 0x3897 DUP12 DUP3 DUP13 ADD PUSH2 0x3711 JUMP JUMPDEST SWAP9 POP POP PUSH1 0x20 PUSH2 0x38A8 DUP12 DUP3 DUP13 ADD PUSH2 0x3711 JUMP JUMPDEST SWAP8 POP POP PUSH1 0x40 PUSH2 0x38B9 DUP12 DUP3 DUP13 ADD PUSH2 0x3711 JUMP JUMPDEST SWAP7 POP POP PUSH1 0x60 PUSH2 0x38CA DUP12 DUP3 DUP13 ADD PUSH2 0x3711 JUMP JUMPDEST SWAP6 POP POP PUSH1 0x80 DUP10 ADD CALLDATALOAD PUSH8 0xFFFFFFFFFFFFFFFF DUP2 GT ISZERO PUSH2 0x38EB JUMPI PUSH2 0x38EA PUSH2 0x4551 JUMP JUMPDEST JUMPDEST PUSH2 0x38F7 DUP12 DUP3 DUP13 ADD PUSH2 0x3750 JUMP JUMPDEST SWAP5 POP POP PUSH1 0xA0 PUSH2 0x3908 DUP12 DUP3 DUP13 ADD PUSH2 0x377E JUMP JUMPDEST SWAP4 POP POP PUSH1 0xC0 PUSH2 0x3919 DUP12 DUP3 DUP13 ADD PUSH2 0x377E JUMP JUMPDEST SWAP3 POP POP PUSH1 0xE0 PUSH2 0x392A DUP12 DUP3 DUP13 ADD PUSH2 0x377E JUMP JUMPDEST SWAP2 POP POP SWAP3 SWAP6 SWAP9 POP SWAP3 SWAP6 SWAP9 SWAP1 SWAP4 SWAP7 POP JUMP JUMPDEST PUSH1 0x0 PUSH1 0x20 DUP3 DUP5 SUB SLT ISZERO PUSH2 0x3950 JUMPI PUSH2 0x394F PUSH2 0x4556 JUMP JUMPDEST JUMPDEST PUSH1 0x0 PUSH2 0x395E DUP5 DUP3 DUP6 ADD PUSH2 0x373B JUMP JUMPDEST SWAP2 POP POP SWAP3 SWAP2 POP POP JUMP JUMPDEST PUSH2 0x3970 DUP2 PUSH2 0x436F JUMP JUMPDEST DUP3 MSTORE POP POP JUMP JUMPDEST PUSH2 0x397F DUP2 PUSH2 0x4381 JUMP JUMPDEST DUP3 MSTORE POP POP JUMP JUMPDEST PUSH1 0x0 PUSH2 0x3990 DUP3 PUSH2 0x423E JUMP JUMPDEST PUSH2 0x399A DUP2 DUP6 PUSH2 0x4249 JUMP JUMPDEST SWAP4 POP PUSH2 0x39AA DUP2 DUP6 PUSH1 0x20 DUP7 ADD PUSH2 0x43C6 JUMP JUMPDEST PUSH2 0x39B3 DUP2 PUSH2 0x455B JUMP JUMPDEST DUP5 ADD SWAP2 POP POP SWAP3 SWAP2 POP POP JUMP JUMPDEST PUSH1 0x0 PUSH2 0x39CB PUSH1 0x13 DUP4 PUSH2 0x4249 JUMP JUMPDEST SWAP2 POP PUSH2 0x39D6 DUP3 PUSH2 0x456C JUMP JUMPDEST PUSH1 0x20 DUP3 ADD SWAP1 POP SWAP2 SWAP1 POP JUMP JUMPDEST PUSH1 0x0 PUSH2 0x39EE PUSH1 0x14 DUP4 PUSH2 0x4249 JUMP JUMPDEST SWAP2 POP PUSH2 0x39F9 DUP3 PUSH2 0x4595 JUMP JUMPDEST PUSH1 0x20 DUP3 ADD SWAP1 POP SWAP2 SWAP1 POP JUMP JUMPDEST PUSH1 0x0 PUSH2 0x3A11 PUSH1 0x11 DUP4 PUSH2 0x4249 JUMP JUMPDEST SWAP2 POP PUSH2 0x3A1C DUP3 PUSH2 0x45BE JUMP JUMPDEST PUSH1 0x20 DUP3 ADD SWAP1 POP SWAP2 SWAP1 POP JUMP JUMPDEST PUSH1 0x0 PUSH2 0x3A34 PUSH1 0x13 DUP4 PUSH2 0x4249 JUMP JUMPDEST SWAP2 POP PUSH2 0x3A3F DUP3 PUSH2 0x45E7 JUMP JUMPDEST PUSH1 0x20 DUP3 ADD SWAP1 POP SWAP2 SWAP1 POP JUMP JUMPDEST PUSH1 0x0 PUSH2 0x3A57 PUSH1 0x16 DUP4 PUSH2 0x4249 JUMP JUMPDEST SWAP2 POP PUSH2 0x3A62 DUP3 PUSH2 0x4610 JUMP JUMPDEST PUSH1 0x20 DUP3 ADD SWAP1 POP SWAP2 SWAP1 POP JUMP JUMPDEST PUSH1 0x0 PUSH2 0x3A7A PUSH1 0x14 DUP4 PUSH2 0x4249 JUMP JUMPDEST SWAP2 POP PUSH2 0x3A85 DUP3 PUSH2 0x4639 JUMP JUMPDEST PUSH1 0x20 DUP3 ADD SWAP1 POP SWAP2 SWAP1 POP JUMP JUMPDEST PUSH1 0x0 PUSH2 0x3A9D PUSH1 0x10 DUP4 PUSH2 0x4249 JUMP JUMPDEST SWAP2 POP PUSH2 0x3AA8 DUP3 PUSH2 0x4662 JUMP JUMPDEST PUSH1 0x20 DUP3 ADD SWAP1 POP SWAP2 SWAP1 POP JUMP JUMPDEST PUSH1 0x0 PUSH2 0x3AC0 PUSH1 0xE DUP4 PUSH2 0x4249 JUMP JUMPDEST SWAP2 POP PUSH2 0x3ACB DUP3 PUSH2 0x468B JUMP JUMPDEST PUSH1 0x20 DUP3 ADD SWAP1 POP SWAP2 SWAP1 POP JUMP JUMPDEST PUSH1 0x0 PUSH2 0x3AE3 PUSH1 0x19 DUP4 PUSH2 0x4249 JUMP JUMPDEST SWAP2 POP PUSH2 0x3AEE DUP3 PUSH2 0x46B4 JUMP JUMPDEST PUSH1 0x20 DUP3 ADD SWAP1 POP SWAP2 SWAP1 POP JUMP JUMPDEST PUSH1 0x0 PUSH2 0x3B06 PUSH1 0x10 DUP4 PUSH2 0x4249 JUMP JUMPDEST SWAP2 POP PUSH2 0x3B11 DUP3 PUSH2 0x46DD JUMP JUMPDEST PUSH1 0x20 DUP3 ADD SWAP1 POP SWAP2 SWAP1 POP JUMP JUMPDEST PUSH1 0x0 PUSH2 0x3B29 PUSH1 0xE DUP4 PUSH2 0x4249 JUMP JUMPDEST SWAP2 POP PUSH2 0x3B34 DUP3 PUSH2 0x4706 JUMP JUMPDEST PUSH1 0x20 DUP3 ADD SWAP1 POP SWAP2 SWAP1 POP JUMP JUMPDEST PUSH1 0x0 PUSH2 0x3B4C PUSH1 0x2D DUP4 PUSH2 0x4249 JUMP JUMPDEST SWAP2 POP PUSH2 0x3B57 DUP3 PUSH2 0x472F JUMP JUMPDEST PUSH1 0x40 DUP3 ADD SWAP1 POP SWAP2 SWAP1 POP JUMP JUMPDEST PUSH1 0x0 PUSH2 0x3B6F PUSH1 0x10 DUP4 PUSH2 0x4249 JUMP JUMPDEST SWAP2 POP PUSH2 0x3B7A DUP3 PUSH2 0x477E JUMP JUMPDEST PUSH1 0x20 DUP3 ADD SWAP1 POP SWAP2 SWAP1 POP JUMP JUMPDEST PUSH1 0x0 PUSH2 0x3B92 PUSH1 0x11 DUP4 PUSH2 0x4249 JUMP JUMPDEST SWAP2 POP PUSH2 0x3B9D DUP3 PUSH2 0x47A7 JUMP JUMPDEST PUSH1 0x20 DUP3 ADD SWAP1 POP SWAP2 SWAP1 POP JUMP JUMPDEST PUSH1 0x0 PUSH2 0x3BB5 PUSH1 0x16 DUP4 PUSH2 0x4249 JUMP JUMPDEST SWAP2 POP PUSH2 0x3BC0 DUP3 PUSH2 0x47D0 JUMP JUMPDEST PUSH1 0x20 DUP3 ADD SWAP1 POP SWAP2 SWAP1 POP JUMP JUMPDEST PUSH1 0x0 PUSH2 0x3BD8 PUSH1 0xB DUP4 PUSH2 0x4249 JUMP JUMPDEST SWAP2 POP PUSH2 0x3BE3 DUP3 PUSH2 0x47F9 JUMP JUMPDEST PUSH1 0x20 DUP3 ADD SWAP1 POP SWAP2 SWAP1 POP JUMP JUMPDEST PUSH1 0x0 PUSH2 0x3BFB PUSH1 0x18 DUP4 PUSH2 0x4249 JUMP JUMPDEST SWAP2 POP PUSH2 0x3C06 DUP3 PUSH2 0x4822 JUMP JUMPDEST PUSH1 0x20 DUP3 ADD SWAP1 POP SWAP2 SWAP1 POP JUMP JUMPDEST PUSH1 0x0 PUSH2 0x3C1E PUSH1 0x11 DUP4 PUSH2 0x4249 JUMP JUMPDEST SWAP2 POP PUSH2 0x3C29 DUP3 PUSH2 0x484B JUMP JUMPDEST PUSH1 0x20 DUP3 ADD SWAP1 POP SWAP2 SWAP1 POP JUMP JUMPDEST PUSH1 0x0 PUSH2 0x3C41 PUSH1 0x12 DUP4 PUSH2 0x4249 JUMP JUMPDEST SWAP2 POP PUSH2 0x3C4C DUP3 PUSH2 0x4874 JUMP JUMPDEST PUSH1 0x20 DUP3 ADD SWAP1 POP SWAP2 SWAP1 POP JUMP JUMPDEST PUSH1 0x0 PUSH2 0x3C64 PUSH1 0xF DUP4 PUSH2 0x4249 JUMP JUMPDEST SWAP2 POP PUSH2 0x3C6F DUP3 PUSH2 0x489D JUMP JUMPDEST PUSH1 0x20 DUP3 ADD SWAP1 POP SWAP2 SWAP1 POP JUMP JUMPDEST PUSH2 0x3C83 DUP2 PUSH2 0x43AD JUMP JUMPDEST DUP3 MSTORE POP POP JUMP JUMPDEST PUSH1 0x0 PUSH1 0x20 DUP3 ADD SWAP1 POP PUSH2 0x3C9E PUSH1 0x0 DUP4 ADD DUP5 PUSH2 0x3967 JUMP JUMPDEST SWAP3 SWAP2 POP POP JUMP JUMPDEST PUSH1 0x0 PUSH1 0x80 DUP3 ADD SWAP1 POP PUSH2 0x3CB9 PUSH1 0x0 DUP4 ADD DUP8 PUSH2 0x3967 JUMP JUMPDEST PUSH2 0x3CC6 PUSH1 0x20 DUP4 ADD DUP7 PUSH2 0x3967 JUMP JUMPDEST PUSH2 0x3CD3 PUSH1 0x40 DUP4 ADD DUP6 PUSH2 0x3967 JUMP JUMPDEST PUSH2 0x3CE0 PUSH1 0x60 DUP4 ADD DUP5 PUSH2 0x3C7A JUMP JUMPDEST SWAP6 SWAP5 POP POP POP POP POP JUMP JUMPDEST PUSH1 0x0 PUSH1 0x40 DUP3 ADD SWAP1 POP PUSH2 0x3CFE PUSH1 0x0 DUP4 ADD DUP6 PUSH2 0x3967 JUMP JUMPDEST PUSH2 0x3D0B PUSH1 0x20 DUP4 ADD DUP5 PUSH2 0x3C7A JUMP JUMPDEST SWAP4 SWAP3 POP POP POP JUMP JUMPDEST PUSH1 0x0 PUSH1 0x60 DUP3 ADD SWAP1 POP PUSH2 0x3D27 PUSH1 0x0 DUP4 ADD DUP7 PUSH2 0x3967 JUMP JUMPDEST PUSH2 0x3D34 PUSH1 0x20 DUP4 ADD DUP6 PUSH2 0x3C7A JUMP JUMPDEST PUSH2 0x3D41 PUSH1 0x40 DUP4 ADD DUP5 PUSH2 0x3967 JUMP JUMPDEST SWAP5 SWAP4 POP POP POP POP JUMP JUMPDEST PUSH1 0x0 PUSH1 0x60 DUP3 ADD SWAP1 POP PUSH2 0x3D5E PUSH1 0x0 DUP4 ADD DUP7 PUSH2 0x3967 JUMP JUMPDEST PUSH2 0x3D6B PUSH1 0x20 DUP4 ADD DUP6 PUSH2 0x3C7A JUMP JUMPDEST PUSH2 0x3D78 PUSH1 0x40 DUP4 ADD DUP5 PUSH2 0x3C7A JUMP JUMPDEST SWAP5 SWAP4 POP POP POP POP JUMP JUMPDEST PUSH1 0x0 PUSH1 0xC0 DUP3 ADD SWAP1 POP PUSH2 0x3D95 PUSH1 0x0 DUP4 ADD DUP10 PUSH2 0x3967 JUMP JUMPDEST PUSH2 0x3DA2 PUSH1 0x20 DUP4 ADD DUP9 PUSH2 0x3C7A JUMP JUMPDEST PUSH2 0x3DAF PUSH1 0x40 DUP4 ADD DUP8 PUSH2 0x3C7A JUMP JUMPDEST PUSH2 0x3DBC PUSH1 0x60 DUP4 ADD DUP7 PUSH2 0x3C7A JUMP JUMPDEST PUSH2 0x3DC9 PUSH1 0x80 DUP4 ADD DUP6 PUSH2 0x3976 JUMP JUMPDEST PUSH2 0x3DD6 PUSH1 0xA0 DUP4 ADD DUP5 PUSH2 0x3976 JUMP JUMPDEST SWAP8 SWAP7 POP POP POP POP POP POP POP JUMP JUMPDEST PUSH1 0x0 PUSH1 0x20 DUP3 ADD SWAP1 POP PUSH2 0x3DF6 PUSH1 0x0 DUP4 ADD DUP5 PUSH2 0x3976 JUMP JUMPDEST SWAP3 SWAP2 POP POP JUMP JUMPDEST PUSH1 0x0 PUSH1 0x40 DUP3 ADD SWAP1 POP PUSH2 0x3E11 PUSH1 0x0 DUP4 ADD DUP6 PUSH2 0x3976 JUMP JUMPDEST PUSH2 0x3E1E PUSH1 0x20 DUP4 ADD DUP5 PUSH2 0x3976 JUMP JUMPDEST SWAP4 SWAP3 POP POP POP JUMP JUMPDEST PUSH1 0x0 PUSH1 0x20 DUP3 ADD SWAP1 POP DUP2 DUP2 SUB PUSH1 0x0 DUP4 ADD MSTORE PUSH2 0x3E3F DUP2 DUP5 PUSH2 0x3985 JUMP JUMPDEST SWAP1 POP SWAP3 SWAP2 POP POP JUMP JUMPDEST PUSH1 0x0 PUSH2 0x180 DUP3 ADD SWAP1 POP DUP2 DUP2 SUB PUSH1 0x0 DUP4 ADD MSTORE PUSH2 0x3E62 DUP2 DUP16 PUSH2 0x3985 JUMP JUMPDEST SWAP1 POP PUSH2 0x3E71 PUSH1 0x20 DUP4 ADD DUP15 PUSH2 0x3967 JUMP JUMPDEST PUSH2 0x3E7E PUSH1 0x40 DUP4 ADD DUP14 PUSH2 0x3967 JUMP JUMPDEST PUSH2 0x3E8B PUSH1 0x60 DUP4 ADD DUP13 PUSH2 0x3967 JUMP JUMPDEST PUSH2 0x3E98 PUSH1 0x80 DUP4 ADD DUP12 PUSH2 0x3C7A JUMP JUMPDEST PUSH2 0x3EA5 PUSH1 0xA0 DUP4 ADD DUP11 PUSH2 0x3C7A JUMP JUMPDEST PUSH2 0x3EB2 PUSH1 0xC0 DUP4 ADD DUP10 PUSH2 0x3C7A JUMP JUMPDEST PUSH2 0x3EBF PUSH1 0xE0 DUP4 ADD DUP9 PUSH2 0x3C7A JUMP JUMPDEST PUSH2 0x3ECD PUSH2 0x100 DUP4 ADD DUP8 PUSH2 0x3C7A JUMP JUMPDEST PUSH2 0x3EDB PUSH2 0x120 DUP4 ADD DUP7 PUSH2 0x3C7A JUMP JUMPDEST PUSH2 0x3EE9 PUSH2 0x140 DUP4 ADD DUP6 PUSH2 0x3C7A JUMP JUMPDEST PUSH2 0x3EF7 PUSH2 0x160 DUP4 ADD DUP5 PUSH2 0x3976 JUMP JUMPDEST SWAP14 SWAP13 POP POP POP POP POP POP POP POP POP POP POP POP POP JUMP JUMPDEST PUSH1 0x0 PUSH1 0x20 DUP3 ADD SWAP1 POP DUP2 DUP2 SUB PUSH1 0x0 DUP4 ADD MSTORE PUSH2 0x3F21 DUP2 PUSH2 0x39BE JUMP JUMPDEST SWAP1 POP SWAP2 SWAP1 POP JUMP JUMPDEST PUSH1 0x0 PUSH1 0x20 DUP3 ADD SWAP1 POP DUP2 DUP2 SUB PUSH1 0x0 DUP4 ADD MSTORE PUSH2 0x3F41 DUP2 PUSH2 0x39E1 JUMP JUMPDEST SWAP1 POP SWAP2 SWAP1 POP JUMP JUMPDEST PUSH1 0x0 PUSH1 0x20 DUP3 ADD SWAP1 POP DUP2 DUP2 SUB PUSH1 0x0 DUP4 ADD MSTORE PUSH2 0x3F61 DUP2 PUSH2 0x3A04 JUMP JUMPDEST SWAP1 POP SWAP2 SWAP1 POP JUMP JUMPDEST PUSH1 0x0 PUSH1 0x20 DUP3 ADD SWAP1 POP DUP2 DUP2 SUB PUSH1 0x0 DUP4 ADD MSTORE PUSH2 0x3F81 DUP2 PUSH2 0x3A27 JUMP JUMPDEST SWAP1 POP SWAP2 SWAP1 POP JUMP JUMPDEST PUSH1 0x0 PUSH1 0x20 DUP3 ADD SWAP1 POP DUP2 DUP2 SUB PUSH1 0x0 DUP4 ADD MSTORE PUSH2 0x3FA1 DUP2 PUSH2 0x3A4A JUMP JUMPDEST SWAP1 POP SWAP2 SWAP1 POP JUMP JUMPDEST PUSH1 0x0 PUSH1 0x20 DUP3 ADD SWAP1 POP DUP2 DUP2 SUB PUSH1 0x0 DUP4 ADD MSTORE PUSH2 0x3FC1 DUP2 PUSH2 0x3A6D JUMP JUMPDEST SWAP1 POP SWAP2 SWAP1 POP JUMP JUMPDEST PUSH1 0x0 PUSH1 0x20 DUP3 ADD SWAP1 POP DUP2 DUP2 SUB PUSH1 0x0 DUP4 ADD MSTORE PUSH2 0x3FE1 DUP2 PUSH2 0x3A90 JUMP JUMPDEST SWAP1 POP SWAP2 SWAP1 POP JUMP JUMPDEST PUSH1 0x0 PUSH1 0x20 DUP3 ADD SWAP1 POP DUP2 DUP2 SUB PUSH1 0x0 DUP4 ADD MSTORE PUSH2 0x4001 DUP2 PUSH2 0x3AB3 JUMP JUMPDEST SWAP1 POP SWAP2 SWAP1 POP JUMP JUMPDEST PUSH1 0x0 PUSH1 0x20 DUP3 ADD SWAP1 POP DUP2 DUP2 SUB PUSH1 0x0 DUP4 ADD MSTORE PUSH2 0x4021 DUP2 PUSH2 0x3AD6 JUMP JUMPDEST SWAP1 POP SWAP2 SWAP1 POP JUMP JUMPDEST PUSH1 0x0 PUSH1 0x20 DUP3 ADD SWAP1 POP DUP2 DUP2 SUB PUSH1 0x0 DUP4 ADD MSTORE PUSH2 0x4041 DUP2 PUSH2 0x3AF9 JUMP JUMPDEST SWAP1 POP SWAP2 SWAP1 POP JUMP JUMPDEST PUSH1 0x0 PUSH1 0x20 DUP3 ADD SWAP1 POP DUP2 DUP2 SUB PUSH1 0x0 DUP4 ADD MSTORE PUSH2 0x4061 DUP2 PUSH2 0x3B1C JUMP JUMPDEST SWAP1 POP SWAP2 SWAP1 POP JUMP JUMPDEST PUSH1 0x0 PUSH1 0x20 DUP3 ADD SWAP1 POP DUP2 DUP2 SUB PUSH1 0x0 DUP4 ADD MSTORE PUSH2 0x4081 DUP2 PUSH2 0x3B3F JUMP JUMPDEST SWAP1 POP SWAP2 SWAP1 POP JUMP JUMPDEST PUSH1 0x0 PUSH1 0x20 DUP3 ADD SWAP1 POP DUP2 DUP2 SUB PUSH1 0x0 DUP4 ADD MSTORE PUSH2 0x40A1 DUP2 PUSH2 0x3B62 JUMP JUMPDEST SWAP1 POP SWAP2 SWAP1 POP JUMP JUMPDEST PUSH1 0x0 PUSH1 0x20 DUP3 ADD SWAP1 POP DUP2 DUP2 SUB PUSH1 0x0 DUP4 ADD MSTORE PUSH2 0x40C1 DUP2 PUSH2 0x3B85 JUMP JUMPDEST SWAP1 POP SWAP2 SWAP1 POP JUMP JUMPDEST PUSH1 0x0 PUSH1 0x20 DUP3 ADD SWAP1 POP DUP2 DUP2 SUB PUSH1 0x0 DUP4 ADD MSTORE PUSH2 0x40E1 DUP2 PUSH2 0x3BA8 JUMP JUMPDEST SWAP1 POP SWAP2 SWAP1 POP JUMP JUMPDEST PUSH1 0x0 PUSH1 0x20 DUP3 ADD SWAP1 POP DUP2 DUP2 SUB PUSH1 0x0 DUP4 ADD MSTORE PUSH2 0x4101 DUP2 PUSH2 0x3BCB JUMP JUMPDEST SWAP1 POP SWAP2 SWAP1 POP JUMP JUMPDEST PUSH1 0x0 PUSH1 0x20 DUP3 ADD SWAP1 POP DUP2 DUP2 SUB PUSH1 0x0 DUP4 ADD MSTORE PUSH2 0x4121 DUP2 PUSH2 0x3BEE JUMP JUMPDEST SWAP1 POP SWAP2 SWAP1 POP JUMP JUMPDEST PUSH1 0x0 PUSH1 0x20 DUP3 ADD SWAP1 POP DUP2 DUP2 SUB PUSH1 0x0 DUP4 ADD MSTORE PUSH2 0x4141 DUP2 PUSH2 0x3C11 JUMP JUMPDEST SWAP1 POP SWAP2 SWAP1 POP JUMP JUMPDEST PUSH1 0x0 PUSH1 0x20 DUP3 ADD SWAP1 POP DUP2 DUP2 SUB PUSH1 0x0 DUP4 ADD MSTORE PUSH2 0x4161 DUP2 PUSH2 0x3C34 JUMP JUMPDEST SWAP1 POP SWAP2 SWAP1 POP JUMP JUMPDEST PUSH1 0x0 PUSH1 0x20 DUP3 ADD SWAP1 POP DUP2 DUP2 SUB PUSH1 0x0 DUP4 ADD MSTORE PUSH2 0x4181 DUP2 PUSH2 0x3C57 JUMP JUMPDEST SWAP1 POP SWAP2 SWAP1 POP JUMP JUMPDEST PUSH1 0x0 PUSH1 0x20 DUP3 ADD SWAP1 POP PUSH2 0x419D PUSH1 0x0 DUP4 ADD DUP5 PUSH2 0x3C7A JUMP JUMPDEST SWAP3 SWAP2 POP POP JUMP JUMPDEST PUSH1 0x0 PUSH1 0x80 DUP3 ADD SWAP1 POP PUSH2 0x41B8 PUSH1 0x0 DUP4 ADD DUP8 PUSH2 0x3C7A JUMP JUMPDEST PUSH2 0x41C5 PUSH1 0x20 DUP4 ADD DUP7 PUSH2 0x3976 JUMP JUMPDEST PUSH2 0x41D2 PUSH1 0x40 DUP4 ADD DUP6 PUSH2 0x3C7A JUMP JUMPDEST PUSH2 0x41DF PUSH1 0x60 DUP4 ADD DUP5 PUSH2 0x3976 JUMP JUMPDEST SWAP6 SWAP5 POP POP POP POP POP JUMP JUMPDEST PUSH1 0x0 PUSH2 0x41F2 PUSH2 0x4203 JUMP JUMPDEST SWAP1 POP PUSH2 0x41FE DUP3 DUP3 PUSH2 0x442B JUMP JUMPDEST SWAP2 SWAP1 POP JUMP JUMPDEST PUSH1 0x0 PUSH1 0x40 MLOAD SWAP1 POP SWAP1 JUMP JUMPDEST PUSH1 0x0 PUSH8 0xFFFFFFFFFFFFFFFF DUP3 GT ISZERO PUSH2 0x4228 JUMPI PUSH2 0x4227 PUSH2 0x4518 JUMP JUMPDEST JUMPDEST PUSH2 0x4231 DUP3 PUSH2 0x455B JUMP JUMPDEST SWAP1 POP PUSH1 0x20 DUP2 ADD SWAP1 POP SWAP2 SWAP1 POP JUMP JUMPDEST PUSH1 0x0 DUP2 MLOAD SWAP1 POP SWAP2 SWAP1 POP JUMP JUMPDEST PUSH1 0x0 DUP3 DUP3 MSTORE PUSH1 0x20 DUP3 ADD SWAP1 POP SWAP3 SWAP2 POP POP JUMP JUMPDEST PUSH1 0x0 PUSH2 0x4265 DUP3 PUSH2 0x43AD JUMP JUMPDEST SWAP2 POP PUSH2 0x4270 DUP4 PUSH2 0x43AD JUMP JUMPDEST SWAP3 POP DUP3 PUSH32 0xFFFFFFFFFFFFFFFFFFFFFFFFFFFFFFFFFFFFFFFFFFFFFFFFFFFFFFFFFFFFFFFF SUB DUP3 GT ISZERO PUSH2 0x42A5 JUMPI PUSH2 0x42A4 PUSH2 0x445C JUMP JUMPDEST JUMPDEST DUP3 DUP3 ADD SWAP1 POP SWAP3 SWAP2 POP POP JUMP JUMPDEST PUSH1 0x0 PUSH2 0x42BB DUP3 PUSH2 0x43AD JUMP JUMPDEST SWAP2 POP PUSH2 0x42C6 DUP4 PUSH2 0x43AD JUMP JUMPDEST SWAP3 POP DUP3 PUSH2 0x42D6 JUMPI PUSH2 0x42D5 PUSH2 0x448B JUMP JUMPDEST JUMPDEST DUP3 DUP3 DIV SWAP1 POP SWAP3 SWAP2 POP POP JUMP JUMPDEST PUSH1 0x0 PUSH2 0x42EC DUP3 PUSH2 0x43AD JUMP JUMPDEST SWAP2 POP PUSH2 0x42F7 DUP4 PUSH2 0x43AD JUMP JUMPDEST SWAP3 POP DUP2 PUSH32 0xFFFFFFFFFFFFFFFFFFFFFFFFFFFFFFFFFFFFFFFFFFFFFFFFFFFFFFFFFFFFFFFF DIV DUP4 GT DUP3 ISZERO ISZERO AND ISZERO PUSH2 0x4330 JUMPI PUSH2 0x432F PUSH2 0x445C JUMP JUMPDEST JUMPDEST DUP3 DUP3 MUL SWAP1 POP SWAP3 SWAP2 POP POP JUMP JUMPDEST PUSH1 0x0 PUSH2 0x4346 DUP3 PUSH2 0x43AD JUMP JUMPDEST SWAP2 POP PUSH2 0x4351 DUP4 PUSH2 0x43AD JUMP JUMPDEST SWAP3 POP DUP3 DUP3 LT ISZERO PUSH2 0x4364 JUMPI PUSH2 0x4363 PUSH2 0x445C JUMP JUMPDEST JUMPDEST DUP3 DUP3 SUB SWAP1 POP SWAP3 SWAP2 POP POP JUMP JUMPDEST PUSH1 0x0 PUSH2 0x437A DUP3 PUSH2 0x438D JUMP JUMPDEST SWAP1 POP SWAP2 SWAP1 POP JUMP JUMPDEST PUSH1 0x0 DUP2 ISZERO ISZERO SWAP1 POP SWAP2 SWAP1 POP JUMP JUMPDEST PUSH1 0x0 PUSH20 0xFFFFFFFFFFFFFFFFFFFFFFFFFFFFFFFFFFFFFFFF DUP3 AND SWAP1 POP SWAP2 SWAP1 POP JUMP JUMPDEST PUSH1 0x0 DUP2 SWAP1 POP SWAP2 SWAP1 POP JUMP JUMPDEST DUP3 DUP2 DUP4 CALLDATACOPY PUSH1 0x0 DUP4 DUP4 ADD MSTORE POP POP POP JUMP JUMPDEST PUSH1 0x0 JUMPDEST DUP4 DUP2 LT ISZERO PUSH2 0x43E4 JUMPI DUP1 DUP3 ADD MLOAD DUP2 DUP5 ADD MSTORE PUSH1 0x20 DUP2 ADD SWAP1 POP PUSH2 0x43C9 JUMP JUMPDEST DUP4 DUP2 GT ISZERO PUSH2 0x43F3 JUMPI PUSH1 0x0 DUP5 DUP5 ADD MSTORE JUMPDEST POP POP POP POP JUMP JUMPDEST PUSH1 0x0 PUSH1 0x2 DUP3 DIV SWAP1 POP PUSH1 0x1 DUP3 AND DUP1 PUSH2 0x4411 JUMPI PUSH1 0x7F DUP3 AND SWAP2 POP JUMPDEST PUSH1 0x20 DUP3 LT DUP2 EQ ISZERO PUSH2 0x4425 JUMPI PUSH2 0x4424 PUSH2 0x44E9 JUMP JUMPDEST JUMPDEST POP SWAP2 SWAP1 POP JUMP JUMPDEST PUSH2 0x4434 DUP3 PUSH2 0x455B JUMP JUMPDEST DUP2 ADD DUP2 DUP2 LT PUSH8 0xFFFFFFFFFFFFFFFF DUP3 GT OR ISZERO PUSH2 0x4453 JUMPI PUSH2 0x4452 PUSH2 0x4518 JUMP JUMPDEST JUMPDEST DUP1 PUSH1 0x40 MSTORE POP POP POP JUMP JUMPDEST PUSH32 0x4E487B7100000000000000000000000000000000000000000000000000000000 PUSH1 0x0 MSTORE PUSH1 0x11 PUSH1 0x4 MSTORE PUSH1 0x24 PUSH1 0x0 REVERT JUMPDEST PUSH32 0x4E487B7100000000000000000000000000000000000000000000000000000000 PUSH1 0x0 MSTORE PUSH1 0x12 PUSH1 0x4 MSTORE PUSH1 0x24 PUSH1 0x0 REVERT JUMPDEST PUSH32 0x4E487B7100000000000000000000000000000000000000000000000000000000 PUSH1 0x0 MSTORE PUSH1 0x21 PUSH1 0x4 MSTORE PUSH1 0x24 PUSH1 0x0 REVERT JUMPDEST PUSH32 0x4E487B7100000000000000000000000000000000000000000000000000000000 PUSH1 0x0 MSTORE PUSH1 0x22 PUSH1 0x4 MSTORE PUSH1 0x24 PUSH1 0x0 REVERT JUMPDEST PUSH32 0x4E487B7100000000000000000000000000000000000000000000000000000000 PUSH1 0x0 MSTORE PUSH1 0x41 PUSH1 0x4 MSTORE PUSH1 0x24 PUSH1 0x0 REVERT JUMPDEST PUSH1 0x0 DUP1 REVERT JUMPDEST PUSH1 0x0 DUP1 REVERT JUMPDEST PUSH1 0x0 DUP1 REVERT JUMPDEST PUSH1 0x0 DUP1 REVERT JUMPDEST PUSH1 0x0 PUSH1 0x1F NOT PUSH1 0x1F DUP4 ADD AND SWAP1 POP SWAP2 SWAP1 POP JUMP JUMPDEST PUSH32 0x4C696E6B3A206163636573732064656E69656400000000000000000000000000 PUSH1 0x0 DUP3 ADD MSTORE POP JUMP JUMPDEST PUSH32 0x4C696E6B3A206163636573732064656E69656420000000000000000000000000 PUSH1 0x0 DUP3 ADD MSTORE POP JUMP JUMPDEST PUSH32 0x4C696E6B3A206C696E6B20657870697265000000000000000000000000000000 PUSH1 0x0 DUP3 ADD MSTORE POP JUMP JUMPDEST PUSH32 0x4C696E6B3A206F6E6C7920756E636C6F73656400000000000000000000000000 PUSH1 0x0 DUP3 ADD MSTORE POP JUMP JUMPDEST PUSH32 0x4C696E6B3A20756E6C617766756C206164647265737300000000000000000000 PUSH1 0x0 DUP3 ADD MSTORE POP JUMP JUMPDEST PUSH32 0x4C696E6B3A206F6E6C7920756E706C6564676564000000000000000000000000 PUSH1 0x0 DUP3 ADD MSTORE POP JUMP JUMPDEST PUSH32 0x4C696E6B3A206E6F6C7920757365724200000000000000000000000000000000 PUSH1 0x0 DUP3 ADD MSTORE POP JUMP JUMPDEST PUSH32 0x4C696E6B3A207265706C65646765000000000000000000000000000000000000 PUSH1 0x0 DUP3 ADD MSTORE POP JUMP JUMPDEST PUSH32 0x4C696E6B3A2077726F6E6720616D6F756E74206F662045544800000000000000 PUSH1 0x0 DUP3 ADD MSTORE POP JUMP JUMPDEST PUSH32 0x4C696E6B3A206E6F20706C656467656400000000000000000000000000000000 PUSH1 0x0 DUP3 ADD MSTORE POP JUMP JUMPDEST PUSH32 0x4C696E6B3A203020616D6F756E74000000000000000000000000000000000000 PUSH1 0x0 DUP3 ADD MSTORE POP JUMP JUMPDEST PUSH32 0x4C696E6B3A20706C656173652068616E646C652074686520636C6F73696E6720 PUSH1 0x0 DUP3 ADD MSTORE PUSH32 0x70726F6365737320666972737400000000000000000000000000000000000000 PUSH1 0x20 DUP3 ADD MSTORE POP JUMP JUMPDEST PUSH32 0x4C696E6B3A206F6E6C7920757365724100000000000000000000000000000000 PUSH1 0x0 DUP3 ADD MSTORE POP JUMP JUMPDEST PUSH32 0x4C696E6B3A206F6E6C7920457870697265000000000000000000000000000000 PUSH1 0x0 DUP3 ADD MSTORE POP JUMP JUMPDEST PUSH32 0x4C696E6B3A206F6E6C7920696E697469616C697A656400000000000000000000 PUSH1 0x0 DUP3 ADD MSTORE POP JUMP JUMPDEST PUSH32 0x696E697469616C697A6564000000000000000000000000000000000000000000 PUSH1 0x0 DUP3 ADD MSTORE POP JUMP JUMPDEST PUSH32 0x4C696E6B3A206F6E6C79204564697461626C65204C696E6B0000000000000000 PUSH1 0x0 DUP3 ADD MSTORE POP JUMP JUMPDEST PUSH32 0x4C696E6B3A206F6E6C7920616772656564000000000000000000000000000000 PUSH1 0x0 DUP3 ADD MSTORE POP JUMP JUMPDEST PUSH32 0x4C696E6B3A206F6E6C7920706C65646765640000000000000000000000000000 PUSH1 0x0 DUP3 ADD MSTORE POP JUMP JUMPDEST PUSH32 0x4C696E6B3A206F6E6C79206C7563610000000000000000000000000000000000 PUSH1 0x0 DUP3 ADD MSTORE POP JUMP JUMPDEST PUSH2 0x48CF DUP2 PUSH2 0x436F JUMP JUMPDEST DUP2 EQ PUSH2 0x48DA JUMPI PUSH1 0x0 DUP1 REVERT JUMPDEST POP JUMP JUMPDEST PUSH2 0x48E6 DUP2 PUSH2 0x4381 JUMP JUMPDEST DUP2 EQ PUSH2 0x48F1 JUMPI PUSH1 0x0 DUP1 REVERT JUMPDEST POP JUMP JUMPDEST PUSH2 0x48FD DUP2 PUSH2 0x43AD JUMP JUMPDEST DUP2 EQ PUSH2 0x4908 JUMPI PUSH1 0x0 DUP1 REVERT JUMPDEST POP JUMP INVALID LOG2 PUSH5 0x6970667358 0x22 SLT KECCAK256 0xDB DUP5 0xA7 SSTORE 0x2D 0xF 0xA8 0x5C DUP6 0xEF INVALID 0xF8 MSTORE8 0xB0 0xE5 0xD5 SWAP6 0xA5 SWAP9 0x4E 0xBF SWAP3 PUSH1 0xC7 PUSH4 0x2AF56470 PUSH12 0x4A6964736F6C634300080700 CALLER "
		},
		"gasEstimates": {
			"creation": {
				"codeDepositCost": "3750600",
				"executionCost": "4245",
				"totalCost": "3754845"
			},
			"external": {
				"": "197",
				"agree()": "infinite",
				"close()": "infinite",
				"depledge()": "infinite",
				"getCloseInfo()": "infinite",
				"getLinkInfo()": "infinite",
				"getPledgedInfo()": "infinite",
				"getRecevabesInfo()": "infinite",
				"getStatus()": "infinite",
				"initialize(address,address,address,address,string,uint256,uint256,uint256)": "infinite",
				"isExpire()": "6857",
				"pledge(address)": "infinite",
				"reject()": "infinite",
				"rejectClose()": "infinite",
				"repealCloseReq()": "infinite",
				"setUserB(address)": "infinite",
				"wtihdrawSelf()": "infinite"
			},
			"internal": {
				"_exit()": "infinite",
				"_exitSelf()": "infinite",
				"_linkActive(enum Enum.MethodId)": "infinite",
				"_liquidation()": "infinite",
				"_setReceivables(uint256)": "infinite",
				"_withdraw(address,uint256)": "infinite"
			}
		},
		"methodIdentifiers": {
			"agree()": "8fae60a5",
			"close()": "43d726d6",
			"depledge()": "29ac54a7",
			"getCloseInfo()": "2c6372c3",
			"getLinkInfo()": "0d657191",
			"getPledgedInfo()": "b578803f",
			"getRecevabesInfo()": "8c5782ca",
			"getStatus()": "4e69d560",
			"initialize(address,address,address,address,string,uint256,uint256,uint256)": "7c4b6a1b",
			"isExpire()": "e25b3c95",
			"pledge(address)": "f216ed8a",
			"reject()": "4dc415de",
			"rejectClose()": "0e080192",
			"repealCloseReq()": "be7420b1",
			"setUserB(address)": "566fa0cb",
			"wtihdrawSelf()": "c87e5117"
		}
	},
	"abi": [
		{
			"stateMutability": "payable",
			"type": "fallback"
		},
		{
			"inputs": [],
			"name": "agree",
			"outputs": [],
			"stateMutability": "payable",
			"type": "function"
		},
		{
			"inputs": [],
			"name": "close",
			"outputs": [],
			"stateMutability": "nonpayable",
			"type": "function"
		},
		{
			"inputs": [],
			"name": "depledge",
			"outputs": [],
			"stateMutability": "nonpayable",
			"type": "function"
		},
		{
			"inputs": [],
			"name": "getCloseInfo",
			"outputs": [
				{
					"internalType": "address",
					"name": "closer_",
					"type": "address"
				},
				{
					"internalType": "uint256",
					"name": "startTime_",
					"type": "uint256"
				},
				{
					"internalType": "uint256",
					"name": "expiredTime_",
					"type": "uint256"
				},
				{
					"internalType": "uint256",
					"name": "closeTime_",
					"type": "uint256"
				},
				{
					"internalType": "bool",
					"name": "closeReqA_",
					"type": "bool"
				},
				{
					"internalType": "bool",
					"name": "closeReqB_",
					"type": "bool"
				}
			],
			"stateMutability": "view",
			"type": "function"
		},
		{
			"inputs": [],
			"name": "getLinkInfo",
			"outputs": [
				{
					"internalType": "string",
					"name": "symbol_",
					"type": "string"
				},
				{
					"internalType": "address",
					"name": "token_",
					"type": "address"
				},
				{
					"internalType": "address",
					"name": "userA_",
					"type": "address"
				},
				{
					"internalType": "address",
					"name": "userB_",
					"type": "address"
				},
				{
					"internalType": "uint256",
					"name": "amountA_",
					"type": "uint256"
				},
				{
					"internalType": "uint256",
					"name": "amountB_",
					"type": "uint256"
				},
				{
					"internalType": "uint256",
					"name": "percentA_",
					"type": "uint256"
				},
				{
					"internalType": "uint256",
					"name": "totalPlan_",
					"type": "uint256"
				},
				{
					"internalType": "uint256",
					"name": "lockDays_",
					"type": "uint256"
				},
				{
					"internalType": "uint256",
					"name": "startTime_",
					"type": "uint256"
				},
				{
					"internalType": "uint256",
					"name": "status_",
					"type": "uint256"
				},
				{
					"internalType": "bool",
					"name": "isAward_",
					"type": "bool"
				}
			],
			"stateMutability": "view",
			"type": "function"
		},
		{
			"inputs": [],
			"name": "getPledgedInfo",
			"outputs": [
				{
					"internalType": "bool",
					"name": "pledgedA_",
					"type": "bool"
				},
				{
					"internalType": "bool",
					"name": "pledgedB_",
					"type": "bool"
				}
			],
			"stateMutability": "view",
			"type": "function"
		},
		{
			"inputs": [],
			"name": "getRecevabesInfo",
			"outputs": [
				{
					"internalType": "uint256",
					"name": "receivableA_",
					"type": "uint256"
				},
				{
					"internalType": "bool",
					"name": "isExitA_",
					"type": "bool"
				},
				{
					"internalType": "uint256",
					"name": "receivableB_",
					"type": "uint256"
				},
				{
					"internalType": "bool",
					"name": "isExitB_",
					"type": "bool"
				}
			],
			"stateMutability": "view",
			"type": "function"
		},
		{
			"inputs": [],
			"name": "getStatus",
			"outputs": [
				{
					"internalType": "string",
					"name": "status_",
					"type": "string"
				}
			],
			"stateMutability": "view",
			"type": "function"
		},
		{
			"inputs": [
				{
					"internalType": "address",
					"name": "_file",
					"type": "address"
				},
				{
					"internalType": "address",
					"name": "_userA",
					"type": "address"
				},
				{
					"internalType": "address",
					"name": "_userB",
					"type": "address"
				},
				{
					"internalType": "address",
					"name": "_token",
					"type": "address"
				},
				{
					"internalType": "string",
					"name": "_symbol",
					"type": "string"
				},
				{
					"internalType": "uint256",
					"name": "_amount",
					"type": "uint256"
				},
				{
					"internalType": "uint256",
					"name": "_percentA",
					"type": "uint256"
				},
				{
					"internalType": "uint256",
					"name": "_lockDays",
					"type": "uint256"
				}
			],
			"name": "initialize",
			"outputs": [],
			"stateMutability": "nonpayable",
			"type": "function"
		},
		{
			"inputs": [],
			"name": "isExpire",
			"outputs": [
				{
					"internalType": "bool",
					"name": "",
					"type": "bool"
				}
			],
			"stateMutability": "view",
			"type": "function"
		},
		{
			"inputs": [
				{
					"internalType": "address",
					"name": "node",
					"type": "address"
				}
			],
			"name": "pledge",
			"outputs": [],
			"stateMutability": "nonpayable",
			"type": "function"
		},
		{
			"inputs": [],
			"name": "reject",
			"outputs": [],
			"stateMutability": "nonpayable",
			"type": "function"
		},
		{
			"inputs": [],
			"name": "rejectClose",
			"outputs": [],
			"stateMutability": "nonpayable",
			"type": "function"
		},
		{
			"inputs": [],
			"name": "repealCloseReq",
			"outputs": [],
			"stateMutability": "nonpayable",
			"type": "function"
		},
		{
			"inputs": [
				{
					"internalType": "address",
					"name": "_userB",
					"type": "address"
				}
			],
			"name": "setUserB",
			"outputs": [],
			"stateMutability": "nonpayable",
			"type": "function"
		},
		{
			"inputs": [],
			"name": "wtihdrawSelf",
			"outputs": [],
			"stateMutability": "nonpayable",
			"type": "function"
		},
		{
			"stateMutability": "payable",
			"type": "receive"
		}
	]
}