{
	"data": {
		"bytecode": {
			"linkReferences": {},
			"object": "608060405234801561001057600080fd5b506123cb806100206000396000f3fe608060405234801561001057600080fd5b50600436106101585760003560e01c80637af548c1116100c3578063b119490e1161007c578063b119490e14610403578063dd62ed3e1461041f578063e46adf621461044f578063ed3437f81461046b578063f7260d3e14610489578063fca3b5aa146104a757610158565b80637af548c11461031b5780638da5cb5b1461034b57806395d89b4114610369578063a0712d6814610387578063a9059cbb146103a3578063ae2f0c59146103d357610158565b806323b872dd1161011557806323b872dd14610235578063313ce5671461026557806342966c68146102835780636493c3c71461029f57806370a08231146102cf578063718da7ee146102ff57610158565b806306fdde031461015d578063075461721461017b578063095ea7b31461019957806311fd8a83146101c957806318160ddd146101e75780631eb9c01e14610205575b600080fd5b6101656104c3565b6040516101729190611da9565b60405180910390f35b610183610551565b6040516101909190611d73565b60405180910390f35b6101b360048036038101906101ae9190611ae1565b610577565b6040516101c09190611d8e565b60405180910390f35b6101d1610676565b6040516101de9190611d73565b60405180910390f35b6101ef61069c565b6040516101fc9190611e8b565b60405180910390f35b61021f600480360381019061021a9190611bac565b6106a6565b60405161022c9190611e8b565b60405180910390f35b61024f600480360381019061024a9190611a8e565b6106b8565b60405161025c9190611d8e565b60405180910390f35b61026d610851565b60405161027a9190611edd565b60405180910390f35b61029d60048036038101906102989190611bac565b610864565b005b6102b960048036038101906102b49190611bac565b610871565b6040516102c69190611e8b565b60405180910390f35b6102e960048036038101906102e49190611a21565b610883565b6040516102f69190611e8b565b60405180910390f35b61031960048036038101906103149190611a21565b6108d4565b005b61033560048036038101906103309190611bd9565b6109a8565b6040516103429190611e8b565b60405180910390f35b610353610a4e565b6040516103609190611d73565b60405180910390f35b610371610a74565b60405161037e9190611da9565b60405180910390f35b6103a1600480360381019061039c9190611bac565b610b02565b005b6103bd60048036038101906103b89190611ae1565b610bc1565b6040516103ca9190611d8e565b60405180910390f35b6103ed60048036038101906103e89190611bd9565b610c45565b6040516103fa9190611e8b565b60405180910390f35b61041d60048036038101906104189190611b21565b610d5e565b005b61043960048036038101906104349190611a4e565b610d83565b6040516104469190611e8b565b60405180910390f35b61046960048036038101906104649190611a21565b610e12565b005b610473610ee6565b6040516104809190611e8b565b60405180910390f35b610491610eec565b60405161049e9190611d73565b60405180910390f35b6104c160048036038101906104bc9190611a21565b610f12565b005b600180546104d090612116565b80601f01602080910402602001604051908101604052809291908181526020018280546104fc90612116565b80156105495780601f1061051e57610100808354040283529160200191610549565b820191906000526020600020905b81548152906001019060200180831161052c57829003601f168201915b505050505081565b600560009054906101000a900473ffffffffffffffffffffffffffffffffffffffff1681565b60008061058383610fe6565b905080600b60003373ffffffffffffffffffffffffffffffffffffffff1673ffffffffffffffffffffffffffffffffffffffff16815260200190815260200160002060008673ffffffffffffffffffffffffffffffffffffffff1673ffffffffffffffffffffffffffffffffffffffff168152602001908152602001600020819055508373ffffffffffffffffffffffffffffffffffffffff163373ffffffffffffffffffffffffffffffffffffffff167f8c5be1e5ebec7d5bd14f71427d1e84f3dd0314c0f7b2291e5b200ac8c7c3b925856040516106639190611e8b565b60405180910390a3600191505092915050565b600460009054906101000a900473ffffffffffffffffffffffffffffffffffffffff1681565b6000600954905090565b60006106b182610fe6565b9050919050565b6000806106c483610fe6565b905061075581600b60008873ffffffffffffffffffffffffffffffffffffffff1673ffffffffffffffffffffffffffffffffffffffff16815260200190815260200160002060003373ffffffffffffffffffffffffffffffffffffffff1673ffffffffffffffffffffffffffffffffffffffff1681526020019081526020016000205461102090919063ffffffff16565b600b60008773ffffffffffffffffffffffffffffffffffffffff1673ffffffffffffffffffffffffffffffffffffffff16815260200190815260200160002060003373ffffffffffffffffffffffffffffffffffffffff1673ffffffffffffffffffffffffffffffffffffffff168152602001908152602001600020819055506107e0858583611036565b8373ffffffffffffffffffffffffffffffffffffffff168573ffffffffffffffffffffffffffffffffffffffff167fddf252ad1be2c89b69c2b068fc378daa952ba7f163c4a11628f55a4df523b3ef8560405161083d9190611e8b565b60405180910390a360019150509392505050565b600360009054906101000a900460ff1681565b61086e3382611165565b50565b600061087c826112a8565b9050919050565b60006108cd600a60008473ffffffffffffffffffffffffffffffffffffffff1673ffffffffffffffffffffffffffffffffffffffff168152602001908152602001600020546112a8565b9050919050565b600360019054906101000a900473ffffffffffffffffffffffffffffffffffffffff1673ffffffffffffffffffffffffffffffffffffffff163373ffffffffffffffffffffffffffffffffffffffff1614610964576040517f08c379a000000000000000000000000000000000000000000000000000000000815260040161095b90611e2b565b60405180910390fd5b80600660006101000a81548173ffffffffffffffffffffffffffffffffffffffff021916908373ffffffffffffffffffffffffffffffffffffffff16021790555050565b6000600460009054906101000a900473ffffffffffffffffffffffffffffffffffffffff1673ffffffffffffffffffffffffffffffffffffffff163373ffffffffffffffffffffffffffffffffffffffff1614610a3a576040517f08c379a0000000000000000000000000000000000000000000000000000000008152600401610a3190611e4b565b60405180910390fd5b610a458484846112e2565b90509392505050565b600360019054906101000a900473ffffffffffffffffffffffffffffffffffffffff1681565b60028054610a8190612116565b80601f0160208091040260200160405190810160405280929190818152602001828054610aad90612116565b8015610afa5780601f10610acf57610100808354040283529160200191610afa565b820191906000526020600020905b815481529060010190602001808311610add57829003601f168201915b505050505081565b600560009054906101000a900473ffffffffffffffffffffffffffffffffffffffff1673ffffffffffffffffffffffffffffffffffffffff163373ffffffffffffffffffffffffffffffffffffffff1614610b92576040517f08c379a0000000000000000000000000000000000000000000000000000000008152600401610b8990611dcb565b60405180910390fd5b610bbe600660009054906101000a900473ffffffffffffffffffffffffffffffffffffffff1682611436565b50565b6000610bd63384610bd185610fe6565b611036565b8273ffffffffffffffffffffffffffffffffffffffff163373ffffffffffffffffffffffffffffffffffffffff167fddf252ad1be2c89b69c2b068fc378daa952ba7f163c4a11628f55a4df523b3ef84604051610c339190611e8b565b60405180910390a36001905092915050565b6000600460009054906101000a900473ffffffffffffffffffffffffffffffffffffffff1673ffffffffffffffffffffffffffffffffffffffff163373ffffffffffffffffffffffffffffffffffffffff1614610cd7576040517f08c379a0000000000000000000000000000000000000000000000000000000008152600401610cce90611e4b565b60405180910390fd5b6103e8831115610d1c576040517f08c379a0000000000000000000000000000000000000000000000000000000008152600401610d1390611e0b565b60405180910390fd5b610d5584610d4f610d406103e8670de0b6b3a76400006115c590919063ffffffff16565b866115db90919063ffffffff16565b846112e2565b90509392505050565b610d7e83836012670de0b6b3a764000085610d799190611ff1565b6115f1565b505050565b6000610e0a600b60008573ffffffffffffffffffffffffffffffffffffffff1673ffffffffffffffffffffffffffffffffffffffff16815260200190815260200160002060008473ffffffffffffffffffffffffffffffffffffffff1673ffffffffffffffffffffffffffffffffffffffff168152602001908152602001600020546112a8565b905092915050565b600360019054906101000a900473ffffffffffffffffffffffffffffffffffffffff1673ffffffffffffffffffffffffffffffffffffffff163373ffffffffffffffffffffffffffffffffffffffff1614610ea2576040517f08c379a0000000000000000000000000000000000000000000000000000000008152600401610e9990611e2b565b60405180910390fd5b80600460006101000a81548173ffffffffffffffffffffffffffffffffffffffff021916908373ffffffffffffffffffffffffffffffffffffffff16021790555050565b60075481565b600660009054906101000a900473ffffffffffffffffffffffffffffffffffffffff1681565b600360019054906101000a900473ffffffffffffffffffffffffffffffffffffffff1673ffffffffffffffffffffffffffffffffffffffff163373ffffffffffffffffffffffffffffffffffffffff1614610fa2576040517f08c379a0000000000000000000000000000000000000000000000000000000008152600401610f9990611e2b565b60405180910390fd5b80600560006101000a81548173ffffffffffffffffffffffffffffffffffffffff021916908373ffffffffffffffffffffffffffffffffffffffff16021790555050565b600061101960075461100b69d3c21bcecceda1000000856115db90919063ffffffff16565b6115c590919063ffffffff16565b9050919050565b6000818361102e919061204b565b905092915050565b61108881600a60008673ffffffffffffffffffffffffffffffffffffffff1673ffffffffffffffffffffffffffffffffffffffff1681526020019081526020016000205461102090919063ffffffff16565b600a60008573ffffffffffffffffffffffffffffffffffffffff1673ffffffffffffffffffffffffffffffffffffffff1681526020019081526020016000208190555061111d81600a60008573ffffffffffffffffffffffffffffffffffffffff1673ffffffffffffffffffffffffffffffffffffffff1681526020019081526020016000205461187d90919063ffffffff16565b600a60008473ffffffffffffffffffffffffffffffffffffffff1673ffffffffffffffffffffffffffffffffffffffff16815260200190815260200160002081905550505050565b61117a8160095461102090919063ffffffff16565b600981905550600061118b82610fe6565b90506111a28160085461102090919063ffffffff16565b6008819055506111fa81600a60008673ffffffffffffffffffffffffffffffffffffffff1673ffffffffffffffffffffffffffffffffffffffff1681526020019081526020016000205461102090919063ffffffff16565b600a60008573ffffffffffffffffffffffffffffffffffffffff1673ffffffffffffffffffffffffffffffffffffffff16815260200190815260200160002081905550600073ffffffffffffffffffffffffffffffffffffffff168373ffffffffffffffffffffffffffffffffffffffff167fddf252ad1be2c89b69c2b068fc378daa952ba7f163c4a11628f55a4df523b3ef8460405161129b9190611e8b565b60405180910390a3505050565b60006112db69d3c21bcecceda10000006112cd600754856115db90919063ffffffff16565b6115c590919063ffffffff16565b9050919050565b60007fcdf55265e339b2f78fd9d383f78922f9383ef1fcbcc8993be7a5bd6f8260748784848460405161131793929190611ea6565b60405180910390a1600083141561133257600954905061142f565b8161139f57670de0b6b3a7640000831061134b57600080fd5b611394670de0b6b3a764000061138661137586670de0b6b3a764000061102090919063ffffffff16565b6007546115db90919063ffffffff16565b6115c590919063ffffffff16565b600781905550611418565b60006113ea670de0b6b3a76400006113dc6113cb87670de0b6b3a764000061187d90919063ffffffff16565b6007546115db90919063ffffffff16565b6115c590919063ffffffff16565b90506113f4611893565b8110156114075780600781905550611416565b61140f611893565b6007819055505b505b6114236008546112a8565b60098190555060095490505b9392505050565b61144b8160095461187d90919063ffffffff16565b600981905550600061145c82610fe6565b90506114738160085461187d90919063ffffffff16565b600881905550611481611893565b60075411156114c5576040517f08c379a00000000000000000000000000000000000000000000000000000000081526004016114bc90611deb565b60405180910390fd5b61151781600a60008673ffffffffffffffffffffffffffffffffffffffff1673ffffffffffffffffffffffffffffffffffffffff1681526020019081526020016000205461187d90919063ffffffff16565b600a60008573ffffffffffffffffffffffffffffffffffffffff1673ffffffffffffffffffffffffffffffffffffffff168152602001908152602001600020819055508273ffffffffffffffffffffffffffffffffffffffff16600073ffffffffffffffffffffffffffffffffffffffff167fddf252ad1be2c89b69c2b068fc378daa952ba7f163c4a11628f55a4df523b3ef846040516115b89190611e8b565b60405180910390a3505050565b600081836115d39190611fc0565b905092915050565b600081836115e99190611ff1565b905092915050565b60008054906101000a900460ff161561163f576040517f08c379a000000000000000000000000000000000000000000000000000000000815260040161163690611e6b565b60405180910390fd5b670de0b6b3a764000060078190555033600360016101000a81548173ffffffffffffffffffffffffffffffffffffffff021916908373ffffffffffffffffffffffffffffffffffffffff16021790555083600190805190602001906116a59291906118cf565b5082600290805190602001906116bc9291906118cf565b5081600360006101000a81548160ff021916908360ff160217905550806009819055506116e881610fe6565b600881905550600854600a60003373ffffffffffffffffffffffffffffffffffffffff1673ffffffffffffffffffffffffffffffffffffffff16815260200190815260200160002081905550600360019054906101000a900473ffffffffffffffffffffffffffffffffffffffff16600460006101000a81548173ffffffffffffffffffffffffffffffffffffffff021916908373ffffffffffffffffffffffffffffffffffffffff160217905550600360019054906101000a900473ffffffffffffffffffffffffffffffffffffffff16600560006101000a81548173ffffffffffffffffffffffffffffffffffffffff021916908373ffffffffffffffffffffffffffffffffffffffff160217905550600360019054906101000a900473ffffffffffffffffffffffffffffffffffffffff16600660006101000a81548173ffffffffffffffffffffffffffffffffffffffff021916908373ffffffffffffffffffffffffffffffffffffffff16021790555060016000806101000a81548160ff02191690831515021790555050505050565b6000818361188b9190611f6a565b905092915050565b60006118ca6008547fffffffffffffffffffffffffffffffffffffffffffffffffffffffffffffffff6115c590919063ffffffff16565b905090565b8280546118db90612116565b90600052602060002090601f0160209004810192826118fd5760008555611944565b82601f1061191657805160ff1916838001178555611944565b82800160010185558215611944579182015b82811115611943578251825591602001919060010190611928565b5b5090506119519190611955565b5090565b5b8082111561196e576000816000905550600101611956565b5090565b600061198561198084611f1d565b611ef8565b9050828152602081018484840111156119a1576119a061223a565b5b6119ac8482856120d4565b509392505050565b6000813590506119c381612350565b92915050565b6000813590506119d881612367565b92915050565b600082601f8301126119f3576119f2612235565b5b8135611a03848260208601611972565b91505092915050565b600081359050611a1b8161237e565b92915050565b600060208284031215611a3757611a36612244565b5b6000611a45848285016119b4565b91505092915050565b60008060408385031215611a6557611a64612244565b5b6000611a73858286016119b4565b9250506020611a84858286016119b4565b9150509250929050565b600080600060608486031215611aa757611aa6612244565b5b6000611ab5868287016119b4565b9350506020611ac6868287016119b4565b9250506040611ad786828701611a0c565b9150509250925092565b60008060408385031215611af857611af7612244565b5b6000611b06858286016119b4565b9250506020611b1785828601611a0c565b9150509250929050565b600080600060608486031215611b3a57611b39612244565b5b600084013567ffffffffffffffff811115611b5857611b5761223f565b5b611b64868287016119de565b935050602084013567ffffffffffffffff811115611b8557611b8461223f565b5b611b91868287016119de565b9250506040611ba286828701611a0c565b9150509250925092565b600060208284031215611bc257611bc1612244565b5b6000611bd084828501611a0c565b91505092915050565b600080600060608486031215611bf257611bf1612244565b5b6000611c0086828701611a0c565b9350506020611c1186828701611a0c565b9250506040611c22868287016119c9565b9150509250925092565b611c358161207f565b82525050565b611c4481612091565b82525050565b6000611c5582611f4e565b611c5f8185611f59565b9350611c6f8185602086016120e3565b611c7881612249565b840191505092915050565b6000611c90601183611f59565b9150611c9b8261225a565b602082019050919050565b6000611cb3602083611f59565b9150611cbe82612283565b602082019050919050565b6000611cd6601f83611f59565b9150611ce1826122ac565b602082019050919050565b6000611cf9601083611f59565b9150611d04826122d5565b602082019050919050565b6000611d1c601283611f59565b9150611d27826122fe565b602082019050919050565b6000611d3f600b83611f59565b9150611d4a82612327565b602082019050919050565b611d5e816120bd565b82525050565b611d6d816120c7565b82525050565b6000602082019050611d886000830184611c2c565b92915050565b6000602082019050611da36000830184611c3b565b92915050565b60006020820190508181036000830152611dc38184611c4a565b905092915050565b60006020820190508181036000830152611de481611c83565b9050919050565b60006020820190508181036000830152611e0481611ca6565b9050919050565b60006020820190508181036000830152611e2481611cc9565b9050919050565b60006020820190508181036000830152611e4481611cec565b9050919050565b60006020820190508181036000830152611e6481611d0f565b9050919050565b60006020820190508181036000830152611e8481611d32565b9050919050565b6000602082019050611ea06000830184611d55565b92915050565b6000606082019050611ebb6000830186611d55565b611ec86020830185611d55565b611ed56040830184611c3b565b949350505050565b6000602082019050611ef26000830184611d64565b92915050565b6000611f02611f13565b9050611f0e8282612148565b919050565b6000604051905090565b600067ffffffffffffffff821115611f3857611f37612206565b5b611f4182612249565b9050602081019050919050565b600081519050919050565b600082825260208201905092915050565b6000611f75826120bd565b9150611f80836120bd565b9250827fffffffffffffffffffffffffffffffffffffffffffffffffffffffffffffffff03821115611fb557611fb4612179565b5b828201905092915050565b6000611fcb826120bd565b9150611fd6836120bd565b925082611fe657611fe56121a8565b5b828204905092915050565b6000611ffc826120bd565b9150612007836120bd565b9250817fffffffffffffffffffffffffffffffffffffffffffffffffffffffffffffffff04831182151516156120405761203f612179565b5b828202905092915050565b6000612056826120bd565b9150612061836120bd565b92508282101561207457612073612179565b5b828203905092915050565b600061208a8261209d565b9050919050565b60008115159050919050565b600073ffffffffffffffffffffffffffffffffffffffff82169050919050565b6000819050919050565b600060ff82169050919050565b82818337600083830152505050565b60005b838110156121015780820151818401526020810190506120e6565b83811115612110576000848401525b50505050565b6000600282049050600182168061212e57607f821691505b60208210811415612142576121416121d7565b5b50919050565b61215182612249565b810181811067ffffffffffffffff821117156121705761216f612206565b5b80604052505050565b7f4e487b7100000000000000000000000000000000000000000000000000000000600052601160045260246000fd5b7f4e487b7100000000000000000000000000000000000000000000000000000000600052601260045260246000fd5b7f4e487b7100000000000000000000000000000000000000000000000000000000600052602260045260246000fd5b7f4e487b7100000000000000000000000000000000000000000000000000000000600052604160045260246000fd5b600080fd5b600080fd5b600080fd5b600080fd5b6000601f19601f8301169050919050565b7f4c5543413a206f6e6c79206d696e746572000000000000000000000000000000600082015250565b7f4c5543413a206d6178207363616c696e6720666163746f7220746f6f206c6f77600082015250565b7f4c5543413a206d696c6c69206e656564206c657373207468616e203130303000600082015250565b7f4c5543413a206f6e6c79206f776e657200000000000000000000000000000000600082015250565b7f4c5543413a206f6e6c7920726562617365720000000000000000000000000000600082015250565b7f696e697469616c697a6564000000000000000000000000000000000000000000600082015250565b6123598161207f565b811461236457600080fd5b50565b61237081612091565b811461237b57600080fd5b50565b612387816120bd565b811461239257600080fd5b5056fea2646970667358221220d183e58aa5961f12243e2506875dc41b245d0b8db7831e43c183bfdbb0991b3964736f6c63430008070033",
			"opcodes": "PUSH1 0x80 PUSH1 0x40 MSTORE CALLVALUE DUP1 ISZERO PUSH2 0x10 JUMPI PUSH1 0x0 DUP1 REVERT JUMPDEST POP PUSH2 0x23CB DUP1 PUSH2 0x20 PUSH1 0x0 CODECOPY PUSH1 0x0 RETURN INVALID PUSH1 0x80 PUSH1 0x40 MSTORE CALLVALUE DUP1 ISZERO PUSH2 0x10 JUMPI PUSH1 0x0 DUP1 REVERT JUMPDEST POP PUSH1 0x4 CALLDATASIZE LT PUSH2 0x158 JUMPI PUSH1 0x0 CALLDATALOAD PUSH1 0xE0 SHR DUP1 PUSH4 0x7AF548C1 GT PUSH2 0xC3 JUMPI DUP1 PUSH4 0xB119490E GT PUSH2 0x7C JUMPI DUP1 PUSH4 0xB119490E EQ PUSH2 0x403 JUMPI DUP1 PUSH4 0xDD62ED3E EQ PUSH2 0x41F JUMPI DUP1 PUSH4 0xE46ADF62 EQ PUSH2 0x44F JUMPI DUP1 PUSH4 0xED3437F8 EQ PUSH2 0x46B JUMPI DUP1 PUSH4 0xF7260D3E EQ PUSH2 0x489 JUMPI DUP1 PUSH4 0xFCA3B5AA EQ PUSH2 0x4A7 JUMPI PUSH2 0x158 JUMP JUMPDEST DUP1 PUSH4 0x7AF548C1 EQ PUSH2 0x31B JUMPI DUP1 PUSH4 0x8DA5CB5B EQ PUSH2 0x34B JUMPI DUP1 PUSH4 0x95D89B41 EQ PUSH2 0x369 JUMPI DUP1 PUSH4 0xA0712D68 EQ PUSH2 0x387 JUMPI DUP1 PUSH4 0xA9059CBB EQ PUSH2 0x3A3 JUMPI DUP1 PUSH4 0xAE2F0C59 EQ PUSH2 0x3D3 JUMPI PUSH2 0x158 JUMP JUMPDEST DUP1 PUSH4 0x23B872DD GT PUSH2 0x115 JUMPI DUP1 PUSH4 0x23B872DD EQ PUSH2 0x235 JUMPI DUP1 PUSH4 0x313CE567 EQ PUSH2 0x265 JUMPI DUP1 PUSH4 0x42966C68 EQ PUSH2 0x283 JUMPI DUP1 PUSH4 0x6493C3C7 EQ PUSH2 0x29F JUMPI DUP1 PUSH4 0x70A08231 EQ PUSH2 0x2CF JUMPI DUP1 PUSH4 0x718DA7EE EQ PUSH2 0x2FF JUMPI PUSH2 0x158 JUMP JUMPDEST DUP1 PUSH4 0x6FDDE03 EQ PUSH2 0x15D JUMPI DUP1 PUSH4 0x7546172 EQ PUSH2 0x17B JUMPI DUP1 PUSH4 0x95EA7B3 EQ PUSH2 0x199 JUMPI DUP1 PUSH4 0x11FD8A83 EQ PUSH2 0x1C9 JUMPI DUP1 PUSH4 0x18160DDD EQ PUSH2 0x1E7 JUMPI DUP1 PUSH4 0x1EB9C01E EQ PUSH2 0x205 JUMPI JUMPDEST PUSH1 0x0 DUP1 REVERT JUMPDEST PUSH2 0x165 PUSH2 0x4C3 JUMP JUMPDEST PUSH1 0x40 MLOAD PUSH2 0x172 SWAP2 SWAP1 PUSH2 0x1DA9 JUMP JUMPDEST PUSH1 0x40 MLOAD DUP1 SWAP2 SUB SWAP1 RETURN JUMPDEST PUSH2 0x183 PUSH2 0x551 JUMP JUMPDEST PUSH1 0x40 MLOAD PUSH2 0x190 SWAP2 SWAP1 PUSH2 0x1D73 JUMP JUMPDEST PUSH1 0x40 MLOAD DUP1 SWAP2 SUB SWAP1 RETURN JUMPDEST PUSH2 0x1B3 PUSH1 0x4 DUP1 CALLDATASIZE SUB DUP2 ADD SWAP1 PUSH2 0x1AE SWAP2 SWAP1 PUSH2 0x1AE1 JUMP JUMPDEST PUSH2 0x577 JUMP JUMPDEST PUSH1 0x40 MLOAD PUSH2 0x1C0 SWAP2 SWAP1 PUSH2 0x1D8E JUMP JUMPDEST PUSH1 0x40 MLOAD DUP1 SWAP2 SUB SWAP1 RETURN JUMPDEST PUSH2 0x1D1 PUSH2 0x676 JUMP JUMPDEST PUSH1 0x40 MLOAD PUSH2 0x1DE SWAP2 SWAP1 PUSH2 0x1D73 JUMP JUMPDEST PUSH1 0x40 MLOAD DUP1 SWAP2 SUB SWAP1 RETURN JUMPDEST PUSH2 0x1EF PUSH2 0x69C JUMP JUMPDEST PUSH1 0x40 MLOAD PUSH2 0x1FC SWAP2 SWAP1 PUSH2 0x1E8B JUMP JUMPDEST PUSH1 0x40 MLOAD DUP1 SWAP2 SUB SWAP1 RETURN JUMPDEST PUSH2 0x21F PUSH1 0x4 DUP1 CALLDATASIZE SUB DUP2 ADD SWAP1 PUSH2 0x21A SWAP2 SWAP1 PUSH2 0x1BAC JUMP JUMPDEST PUSH2 0x6A6 JUMP JUMPDEST PUSH1 0x40 MLOAD PUSH2 0x22C SWAP2 SWAP1 PUSH2 0x1E8B JUMP JUMPDEST PUSH1 0x40 MLOAD DUP1 SWAP2 SUB SWAP1 RETURN JUMPDEST PUSH2 0x24F PUSH1 0x4 DUP1 CALLDATASIZE SUB DUP2 ADD SWAP1 PUSH2 0x24A SWAP2 SWAP1 PUSH2 0x1A8E JUMP JUMPDEST PUSH2 0x6B8 JUMP JUMPDEST PUSH1 0x40 MLOAD PUSH2 0x25C SWAP2 SWAP1 PUSH2 0x1D8E JUMP JUMPDEST PUSH1 0x40 MLOAD DUP1 SWAP2 SUB SWAP1 RETURN JUMPDEST PUSH2 0x26D PUSH2 0x851 JUMP JUMPDEST PUSH1 0x40 MLOAD PUSH2 0x27A SWAP2 SWAP1 PUSH2 0x1EDD JUMP JUMPDEST PUSH1 0x40 MLOAD DUP1 SWAP2 SUB SWAP1 RETURN JUMPDEST PUSH2 0x29D PUSH1 0x4 DUP1 CALLDATASIZE SUB DUP2 ADD SWAP1 PUSH2 0x298 SWAP2 SWAP1 PUSH2 0x1BAC JUMP JUMPDEST PUSH2 0x864 JUMP JUMPDEST STOP JUMPDEST PUSH2 0x2B9 PUSH1 0x4 DUP1 CALLDATASIZE SUB DUP2 ADD SWAP1 PUSH2 0x2B4 SWAP2 SWAP1 PUSH2 0x1BAC JUMP JUMPDEST PUSH2 0x871 JUMP JUMPDEST PUSH1 0x40 MLOAD PUSH2 0x2C6 SWAP2 SWAP1 PUSH2 0x1E8B JUMP JUMPDEST PUSH1 0x40 MLOAD DUP1 SWAP2 SUB SWAP1 RETURN JUMPDEST PUSH2 0x2E9 PUSH1 0x4 DUP1 CALLDATASIZE SUB DUP2 ADD SWAP1 PUSH2 0x2E4 SWAP2 SWAP1 PUSH2 0x1A21 JUMP JUMPDEST PUSH2 0x883 JUMP JUMPDEST PUSH1 0x40 MLOAD PUSH2 0x2F6 SWAP2 SWAP1 PUSH2 0x1E8B JUMP JUMPDEST PUSH1 0x40 MLOAD DUP1 SWAP2 SUB SWAP1 RETURN JUMPDEST PUSH2 0x319 PUSH1 0x4 DUP1 CALLDATASIZE SUB DUP2 ADD SWAP1 PUSH2 0x314 SWAP2 SWAP1 PUSH2 0x1A21 JUMP JUMPDEST PUSH2 0x8D4 JUMP JUMPDEST STOP JUMPDEST PUSH2 0x335 PUSH1 0x4 DUP1 CALLDATASIZE SUB DUP2 ADD SWAP1 PUSH2 0x330 SWAP2 SWAP1 PUSH2 0x1BD9 JUMP JUMPDEST PUSH2 0x9A8 JUMP JUMPDEST PUSH1 0x40 MLOAD PUSH2 0x342 SWAP2 SWAP1 PUSH2 0x1E8B JUMP JUMPDEST PUSH1 0x40 MLOAD DUP1 SWAP2 SUB SWAP1 RETURN JUMPDEST PUSH2 0x353 PUSH2 0xA4E JUMP JUMPDEST PUSH1 0x40 MLOAD PUSH2 0x360 SWAP2 SWAP1 PUSH2 0x1D73 JUMP JUMPDEST PUSH1 0x40 MLOAD DUP1 SWAP2 SUB SWAP1 RETURN JUMPDEST PUSH2 0x371 PUSH2 0xA74 JUMP JUMPDEST PUSH1 0x40 MLOAD PUSH2 0x37E SWAP2 SWAP1 PUSH2 0x1DA9 JUMP JUMPDEST PUSH1 0x40 MLOAD DUP1 SWAP2 SUB SWAP1 RETURN JUMPDEST PUSH2 0x3A1 PUSH1 0x4 DUP1 CALLDATASIZE SUB DUP2 ADD SWAP1 PUSH2 0x39C SWAP2 SWAP1 PUSH2 0x1BAC JUMP JUMPDEST PUSH2 0xB02 JUMP JUMPDEST STOP JUMPDEST PUSH2 0x3BD PUSH1 0x4 DUP1 CALLDATASIZE SUB DUP2 ADD SWAP1 PUSH2 0x3B8 SWAP2 SWAP1 PUSH2 0x1AE1 JUMP JUMPDEST PUSH2 0xBC1 JUMP JUMPDEST PUSH1 0x40 MLOAD PUSH2 0x3CA SWAP2 SWAP1 PUSH2 0x1D8E JUMP JUMPDEST PUSH1 0x40 MLOAD DUP1 SWAP2 SUB SWAP1 RETURN JUMPDEST PUSH2 0x3ED PUSH1 0x4 DUP1 CALLDATASIZE SUB DUP2 ADD SWAP1 PUSH2 0x3E8 SWAP2 SWAP1 PUSH2 0x1BD9 JUMP JUMPDEST PUSH2 0xC45 JUMP JUMPDEST PUSH1 0x40 MLOAD PUSH2 0x3FA SWAP2 SWAP1 PUSH2 0x1E8B JUMP JUMPDEST PUSH1 0x40 MLOAD DUP1 SWAP2 SUB SWAP1 RETURN JUMPDEST PUSH2 0x41D PUSH1 0x4 DUP1 CALLDATASIZE SUB DUP2 ADD SWAP1 PUSH2 0x418 SWAP2 SWAP1 PUSH2 0x1B21 JUMP JUMPDEST PUSH2 0xD5E JUMP JUMPDEST STOP JUMPDEST PUSH2 0x439 PUSH1 0x4 DUP1 CALLDATASIZE SUB DUP2 ADD SWAP1 PUSH2 0x434 SWAP2 SWAP1 PUSH2 0x1A4E JUMP JUMPDEST PUSH2 0xD83 JUMP JUMPDEST PUSH1 0x40 MLOAD PUSH2 0x446 SWAP2 SWAP1 PUSH2 0x1E8B JUMP JUMPDEST PUSH1 0x40 MLOAD DUP1 SWAP2 SUB SWAP1 RETURN JUMPDEST PUSH2 0x469 PUSH1 0x4 DUP1 CALLDATASIZE SUB DUP2 ADD SWAP1 PUSH2 0x464 SWAP2 SWAP1 PUSH2 0x1A21 JUMP JUMPDEST PUSH2 0xE12 JUMP JUMPDEST STOP JUMPDEST PUSH2 0x473 PUSH2 0xEE6 JUMP JUMPDEST PUSH1 0x40 MLOAD PUSH2 0x480 SWAP2 SWAP1 PUSH2 0x1E8B JUMP JUMPDEST PUSH1 0x40 MLOAD DUP1 SWAP2 SUB SWAP1 RETURN JUMPDEST PUSH2 0x491 PUSH2 0xEEC JUMP JUMPDEST PUSH1 0x40 MLOAD PUSH2 0x49E SWAP2 SWAP1 PUSH2 0x1D73 JUMP JUMPDEST PUSH1 0x40 MLOAD DUP1 SWAP2 SUB SWAP1 RETURN JUMPDEST PUSH2 0x4C1 PUSH1 0x4 DUP1 CALLDATASIZE SUB DUP2 ADD SWAP1 PUSH2 0x4BC SWAP2 SWAP1 PUSH2 0x1A21 JUMP JUMPDEST PUSH2 0xF12 JUMP JUMPDEST STOP JUMPDEST PUSH1 0x1 DUP1 SLOAD PUSH2 0x4D0 SWAP1 PUSH2 0x2116 JUMP JUMPDEST DUP1 PUSH1 0x1F ADD PUSH1 0x20 DUP1 SWAP2 DIV MUL PUSH1 0x20 ADD PUSH1 0x40 MLOAD SWAP1 DUP2 ADD PUSH1 0x40 MSTORE DUP1 SWAP3 SWAP2 SWAP1 DUP2 DUP2 MSTORE PUSH1 0x20 ADD DUP3 DUP1 SLOAD PUSH2 0x4FC SWAP1 PUSH2 0x2116 JUMP JUMPDEST DUP1 ISZERO PUSH2 0x549 JUMPI DUP1 PUSH1 0x1F LT PUSH2 0x51E JUMPI PUSH2 0x100 DUP1 DUP4 SLOAD DIV MUL DUP4 MSTORE SWAP2 PUSH1 0x20 ADD SWAP2 PUSH2 0x549 JUMP JUMPDEST DUP3 ADD SWAP2 SWAP1 PUSH1 0x0 MSTORE PUSH1 0x20 PUSH1 0x0 KECCAK256 SWAP1 JUMPDEST DUP2 SLOAD DUP2 MSTORE SWAP1 PUSH1 0x1 ADD SWAP1 PUSH1 0x20 ADD DUP1 DUP4 GT PUSH2 0x52C JUMPI DUP3 SWAP1 SUB PUSH1 0x1F AND DUP3 ADD SWAP2 JUMPDEST POP POP POP POP POP DUP2 JUMP JUMPDEST PUSH1 0x5 PUSH1 0x0 SWAP1 SLOAD SWAP1 PUSH2 0x100 EXP SWAP1 DIV PUSH20 0xFFFFFFFFFFFFFFFFFFFFFFFFFFFFFFFFFFFFFFFF AND DUP2 JUMP JUMPDEST PUSH1 0x0 DUP1 PUSH2 0x583 DUP4 PUSH2 0xFE6 JUMP JUMPDEST SWAP1 POP DUP1 PUSH1 0xB PUSH1 0x0 CALLER PUSH20 0xFFFFFFFFFFFFFFFFFFFFFFFFFFFFFFFFFFFFFFFF AND PUSH20 0xFFFFFFFFFFFFFFFFFFFFFFFFFFFFFFFFFFFFFFFF AND DUP2 MSTORE PUSH1 0x20 ADD SWAP1 DUP2 MSTORE PUSH1 0x20 ADD PUSH1 0x0 KECCAK256 PUSH1 0x0 DUP7 PUSH20 0xFFFFFFFFFFFFFFFFFFFFFFFFFFFFFFFFFFFFFFFF AND PUSH20 0xFFFFFFFFFFFFFFFFFFFFFFFFFFFFFFFFFFFFFFFF AND DUP2 MSTORE PUSH1 0x20 ADD SWAP1 DUP2 MSTORE PUSH1 0x20 ADD PUSH1 0x0 KECCAK256 DUP2 SWAP1 SSTORE POP DUP4 PUSH20 0xFFFFFFFFFFFFFFFFFFFFFFFFFFFFFFFFFFFFFFFF AND CALLER PUSH20 0xFFFFFFFFFFFFFFFFFFFFFFFFFFFFFFFFFFFFFFFF AND PUSH32 0x8C5BE1E5EBEC7D5BD14F71427D1E84F3DD0314C0F7B2291E5B200AC8C7C3B925 DUP6 PUSH1 0x40 MLOAD PUSH2 0x663 SWAP2 SWAP1 PUSH2 0x1E8B JUMP JUMPDEST PUSH1 0x40 MLOAD DUP1 SWAP2 SUB SWAP1 LOG3 PUSH1 0x1 SWAP2 POP POP SWAP3 SWAP2 POP POP JUMP JUMPDEST PUSH1 0x4 PUSH1 0x0 SWAP1 SLOAD SWAP1 PUSH2 0x100 EXP SWAP1 DIV PUSH20 0xFFFFFFFFFFFFFFFFFFFFFFFFFFFFFFFFFFFFFFFF AND DUP2 JUMP JUMPDEST PUSH1 0x0 PUSH1 0x9 SLOAD SWAP1 POP SWAP1 JUMP JUMPDEST PUSH1 0x0 PUSH2 0x6B1 DUP3 PUSH2 0xFE6 JUMP JUMPDEST SWAP1 POP SWAP2 SWAP1 POP JUMP JUMPDEST PUSH1 0x0 DUP1 PUSH2 0x6C4 DUP4 PUSH2 0xFE6 JUMP JUMPDEST SWAP1 POP PUSH2 0x755 DUP2 PUSH1 0xB PUSH1 0x0 DUP9 PUSH20 0xFFFFFFFFFFFFFFFFFFFFFFFFFFFFFFFFFFFFFFFF AND PUSH20 0xFFFFFFFFFFFFFFFFFFFFFFFFFFFFFFFFFFFFFFFF AND DUP2 MSTORE PUSH1 0x20 ADD SWAP1 DUP2 MSTORE PUSH1 0x20 ADD PUSH1 0x0 KECCAK256 PUSH1 0x0 CALLER PUSH20 0xFFFFFFFFFFFFFFFFFFFFFFFFFFFFFFFFFFFFFFFF AND PUSH20 0xFFFFFFFFFFFFFFFFFFFFFFFFFFFFFFFFFFFFFFFF AND DUP2 MSTORE PUSH1 0x20 ADD SWAP1 DUP2 MSTORE PUSH1 0x20 ADD PUSH1 0x0 KECCAK256 SLOAD PUSH2 0x1020 SWAP1 SWAP2 SWAP1 PUSH4 0xFFFFFFFF AND JUMP JUMPDEST PUSH1 0xB PUSH1 0x0 DUP8 PUSH20 0xFFFFFFFFFFFFFFFFFFFFFFFFFFFFFFFFFFFFFFFF AND PUSH20 0xFFFFFFFFFFFFFFFFFFFFFFFFFFFFFFFFFFFFFFFF AND DUP2 MSTORE PUSH1 0x20 ADD SWAP1 DUP2 MSTORE PUSH1 0x20 ADD PUSH1 0x0 KECCAK256 PUSH1 0x0 CALLER PUSH20 0xFFFFFFFFFFFFFFFFFFFFFFFFFFFFFFFFFFFFFFFF AND PUSH20 0xFFFFFFFFFFFFFFFFFFFFFFFFFFFFFFFFFFFFFFFF AND DUP2 MSTORE PUSH1 0x20 ADD SWAP1 DUP2 MSTORE PUSH1 0x20 ADD PUSH1 0x0 KECCAK256 DUP2 SWAP1 SSTORE POP PUSH2 0x7E0 DUP6 DUP6 DUP4 PUSH2 0x1036 JUMP JUMPDEST DUP4 PUSH20 0xFFFFFFFFFFFFFFFFFFFFFFFFFFFFFFFFFFFFFFFF AND DUP6 PUSH20 0xFFFFFFFFFFFFFFFFFFFFFFFFFFFFFFFFFFFFFFFF AND PUSH32 0xDDF252AD1BE2C89B69C2B068FC378DAA952BA7F163C4A11628F55A4DF523B3EF DUP6 PUSH1 0x40 MLOAD PUSH2 0x83D SWAP2 SWAP1 PUSH2 0x1E8B JUMP JUMPDEST PUSH1 0x40 MLOAD DUP1 SWAP2 SUB SWAP1 LOG3 PUSH1 0x1 SWAP2 POP POP SWAP4 SWAP3 POP POP POP JUMP JUMPDEST PUSH1 0x3 PUSH1 0x0 SWAP1 SLOAD SWAP1 PUSH2 0x100 EXP SWAP1 DIV PUSH1 0xFF AND DUP2 JUMP JUMPDEST PUSH2 0x86E CALLER DUP3 PUSH2 0x1165 JUMP JUMPDEST POP JUMP JUMPDEST PUSH1 0x0 PUSH2 0x87C DUP3 PUSH2 0x12A8 JUMP JUMPDEST SWAP1 POP SWAP2 SWAP1 POP JUMP JUMPDEST PUSH1 0x0 PUSH2 0x8CD PUSH1 0xA PUSH1 0x0 DUP5 PUSH20 0xFFFFFFFFFFFFFFFFFFFFFFFFFFFFFFFFFFFFFFFF AND PUSH20 0xFFFFFFFFFFFFFFFFFFFFFFFFFFFFFFFFFFFFFFFF AND DUP2 MSTORE PUSH1 0x20 ADD SWAP1 DUP2 MSTORE PUSH1 0x20 ADD PUSH1 0x0 KECCAK256 SLOAD PUSH2 0x12A8 JUMP JUMPDEST SWAP1 POP SWAP2 SWAP1 POP JUMP JUMPDEST PUSH1 0x3 PUSH1 0x1 SWAP1 SLOAD SWAP1 PUSH2 0x100 EXP SWAP1 DIV PUSH20 0xFFFFFFFFFFFFFFFFFFFFFFFFFFFFFFFFFFFFFFFF AND PUSH20 0xFFFFFFFFFFFFFFFFFFFFFFFFFFFFFFFFFFFFFFFF AND CALLER PUSH20 0xFFFFFFFFFFFFFFFFFFFFFFFFFFFFFFFFFFFFFFFF AND EQ PUSH2 0x964 JUMPI PUSH1 0x40 MLOAD PUSH32 0x8C379A000000000000000000000000000000000000000000000000000000000 DUP2 MSTORE PUSH1 0x4 ADD PUSH2 0x95B SWAP1 PUSH2 0x1E2B JUMP JUMPDEST PUSH1 0x40 MLOAD DUP1 SWAP2 SUB SWAP1 REVERT JUMPDEST DUP1 PUSH1 0x6 PUSH1 0x0 PUSH2 0x100 EXP DUP2 SLOAD DUP2 PUSH20 0xFFFFFFFFFFFFFFFFFFFFFFFFFFFFFFFFFFFFFFFF MUL NOT AND SWAP1 DUP4 PUSH20 0xFFFFFFFFFFFFFFFFFFFFFFFFFFFFFFFFFFFFFFFF AND MUL OR SWAP1 SSTORE POP POP JUMP JUMPDEST PUSH1 0x0 PUSH1 0x4 PUSH1 0x0 SWAP1 SLOAD SWAP1 PUSH2 0x100 EXP SWAP1 DIV PUSH20 0xFFFFFFFFFFFFFFFFFFFFFFFFFFFFFFFFFFFFFFFF AND PUSH20 0xFFFFFFFFFFFFFFFFFFFFFFFFFFFFFFFFFFFFFFFF AND CALLER PUSH20 0xFFFFFFFFFFFFFFFFFFFFFFFFFFFFFFFFFFFFFFFF AND EQ PUSH2 0xA3A JUMPI PUSH1 0x40 MLOAD PUSH32 0x8C379A000000000000000000000000000000000000000000000000000000000 DUP2 MSTORE PUSH1 0x4 ADD PUSH2 0xA31 SWAP1 PUSH2 0x1E4B JUMP JUMPDEST PUSH1 0x40 MLOAD DUP1 SWAP2 SUB SWAP1 REVERT JUMPDEST PUSH2 0xA45 DUP5 DUP5 DUP5 PUSH2 0x12E2 JUMP JUMPDEST SWAP1 POP SWAP4 SWAP3 POP POP POP JUMP JUMPDEST PUSH1 0x3 PUSH1 0x1 SWAP1 SLOAD SWAP1 PUSH2 0x100 EXP SWAP1 DIV PUSH20 0xFFFFFFFFFFFFFFFFFFFFFFFFFFFFFFFFFFFFFFFF AND DUP2 JUMP JUMPDEST PUSH1 0x2 DUP1 SLOAD PUSH2 0xA81 SWAP1 PUSH2 0x2116 JUMP JUMPDEST DUP1 PUSH1 0x1F ADD PUSH1 0x20 DUP1 SWAP2 DIV MUL PUSH1 0x20 ADD PUSH1 0x40 MLOAD SWAP1 DUP2 ADD PUSH1 0x40 MSTORE DUP1 SWAP3 SWAP2 SWAP1 DUP2 DUP2 MSTORE PUSH1 0x20 ADD DUP3 DUP1 SLOAD PUSH2 0xAAD SWAP1 PUSH2 0x2116 JUMP JUMPDEST DUP1 ISZERO PUSH2 0xAFA JUMPI DUP1 PUSH1 0x1F LT PUSH2 0xACF JUMPI PUSH2 0x100 DUP1 DUP4 SLOAD DIV MUL DUP4 MSTORE SWAP2 PUSH1 0x20 ADD SWAP2 PUSH2 0xAFA JUMP JUMPDEST DUP3 ADD SWAP2 SWAP1 PUSH1 0x0 MSTORE PUSH1 0x20 PUSH1 0x0 KECCAK256 SWAP1 JUMPDEST DUP2 SLOAD DUP2 MSTORE SWAP1 PUSH1 0x1 ADD SWAP1 PUSH1 0x20 ADD DUP1 DUP4 GT PUSH2 0xADD JUMPI DUP3 SWAP1 SUB PUSH1 0x1F AND DUP3 ADD SWAP2 JUMPDEST POP POP POP POP POP DUP2 JUMP JUMPDEST PUSH1 0x5 PUSH1 0x0 SWAP1 SLOAD SWAP1 PUSH2 0x100 EXP SWAP1 DIV PUSH20 0xFFFFFFFFFFFFFFFFFFFFFFFFFFFFFFFFFFFFFFFF AND PUSH20 0xFFFFFFFFFFFFFFFFFFFFFFFFFFFFFFFFFFFFFFFF AND CALLER PUSH20 0xFFFFFFFFFFFFFFFFFFFFFFFFFFFFFFFFFFFFFFFF AND EQ PUSH2 0xB92 JUMPI PUSH1 0x40 MLOAD PUSH32 0x8C379A000000000000000000000000000000000000000000000000000000000 DUP2 MSTORE PUSH1 0x4 ADD PUSH2 0xB89 SWAP1 PUSH2 0x1DCB JUMP JUMPDEST PUSH1 0x40 MLOAD DUP1 SWAP2 SUB SWAP1 REVERT JUMPDEST PUSH2 0xBBE PUSH1 0x6 PUSH1 0x0 SWAP1 SLOAD SWAP1 PUSH2 0x100 EXP SWAP1 DIV PUSH20 0xFFFFFFFFFFFFFFFFFFFFFFFFFFFFFFFFFFFFFFFF AND DUP3 PUSH2 0x1436 JUMP JUMPDEST POP JUMP JUMPDEST PUSH1 0x0 PUSH2 0xBD6 CALLER DUP5 PUSH2 0xBD1 DUP6 PUSH2 0xFE6 JUMP JUMPDEST PUSH2 0x1036 JUMP JUMPDEST DUP3 PUSH20 0xFFFFFFFFFFFFFFFFFFFFFFFFFFFFFFFFFFFFFFFF AND CALLER PUSH20 0xFFFFFFFFFFFFFFFFFFFFFFFFFFFFFFFFFFFFFFFF AND PUSH32 0xDDF252AD1BE2C89B69C2B068FC378DAA952BA7F163C4A11628F55A4DF523B3EF DUP5 PUSH1 0x40 MLOAD PUSH2 0xC33 SWAP2 SWAP1 PUSH2 0x1E8B JUMP JUMPDEST PUSH1 0x40 MLOAD DUP1 SWAP2 SUB SWAP1 LOG3 PUSH1 0x1 SWAP1 POP SWAP3 SWAP2 POP POP JUMP JUMPDEST PUSH1 0x0 PUSH1 0x4 PUSH1 0x0 SWAP1 SLOAD SWAP1 PUSH2 0x100 EXP SWAP1 DIV PUSH20 0xFFFFFFFFFFFFFFFFFFFFFFFFFFFFFFFFFFFFFFFF AND PUSH20 0xFFFFFFFFFFFFFFFFFFFFFFFFFFFFFFFFFFFFFFFF AND CALLER PUSH20 0xFFFFFFFFFFFFFFFFFFFFFFFFFFFFFFFFFFFFFFFF AND EQ PUSH2 0xCD7 JUMPI PUSH1 0x40 MLOAD PUSH32 0x8C379A000000000000000000000000000000000000000000000000000000000 DUP2 MSTORE PUSH1 0x4 ADD PUSH2 0xCCE SWAP1 PUSH2 0x1E4B JUMP JUMPDEST PUSH1 0x40 MLOAD DUP1 SWAP2 SUB SWAP1 REVERT JUMPDEST PUSH2 0x3E8 DUP4 GT ISZERO PUSH2 0xD1C JUMPI PUSH1 0x40 MLOAD PUSH32 0x8C379A000000000000000000000000000000000000000000000000000000000 DUP2 MSTORE PUSH1 0x4 ADD PUSH2 0xD13 SWAP1 PUSH2 0x1E0B JUMP JUMPDEST PUSH1 0x40 MLOAD DUP1 SWAP2 SUB SWAP1 REVERT JUMPDEST PUSH2 0xD55 DUP5 PUSH2 0xD4F PUSH2 0xD40 PUSH2 0x3E8 PUSH8 0xDE0B6B3A7640000 PUSH2 0x15C5 SWAP1 SWAP2 SWAP1 PUSH4 0xFFFFFFFF AND JUMP JUMPDEST DUP7 PUSH2 0x15DB SWAP1 SWAP2 SWAP1 PUSH4 0xFFFFFFFF AND JUMP JUMPDEST DUP5 PUSH2 0x12E2 JUMP JUMPDEST SWAP1 POP SWAP4 SWAP3 POP POP POP JUMP JUMPDEST PUSH2 0xD7E DUP4 DUP4 PUSH1 0x12 PUSH8 0xDE0B6B3A7640000 DUP6 PUSH2 0xD79 SWAP2 SWAP1 PUSH2 0x1FF1 JUMP JUMPDEST PUSH2 0x15F1 JUMP JUMPDEST POP POP POP JUMP JUMPDEST PUSH1 0x0 PUSH2 0xE0A PUSH1 0xB PUSH1 0x0 DUP6 PUSH20 0xFFFFFFFFFFFFFFFFFFFFFFFFFFFFFFFFFFFFFFFF AND PUSH20 0xFFFFFFFFFFFFFFFFFFFFFFFFFFFFFFFFFFFFFFFF AND DUP2 MSTORE PUSH1 0x20 ADD SWAP1 DUP2 MSTORE PUSH1 0x20 ADD PUSH1 0x0 KECCAK256 PUSH1 0x0 DUP5 PUSH20 0xFFFFFFFFFFFFFFFFFFFFFFFFFFFFFFFFFFFFFFFF AND PUSH20 0xFFFFFFFFFFFFFFFFFFFFFFFFFFFFFFFFFFFFFFFF AND DUP2 MSTORE PUSH1 0x20 ADD SWAP1 DUP2 MSTORE PUSH1 0x20 ADD PUSH1 0x0 KECCAK256 SLOAD PUSH2 0x12A8 JUMP JUMPDEST SWAP1 POP SWAP3 SWAP2 POP POP JUMP JUMPDEST PUSH1 0x3 PUSH1 0x1 SWAP1 SLOAD SWAP1 PUSH2 0x100 EXP SWAP1 DIV PUSH20 0xFFFFFFFFFFFFFFFFFFFFFFFFFFFFFFFFFFFFFFFF AND PUSH20 0xFFFFFFFFFFFFFFFFFFFFFFFFFFFFFFFFFFFFFFFF AND CALLER PUSH20 0xFFFFFFFFFFFFFFFFFFFFFFFFFFFFFFFFFFFFFFFF AND EQ PUSH2 0xEA2 JUMPI PUSH1 0x40 MLOAD PUSH32 0x8C379A000000000000000000000000000000000000000000000000000000000 DUP2 MSTORE PUSH1 0x4 ADD PUSH2 0xE99 SWAP1 PUSH2 0x1E2B JUMP JUMPDEST PUSH1 0x40 MLOAD DUP1 SWAP2 SUB SWAP1 REVERT JUMPDEST DUP1 PUSH1 0x4 PUSH1 0x0 PUSH2 0x100 EXP DUP2 SLOAD DUP2 PUSH20 0xFFFFFFFFFFFFFFFFFFFFFFFFFFFFFFFFFFFFFFFF MUL NOT AND SWAP1 DUP4 PUSH20 0xFFFFFFFFFFFFFFFFFFFFFFFFFFFFFFFFFFFFFFFF AND MUL OR SWAP1 SSTORE POP POP JUMP JUMPDEST PUSH1 0x7 SLOAD DUP2 JUMP JUMPDEST PUSH1 0x6 PUSH1 0x0 SWAP1 SLOAD SWAP1 PUSH2 0x100 EXP SWAP1 DIV PUSH20 0xFFFFFFFFFFFFFFFFFFFFFFFFFFFFFFFFFFFFFFFF AND DUP2 JUMP JUMPDEST PUSH1 0x3 PUSH1 0x1 SWAP1 SLOAD SWAP1 PUSH2 0x100 EXP SWAP1 DIV PUSH20 0xFFFFFFFFFFFFFFFFFFFFFFFFFFFFFFFFFFFFFFFF AND PUSH20 0xFFFFFFFFFFFFFFFFFFFFFFFFFFFFFFFFFFFFFFFF AND CALLER PUSH20 0xFFFFFFFFFFFFFFFFFFFFFFFFFFFFFFFFFFFFFFFF AND EQ PUSH2 0xFA2 JUMPI PUSH1 0x40 MLOAD PUSH32 0x8C379A000000000000000000000000000000000000000000000000000000000 DUP2 MSTORE PUSH1 0x4 ADD PUSH2 0xF99 SWAP1 PUSH2 0x1E2B JUMP JUMPDEST PUSH1 0x40 MLOAD DUP1 SWAP2 SUB SWAP1 REVERT JUMPDEST DUP1 PUSH1 0x5 PUSH1 0x0 PUSH2 0x100 EXP DUP2 SLOAD DUP2 PUSH20 0xFFFFFFFFFFFFFFFFFFFFFFFFFFFFFFFFFFFFFFFF MUL NOT AND SWAP1 DUP4 PUSH20 0xFFFFFFFFFFFFFFFFFFFFFFFFFFFFFFFFFFFFFFFF AND MUL OR SWAP1 SSTORE POP POP JUMP JUMPDEST PUSH1 0x0 PUSH2 0x1019 PUSH1 0x7 SLOAD PUSH2 0x100B PUSH10 0xD3C21BCECCEDA1000000 DUP6 PUSH2 0x15DB SWAP1 SWAP2 SWAP1 PUSH4 0xFFFFFFFF AND JUMP JUMPDEST PUSH2 0x15C5 SWAP1 SWAP2 SWAP1 PUSH4 0xFFFFFFFF AND JUMP JUMPDEST SWAP1 POP SWAP2 SWAP1 POP JUMP JUMPDEST PUSH1 0x0 DUP2 DUP4 PUSH2 0x102E SWAP2 SWAP1 PUSH2 0x204B JUMP JUMPDEST SWAP1 POP SWAP3 SWAP2 POP POP JUMP JUMPDEST PUSH2 0x1088 DUP2 PUSH1 0xA PUSH1 0x0 DUP7 PUSH20 0xFFFFFFFFFFFFFFFFFFFFFFFFFFFFFFFFFFFFFFFF AND PUSH20 0xFFFFFFFFFFFFFFFFFFFFFFFFFFFFFFFFFFFFFFFF AND DUP2 MSTORE PUSH1 0x20 ADD SWAP1 DUP2 MSTORE PUSH1 0x20 ADD PUSH1 0x0 KECCAK256 SLOAD PUSH2 0x1020 SWAP1 SWAP2 SWAP1 PUSH4 0xFFFFFFFF AND JUMP JUMPDEST PUSH1 0xA PUSH1 0x0 DUP6 PUSH20 0xFFFFFFFFFFFFFFFFFFFFFFFFFFFFFFFFFFFFFFFF AND PUSH20 0xFFFFFFFFFFFFFFFFFFFFFFFFFFFFFFFFFFFFFFFF AND DUP2 MSTORE PUSH1 0x20 ADD SWAP1 DUP2 MSTORE PUSH1 0x20 ADD PUSH1 0x0 KECCAK256 DUP2 SWAP1 SSTORE POP PUSH2 0x111D DUP2 PUSH1 0xA PUSH1 0x0 DUP6 PUSH20 0xFFFFFFFFFFFFFFFFFFFFFFFFFFFFFFFFFFFFFFFF AND PUSH20 0xFFFFFFFFFFFFFFFFFFFFFFFFFFFFFFFFFFFFFFFF AND DUP2 MSTORE PUSH1 0x20 ADD SWAP1 DUP2 MSTORE PUSH1 0x20 ADD PUSH1 0x0 KECCAK256 SLOAD PUSH2 0x187D SWAP1 SWAP2 SWAP1 PUSH4 0xFFFFFFFF AND JUMP JUMPDEST PUSH1 0xA PUSH1 0x0 DUP5 PUSH20 0xFFFFFFFFFFFFFFFFFFFFFFFFFFFFFFFFFFFFFFFF AND PUSH20 0xFFFFFFFFFFFFFFFFFFFFFFFFFFFFFFFFFFFFFFFF AND DUP2 MSTORE PUSH1 0x20 ADD SWAP1 DUP2 MSTORE PUSH1 0x20 ADD PUSH1 0x0 KECCAK256 DUP2 SWAP1 SSTORE POP POP POP POP JUMP JUMPDEST PUSH2 0x117A DUP2 PUSH1 0x9 SLOAD PUSH2 0x1020 SWAP1 SWAP2 SWAP1 PUSH4 0xFFFFFFFF AND JUMP JUMPDEST PUSH1 0x9 DUP2 SWAP1 SSTORE POP PUSH1 0x0 PUSH2 0x118B DUP3 PUSH2 0xFE6 JUMP JUMPDEST SWAP1 POP PUSH2 0x11A2 DUP2 PUSH1 0x8 SLOAD PUSH2 0x1020 SWAP1 SWAP2 SWAP1 PUSH4 0xFFFFFFFF AND JUMP JUMPDEST PUSH1 0x8 DUP2 SWAP1 SSTORE POP PUSH2 0x11FA DUP2 PUSH1 0xA PUSH1 0x0 DUP7 PUSH20 0xFFFFFFFFFFFFFFFFFFFFFFFFFFFFFFFFFFFFFFFF AND PUSH20 0xFFFFFFFFFFFFFFFFFFFFFFFFFFFFFFFFFFFFFFFF AND DUP2 MSTORE PUSH1 0x20 ADD SWAP1 DUP2 MSTORE PUSH1 0x20 ADD PUSH1 0x0 KECCAK256 SLOAD PUSH2 0x1020 SWAP1 SWAP2 SWAP1 PUSH4 0xFFFFFFFF AND JUMP JUMPDEST PUSH1 0xA PUSH1 0x0 DUP6 PUSH20 0xFFFFFFFFFFFFFFFFFFFFFFFFFFFFFFFFFFFFFFFF AND PUSH20 0xFFFFFFFFFFFFFFFFFFFFFFFFFFFFFFFFFFFFFFFF AND DUP2 MSTORE PUSH1 0x20 ADD SWAP1 DUP2 MSTORE PUSH1 0x20 ADD PUSH1 0x0 KECCAK256 DUP2 SWAP1 SSTORE POP PUSH1 0x0 PUSH20 0xFFFFFFFFFFFFFFFFFFFFFFFFFFFFFFFFFFFFFFFF AND DUP4 PUSH20 0xFFFFFFFFFFFFFFFFFFFFFFFFFFFFFFFFFFFFFFFF AND PUSH32 0xDDF252AD1BE2C89B69C2B068FC378DAA952BA7F163C4A11628F55A4DF523B3EF DUP5 PUSH1 0x40 MLOAD PUSH2 0x129B SWAP2 SWAP1 PUSH2 0x1E8B JUMP JUMPDEST PUSH1 0x40 MLOAD DUP1 SWAP2 SUB SWAP1 LOG3 POP POP POP JUMP JUMPDEST PUSH1 0x0 PUSH2 0x12DB PUSH10 0xD3C21BCECCEDA1000000 PUSH2 0x12CD PUSH1 0x7 SLOAD DUP6 PUSH2 0x15DB SWAP1 SWAP2 SWAP1 PUSH4 0xFFFFFFFF AND JUMP JUMPDEST PUSH2 0x15C5 SWAP1 SWAP2 SWAP1 PUSH4 0xFFFFFFFF AND JUMP JUMPDEST SWAP1 POP SWAP2 SWAP1 POP JUMP JUMPDEST PUSH1 0x0 PUSH32 0xCDF55265E339B2F78FD9D383F78922F9383EF1FCBCC8993BE7A5BD6F82607487 DUP5 DUP5 DUP5 PUSH1 0x40 MLOAD PUSH2 0x1317 SWAP4 SWAP3 SWAP2 SWAP1 PUSH2 0x1EA6 JUMP JUMPDEST PUSH1 0x40 MLOAD DUP1 SWAP2 SUB SWAP1 LOG1 PUSH1 0x0 DUP4 EQ ISZERO PUSH2 0x1332 JUMPI PUSH1 0x9 SLOAD SWAP1 POP PUSH2 0x142F JUMP JUMPDEST DUP2 PUSH2 0x139F JUMPI PUSH8 0xDE0B6B3A7640000 DUP4 LT PUSH2 0x134B JUMPI PUSH1 0x0 DUP1 REVERT JUMPDEST PUSH2 0x1394 PUSH8 0xDE0B6B3A7640000 PUSH2 0x1386 PUSH2 0x1375 DUP7 PUSH8 0xDE0B6B3A7640000 PUSH2 0x1020 SWAP1 SWAP2 SWAP1 PUSH4 0xFFFFFFFF AND JUMP JUMPDEST PUSH1 0x7 SLOAD PUSH2 0x15DB SWAP1 SWAP2 SWAP1 PUSH4 0xFFFFFFFF AND JUMP JUMPDEST PUSH2 0x15C5 SWAP1 SWAP2 SWAP1 PUSH4 0xFFFFFFFF AND JUMP JUMPDEST PUSH1 0x7 DUP2 SWAP1 SSTORE POP PUSH2 0x1418 JUMP JUMPDEST PUSH1 0x0 PUSH2 0x13EA PUSH8 0xDE0B6B3A7640000 PUSH2 0x13DC PUSH2 0x13CB DUP8 PUSH8 0xDE0B6B3A7640000 PUSH2 0x187D SWAP1 SWAP2 SWAP1 PUSH4 0xFFFFFFFF AND JUMP JUMPDEST PUSH1 0x7 SLOAD PUSH2 0x15DB SWAP1 SWAP2 SWAP1 PUSH4 0xFFFFFFFF AND JUMP JUMPDEST PUSH2 0x15C5 SWAP1 SWAP2 SWAP1 PUSH4 0xFFFFFFFF AND JUMP JUMPDEST SWAP1 POP PUSH2 0x13F4 PUSH2 0x1893 JUMP JUMPDEST DUP2 LT ISZERO PUSH2 0x1407 JUMPI DUP1 PUSH1 0x7 DUP2 SWAP1 SSTORE POP PUSH2 0x1416 JUMP JUMPDEST PUSH2 0x140F PUSH2 0x1893 JUMP JUMPDEST PUSH1 0x7 DUP2 SWAP1 SSTORE POP JUMPDEST POP JUMPDEST PUSH2 0x1423 PUSH1 0x8 SLOAD PUSH2 0x12A8 JUMP JUMPDEST PUSH1 0x9 DUP2 SWAP1 SSTORE POP PUSH1 0x9 SLOAD SWAP1 POP JUMPDEST SWAP4 SWAP3 POP POP POP JUMP JUMPDEST PUSH2 0x144B DUP2 PUSH1 0x9 SLOAD PUSH2 0x187D SWAP1 SWAP2 SWAP1 PUSH4 0xFFFFFFFF AND JUMP JUMPDEST PUSH1 0x9 DUP2 SWAP1 SSTORE POP PUSH1 0x0 PUSH2 0x145C DUP3 PUSH2 0xFE6 JUMP JUMPDEST SWAP1 POP PUSH2 0x1473 DUP2 PUSH1 0x8 SLOAD PUSH2 0x187D SWAP1 SWAP2 SWAP1 PUSH4 0xFFFFFFFF AND JUMP JUMPDEST PUSH1 0x8 DUP2 SWAP1 SSTORE POP PUSH2 0x1481 PUSH2 0x1893 JUMP JUMPDEST PUSH1 0x7 SLOAD GT ISZERO PUSH2 0x14C5 JUMPI PUSH1 0x40 MLOAD PUSH32 0x8C379A000000000000000000000000000000000000000000000000000000000 DUP2 MSTORE PUSH1 0x4 ADD PUSH2 0x14BC SWAP1 PUSH2 0x1DEB JUMP JUMPDEST PUSH1 0x40 MLOAD DUP1 SWAP2 SUB SWAP1 REVERT JUMPDEST PUSH2 0x1517 DUP2 PUSH1 0xA PUSH1 0x0 DUP7 PUSH20 0xFFFFFFFFFFFFFFFFFFFFFFFFFFFFFFFFFFFFFFFF AND PUSH20 0xFFFFFFFFFFFFFFFFFFFFFFFFFFFFFFFFFFFFFFFF AND DUP2 MSTORE PUSH1 0x20 ADD SWAP1 DUP2 MSTORE PUSH1 0x20 ADD PUSH1 0x0 KECCAK256 SLOAD PUSH2 0x187D SWAP1 SWAP2 SWAP1 PUSH4 0xFFFFFFFF AND JUMP JUMPDEST PUSH1 0xA PUSH1 0x0 DUP6 PUSH20 0xFFFFFFFFFFFFFFFFFFFFFFFFFFFFFFFFFFFFFFFF AND PUSH20 0xFFFFFFFFFFFFFFFFFFFFFFFFFFFFFFFFFFFFFFFF AND DUP2 MSTORE PUSH1 0x20 ADD SWAP1 DUP2 MSTORE PUSH1 0x20 ADD PUSH1 0x0 KECCAK256 DUP2 SWAP1 SSTORE POP DUP3 PUSH20 0xFFFFFFFFFFFFFFFFFFFFFFFFFFFFFFFFFFFFFFFF AND PUSH1 0x0 PUSH20 0xFFFFFFFFFFFFFFFFFFFFFFFFFFFFFFFFFFFFFFFF AND PUSH32 0xDDF252AD1BE2C89B69C2B068FC378DAA952BA7F163C4A11628F55A4DF523B3EF DUP5 PUSH1 0x40 MLOAD PUSH2 0x15B8 SWAP2 SWAP1 PUSH2 0x1E8B JUMP JUMPDEST PUSH1 0x40 MLOAD DUP1 SWAP2 SUB SWAP1 LOG3 POP POP POP JUMP JUMPDEST PUSH1 0x0 DUP2 DUP4 PUSH2 0x15D3 SWAP2 SWAP1 PUSH2 0x1FC0 JUMP JUMPDEST SWAP1 POP SWAP3 SWAP2 POP POP JUMP JUMPDEST PUSH1 0x0 DUP2 DUP4 PUSH2 0x15E9 SWAP2 SWAP1 PUSH2 0x1FF1 JUMP JUMPDEST SWAP1 POP SWAP3 SWAP2 POP POP JUMP JUMPDEST PUSH1 0x0 DUP1 SLOAD SWAP1 PUSH2 0x100 EXP SWAP1 DIV PUSH1 0xFF AND ISZERO PUSH2 0x163F JUMPI PUSH1 0x40 MLOAD PUSH32 0x8C379A000000000000000000000000000000000000000000000000000000000 DUP2 MSTORE PUSH1 0x4 ADD PUSH2 0x1636 SWAP1 PUSH2 0x1E6B JUMP JUMPDEST PUSH1 0x40 MLOAD DUP1 SWAP2 SUB SWAP1 REVERT JUMPDEST PUSH8 0xDE0B6B3A7640000 PUSH1 0x7 DUP2 SWAP1 SSTORE POP CALLER PUSH1 0x3 PUSH1 0x1 PUSH2 0x100 EXP DUP2 SLOAD DUP2 PUSH20 0xFFFFFFFFFFFFFFFFFFFFFFFFFFFFFFFFFFFFFFFF MUL NOT AND SWAP1 DUP4 PUSH20 0xFFFFFFFFFFFFFFFFFFFFFFFFFFFFFFFFFFFFFFFF AND MUL OR SWAP1 SSTORE POP DUP4 PUSH1 0x1 SWAP1 DUP1 MLOAD SWAP1 PUSH1 0x20 ADD SWAP1 PUSH2 0x16A5 SWAP3 SWAP2 SWAP1 PUSH2 0x18CF JUMP JUMPDEST POP DUP3 PUSH1 0x2 SWAP1 DUP1 MLOAD SWAP1 PUSH1 0x20 ADD SWAP1 PUSH2 0x16BC SWAP3 SWAP2 SWAP1 PUSH2 0x18CF JUMP JUMPDEST POP DUP2 PUSH1 0x3 PUSH1 0x0 PUSH2 0x100 EXP DUP2 SLOAD DUP2 PUSH1 0xFF MUL NOT AND SWAP1 DUP4 PUSH1 0xFF AND MUL OR SWAP1 SSTORE POP DUP1 PUSH1 0x9 DUP2 SWAP1 SSTORE POP PUSH2 0x16E8 DUP2 PUSH2 0xFE6 JUMP JUMPDEST PUSH1 0x8 DUP2 SWAP1 SSTORE POP PUSH1 0x8 SLOAD PUSH1 0xA PUSH1 0x0 CALLER PUSH20 0xFFFFFFFFFFFFFFFFFFFFFFFFFFFFFFFFFFFFFFFF AND PUSH20 0xFFFFFFFFFFFFFFFFFFFFFFFFFFFFFFFFFFFFFFFF AND DUP2 MSTORE PUSH1 0x20 ADD SWAP1 DUP2 MSTORE PUSH1 0x20 ADD PUSH1 0x0 KECCAK256 DUP2 SWAP1 SSTORE POP PUSH1 0x3 PUSH1 0x1 SWAP1 SLOAD SWAP1 PUSH2 0x100 EXP SWAP1 DIV PUSH20 0xFFFFFFFFFFFFFFFFFFFFFFFFFFFFFFFFFFFFFFFF AND PUSH1 0x4 PUSH1 0x0 PUSH2 0x100 EXP DUP2 SLOAD DUP2 PUSH20 0xFFFFFFFFFFFFFFFFFFFFFFFFFFFFFFFFFFFFFFFF MUL NOT AND SWAP1 DUP4 PUSH20 0xFFFFFFFFFFFFFFFFFFFFFFFFFFFFFFFFFFFFFFFF AND MUL OR SWAP1 SSTORE POP PUSH1 0x3 PUSH1 0x1 SWAP1 SLOAD SWAP1 PUSH2 0x100 EXP SWAP1 DIV PUSH20 0xFFFFFFFFFFFFFFFFFFFFFFFFFFFFFFFFFFFFFFFF AND PUSH1 0x5 PUSH1 0x0 PUSH2 0x100 EXP DUP2 SLOAD DUP2 PUSH20 0xFFFFFFFFFFFFFFFFFFFFFFFFFFFFFFFFFFFFFFFF MUL NOT AND SWAP1 DUP4 PUSH20 0xFFFFFFFFFFFFFFFFFFFFFFFFFFFFFFFFFFFFFFFF AND MUL OR SWAP1 SSTORE POP PUSH1 0x3 PUSH1 0x1 SWAP1 SLOAD SWAP1 PUSH2 0x100 EXP SWAP1 DIV PUSH20 0xFFFFFFFFFFFFFFFFFFFFFFFFFFFFFFFFFFFFFFFF AND PUSH1 0x6 PUSH1 0x0 PUSH2 0x100 EXP DUP2 SLOAD DUP2 PUSH20 0xFFFFFFFFFFFFFFFFFFFFFFFFFFFFFFFFFFFFFFFF MUL NOT AND SWAP1 DUP4 PUSH20 0xFFFFFFFFFFFFFFFFFFFFFFFFFFFFFFFFFFFFFFFF AND MUL OR SWAP1 SSTORE POP PUSH1 0x1 PUSH1 0x0 DUP1 PUSH2 0x100 EXP DUP2 SLOAD DUP2 PUSH1 0xFF MUL NOT AND SWAP1 DUP4 ISZERO ISZERO MUL OR SWAP1 SSTORE POP POP POP POP POP JUMP JUMPDEST PUSH1 0x0 DUP2 DUP4 PUSH2 0x188B SWAP2 SWAP1 PUSH2 0x1F6A JUMP JUMPDEST SWAP1 POP SWAP3 SWAP2 POP POP JUMP JUMPDEST PUSH1 0x0 PUSH2 0x18CA PUSH1 0x8 SLOAD PUSH32 0xFFFFFFFFFFFFFFFFFFFFFFFFFFFFFFFFFFFFFFFFFFFFFFFFFFFFFFFFFFFFFFFF PUSH2 0x15C5 SWAP1 SWAP2 SWAP1 PUSH4 0xFFFFFFFF AND JUMP JUMPDEST SWAP1 POP SWAP1 JUMP JUMPDEST DUP3 DUP1 SLOAD PUSH2 0x18DB SWAP1 PUSH2 0x2116 JUMP JUMPDEST SWAP1 PUSH1 0x0 MSTORE PUSH1 0x20 PUSH1 0x0 KECCAK256 SWAP1 PUSH1 0x1F ADD PUSH1 0x20 SWAP1 DIV DUP2 ADD SWAP3 DUP3 PUSH2 0x18FD JUMPI PUSH1 0x0 DUP6 SSTORE PUSH2 0x1944 JUMP JUMPDEST DUP3 PUSH1 0x1F LT PUSH2 0x1916 JUMPI DUP1 MLOAD PUSH1 0xFF NOT AND DUP4 DUP1 ADD OR DUP6 SSTORE PUSH2 0x1944 JUMP JUMPDEST DUP3 DUP1 ADD PUSH1 0x1 ADD DUP6 SSTORE DUP3 ISZERO PUSH2 0x1944 JUMPI SWAP2 DUP3 ADD JUMPDEST DUP3 DUP2 GT ISZERO PUSH2 0x1943 JUMPI DUP3 MLOAD DUP3 SSTORE SWAP2 PUSH1 0x20 ADD SWAP2 SWAP1 PUSH1 0x1 ADD SWAP1 PUSH2 0x1928 JUMP JUMPDEST JUMPDEST POP SWAP1 POP PUSH2 0x1951 SWAP2 SWAP1 PUSH2 0x1955 JUMP JUMPDEST POP SWAP1 JUMP JUMPDEST JUMPDEST DUP1 DUP3 GT ISZERO PUSH2 0x196E JUMPI PUSH1 0x0 DUP2 PUSH1 0x0 SWAP1 SSTORE POP PUSH1 0x1 ADD PUSH2 0x1956 JUMP JUMPDEST POP SWAP1 JUMP JUMPDEST PUSH1 0x0 PUSH2 0x1985 PUSH2 0x1980 DUP5 PUSH2 0x1F1D JUMP JUMPDEST PUSH2 0x1EF8 JUMP JUMPDEST SWAP1 POP DUP3 DUP2 MSTORE PUSH1 0x20 DUP2 ADD DUP5 DUP5 DUP5 ADD GT ISZERO PUSH2 0x19A1 JUMPI PUSH2 0x19A0 PUSH2 0x223A JUMP JUMPDEST JUMPDEST PUSH2 0x19AC DUP5 DUP3 DUP6 PUSH2 0x20D4 JUMP JUMPDEST POP SWAP4 SWAP3 POP POP POP JUMP JUMPDEST PUSH1 0x0 DUP2 CALLDATALOAD SWAP1 POP PUSH2 0x19C3 DUP2 PUSH2 0x2350 JUMP JUMPDEST SWAP3 SWAP2 POP POP JUMP JUMPDEST PUSH1 0x0 DUP2 CALLDATALOAD SWAP1 POP PUSH2 0x19D8 DUP2 PUSH2 0x2367 JUMP JUMPDEST SWAP3 SWAP2 POP POP JUMP JUMPDEST PUSH1 0x0 DUP3 PUSH1 0x1F DUP4 ADD SLT PUSH2 0x19F3 JUMPI PUSH2 0x19F2 PUSH2 0x2235 JUMP JUMPDEST JUMPDEST DUP2 CALLDATALOAD PUSH2 0x1A03 DUP5 DUP3 PUSH1 0x20 DUP7 ADD PUSH2 0x1972 JUMP JUMPDEST SWAP2 POP POP SWAP3 SWAP2 POP POP JUMP JUMPDEST PUSH1 0x0 DUP2 CALLDATALOAD SWAP1 POP PUSH2 0x1A1B DUP2 PUSH2 0x237E JUMP JUMPDEST SWAP3 SWAP2 POP POP JUMP JUMPDEST PUSH1 0x0 PUSH1 0x20 DUP3 DUP5 SUB SLT ISZERO PUSH2 0x1A37 JUMPI PUSH2 0x1A36 PUSH2 0x2244 JUMP JUMPDEST JUMPDEST PUSH1 0x0 PUSH2 0x1A45 DUP5 DUP3 DUP6 ADD PUSH2 0x19B4 JUMP JUMPDEST SWAP2 POP POP SWAP3 SWAP2 POP POP JUMP JUMPDEST PUSH1 0x0 DUP1 PUSH1 0x40 DUP4 DUP6 SUB SLT ISZERO PUSH2 0x1A65 JUMPI PUSH2 0x1A64 PUSH2 0x2244 JUMP JUMPDEST JUMPDEST PUSH1 0x0 PUSH2 0x1A73 DUP6 DUP3 DUP7 ADD PUSH2 0x19B4 JUMP JUMPDEST SWAP3 POP POP PUSH1 0x20 PUSH2 0x1A84 DUP6 DUP3 DUP7 ADD PUSH2 0x19B4 JUMP JUMPDEST SWAP2 POP POP SWAP3 POP SWAP3 SWAP1 POP JUMP JUMPDEST PUSH1 0x0 DUP1 PUSH1 0x0 PUSH1 0x60 DUP5 DUP7 SUB SLT ISZERO PUSH2 0x1AA7 JUMPI PUSH2 0x1AA6 PUSH2 0x2244 JUMP JUMPDEST JUMPDEST PUSH1 0x0 PUSH2 0x1AB5 DUP7 DUP3 DUP8 ADD PUSH2 0x19B4 JUMP JUMPDEST SWAP4 POP POP PUSH1 0x20 PUSH2 0x1AC6 DUP7 DUP3 DUP8 ADD PUSH2 0x19B4 JUMP JUMPDEST SWAP3 POP POP PUSH1 0x40 PUSH2 0x1AD7 DUP7 DUP3 DUP8 ADD PUSH2 0x1A0C JUMP JUMPDEST SWAP2 POP POP SWAP3 POP SWAP3 POP SWAP3 JUMP JUMPDEST PUSH1 0x0 DUP1 PUSH1 0x40 DUP4 DUP6 SUB SLT ISZERO PUSH2 0x1AF8 JUMPI PUSH2 0x1AF7 PUSH2 0x2244 JUMP JUMPDEST JUMPDEST PUSH1 0x0 PUSH2 0x1B06 DUP6 DUP3 DUP7 ADD PUSH2 0x19B4 JUMP JUMPDEST SWAP3 POP POP PUSH1 0x20 PUSH2 0x1B17 DUP6 DUP3 DUP7 ADD PUSH2 0x1A0C JUMP JUMPDEST SWAP2 POP POP SWAP3 POP SWAP3 SWAP1 POP JUMP JUMPDEST PUSH1 0x0 DUP1 PUSH1 0x0 PUSH1 0x60 DUP5 DUP7 SUB SLT ISZERO PUSH2 0x1B3A JUMPI PUSH2 0x1B39 PUSH2 0x2244 JUMP JUMPDEST JUMPDEST PUSH1 0x0 DUP5 ADD CALLDATALOAD PUSH8 0xFFFFFFFFFFFFFFFF DUP2 GT ISZERO PUSH2 0x1B58 JUMPI PUSH2 0x1B57 PUSH2 0x223F JUMP JUMPDEST JUMPDEST PUSH2 0x1B64 DUP7 DUP3 DUP8 ADD PUSH2 0x19DE JUMP JUMPDEST SWAP4 POP POP PUSH1 0x20 DUP5 ADD CALLDATALOAD PUSH8 0xFFFFFFFFFFFFFFFF DUP2 GT ISZERO PUSH2 0x1B85 JUMPI PUSH2 0x1B84 PUSH2 0x223F JUMP JUMPDEST JUMPDEST PUSH2 0x1B91 DUP7 DUP3 DUP8 ADD PUSH2 0x19DE JUMP JUMPDEST SWAP3 POP POP PUSH1 0x40 PUSH2 0x1BA2 DUP7 DUP3 DUP8 ADD PUSH2 0x1A0C JUMP JUMPDEST SWAP2 POP POP SWAP3 POP SWAP3 POP SWAP3 JUMP JUMPDEST PUSH1 0x0 PUSH1 0x20 DUP3 DUP5 SUB SLT ISZERO PUSH2 0x1BC2 JUMPI PUSH2 0x1BC1 PUSH2 0x2244 JUMP JUMPDEST JUMPDEST PUSH1 0x0 PUSH2 0x1BD0 DUP5 DUP3 DUP6 ADD PUSH2 0x1A0C JUMP JUMPDEST SWAP2 POP POP SWAP3 SWAP2 POP POP JUMP JUMPDEST PUSH1 0x0 DUP1 PUSH1 0x0 PUSH1 0x60 DUP5 DUP7 SUB SLT ISZERO PUSH2 0x1BF2 JUMPI PUSH2 0x1BF1 PUSH2 0x2244 JUMP JUMPDEST JUMPDEST PUSH1 0x0 PUSH2 0x1C00 DUP7 DUP3 DUP8 ADD PUSH2 0x1A0C JUMP JUMPDEST SWAP4 POP POP PUSH1 0x20 PUSH2 0x1C11 DUP7 DUP3 DUP8 ADD PUSH2 0x1A0C JUMP JUMPDEST SWAP3 POP POP PUSH1 0x40 PUSH2 0x1C22 DUP7 DUP3 DUP8 ADD PUSH2 0x19C9 JUMP JUMPDEST SWAP2 POP POP SWAP3 POP SWAP3 POP SWAP3 JUMP JUMPDEST PUSH2 0x1C35 DUP2 PUSH2 0x207F JUMP JUMPDEST DUP3 MSTORE POP POP JUMP JUMPDEST PUSH2 0x1C44 DUP2 PUSH2 0x2091 JUMP JUMPDEST DUP3 MSTORE POP POP JUMP JUMPDEST PUSH1 0x0 PUSH2 0x1C55 DUP3 PUSH2 0x1F4E JUMP JUMPDEST PUSH2 0x1C5F DUP2 DUP6 PUSH2 0x1F59 JUMP JUMPDEST SWAP4 POP PUSH2 0x1C6F DUP2 DUP6 PUSH1 0x20 DUP7 ADD PUSH2 0x20E3 JUMP JUMPDEST PUSH2 0x1C78 DUP2 PUSH2 0x2249 JUMP JUMPDEST DUP5 ADD SWAP2 POP POP SWAP3 SWAP2 POP POP JUMP JUMPDEST PUSH1 0x0 PUSH2 0x1C90 PUSH1 0x11 DUP4 PUSH2 0x1F59 JUMP JUMPDEST SWAP2 POP PUSH2 0x1C9B DUP3 PUSH2 0x225A JUMP JUMPDEST PUSH1 0x20 DUP3 ADD SWAP1 POP SWAP2 SWAP1 POP JUMP JUMPDEST PUSH1 0x0 PUSH2 0x1CB3 PUSH1 0x20 DUP4 PUSH2 0x1F59 JUMP JUMPDEST SWAP2 POP PUSH2 0x1CBE DUP3 PUSH2 0x2283 JUMP JUMPDEST PUSH1 0x20 DUP3 ADD SWAP1 POP SWAP2 SWAP1 POP JUMP JUMPDEST PUSH1 0x0 PUSH2 0x1CD6 PUSH1 0x1F DUP4 PUSH2 0x1F59 JUMP JUMPDEST SWAP2 POP PUSH2 0x1CE1 DUP3 PUSH2 0x22AC JUMP JUMPDEST PUSH1 0x20 DUP3 ADD SWAP1 POP SWAP2 SWAP1 POP JUMP JUMPDEST PUSH1 0x0 PUSH2 0x1CF9 PUSH1 0x10 DUP4 PUSH2 0x1F59 JUMP JUMPDEST SWAP2 POP PUSH2 0x1D04 DUP3 PUSH2 0x22D5 JUMP JUMPDEST PUSH1 0x20 DUP3 ADD SWAP1 POP SWAP2 SWAP1 POP JUMP JUMPDEST PUSH1 0x0 PUSH2 0x1D1C PUSH1 0x12 DUP4 PUSH2 0x1F59 JUMP JUMPDEST SWAP2 POP PUSH2 0x1D27 DUP3 PUSH2 0x22FE JUMP JUMPDEST PUSH1 0x20 DUP3 ADD SWAP1 POP SWAP2 SWAP1 POP JUMP JUMPDEST PUSH1 0x0 PUSH2 0x1D3F PUSH1 0xB DUP4 PUSH2 0x1F59 JUMP JUMPDEST SWAP2 POP PUSH2 0x1D4A DUP3 PUSH2 0x2327 JUMP JUMPDEST PUSH1 0x20 DUP3 ADD SWAP1 POP SWAP2 SWAP1 POP JUMP JUMPDEST PUSH2 0x1D5E DUP2 PUSH2 0x20BD JUMP JUMPDEST DUP3 MSTORE POP POP JUMP JUMPDEST PUSH2 0x1D6D DUP2 PUSH2 0x20C7 JUMP JUMPDEST DUP3 MSTORE POP POP JUMP JUMPDEST PUSH1 0x0 PUSH1 0x20 DUP3 ADD SWAP1 POP PUSH2 0x1D88 PUSH1 0x0 DUP4 ADD DUP5 PUSH2 0x1C2C JUMP JUMPDEST SWAP3 SWAP2 POP POP JUMP JUMPDEST PUSH1 0x0 PUSH1 0x20 DUP3 ADD SWAP1 POP PUSH2 0x1DA3 PUSH1 0x0 DUP4 ADD DUP5 PUSH2 0x1C3B JUMP JUMPDEST SWAP3 SWAP2 POP POP JUMP JUMPDEST PUSH1 0x0 PUSH1 0x20 DUP3 ADD SWAP1 POP DUP2 DUP2 SUB PUSH1 0x0 DUP4 ADD MSTORE PUSH2 0x1DC3 DUP2 DUP5 PUSH2 0x1C4A JUMP JUMPDEST SWAP1 POP SWAP3 SWAP2 POP POP JUMP JUMPDEST PUSH1 0x0 PUSH1 0x20 DUP3 ADD SWAP1 POP DUP2 DUP2 SUB PUSH1 0x0 DUP4 ADD MSTORE PUSH2 0x1DE4 DUP2 PUSH2 0x1C83 JUMP JUMPDEST SWAP1 POP SWAP2 SWAP1 POP JUMP JUMPDEST PUSH1 0x0 PUSH1 0x20 DUP3 ADD SWAP1 POP DUP2 DUP2 SUB PUSH1 0x0 DUP4 ADD MSTORE PUSH2 0x1E04 DUP2 PUSH2 0x1CA6 JUMP JUMPDEST SWAP1 POP SWAP2 SWAP1 POP JUMP JUMPDEST PUSH1 0x0 PUSH1 0x20 DUP3 ADD SWAP1 POP DUP2 DUP2 SUB PUSH1 0x0 DUP4 ADD MSTORE PUSH2 0x1E24 DUP2 PUSH2 0x1CC9 JUMP JUMPDEST SWAP1 POP SWAP2 SWAP1 POP JUMP JUMPDEST PUSH1 0x0 PUSH1 0x20 DUP3 ADD SWAP1 POP DUP2 DUP2 SUB PUSH1 0x0 DUP4 ADD MSTORE PUSH2 0x1E44 DUP2 PUSH2 0x1CEC JUMP JUMPDEST SWAP1 POP SWAP2 SWAP1 POP JUMP JUMPDEST PUSH1 0x0 PUSH1 0x20 DUP3 ADD SWAP1 POP DUP2 DUP2 SUB PUSH1 0x0 DUP4 ADD MSTORE PUSH2 0x1E64 DUP2 PUSH2 0x1D0F JUMP JUMPDEST SWAP1 POP SWAP2 SWAP1 POP JUMP JUMPDEST PUSH1 0x0 PUSH1 0x20 DUP3 ADD SWAP1 POP DUP2 DUP2 SUB PUSH1 0x0 DUP4 ADD MSTORE PUSH2 0x1E84 DUP2 PUSH2 0x1D32 JUMP JUMPDEST SWAP1 POP SWAP2 SWAP1 POP JUMP JUMPDEST PUSH1 0x0 PUSH1 0x20 DUP3 ADD SWAP1 POP PUSH2 0x1EA0 PUSH1 0x0 DUP4 ADD DUP5 PUSH2 0x1D55 JUMP JUMPDEST SWAP3 SWAP2 POP POP JUMP JUMPDEST PUSH1 0x0 PUSH1 0x60 DUP3 ADD SWAP1 POP PUSH2 0x1EBB PUSH1 0x0 DUP4 ADD DUP7 PUSH2 0x1D55 JUMP JUMPDEST PUSH2 0x1EC8 PUSH1 0x20 DUP4 ADD DUP6 PUSH2 0x1D55 JUMP JUMPDEST PUSH2 0x1ED5 PUSH1 0x40 DUP4 ADD DUP5 PUSH2 0x1C3B JUMP JUMPDEST SWAP5 SWAP4 POP POP POP POP JUMP JUMPDEST PUSH1 0x0 PUSH1 0x20 DUP3 ADD SWAP1 POP PUSH2 0x1EF2 PUSH1 0x0 DUP4 ADD DUP5 PUSH2 0x1D64 JUMP JUMPDEST SWAP3 SWAP2 POP POP JUMP JUMPDEST PUSH1 0x0 PUSH2 0x1F02 PUSH2 0x1F13 JUMP JUMPDEST SWAP1 POP PUSH2 0x1F0E DUP3 DUP3 PUSH2 0x2148 JUMP JUMPDEST SWAP2 SWAP1 POP JUMP JUMPDEST PUSH1 0x0 PUSH1 0x40 MLOAD SWAP1 POP SWAP1 JUMP JUMPDEST PUSH1 0x0 PUSH8 0xFFFFFFFFFFFFFFFF DUP3 GT ISZERO PUSH2 0x1F38 JUMPI PUSH2 0x1F37 PUSH2 0x2206 JUMP JUMPDEST JUMPDEST PUSH2 0x1F41 DUP3 PUSH2 0x2249 JUMP JUMPDEST SWAP1 POP PUSH1 0x20 DUP2 ADD SWAP1 POP SWAP2 SWAP1 POP JUMP JUMPDEST PUSH1 0x0 DUP2 MLOAD SWAP1 POP SWAP2 SWAP1 POP JUMP JUMPDEST PUSH1 0x0 DUP3 DUP3 MSTORE PUSH1 0x20 DUP3 ADD SWAP1 POP SWAP3 SWAP2 POP POP JUMP JUMPDEST PUSH1 0x0 PUSH2 0x1F75 DUP3 PUSH2 0x20BD JUMP JUMPDEST SWAP2 POP PUSH2 0x1F80 DUP4 PUSH2 0x20BD JUMP JUMPDEST SWAP3 POP DUP3 PUSH32 0xFFFFFFFFFFFFFFFFFFFFFFFFFFFFFFFFFFFFFFFFFFFFFFFFFFFFFFFFFFFFFFFF SUB DUP3 GT ISZERO PUSH2 0x1FB5 JUMPI PUSH2 0x1FB4 PUSH2 0x2179 JUMP JUMPDEST JUMPDEST DUP3 DUP3 ADD SWAP1 POP SWAP3 SWAP2 POP POP JUMP JUMPDEST PUSH1 0x0 PUSH2 0x1FCB DUP3 PUSH2 0x20BD JUMP JUMPDEST SWAP2 POP PUSH2 0x1FD6 DUP4 PUSH2 0x20BD JUMP JUMPDEST SWAP3 POP DUP3 PUSH2 0x1FE6 JUMPI PUSH2 0x1FE5 PUSH2 0x21A8 JUMP JUMPDEST JUMPDEST DUP3 DUP3 DIV SWAP1 POP SWAP3 SWAP2 POP POP JUMP JUMPDEST PUSH1 0x0 PUSH2 0x1FFC DUP3 PUSH2 0x20BD JUMP JUMPDEST SWAP2 POP PUSH2 0x2007 DUP4 PUSH2 0x20BD JUMP JUMPDEST SWAP3 POP DUP2 PUSH32 0xFFFFFFFFFFFFFFFFFFFFFFFFFFFFFFFFFFFFFFFFFFFFFFFFFFFFFFFFFFFFFFFF DIV DUP4 GT DUP3 ISZERO ISZERO AND ISZERO PUSH2 0x2040 JUMPI PUSH2 0x203F PUSH2 0x2179 JUMP JUMPDEST JUMPDEST DUP3 DUP3 MUL SWAP1 POP SWAP3 SWAP2 POP POP JUMP JUMPDEST PUSH1 0x0 PUSH2 0x2056 DUP3 PUSH2 0x20BD JUMP JUMPDEST SWAP2 POP PUSH2 0x2061 DUP4 PUSH2 0x20BD JUMP JUMPDEST SWAP3 POP DUP3 DUP3 LT ISZERO PUSH2 0x2074 JUMPI PUSH2 0x2073 PUSH2 0x2179 JUMP JUMPDEST JUMPDEST DUP3 DUP3 SUB SWAP1 POP SWAP3 SWAP2 POP POP JUMP JUMPDEST PUSH1 0x0 PUSH2 0x208A DUP3 PUSH2 0x209D JUMP JUMPDEST SWAP1 POP SWAP2 SWAP1 POP JUMP JUMPDEST PUSH1 0x0 DUP2 ISZERO ISZERO SWAP1 POP SWAP2 SWAP1 POP JUMP JUMPDEST PUSH1 0x0 PUSH20 0xFFFFFFFFFFFFFFFFFFFFFFFFFFFFFFFFFFFFFFFF DUP3 AND SWAP1 POP SWAP2 SWAP1 POP JUMP JUMPDEST PUSH1 0x0 DUP2 SWAP1 POP SWAP2 SWAP1 POP JUMP JUMPDEST PUSH1 0x0 PUSH1 0xFF DUP3 AND SWAP1 POP SWAP2 SWAP1 POP JUMP JUMPDEST DUP3 DUP2 DUP4 CALLDATACOPY PUSH1 0x0 DUP4 DUP4 ADD MSTORE POP POP POP JUMP JUMPDEST PUSH1 0x0 JUMPDEST DUP4 DUP2 LT ISZERO PUSH2 0x2101 JUMPI DUP1 DUP3 ADD MLOAD DUP2 DUP5 ADD MSTORE PUSH1 0x20 DUP2 ADD SWAP1 POP PUSH2 0x20E6 JUMP JUMPDEST DUP4 DUP2 GT ISZERO PUSH2 0x2110 JUMPI PUSH1 0x0 DUP5 DUP5 ADD MSTORE JUMPDEST POP POP POP POP JUMP JUMPDEST PUSH1 0x0 PUSH1 0x2 DUP3 DIV SWAP1 POP PUSH1 0x1 DUP3 AND DUP1 PUSH2 0x212E JUMPI PUSH1 0x7F DUP3 AND SWAP2 POP JUMPDEST PUSH1 0x20 DUP3 LT DUP2 EQ ISZERO PUSH2 0x2142 JUMPI PUSH2 0x2141 PUSH2 0x21D7 JUMP JUMPDEST JUMPDEST POP SWAP2 SWAP1 POP JUMP JUMPDEST PUSH2 0x2151 DUP3 PUSH2 0x2249 JUMP JUMPDEST DUP2 ADD DUP2 DUP2 LT PUSH8 0xFFFFFFFFFFFFFFFF DUP3 GT OR ISZERO PUSH2 0x2170 JUMPI PUSH2 0x216F PUSH2 0x2206 JUMP JUMPDEST JUMPDEST DUP1 PUSH1 0x40 MSTORE POP POP POP JUMP JUMPDEST PUSH32 0x4E487B7100000000000000000000000000000000000000000000000000000000 PUSH1 0x0 MSTORE PUSH1 0x11 PUSH1 0x4 MSTORE PUSH1 0x24 PUSH1 0x0 REVERT JUMPDEST PUSH32 0x4E487B7100000000000000000000000000000000000000000000000000000000 PUSH1 0x0 MSTORE PUSH1 0x12 PUSH1 0x4 MSTORE PUSH1 0x24 PUSH1 0x0 REVERT JUMPDEST PUSH32 0x4E487B7100000000000000000000000000000000000000000000000000000000 PUSH1 0x0 MSTORE PUSH1 0x22 PUSH1 0x4 MSTORE PUSH1 0x24 PUSH1 0x0 REVERT JUMPDEST PUSH32 0x4E487B7100000000000000000000000000000000000000000000000000000000 PUSH1 0x0 MSTORE PUSH1 0x41 PUSH1 0x4 MSTORE PUSH1 0x24 PUSH1 0x0 REVERT JUMPDEST PUSH1 0x0 DUP1 REVERT JUMPDEST PUSH1 0x0 DUP1 REVERT JUMPDEST PUSH1 0x0 DUP1 REVERT JUMPDEST PUSH1 0x0 DUP1 REVERT JUMPDEST PUSH1 0x0 PUSH1 0x1F NOT PUSH1 0x1F DUP4 ADD AND SWAP1 POP SWAP2 SWAP1 POP JUMP JUMPDEST PUSH32 0x4C5543413A206F6E6C79206D696E746572000000000000000000000000000000 PUSH1 0x0 DUP3 ADD MSTORE POP JUMP JUMPDEST PUSH32 0x4C5543413A206D6178207363616C696E6720666163746F7220746F6F206C6F77 PUSH1 0x0 DUP3 ADD MSTORE POP JUMP JUMPDEST PUSH32 0x4C5543413A206D696C6C69206E656564206C657373207468616E203130303000 PUSH1 0x0 DUP3 ADD MSTORE POP JUMP JUMPDEST PUSH32 0x4C5543413A206F6E6C79206F776E657200000000000000000000000000000000 PUSH1 0x0 DUP3 ADD MSTORE POP JUMP JUMPDEST PUSH32 0x4C5543413A206F6E6C7920726562617365720000000000000000000000000000 PUSH1 0x0 DUP3 ADD MSTORE POP JUMP JUMPDEST PUSH32 0x696E697469616C697A6564000000000000000000000000000000000000000000 PUSH1 0x0 DUP3 ADD MSTORE POP JUMP JUMPDEST PUSH2 0x2359 DUP2 PUSH2 0x207F JUMP JUMPDEST DUP2 EQ PUSH2 0x2364 JUMPI PUSH1 0x0 DUP1 REVERT JUMPDEST POP JUMP JUMPDEST PUSH2 0x2370 DUP2 PUSH2 0x2091 JUMP JUMPDEST DUP2 EQ PUSH2 0x237B JUMPI PUSH1 0x0 DUP1 REVERT JUMPDEST POP JUMP JUMPDEST PUSH2 0x2387 DUP2 PUSH2 0x20BD JUMP JUMPDEST DUP2 EQ PUSH2 0x2392 JUMPI PUSH1 0x0 DUP1 REVERT JUMPDEST POP JUMP INVALID LOG2 PUSH5 0x6970667358 0x22 SLT KECCAK256 0xD1 DUP4 0xE5 DUP11 0xA5 SWAP7 0x1F SLT 0x24 RETURNDATACOPY 0x25 MOD DUP8 0x5D 0xC4 SHL 0x24 0x5D SIGNEXTEND DUP14 0xB7 DUP4 0x1E NUMBER 0xC1 DUP4 0xBF 0xDB 0xB0 SWAP10 SHL CODECOPY PUSH5 0x736F6C6343 STOP ADDMOD SMOD STOP CALLER "
		},
		"gasEstimates": {
			"creation": {
				"codeDepositCost": "1832600",
				"executionCost": "1933",
				"totalCost": "1834533"
			},
			"external": {
				"allowance(address,address)": "infinite",
				"approve(address,uint256)": "infinite",
				"balanceOf(address)": "infinite",
				"burn(uint256)": "infinite",
				"decimals()": "2516",
				"fragmentToLuca(uint256)": "infinite",
				"initialize(string,string,uint256)": "infinite",
				"lucaToFragment(uint256)": "infinite",
				"mint(uint256)": "infinite",
				"minter()": "2560",
				"name()": "infinite",
				"owner()": "2609",
				"rebase(uint256,uint256,bool)": "infinite",
				"rebaseByMilli(uint256,uint256,bool)": "infinite",
				"rebaser()": "2604",
				"receiver()": "2624",
				"scalingFactor()": "2517",
				"setMinter(address)": "27074",
				"setRebaser(address)": "27008",
				"setReceiver(address)": "27075",
				"symbol()": "infinite",
				"totalSupply()": "2549",
				"transfer(address,uint256)": "infinite",
				"transferFrom(address,address,uint256)": "infinite"
			},
			"internal": {
				"_initialize(string memory,string memory,uint8,uint256)": "infinite",
				"_rebase(uint256,uint256,bool)": "infinite"
			}
		},
		"methodIdentifiers": {
			"allowance(address,address)": "dd62ed3e",
			"approve(address,uint256)": "095ea7b3",
			"balanceOf(address)": "70a08231",
			"burn(uint256)": "42966c68",
			"decimals()": "313ce567",
			"fragmentToLuca(uint256)": "6493c3c7",
			"initialize(string,string,uint256)": "b119490e",
			"lucaToFragment(uint256)": "1eb9c01e",
			"mint(uint256)": "a0712d68",
			"minter()": "07546172",
			"name()": "06fdde03",
			"owner()": "8da5cb5b",
			"rebase(uint256,uint256,bool)": "7af548c1",
			"rebaseByMilli(uint256,uint256,bool)": "ae2f0c59",
			"rebaser()": "11fd8a83",
			"receiver()": "f7260d3e",
			"scalingFactor()": "ed3437f8",
			"setMinter(address)": "fca3b5aa",
			"setRebaser(address)": "e46adf62",
			"setReceiver(address)": "718da7ee",
			"symbol()": "95d89b41",
			"totalSupply()": "18160ddd",
			"transfer(address,uint256)": "a9059cbb",
			"transferFrom(address,address,uint256)": "23b872dd"
		}
	},
	"abi": [
		{
			"anonymous": false,
			"inputs": [
				{
					"indexed": true,
					"internalType": "address",
					"name": "owner",
					"type": "address"
				},
				{
					"indexed": true,
					"internalType": "address",
					"name": "spender",
					"type": "address"
				},
				{
					"indexed": false,
					"internalType": "uint256",
					"name": "value",
					"type": "uint256"
				}
			],
			"name": "Approval",
			"type": "event"
		},
		{
			"anonymous": false,
			"inputs": [
				{
					"indexed": false,
					"internalType": "uint256",
					"name": "epoch",
					"type": "uint256"
				},
				{
					"indexed": false,
					"internalType": "uint256",
					"name": "indexDelta",
					"type": "uint256"
				},
				{
					"indexed": false,
					"internalType": "bool",
					"name": "positive",
					"type": "bool"
				}
			],
			"name": "Rebase",
			"type": "event"
		},
		{
			"anonymous": false,
			"inputs": [
				{
					"indexed": true,
					"internalType": "address",
					"name": "from",
					"type": "address"
				},
				{
					"indexed": true,
					"internalType": "address",
					"name": "to",
					"type": "address"
				},
				{
					"indexed": false,
					"internalType": "uint256",
					"name": "value",
					"type": "uint256"
				}
			],
			"name": "Transfer",
			"type": "event"
		},
		{
			"inputs": [
				{
					"internalType": "address",
					"name": "owner_",
					"type": "address"
				},
				{
					"internalType": "address",
					"name": "spender",
					"type": "address"
				}
			],
			"name": "allowance",
			"outputs": [
				{
					"internalType": "uint256",
					"name": "",
					"type": "uint256"
				}
			],
			"stateMutability": "view",
			"type": "function"
		},
		{
			"inputs": [
				{
					"internalType": "address",
					"name": "spender",
					"type": "address"
				},
				{
					"internalType": "uint256",
					"name": "value",
					"type": "uint256"
				}
			],
			"name": "approve",
			"outputs": [
				{
					"internalType": "bool",
					"name": "",
					"type": "bool"
				}
			],
			"stateMutability": "nonpayable",
			"type": "function"
		},
		{
			"inputs": [
				{
					"internalType": "address",
					"name": "who",
					"type": "address"
				}
			],
			"name": "balanceOf",
			"outputs": [
				{
					"internalType": "uint256",
					"name": "",
					"type": "uint256"
				}
			],
			"stateMutability": "view",
			"type": "function"
		},
		{
			"inputs": [
				{
					"internalType": "uint256",
					"name": "amount",
					"type": "uint256"
				}
			],
			"name": "burn",
			"outputs": [],
			"stateMutability": "nonpayable",
			"type": "function"
		},
		{
			"inputs": [],
			"name": "decimals",
			"outputs": [
				{
					"internalType": "uint8",
					"name": "",
					"type": "uint8"
				}
			],
			"stateMutability": "view",
			"type": "function"
		},
		{
			"inputs": [
				{
					"internalType": "uint256",
					"name": "value",
					"type": "uint256"
				}
			],
			"name": "fragmentToLuca",
			"outputs": [
				{
					"internalType": "uint256",
					"name": "",
					"type": "uint256"
				}
			],
			"stateMutability": "view",
			"type": "function"
		},
		{
			"inputs": [
				{
					"internalType": "string",
					"name": "name",
					"type": "string"
				},
				{
					"internalType": "string",
					"name": "symbol",
					"type": "string"
				},
				{
					"internalType": "uint256",
					"name": "totalSupply",
					"type": "uint256"
				}
			],
			"name": "initialize",
			"outputs": [],
			"stateMutability": "nonpayable",
			"type": "function"
		},
		{
			"inputs": [
				{
					"internalType": "uint256",
					"name": "value",
					"type": "uint256"
				}
			],
			"name": "lucaToFragment",
			"outputs": [
				{
					"internalType": "uint256",
					"name": "",
					"type": "uint256"
				}
			],
			"stateMutability": "view",
			"type": "function"
		},
		{
			"inputs": [
				{
					"internalType": "uint256",
					"name": "amount",
					"type": "uint256"
				}
			],
			"name": "mint",
			"outputs": [],
			"stateMutability": "nonpayable",
			"type": "function"
		},
		{
			"inputs": [],
			"name": "minter",
			"outputs": [
				{
					"internalType": "address",
					"name": "",
					"type": "address"
				}
			],
			"stateMutability": "view",
			"type": "function"
		},
		{
			"inputs": [],
			"name": "name",
			"outputs": [
				{
					"internalType": "string",
					"name": "",
					"type": "string"
				}
			],
			"stateMutability": "view",
			"type": "function"
		},
		{
			"inputs": [],
			"name": "owner",
			"outputs": [
				{
					"internalType": "address",
					"name": "",
					"type": "address"
				}
			],
			"stateMutability": "view",
			"type": "function"
		},
		{
			"inputs": [
				{
					"internalType": "uint256",
					"name": "epoch",
					"type": "uint256"
				},
				{
					"internalType": "uint256",
					"name": "indexDelta",
					"type": "uint256"
				},
				{
					"internalType": "bool",
					"name": "positive",
					"type": "bool"
				}
			],
			"name": "rebase",
			"outputs": [
				{
					"internalType": "uint256",
					"name": "",
					"type": "uint256"
				}
			],
			"stateMutability": "nonpayable",
			"type": "function"
		},
		{
			"inputs": [
				{
					"internalType": "uint256",
					"name": "epoch",
					"type": "uint256"
				},
				{
					"internalType": "uint256",
					"name": "milli",
					"type": "uint256"
				},
				{
					"internalType": "bool",
					"name": "positive",
					"type": "bool"
				}
			],
			"name": "rebaseByMilli",
			"outputs": [
				{
					"internalType": "uint256",
					"name": "",
					"type": "uint256"
				}
			],
			"stateMutability": "nonpayable",
			"type": "function"
		},
		{
			"inputs": [],
			"name": "rebaser",
			"outputs": [
				{
					"internalType": "address",
					"name": "",
					"type": "address"
				}
			],
			"stateMutability": "view",
			"type": "function"
		},
		{
			"inputs": [],
			"name": "receiver",
			"outputs": [
				{
					"internalType": "address",
					"name": "",
					"type": "address"
				}
			],
			"stateMutability": "view",
			"type": "function"
		},
		{
			"inputs": [],
			"name": "scalingFactor",
			"outputs": [
				{
					"internalType": "uint256",
					"name": "",
					"type": "uint256"
				}
			],
			"stateMutability": "view",
			"type": "function"
		},
		{
			"inputs": [
				{
					"internalType": "address",
					"name": "user",
					"type": "address"
				}
			],
			"name": "setMinter",
			"outputs": [],
			"stateMutability": "nonpayable",
			"type": "function"
		},
		{
			"inputs": [
				{
					"internalType": "address",
					"name": "user",
					"type": "address"
				}
			],
			"name": "setRebaser",
			"outputs": [],
			"stateMutability": "nonpayable",
			"type": "function"
		},
		{
			"inputs": [
				{
					"internalType": "address",
					"name": "user",
					"type": "address"
				}
			],
			"name": "setReceiver",
			"outputs": [],
			"stateMutability": "nonpayable",
			"type": "function"
		},
		{
			"inputs": [],
			"name": "symbol",
			"outputs": [
				{
					"internalType": "string",
					"name": "",
					"type": "string"
				}
			],
			"stateMutability": "view",
			"type": "function"
		},
		{
			"inputs": [],
			"name": "totalSupply",
			"outputs": [
				{
					"internalType": "uint256",
					"name": "",
					"type": "uint256"
				}
			],
			"stateMutability": "view",
			"type": "function"
		},
		{
			"inputs": [
				{
					"internalType": "address",
					"name": "to",
					"type": "address"
				},
				{
					"internalType": "uint256",
					"name": "value",
					"type": "uint256"
				}
			],
			"name": "transfer",
			"outputs": [
				{
					"internalType": "bool",
					"name": "",
					"type": "bool"
				}
			],
			"stateMutability": "nonpayable",
			"type": "function"
		},
		{
			"inputs": [
				{
					"internalType": "address",
					"name": "from",
					"type": "address"
				},
				{
					"internalType": "address",
					"name": "to",
					"type": "address"
				},
				{
					"internalType": "uint256",
					"name": "value",
					"type": "uint256"
				}
			],
			"name": "transferFrom",
			"outputs": [
				{
					"internalType": "bool",
					"name": "",
					"type": "bool"
				}
			],
			"stateMutability": "nonpayable",
			"type": "function"
		}
	]
}