{
	"data": {
		"bytecode": {
			"linkReferences": {},
			"object": "608060405234801561001057600080fd5b50613b72806100206000396000f3fe608060405260043610620000d45760003560e01c806365498de8116200008b578063aff075f41162000061578063aff075f4146200021c578063cc2a9a5b1462000241578063e4f13f571462000266578063fb5b82d0146200028b57620000d4565b806365498de814620001ba5780638da5cb5b14620001df578063af81c5b914620001f757620000d4565b806313af403514620000d95780633679dc461462000100578063372bd79e14620001305780634aff6754146200016457806350228201146200018a5780635a819f4d14620001a2575b600080fd5b348015620000e657600080fd5b50620000fe620000f836600462000e40565b620002b0565b005b3480156200010d57600080fd5b506200011862000308565b604051620001279190620013f2565b60405180910390f35b3480156200013d57600080fd5b50620001556200014f36600462000e40565b6200030e565b604051620001279190620011df565b6200017b6200017536600462000edd565b62000330565b604051620001279190620010df565b3480156200019757600080fd5b506200017b6200076d565b348015620001af57600080fd5b50620000fe6200077c565b348015620001c757600080fd5b5062000155620001d936600462001014565b620007c6565b348015620001ec57600080fd5b506200017b62000817565b3480156200020457600080fd5b50620000fe6200021636600462000f4a565b62000826565b3480156200022957600080fd5b50620000fe6200023b36600462000e40565b6200092a565b3480156200024e57600080fd5b50620000fe6200026036600462000e5d565b62000979565b3480156200027357600080fd5b50620000fe6200028536600462001066565b62000a98565b3480156200029857600080fd5b50620000fe620002aa36600462000e40565b62000bee565b6007546001600160a01b03163314620002e65760405162461bcd60e51b8152600401620002dd90620012e9565b60405180910390fd5b600780546001600160a01b0319166001600160a01b0392909216919091179055565b60085481565b6001600160a01b03811660009081526009602052604090205460ff165b919050565b6000826001811015801562000346575060648111155b620003655760405162461bcd60e51b8152600401620002dd9062001221565b82600181101580156200037a57506107218111155b620003995760405162461bcd60e51b8152600401620002dd906200129f565b600054610100900460ff1615620003c45760405162461bcd60e51b8152600401620002dd906200139a565b6001600160a01b038816331415620003f05760405162461bcd60e51b8152600401620002dd9062001363565b6000600a88604051620004049190620010c1565b90815260408051918290036020908101832060608401835280546001600160a01b031684526001810154918401919091526002015460ff161515908201819052909150620004665760405162461bcd60e51b8152600401620002dd9062001268565b60208101516200048460646200047d8a8a62000c3d565b9062000c52565b1015620004a55760405162461bcd60e51b8152600401620002dd90620011ea565b6000620004b960646200047d8a8a62000c3d565b90506000620004c762000c60565b60065484519192506001600160a01b0391821691161415620006025781341015620005065760405162461bcd60e51b8152600401620002dd9062001316565b600260009054906101000a90046001600160a01b03166001600160a01b031663d0e30db0346040518263ffffffff1660e01b81526004016000604051808303818588803b1580156200055757600080fd5b505af11580156200056c573d6000803e3d6000fd5b505060025460405163a9059cbb60e01b81526001600160a01b03909116935063a9059cbb9250620005a5915084903490600401620011c6565b602060405180830381600087803b158015620005c057600080fd5b505af1158015620005d5573d6000803e3d6000fd5b505050506040513d601f19601f82011682018060405250810190620005fb919062000f76565b5062000692565b600354835160405163478da03d60e11b81526001600160a01b0390921691638f1b407a916200063a913390869088906004016200119c565b602060405180830381600087803b1580156200065557600080fd5b505af11580156200066a573d6000803e3d6000fd5b505050506040513d601f19601f8201168201806040525081019062000690919062000f76565b505b806001600160a01b03166325787798338d86600001518e8e8e8e6040518863ffffffff1660e01b8152600401620006d097969594939291906200112d565b600060405180830381600087803b158015620006eb57600080fd5b505af115801562000700573d6000803e3d6000fd5b5050505089604051620007149190620010c1565b6040518091039020336001600160a01b03167fd924d6866681d7189798250368682a2b27b18955b5269def8231a982d081a48f83604051620007579190620010df565b60405180910390a39a9950505050505050505050565b6004546001600160a01b031690565b6007546001600160a01b03163314620007a95760405162461bcd60e51b8152600401620002dd90620012e9565b6000805461ff001981166101009182900460ff1615909102179055565b6000816001600160a01b0316600a84604051620007e49190620010c1565b908152604051908190036020019020546001600160a01b031614156200080d5750600162000811565b5060005b92915050565b6007546001600160a01b031681565b6007546001600160a01b03163314620008535760405162461bcd60e51b8152600401620002dd90620012e9565b6000826001600160a01b03166395d89b416040518163ffffffff1660e01b815260040160006040518083038186803b1580156200088f57600080fd5b505afa158015620008a4573d6000803e3d6000fd5b505050506040513d6000823e601f3d908101601f19168201604052620008ce919081019062000f98565b9050600a81604051620008e29190620010c1565b9081526040519081900360200190206002015460ff1615620009185760405162461bcd60e51b8152600401620002dd90620013c4565b6200092581848462000d13565b505050565b6007546001600160a01b03163314620009575760405162461bcd60e51b8152600401620002dd90620012e9565b600580546001600160a01b0319166001600160a01b0392909216919091179055565b60005460ff16156200099f5760405162461bcd60e51b8152600401620002dd906200133e565b60078054336001600160a01b0319918216179091556000805462010000600160b01b031916620100006001600160a01b038a81169190910291909117909155600180548316888316178155600280548416878416179055600380548416888416179055600480548416868416178155600580548516938616939093179092556006805490931690925560408051808201909152908152634c55434160e01b602082015262000a4f91889062000d13565b60408051808201909152600381526208aa8960eb1b602082015260065462000a8391906001600160a01b0316600162000d13565b50506000805460ff1916600117905550505050565b6007546001600160a01b0316331462000ac55760405162461bcd60e51b8152600401620002dd90620012e9565b600a8360405162000ad79190620010c1565b9081526040519081900360200190206002015460ff1662000b0c5760405162461bcd60e51b8152600401620002dd9062001268565b62000b1662000da3565b6001600160a01b0383168152602081018290526001604080830191909152518190600a9062000b47908790620010c1565b9081526040805160209281900383018120845181546001600160a01b0319166001600160a01b0391821617825593850151600182015593909101516002909301805460ff19169315159390931790925584169062000ba7908690620010c1565b60405180910390207f8cc152ead098a9b76d7365ee16520ddc14962ed9af8a753bda931382af61abb78460405162000be09190620013f2565b60405180910390a350505050565b6007546001600160a01b0316331462000c1b5760405162461bcd60e51b8152600401620002dd90620012e9565b600480546001600160a01b0319166001600160a01b0392909216919091179055565b600062000c4b82846200147b565b9392505050565b600062000c4b82846200145a565b60008054600154600354600254600554604051869530956001600160a01b036201000090920482169590821694908216939082169291169062000ca39062000dc3565b62000cb496959493929190620010f3565b604051809103906000f08015801562000cd1573d6000803e3d6000fd5b5060088054919250600062000ce683620014d0565b90915550506001600160a01b0381166000908152600960205260409020805460ff19166001179055905090565b62000d1d62000da3565b6001600160a01b0383168152602081018290526001604080830191909152518190600a9062000d4e908790620010c1565b9081526040805160209281900383019020835181546001600160a01b0319166001600160a01b0390911617815591830151600183015591909101516002909101805460ff191691151591909117905550505050565b604080516060810182526000808252602082018190529181019190915290565b612622806200151b83390190565b80356001600160a01b03811681146200032b57600080fd5b600082601f83011262000dfa578081fd5b813562000e1162000e0b826200142f565b620013fb565b81815284602083860101111562000e26578283fd5b816020850160208301379081016020019190915292915050565b60006020828403121562000e52578081fd5b62000c4b8262000dd1565b60008060008060008060c0878903121562000e76578182fd5b62000e818762000dd1565b955062000e916020880162000dd1565b945062000ea16040880162000dd1565b935062000eb16060880162000dd1565b925062000ec16080880162000dd1565b915062000ed160a0880162000dd1565b90509295509295509295565b600080600080600060a0868803121562000ef5578081fd5b62000f008662000dd1565b9450602086013567ffffffffffffffff81111562000f1c578182fd5b62000f2a8882890162000de9565b959895975050505060408401359360608101359360809091013592509050565b6000806040838503121562000f5d578182fd5b62000f688362000dd1565b946020939093013593505050565b60006020828403121562000f88578081fd5b8151801515811462000c4b578182fd5b60006020828403121562000faa578081fd5b815167ffffffffffffffff81111562000fc1578182fd5b8201601f8101841362000fd2578182fd5b805162000fe362000e0b826200142f565b81815285602083850101111562000ff8578384fd5b6200100b8260208301602086016200149d565b95945050505050565b6000806040838503121562001027578182fd5b823567ffffffffffffffff8111156200103e578283fd5b6200104c8582860162000de9565b9250506200105d6020840162000dd1565b90509250929050565b6000806000606084860312156200107b578283fd5b833567ffffffffffffffff81111562001092578384fd5b620010a08682870162000de9565b935050620010b16020850162000dd1565b9150604084013590509250925092565b60008251620010d58184602087016200149d565b9190910192915050565b6001600160a01b0391909116815260200190565b6001600160a01b0396871681529486166020860152928516604085015290841660608401528316608083015290911660a082015260c00190565b600060018060a01b03808a168352808916602084015280881660408401525060e0606083015285518060e0840152610100620011708282860160208b016200149d565b608084019690965260a08301949094525060c0810191909152601f909101601f19160101949350505050565b6001600160a01b039485168152928416602084015292166040820152606081019190915260800190565b6001600160a01b03929092168252602082015260400190565b901515815260200190565b60208082526019908201527f466163746f72793a20616d6f756e7420746f6f20736d616c6c00000000000000604082015260600190565b60208082526027908201527f466163746f72793a2070657263656e74206e656564206265747765656e2031206040820152660616e64203130360cc1b606082015260800190565b60208082526018908201527f466163746f72793a20746f6b656e206e6f742065786973740000000000000000604082015260600190565b6020808252602a908201527f466163746f72793a20206c6f636b74696d65206e656564206265747765656e206040820152693120616e64203138323560b01b606082015260800190565b6020808252601390820152722330b1ba37b93c9d1037b7363c9037bbb732b960691b604082015260600190565b6020808252600e908201526d0dcdee840cadcdeeaced0408aa8960931b604082015260600190565b6020808252600b908201526a1a5b9a5d1a585b1a5e995960aa1b604082015260600190565b6020808252601c908201527f466163746f72793a20746f206163636f756e742069732073656c662e00000000604082015260600190565b60208082526010908201526f466163746f72793a2044616e6765722160801b604082015260600190565b602080825260149082015273119858dd1bdc9e4e881d1bdad95b88195e1a5cdd60621b604082015260600190565b90815260200190565b604051601f8201601f1916810167ffffffffffffffff8111828210171562001427576200142762001504565b604052919050565b600067ffffffffffffffff8211156200144c576200144c62001504565b50601f01601f191660200190565b6000826200147657634e487b7160e01b81526012600452602481fd5b500490565b6000816000190483118215151615620014985762001498620014ee565b500290565b60005b83811015620014ba578181015183820152602001620014a0565b83811115620014ca576000848401525b50505050565b6000600019821415620014e757620014e7620014ee565b5060010190565b634e487b7160e01b600052601160045260246000fd5b634e487b7160e01b600052604160045260246000fdfe60806040523480156200001157600080fd5b5060405162002622380380620026228339810160408190526200003491620000d8565b60008054610100600160a81b0319166101006001600160a01b0398891602179055600180546001600160a01b0319908116968816969096179055600280548616948716949094179093556003805485169286169290921790915560058054841692851692909217909155600680548316919093161790915560078054909116905562000158565b80516001600160a01b0381168114620000d357600080fd5b919050565b60008060008060008060c08789031215620000f1578182fd5b620000fc87620000bb565b95506200010c60208801620000bb565b94506200011c60408801620000bb565b93506200012c60608801620000bb565b92506200013c60808801620000bb565b91506200014c60a08801620000bb565b90509295509295509295565b6124ba80620001686000396000f3fe6080604052600436106100f35760003560e01c8063566fa0cb1161008a578063b578803f11610059578063b578803f1461024f578063be7420b114610272578063c87e511714610287578063e25b3c951461029c576100f3565b8063566fa0cb146101ed57806388ffe8671461020d5780638c5782ca146102225780638fae60a514610247576100f3565b80632c6372c3116100c65780632c6372c31461017a57806343d726d6146101a15780634dc415de146101b65780634e69d560146101cb576100f3565b80630d657191146100f85780630e0801921461012e578063257877981461014557806329ac54a714610165575b600080fd5b34801561010457600080fd5b5061010d6102be565b6040516101259c9b9a99989796959493929190611f46565b60405180910390f35b34801561013a57600080fd5b5061014361045c565b005b34801561015157600080fd5b50610143610160366004611d08565b61051d565b34801561017157600080fd5b50610143610695565b34801561018657600080fd5b5061018f6108ac565b60405161012596959493929190611edf565b3480156101ad57600080fd5b506101436108e3565b3480156101c257600080fd5b50610143610aba565b3480156101d757600080fd5b506101e0610b2f565b6040516101259190611f33565b3480156101f957600080fd5b50610143610208366004611cd0565b610c73565b34801561021957600080fd5b50610143610d52565b34801561022e57600080fd5b50610237610faa565b604051610125949392919061237d565b610143610fc5565b34801561025b57600080fd5b50610264611250565b604051610125929190611f21565b34801561027e57600080fd5b5061014361126b565b34801561029357600080fd5b50610143611313565b3480156102a857600080fd5b506102b16113fc565b6040516101259190611f16565b606060008080808080808080808080600160005460ff1660038111156102f457634e487b7160e01b600052602160045260246000fd5b14806103455750600360005460ff16600381111561032257634e487b7160e01b600052602160045260246000fd5b148015610345575060175460ff161580156103455750601754610100900460ff16155b1561034e575060015b600f54600954600a54600b54600c54600d54600e546011546012546000546008996001600160a01b0390811699811698169695949392919060ff1660038111156103a857634e487b7160e01b600052602160045260246000fd5b8b8b80546103b590612408565b80601f01602080910402602001604051908101604052809291908181526020018280546103e190612408565b801561042e5780601f106104035761010080835404028352916020019161042e565b820191906000526020600020905b81548152906001019060200180831161041157829003601f168201915b50505050509b509c509c509c509c509c509c509c509c509c509c509c509c5050909192939495969798999a9b565b600160005460ff16600381111561048357634e487b7160e01b600052602160045260246000fd5b146104a95760405162461bcd60e51b81526004016104a0906122f4565b60405180910390fd5b6009546001600160a01b03163314806104cc5750600a546001600160a01b031633145b6104e85760405162461bcd60e51b81526004016104a09061202c565b600a546001600160a01b031633141561050d576007805460ff60a01b1916905561051b565b6007805460ff60a81b191690555b565b60005461010090046001600160a01b0316331461054c5760405162461bcd60e51b81526004016104a090612059565b60175462010000900460ff16156105755760405162461bcd60e51b81526004016104a090612274565b61057f8588611447565b61059b5760405162461bcd60e51b81526004016104a090611ff5565b600980546001600160a01b03808a166001600160a01b031992831617909255600a8054898416908316179055600f80549288169290911691909117905583516105eb906008906020870190611c37565b50600e839055600d82905561060b606461060585856115fc565b9061160f565b600b81905561061b90849061161b565b600c55601181905560648214801561063d5750600a546001600160a01b031615155b1561067357426012556011546106639061065a90620151806115fc565b60125490611627565b60135561066e611633565b61067b565b61067b611649565b50506017805462ff00001916620100001790555050505050565b600154600f546001600160a01b039081169116146106c55760405162461bcd60e51b81526004016104a09061234b565b600360005460ff1660038111156106ec57634e487b7160e01b600052602160045260246000fd5b146107095760405162461bcd60e51b81526004016104a09061231f565b6009546001600160a01b031633148061072c5750600a546001600160a01b031633145b6107485760405162461bcd60e51b81526004016104a09061202c565b6009546001600160a01b031633141561079657600754600160b01b900460ff166107845760405162461bcd60e51b81526004016104a0906121ef565b6007805460ff60b01b191690556107cd565b600754600160b81b900460ff166107bf5760405162461bcd60e51b81526004016104a0906121ef565b6007805460ff60b81b191690555b6005546040516310416cc760e01b81526001600160a01b03909116906310416cc7906107fd903390600401611e88565b600060405180830381600087803b15801561081757600080fd5b505af115801561082b573d6000803e3d6000fd5b505060175460ff1615915081905061084b5750601754610100900460ff16155b1561087b57601080546001600160a01b031916331790554260145561086e61165b565b610876611733565b61051b565b600754600160b01b900460ff1615801561089f5750600754600160b81b900460ff16155b1561051b5761051b611633565b6010546012546013546014546007546001600160a01b039094169360ff600160a01b8204811691600160a81b900416909192939495565b600260005460ff16600381111561090a57634e487b7160e01b600052602160045260246000fd5b14156109285760405162461bcd60e51b81526004016104a090612112565b600360005460ff16600381111561094f57634e487b7160e01b600052602160045260246000fd5b141561096d5760405162461bcd60e51b81526004016104a09061216f565b6009546001600160a01b03163314806109905750600a546001600160a01b031633145b6109ac5760405162461bcd60e51b81526004016104a09061202c565b6109b46113fc565b156109c1576109c1611747565b6000805460ff1660038111156109e757634e487b7160e01b600052602160045260246000fd5b1415610a1f576009546001600160a01b03163314610a175760405162461bcd60e51b81526004016104a09061202c565b610a1f611747565b600160005460ff166003811115610a4657634e487b7160e01b600052602160045260246000fd5b141561051b576009546001600160a01b0316331415610a77576007805460ff60a01b1916600160a01b179055610a8b565b6007805460ff60a81b1916600160a81b1790555b600754600160a01b900460ff168015610aad5750600754600160a81b900460ff165b1561051b5761051b611747565b600a546001600160a01b03163314610ae45760405162461bcd60e51b81526004016104a09061219d565b6000805460ff166003811115610b0a57634e487b7160e01b600052602160045260246000fd5b14610b275760405162461bcd60e51b81526004016104a090612244565b61051b611747565b60005460609060ff166003811115610b5757634e487b7160e01b600052602160045260246000fd5b610b83575060408051808201909152600b81526a1a5b9a5d1a585b1a5e995960aa1b6020820152610c70565b60005460ff166003811115610ba857634e487b7160e01b600052602160045260246000fd5b60011415610bd357506040805180820190915260068152651859dc99595960d21b6020820152610c70565b60005460ff166003811115610bf857634e487b7160e01b600052602160045260246000fd5b60031415610c2457506040805180820190915260078152661c1b195919d95960ca1b6020820152610c70565b60005460ff166003811115610c4957634e487b7160e01b600052602160045260246000fd5b60021415610c70575060408051808201909152600681526518db1bdcd95960d21b60208201525b90565b6009546001600160a01b03163314610c9d5760405162461bcd60e51b81526004016104a090612299565b600a546001600160a01b0316158015610cb85750600d546064145b610cd45760405162461bcd60e51b81526004016104a0906122bd565b6001600160a01b03811615801590610cf557506001600160a01b0381163314155b610d115760405162461bcd60e51b81526004016104a09061213f565b600a80546001600160a01b0319166001600160a01b03831617905542601255601154610d449061065a90620151806115fc565b601355610d4f611633565b50565b600154600f546001600160a01b03908116911614610d825760405162461bcd60e51b81526004016104a09061234b565b600360005460ff166003811115610da957634e487b7160e01b600052602160045260246000fd5b14610dc65760405162461bcd60e51b81526004016104a09061231f565b6009546001600160a01b0316331480610de95750600a546001600160a01b031633145b610e055760405162461bcd60e51b81526004016104a09061202c565b600360005460ff166003811115610e2c57634e487b7160e01b600052602160045260246000fd5b1480610e5c5750600160005460ff166003811115610e5a57634e487b7160e01b600052602160045260246000fd5b145b610e785760405162461bcd60e51b81526004016104a09061202c565b610e806113fc565b15610e9d5760405162461bcd60e51b81526004016104a0906120b3565b6009546000906001600160a01b0316331415610ef957600754600160b01b900460ff1615610edd5760405162461bcd60e51b81526004016104a0906121c7565b506007805460ff60b01b1916600160b01b179055600b54610f3b565b600754600160b81b900460ff1615610f235760405162461bcd60e51b81526004016104a0906121c7565b506007805460ff60b81b1916600160b81b179055600c545b610f4361176d565b600554604051633a1d9a2960e11b81526001600160a01b039091169063743b345290610f759033908590600401611ec6565b600060405180830381600087803b158015610f8f57600080fd5b505af1158015610fa3573d6000803e3d6000fd5b5050505050565b60155460175460165460ff8083169261010090041690919293565b600a546001600160a01b03163314610fef5760405162461bcd60e51b81526004016104a09061219d565b6000805460ff16600381111561101557634e487b7160e01b600052602160045260246000fd5b146110325760405162461bcd60e51b81526004016104a090612244565b600754600f546001600160a01b039081169116141561116057600c5434101561106d5760405162461bcd60e51b81526004016104a0906120ea565b600660009054906101000a90046001600160a01b03166001600160a01b031663d0e30db0346040518263ffffffff1660e01b81526004016000604051808303818588803b1580156110bd57600080fd5b505af11580156110d1573d6000803e3d6000fd5b505060065460405163a9059cbb60e01b81526001600160a01b03909116935063a9059cbb9250611108915030903490600401611ec6565b602060405180830381600087803b15801561112257600080fd5b505af1158015611136573d6000803e3d6000fd5b505050506040513d601f19601f8201168201806040525081019061115a9190611e05565b506111f5565b600354600f54600a54600c5460405163478da03d60e11b81526001600160a01b0394851694638f1b407a946111a19490821693911691309190600401611e9c565b602060405180830381600087803b1580156111bb57600080fd5b505af11580156111cf573d6000803e3d6000fd5b505050506040513d601f19601f820116820180604052508101906111f39190611e05565b505b600f54600a54611211916001600160a01b039081169116611447565b61122d5760405162461bcd60e51b81526004016104a090611fbe565b426012556011546112459061065a90620151806115fc565b60135561051b611633565b60075460ff600160b01b8204811691600160b81b9004169091565b600160005460ff16600381111561129257634e487b7160e01b600052602160045260246000fd5b146112af5760405162461bcd60e51b81526004016104a0906122f4565b6009546001600160a01b03163314806112d25750600a546001600160a01b031633145b6112ee5760405162461bcd60e51b81526004016104a09061202c565b6009546001600160a01b031633141561050d576007805460ff60a01b1916905561051b565b600154600f546001600160a01b039081169116146113435760405162461bcd60e51b81526004016104a09061234b565b600360005460ff16600381111561136a57634e487b7160e01b600052602160045260246000fd5b146113875760405162461bcd60e51b81526004016104a09061231f565b6009546001600160a01b03163314806113aa5750600a546001600160a01b031633145b6113c65760405162461bcd60e51b81526004016104a09061202c565b6113ce6113fc565b6113ea5760405162461bcd60e51b81526004016104a090612219565b6113f46064611781565b61051b61165b565b60008060005460ff16600381111561142457634e487b7160e01b600052602160045260246000fd5b14806114305750601354155b1561143d57506000610c70565b5060135442101590565b60075460009081906001600160a01b03858116911614156114e9576006546040516370a0823160e01b81526001600160a01b03909116906370a0823190611492903090600401611e88565b60206040518083038186803b1580156114aa57600080fd5b505afa1580156114be573d6000803e3d6000fd5b505050506040513d601f19601f820116820180604052508101906114e29190611e25565b90506115ae565b6001546001600160a01b038581169116141561152f576002546040516370a0823160e01b81526001600160a01b03909116906370a0823190611492903090600401611e88565b6040516370a0823160e01b81526001600160a01b038516906370a082319061155b903090600401611e88565b60206040518083038186803b15801561157357600080fd5b505afa158015611587573d6000803e3d6000fd5b505050506040513d601f19601f820116820180604052508101906115ab9190611e25565b90505b6009546001600160a01b03848116911614156115dd57600b548114156115d85760019150506115f6565b6115f0565b600e5481106115f05760019150506115f6565b60009150505b92915050565b600061160882846123d2565b9392505050565b600061160882846123b2565b600061160882846123f1565b6000611608828461239a565b600080546001919060ff191682805b0217905550565b60008054819060ff1916600182611642565b6009546001600160a01b03163314156116cd57600754600160b01b900460ff1615801561168b575060175460ff16155b6116a75760405162461bcd60e51b81526004016104a090612085565b6017805460ff19166001179055600954601554610876916001600160a01b0316906117f8565b600754600160b81b900460ff161580156116ef5750601754610100900460ff16155b61170b5760405162461bcd60e51b81526004016104a090612085565b6017805461ff001916610100179055600a5460165461051b916001600160a01b0316906117f8565b600080546002919060ff1916600183611642565b601080546001600160a01b0319163317905542601455611765611a44565b61051b611733565b600080546003919060ff1916600183611642565b61179b606461060583600b546115fc90919063ffffffff16565b601555600160005460ff1660038111156117c557634e487b7160e01b600052602160045260246000fd5b1480156117d35750600c5415155b15610d4f576117f2606461060583600c546115fc90919063ffffffff16565b60165550565b600754600f546001600160a01b03908116911614156118af57600654604051632e1a7d4d60e01b81526001600160a01b0390911690632e1a7d4d90611841908490600401612374565b600060405180830381600087803b15801561185b57600080fd5b505af115801561186f573d6000803e3d6000fd5b50506040516001600160a01b038516925083156108fc02915083906000818181858888f193505050501580156118a9573d6000803e3d6000fd5b50611a40565b600154600f546001600160a01b03908116911614156119ba5760025460035460405163095ea7b360e01b81526001600160a01b039283169263095ea7b3926118fe929116908590600401611ec6565b602060405180830381600087803b15801561191857600080fd5b505af115801561192c573d6000803e3d6000fd5b505050506040513d601f19601f820116820180604052508101906119509190611e05565b50600354604051636da8c6d960e11b81526001600160a01b039091169063db518db2906119839085908590600401611ec6565b600060405180830381600087803b15801561199d57600080fd5b505af11580156119b1573d6000803e3d6000fd5b50505050611a40565b600f5460405163a9059cbb60e01b81526001600160a01b039091169063a9059cbb906119ec9085908590600401611ec6565b602060405180830381600087803b158015611a0657600080fd5b505af1158015611a1a573d6000803e3d6000fd5b505050506040513d601f19601f82011682018060405250810190611a3e9190611e05565b505b5050565b6000805460ff166003811115611a6a57634e487b7160e01b600052602160045260246000fd5b1480611a795750611a796113fc565b15611a8d57611a886064611781565b611be5565b6000611aad6201518061060560125460145461161b90919063ffffffff16565b601154909150600090611ad0906106056107d0611aca838761161b565b906115fc565b905081611ae657611ae16050611781565b611b2b565b6064811015611af957611ae16063611781565b6107d0811115611b0d57611ae16050611781565b611b2b611b1b82606461160f565b611b269060646123f1565b611781565b6000611b50611b4760165460155461162790919063ffffffff16565b600e549061161b565b9050611be1600060019054906101000a90046001600160a01b03166001600160a01b031663502282016040518163ffffffff1660e01b815260040160206040518083038186803b158015611ba357600080fd5b505afa158015611bb7573d6000803e3d6000fd5b505050506040513d601f19601f82011682018060405250810190611bdb9190611cec565b826117f8565b5050505b6017805461ff001960ff1990911660011716610100179055600954601554611c16916001600160a01b0316906117f8565b6016541561051b57600a5460165461051b916001600160a01b0316906117f8565b828054611c4390612408565b90600052602060002090601f016020900481019282611c655760008555611cab565b82601f10611c7e57805160ff1916838001178555611cab565b82800160010185558215611cab579182015b82811115611cab578251825591602001919060010190611c90565b50611cb7929150611cbb565b5090565b5b80821115611cb75760008155600101611cbc565b600060208284031215611ce1578081fd5b81356116088161246f565b600060208284031215611cfd578081fd5b81516116088161246f565b600080600080600080600060e0888a031215611d22578283fd5b8735611d2d8161246f565b96506020880135611d3d8161246f565b95506040880135611d4d8161246f565b9450606088013567ffffffffffffffff80821115611d69578485fd5b818a0191508a601f830112611d7c578485fd5b813581811115611d8e57611d8e612459565b604051601f8201601f19908116603f01168101908382118183101715611db657611db6612459565b816040528281528d6020848701011115611dce578788fd5b8260208601602083013791820160200196909652989b979a50959860808101359760a0820135975060c09091013595509350505050565b600060208284031215611e16578081fd5b81518015158114611608578182fd5b600060208284031215611e36578081fd5b5051919050565b60008151808452815b81811015611e6257602081850181015186830182015201611e46565b81811115611e735782602083870101525b50601f01601f19169290920160200192915050565b6001600160a01b0391909116815260200190565b6001600160a01b039485168152928416602084015292166040820152606081019190915260800190565b6001600160a01b03929092168252602082015260400190565b6001600160a01b0396909616865260208601949094526040850192909252606084015215156080830152151560a082015260c00190565b901515815260200190565b91151582521515602082015260400190565b6000602082526116086020830184611e3d565b60006101808252611f5b61018083018f611e3d565b6001600160a01b039d8e1660208401529b8d1660408301525098909a166060890152608088019690965260a087019490945260c086019290925260e085015261010084015261012083015261014082015291151561016090920191909152919050565b60208082526018908201527f4c696e6b3a206465706f736974206e6f7420656e6f7567680000000000000000604082015260600190565b6020808252601e908201527f4c696e6b3a207573657241206465706f736974206e6f7420656e6f7567680000604082015260600190565b602080825260139082015272131a5b9ace881858d8d95cdcc819195b9a5959606a1b604082015260600190565b6020808252601290820152714c696e6b3a206f6e6c7920666163746f727960701b604082015260600190565b60208082526014908201527302634b7359d1030b1b1b2b9b9903232b734b2b2160651b604082015260600190565b6020808252601c908201527f4c696e6b3a2063616e7420706c65646765206f6e206578706972652000000000604082015260600190565b6020808252600e908201526d0dcdee840cadcdeeaced0408aa8960931b604082015260600190565b602080825260139082015272131a5b9ace881bdb9b1e481d5b98db1bdcd959606a1b604082015260600190565b6020808252601690820152754c696e6b3a20756e6c617766756c206164647265737360501b604082015260600190565b602080825260149082015273131a5b9ace881bdb9b1e481d5b9c1b195919d95960621b604082015260600190565b60208082526010908201526f2634b7359d103737b63c903ab9b2b92160811b604082015260600190565b6020808252600e908201526d4c696e6b3a207265706c6564676560901b604082015260600190565b60208082526010908201526f131a5b9ace881b9bc81c1b195919d95960821b604082015260600190565b6020808252601190820152704c696e6b3a206f6e6c792045787069726560781b604082015260600190565b602080825260169082015275131a5b9ace881bdb9b1e481a5b9a5d1a585b1a5e995960521b604082015260600190565b6020808252600b908201526a1a5b9a5d1a585b1a5e995960aa1b604082015260600190565b6020808252600a90820152696f6e6c7920757365724160b01b604082015260600190565b60208082526018908201527f4c696e6b3a206f6e6c79204564697461626c65204c696e6b0000000000000000604082015260600190565b602080825260119082015270131a5b9ace881bdb9b1e481859dc995959607a1b604082015260600190565b602080825260129082015271131a5b9ace881bdb9b1e481c1b195919d95960721b604082015260600190565b6020808252600f908201526e4c696e6b3a206f6e6c79206c75636160881b604082015260600190565b90815260200190565b938452911515602084015260408301521515606082015260800190565b600082198211156123ad576123ad612443565b500190565b6000826123cd57634e487b7160e01b81526012600452602481fd5b500490565b60008160001904831182151516156123ec576123ec612443565b500290565b60008282101561240357612403612443565b500390565b60028104600182168061241c57607f821691505b6020821081141561243d57634e487b7160e01b600052602260045260246000fd5b50919050565b634e487b7160e01b600052601160045260246000fd5b634e487b7160e01b600052604160045260246000fd5b6001600160a01b0381168114610d4f57600080fdfea2646970667358221220d3d61d0db8449788b55f08e02ede43ef9570a0d5c3be9d31bee8e41b43ae158364736f6c63430008010033a264697066735822122066775098889b6c2db03844aef2d6671563eef63f3328196d1d23bc6d7b13c9e264736f6c63430008010033",
			"opcodes": "PUSH1 0x80 PUSH1 0x40 MSTORE CALLVALUE DUP1 ISZERO PUSH2 0x10 JUMPI PUSH1 0x0 DUP1 REVERT JUMPDEST POP PUSH2 0x3B72 DUP1 PUSH2 0x20 PUSH1 0x0 CODECOPY PUSH1 0x0 RETURN INVALID PUSH1 0x80 PUSH1 0x40 MSTORE PUSH1 0x4 CALLDATASIZE LT PUSH3 0xD4 JUMPI PUSH1 0x0 CALLDATALOAD PUSH1 0xE0 SHR DUP1 PUSH4 0x65498DE8 GT PUSH3 0x8B JUMPI DUP1 PUSH4 0xAFF075F4 GT PUSH3 0x61 JUMPI DUP1 PUSH4 0xAFF075F4 EQ PUSH3 0x21C JUMPI DUP1 PUSH4 0xCC2A9A5B EQ PUSH3 0x241 JUMPI DUP1 PUSH4 0xE4F13F57 EQ PUSH3 0x266 JUMPI DUP1 PUSH4 0xFB5B82D0 EQ PUSH3 0x28B JUMPI PUSH3 0xD4 JUMP JUMPDEST DUP1 PUSH4 0x65498DE8 EQ PUSH3 0x1BA JUMPI DUP1 PUSH4 0x8DA5CB5B EQ PUSH3 0x1DF JUMPI DUP1 PUSH4 0xAF81C5B9 EQ PUSH3 0x1F7 JUMPI PUSH3 0xD4 JUMP JUMPDEST DUP1 PUSH4 0x13AF4035 EQ PUSH3 0xD9 JUMPI DUP1 PUSH4 0x3679DC46 EQ PUSH3 0x100 JUMPI DUP1 PUSH4 0x372BD79E EQ PUSH3 0x130 JUMPI DUP1 PUSH4 0x4AFF6754 EQ PUSH3 0x164 JUMPI DUP1 PUSH4 0x50228201 EQ PUSH3 0x18A JUMPI DUP1 PUSH4 0x5A819F4D EQ PUSH3 0x1A2 JUMPI JUMPDEST PUSH1 0x0 DUP1 REVERT JUMPDEST CALLVALUE DUP1 ISZERO PUSH3 0xE6 JUMPI PUSH1 0x0 DUP1 REVERT JUMPDEST POP PUSH3 0xFE PUSH3 0xF8 CALLDATASIZE PUSH1 0x4 PUSH3 0xE40 JUMP JUMPDEST PUSH3 0x2B0 JUMP JUMPDEST STOP JUMPDEST CALLVALUE DUP1 ISZERO PUSH3 0x10D JUMPI PUSH1 0x0 DUP1 REVERT JUMPDEST POP PUSH3 0x118 PUSH3 0x308 JUMP JUMPDEST PUSH1 0x40 MLOAD PUSH3 0x127 SWAP2 SWAP1 PUSH3 0x13F2 JUMP JUMPDEST PUSH1 0x40 MLOAD DUP1 SWAP2 SUB SWAP1 RETURN JUMPDEST CALLVALUE DUP1 ISZERO PUSH3 0x13D JUMPI PUSH1 0x0 DUP1 REVERT JUMPDEST POP PUSH3 0x155 PUSH3 0x14F CALLDATASIZE PUSH1 0x4 PUSH3 0xE40 JUMP JUMPDEST PUSH3 0x30E JUMP JUMPDEST PUSH1 0x40 MLOAD PUSH3 0x127 SWAP2 SWAP1 PUSH3 0x11DF JUMP JUMPDEST PUSH3 0x17B PUSH3 0x175 CALLDATASIZE PUSH1 0x4 PUSH3 0xEDD JUMP JUMPDEST PUSH3 0x330 JUMP JUMPDEST PUSH1 0x40 MLOAD PUSH3 0x127 SWAP2 SWAP1 PUSH3 0x10DF JUMP JUMPDEST CALLVALUE DUP1 ISZERO PUSH3 0x197 JUMPI PUSH1 0x0 DUP1 REVERT JUMPDEST POP PUSH3 0x17B PUSH3 0x76D JUMP JUMPDEST CALLVALUE DUP1 ISZERO PUSH3 0x1AF JUMPI PUSH1 0x0 DUP1 REVERT JUMPDEST POP PUSH3 0xFE PUSH3 0x77C JUMP JUMPDEST CALLVALUE DUP1 ISZERO PUSH3 0x1C7 JUMPI PUSH1 0x0 DUP1 REVERT JUMPDEST POP PUSH3 0x155 PUSH3 0x1D9 CALLDATASIZE PUSH1 0x4 PUSH3 0x1014 JUMP JUMPDEST PUSH3 0x7C6 JUMP JUMPDEST CALLVALUE DUP1 ISZERO PUSH3 0x1EC JUMPI PUSH1 0x0 DUP1 REVERT JUMPDEST POP PUSH3 0x17B PUSH3 0x817 JUMP JUMPDEST CALLVALUE DUP1 ISZERO PUSH3 0x204 JUMPI PUSH1 0x0 DUP1 REVERT JUMPDEST POP PUSH3 0xFE PUSH3 0x216 CALLDATASIZE PUSH1 0x4 PUSH3 0xF4A JUMP JUMPDEST PUSH3 0x826 JUMP JUMPDEST CALLVALUE DUP1 ISZERO PUSH3 0x229 JUMPI PUSH1 0x0 DUP1 REVERT JUMPDEST POP PUSH3 0xFE PUSH3 0x23B CALLDATASIZE PUSH1 0x4 PUSH3 0xE40 JUMP JUMPDEST PUSH3 0x92A JUMP JUMPDEST CALLVALUE DUP1 ISZERO PUSH3 0x24E JUMPI PUSH1 0x0 DUP1 REVERT JUMPDEST POP PUSH3 0xFE PUSH3 0x260 CALLDATASIZE PUSH1 0x4 PUSH3 0xE5D JUMP JUMPDEST PUSH3 0x979 JUMP JUMPDEST CALLVALUE DUP1 ISZERO PUSH3 0x273 JUMPI PUSH1 0x0 DUP1 REVERT JUMPDEST POP PUSH3 0xFE PUSH3 0x285 CALLDATASIZE PUSH1 0x4 PUSH3 0x1066 JUMP JUMPDEST PUSH3 0xA98 JUMP JUMPDEST CALLVALUE DUP1 ISZERO PUSH3 0x298 JUMPI PUSH1 0x0 DUP1 REVERT JUMPDEST POP PUSH3 0xFE PUSH3 0x2AA CALLDATASIZE PUSH1 0x4 PUSH3 0xE40 JUMP JUMPDEST PUSH3 0xBEE JUMP JUMPDEST PUSH1 0x7 SLOAD PUSH1 0x1 PUSH1 0x1 PUSH1 0xA0 SHL SUB AND CALLER EQ PUSH3 0x2E6 JUMPI PUSH1 0x40 MLOAD PUSH3 0x461BCD PUSH1 0xE5 SHL DUP2 MSTORE PUSH1 0x4 ADD PUSH3 0x2DD SWAP1 PUSH3 0x12E9 JUMP JUMPDEST PUSH1 0x40 MLOAD DUP1 SWAP2 SUB SWAP1 REVERT JUMPDEST PUSH1 0x7 DUP1 SLOAD PUSH1 0x1 PUSH1 0x1 PUSH1 0xA0 SHL SUB NOT AND PUSH1 0x1 PUSH1 0x1 PUSH1 0xA0 SHL SUB SWAP3 SWAP1 SWAP3 AND SWAP2 SWAP1 SWAP2 OR SWAP1 SSTORE JUMP JUMPDEST PUSH1 0x8 SLOAD DUP2 JUMP JUMPDEST PUSH1 0x1 PUSH1 0x1 PUSH1 0xA0 SHL SUB DUP2 AND PUSH1 0x0 SWAP1 DUP2 MSTORE PUSH1 0x9 PUSH1 0x20 MSTORE PUSH1 0x40 SWAP1 KECCAK256 SLOAD PUSH1 0xFF AND JUMPDEST SWAP2 SWAP1 POP JUMP JUMPDEST PUSH1 0x0 DUP3 PUSH1 0x1 DUP2 LT ISZERO DUP1 ISZERO PUSH3 0x346 JUMPI POP PUSH1 0x64 DUP2 GT ISZERO JUMPDEST PUSH3 0x365 JUMPI PUSH1 0x40 MLOAD PUSH3 0x461BCD PUSH1 0xE5 SHL DUP2 MSTORE PUSH1 0x4 ADD PUSH3 0x2DD SWAP1 PUSH3 0x1221 JUMP JUMPDEST DUP3 PUSH1 0x1 DUP2 LT ISZERO DUP1 ISZERO PUSH3 0x37A JUMPI POP PUSH2 0x721 DUP2 GT ISZERO JUMPDEST PUSH3 0x399 JUMPI PUSH1 0x40 MLOAD PUSH3 0x461BCD PUSH1 0xE5 SHL DUP2 MSTORE PUSH1 0x4 ADD PUSH3 0x2DD SWAP1 PUSH3 0x129F JUMP JUMPDEST PUSH1 0x0 SLOAD PUSH2 0x100 SWAP1 DIV PUSH1 0xFF AND ISZERO PUSH3 0x3C4 JUMPI PUSH1 0x40 MLOAD PUSH3 0x461BCD PUSH1 0xE5 SHL DUP2 MSTORE PUSH1 0x4 ADD PUSH3 0x2DD SWAP1 PUSH3 0x139A JUMP JUMPDEST PUSH1 0x1 PUSH1 0x1 PUSH1 0xA0 SHL SUB DUP9 AND CALLER EQ ISZERO PUSH3 0x3F0 JUMPI PUSH1 0x40 MLOAD PUSH3 0x461BCD PUSH1 0xE5 SHL DUP2 MSTORE PUSH1 0x4 ADD PUSH3 0x2DD SWAP1 PUSH3 0x1363 JUMP JUMPDEST PUSH1 0x0 PUSH1 0xA DUP9 PUSH1 0x40 MLOAD PUSH3 0x404 SWAP2 SWAP1 PUSH3 0x10C1 JUMP JUMPDEST SWAP1 DUP2 MSTORE PUSH1 0x40 DUP1 MLOAD SWAP2 DUP3 SWAP1 SUB PUSH1 0x20 SWAP1 DUP2 ADD DUP4 KECCAK256 PUSH1 0x60 DUP5 ADD DUP4 MSTORE DUP1 SLOAD PUSH1 0x1 PUSH1 0x1 PUSH1 0xA0 SHL SUB AND DUP5 MSTORE PUSH1 0x1 DUP2 ADD SLOAD SWAP2 DUP5 ADD SWAP2 SWAP1 SWAP2 MSTORE PUSH1 0x2 ADD SLOAD PUSH1 0xFF AND ISZERO ISZERO SWAP1 DUP3 ADD DUP2 SWAP1 MSTORE SWAP1 SWAP2 POP PUSH3 0x466 JUMPI PUSH1 0x40 MLOAD PUSH3 0x461BCD PUSH1 0xE5 SHL DUP2 MSTORE PUSH1 0x4 ADD PUSH3 0x2DD SWAP1 PUSH3 0x1268 JUMP JUMPDEST PUSH1 0x20 DUP2 ADD MLOAD PUSH3 0x484 PUSH1 0x64 PUSH3 0x47D DUP11 DUP11 PUSH3 0xC3D JUMP JUMPDEST SWAP1 PUSH3 0xC52 JUMP JUMPDEST LT ISZERO PUSH3 0x4A5 JUMPI PUSH1 0x40 MLOAD PUSH3 0x461BCD PUSH1 0xE5 SHL DUP2 MSTORE PUSH1 0x4 ADD PUSH3 0x2DD SWAP1 PUSH3 0x11EA JUMP JUMPDEST PUSH1 0x0 PUSH3 0x4B9 PUSH1 0x64 PUSH3 0x47D DUP11 DUP11 PUSH3 0xC3D JUMP JUMPDEST SWAP1 POP PUSH1 0x0 PUSH3 0x4C7 PUSH3 0xC60 JUMP JUMPDEST PUSH1 0x6 SLOAD DUP5 MLOAD SWAP2 SWAP3 POP PUSH1 0x1 PUSH1 0x1 PUSH1 0xA0 SHL SUB SWAP2 DUP3 AND SWAP2 AND EQ ISZERO PUSH3 0x602 JUMPI DUP2 CALLVALUE LT ISZERO PUSH3 0x506 JUMPI PUSH1 0x40 MLOAD PUSH3 0x461BCD PUSH1 0xE5 SHL DUP2 MSTORE PUSH1 0x4 ADD PUSH3 0x2DD SWAP1 PUSH3 0x1316 JUMP JUMPDEST PUSH1 0x2 PUSH1 0x0 SWAP1 SLOAD SWAP1 PUSH2 0x100 EXP SWAP1 DIV PUSH1 0x1 PUSH1 0x1 PUSH1 0xA0 SHL SUB AND PUSH1 0x1 PUSH1 0x1 PUSH1 0xA0 SHL SUB AND PUSH4 0xD0E30DB0 CALLVALUE PUSH1 0x40 MLOAD DUP3 PUSH4 0xFFFFFFFF AND PUSH1 0xE0 SHL DUP2 MSTORE PUSH1 0x4 ADD PUSH1 0x0 PUSH1 0x40 MLOAD DUP1 DUP4 SUB DUP2 DUP6 DUP9 DUP1 EXTCODESIZE ISZERO DUP1 ISZERO PUSH3 0x557 JUMPI PUSH1 0x0 DUP1 REVERT JUMPDEST POP GAS CALL ISZERO DUP1 ISZERO PUSH3 0x56C JUMPI RETURNDATASIZE PUSH1 0x0 DUP1 RETURNDATACOPY RETURNDATASIZE PUSH1 0x0 REVERT JUMPDEST POP POP PUSH1 0x2 SLOAD PUSH1 0x40 MLOAD PUSH4 0xA9059CBB PUSH1 0xE0 SHL DUP2 MSTORE PUSH1 0x1 PUSH1 0x1 PUSH1 0xA0 SHL SUB SWAP1 SWAP2 AND SWAP4 POP PUSH4 0xA9059CBB SWAP3 POP PUSH3 0x5A5 SWAP2 POP DUP5 SWAP1 CALLVALUE SWAP1 PUSH1 0x4 ADD PUSH3 0x11C6 JUMP JUMPDEST PUSH1 0x20 PUSH1 0x40 MLOAD DUP1 DUP4 SUB DUP2 PUSH1 0x0 DUP8 DUP1 EXTCODESIZE ISZERO DUP1 ISZERO PUSH3 0x5C0 JUMPI PUSH1 0x0 DUP1 REVERT JUMPDEST POP GAS CALL ISZERO DUP1 ISZERO PUSH3 0x5D5 JUMPI RETURNDATASIZE PUSH1 0x0 DUP1 RETURNDATACOPY RETURNDATASIZE PUSH1 0x0 REVERT JUMPDEST POP POP POP POP PUSH1 0x40 MLOAD RETURNDATASIZE PUSH1 0x1F NOT PUSH1 0x1F DUP3 ADD AND DUP3 ADD DUP1 PUSH1 0x40 MSTORE POP DUP2 ADD SWAP1 PUSH3 0x5FB SWAP2 SWAP1 PUSH3 0xF76 JUMP JUMPDEST POP PUSH3 0x692 JUMP JUMPDEST PUSH1 0x3 SLOAD DUP4 MLOAD PUSH1 0x40 MLOAD PUSH4 0x478DA03D PUSH1 0xE1 SHL DUP2 MSTORE PUSH1 0x1 PUSH1 0x1 PUSH1 0xA0 SHL SUB SWAP1 SWAP3 AND SWAP2 PUSH4 0x8F1B407A SWAP2 PUSH3 0x63A SWAP2 CALLER SWAP1 DUP7 SWAP1 DUP9 SWAP1 PUSH1 0x4 ADD PUSH3 0x119C JUMP JUMPDEST PUSH1 0x20 PUSH1 0x40 MLOAD DUP1 DUP4 SUB DUP2 PUSH1 0x0 DUP8 DUP1 EXTCODESIZE ISZERO DUP1 ISZERO PUSH3 0x655 JUMPI PUSH1 0x0 DUP1 REVERT JUMPDEST POP GAS CALL ISZERO DUP1 ISZERO PUSH3 0x66A JUMPI RETURNDATASIZE PUSH1 0x0 DUP1 RETURNDATACOPY RETURNDATASIZE PUSH1 0x0 REVERT JUMPDEST POP POP POP POP PUSH1 0x40 MLOAD RETURNDATASIZE PUSH1 0x1F NOT PUSH1 0x1F DUP3 ADD AND DUP3 ADD DUP1 PUSH1 0x40 MSTORE POP DUP2 ADD SWAP1 PUSH3 0x690 SWAP2 SWAP1 PUSH3 0xF76 JUMP JUMPDEST POP JUMPDEST DUP1 PUSH1 0x1 PUSH1 0x1 PUSH1 0xA0 SHL SUB AND PUSH4 0x25787798 CALLER DUP14 DUP7 PUSH1 0x0 ADD MLOAD DUP15 DUP15 DUP15 DUP15 PUSH1 0x40 MLOAD DUP9 PUSH4 0xFFFFFFFF AND PUSH1 0xE0 SHL DUP2 MSTORE PUSH1 0x4 ADD PUSH3 0x6D0 SWAP8 SWAP7 SWAP6 SWAP5 SWAP4 SWAP3 SWAP2 SWAP1 PUSH3 0x112D JUMP JUMPDEST PUSH1 0x0 PUSH1 0x40 MLOAD DUP1 DUP4 SUB DUP2 PUSH1 0x0 DUP8 DUP1 EXTCODESIZE ISZERO DUP1 ISZERO PUSH3 0x6EB JUMPI PUSH1 0x0 DUP1 REVERT JUMPDEST POP GAS CALL ISZERO DUP1 ISZERO PUSH3 0x700 JUMPI RETURNDATASIZE PUSH1 0x0 DUP1 RETURNDATACOPY RETURNDATASIZE PUSH1 0x0 REVERT JUMPDEST POP POP POP POP DUP10 PUSH1 0x40 MLOAD PUSH3 0x714 SWAP2 SWAP1 PUSH3 0x10C1 JUMP JUMPDEST PUSH1 0x40 MLOAD DUP1 SWAP2 SUB SWAP1 KECCAK256 CALLER PUSH1 0x1 PUSH1 0x1 PUSH1 0xA0 SHL SUB AND PUSH32 0xD924D6866681D7189798250368682A2B27B18955B5269DEF8231A982D081A48F DUP4 PUSH1 0x40 MLOAD PUSH3 0x757 SWAP2 SWAP1 PUSH3 0x10DF JUMP JUMPDEST PUSH1 0x40 MLOAD DUP1 SWAP2 SUB SWAP1 LOG3 SWAP11 SWAP10 POP POP POP POP POP POP POP POP POP POP JUMP JUMPDEST PUSH1 0x4 SLOAD PUSH1 0x1 PUSH1 0x1 PUSH1 0xA0 SHL SUB AND SWAP1 JUMP JUMPDEST PUSH1 0x7 SLOAD PUSH1 0x1 PUSH1 0x1 PUSH1 0xA0 SHL SUB AND CALLER EQ PUSH3 0x7A9 JUMPI PUSH1 0x40 MLOAD PUSH3 0x461BCD PUSH1 0xE5 SHL DUP2 MSTORE PUSH1 0x4 ADD PUSH3 0x2DD SWAP1 PUSH3 0x12E9 JUMP JUMPDEST PUSH1 0x0 DUP1 SLOAD PUSH2 0xFF00 NOT DUP2 AND PUSH2 0x100 SWAP2 DUP3 SWAP1 DIV PUSH1 0xFF AND ISZERO SWAP1 SWAP2 MUL OR SWAP1 SSTORE JUMP JUMPDEST PUSH1 0x0 DUP2 PUSH1 0x1 PUSH1 0x1 PUSH1 0xA0 SHL SUB AND PUSH1 0xA DUP5 PUSH1 0x40 MLOAD PUSH3 0x7E4 SWAP2 SWAP1 PUSH3 0x10C1 JUMP JUMPDEST SWAP1 DUP2 MSTORE PUSH1 0x40 MLOAD SWAP1 DUP2 SWAP1 SUB PUSH1 0x20 ADD SWAP1 KECCAK256 SLOAD PUSH1 0x1 PUSH1 0x1 PUSH1 0xA0 SHL SUB AND EQ ISZERO PUSH3 0x80D JUMPI POP PUSH1 0x1 PUSH3 0x811 JUMP JUMPDEST POP PUSH1 0x0 JUMPDEST SWAP3 SWAP2 POP POP JUMP JUMPDEST PUSH1 0x7 SLOAD PUSH1 0x1 PUSH1 0x1 PUSH1 0xA0 SHL SUB AND DUP2 JUMP JUMPDEST PUSH1 0x7 SLOAD PUSH1 0x1 PUSH1 0x1 PUSH1 0xA0 SHL SUB AND CALLER EQ PUSH3 0x853 JUMPI PUSH1 0x40 MLOAD PUSH3 0x461BCD PUSH1 0xE5 SHL DUP2 MSTORE PUSH1 0x4 ADD PUSH3 0x2DD SWAP1 PUSH3 0x12E9 JUMP JUMPDEST PUSH1 0x0 DUP3 PUSH1 0x1 PUSH1 0x1 PUSH1 0xA0 SHL SUB AND PUSH4 0x95D89B41 PUSH1 0x40 MLOAD DUP2 PUSH4 0xFFFFFFFF AND PUSH1 0xE0 SHL DUP2 MSTORE PUSH1 0x4 ADD PUSH1 0x0 PUSH1 0x40 MLOAD DUP1 DUP4 SUB DUP2 DUP7 DUP1 EXTCODESIZE ISZERO DUP1 ISZERO PUSH3 0x88F JUMPI PUSH1 0x0 DUP1 REVERT JUMPDEST POP GAS STATICCALL ISZERO DUP1 ISZERO PUSH3 0x8A4 JUMPI RETURNDATASIZE PUSH1 0x0 DUP1 RETURNDATACOPY RETURNDATASIZE PUSH1 0x0 REVERT JUMPDEST POP POP POP POP PUSH1 0x40 MLOAD RETURNDATASIZE PUSH1 0x0 DUP3 RETURNDATACOPY PUSH1 0x1F RETURNDATASIZE SWAP1 DUP2 ADD PUSH1 0x1F NOT AND DUP3 ADD PUSH1 0x40 MSTORE PUSH3 0x8CE SWAP2 SWAP1 DUP2 ADD SWAP1 PUSH3 0xF98 JUMP JUMPDEST SWAP1 POP PUSH1 0xA DUP2 PUSH1 0x40 MLOAD PUSH3 0x8E2 SWAP2 SWAP1 PUSH3 0x10C1 JUMP JUMPDEST SWAP1 DUP2 MSTORE PUSH1 0x40 MLOAD SWAP1 DUP2 SWAP1 SUB PUSH1 0x20 ADD SWAP1 KECCAK256 PUSH1 0x2 ADD SLOAD PUSH1 0xFF AND ISZERO PUSH3 0x918 JUMPI PUSH1 0x40 MLOAD PUSH3 0x461BCD PUSH1 0xE5 SHL DUP2 MSTORE PUSH1 0x4 ADD PUSH3 0x2DD SWAP1 PUSH3 0x13C4 JUMP JUMPDEST PUSH3 0x925 DUP2 DUP5 DUP5 PUSH3 0xD13 JUMP JUMPDEST POP POP POP JUMP JUMPDEST PUSH1 0x7 SLOAD PUSH1 0x1 PUSH1 0x1 PUSH1 0xA0 SHL SUB AND CALLER EQ PUSH3 0x957 JUMPI PUSH1 0x40 MLOAD PUSH3 0x461BCD PUSH1 0xE5 SHL DUP2 MSTORE PUSH1 0x4 ADD PUSH3 0x2DD SWAP1 PUSH3 0x12E9 JUMP JUMPDEST PUSH1 0x5 DUP1 SLOAD PUSH1 0x1 PUSH1 0x1 PUSH1 0xA0 SHL SUB NOT AND PUSH1 0x1 PUSH1 0x1 PUSH1 0xA0 SHL SUB SWAP3 SWAP1 SWAP3 AND SWAP2 SWAP1 SWAP2 OR SWAP1 SSTORE JUMP JUMPDEST PUSH1 0x0 SLOAD PUSH1 0xFF AND ISZERO PUSH3 0x99F JUMPI PUSH1 0x40 MLOAD PUSH3 0x461BCD PUSH1 0xE5 SHL DUP2 MSTORE PUSH1 0x4 ADD PUSH3 0x2DD SWAP1 PUSH3 0x133E JUMP JUMPDEST PUSH1 0x7 DUP1 SLOAD CALLER PUSH1 0x1 PUSH1 0x1 PUSH1 0xA0 SHL SUB NOT SWAP2 DUP3 AND OR SWAP1 SWAP2 SSTORE PUSH1 0x0 DUP1 SLOAD PUSH3 0x10000 PUSH1 0x1 PUSH1 0xB0 SHL SUB NOT AND PUSH3 0x10000 PUSH1 0x1 PUSH1 0x1 PUSH1 0xA0 SHL SUB DUP11 DUP2 AND SWAP2 SWAP1 SWAP2 MUL SWAP2 SWAP1 SWAP2 OR SWAP1 SWAP2 SSTORE PUSH1 0x1 DUP1 SLOAD DUP4 AND DUP9 DUP4 AND OR DUP2 SSTORE PUSH1 0x2 DUP1 SLOAD DUP5 AND DUP8 DUP5 AND OR SWAP1 SSTORE PUSH1 0x3 DUP1 SLOAD DUP5 AND DUP9 DUP5 AND OR SWAP1 SSTORE PUSH1 0x4 DUP1 SLOAD DUP5 AND DUP7 DUP5 AND OR DUP2 SSTORE PUSH1 0x5 DUP1 SLOAD DUP6 AND SWAP4 DUP7 AND SWAP4 SWAP1 SWAP4 OR SWAP1 SWAP3 SSTORE PUSH1 0x6 DUP1 SLOAD SWAP1 SWAP4 AND SWAP1 SWAP3 SSTORE PUSH1 0x40 DUP1 MLOAD DUP1 DUP3 ADD SWAP1 SWAP2 MSTORE SWAP1 DUP2 MSTORE PUSH4 0x4C554341 PUSH1 0xE0 SHL PUSH1 0x20 DUP3 ADD MSTORE PUSH3 0xA4F SWAP2 DUP9 SWAP1 PUSH3 0xD13 JUMP JUMPDEST PUSH1 0x40 DUP1 MLOAD DUP1 DUP3 ADD SWAP1 SWAP2 MSTORE PUSH1 0x3 DUP2 MSTORE PUSH3 0x8AA89 PUSH1 0xEB SHL PUSH1 0x20 DUP3 ADD MSTORE PUSH1 0x6 SLOAD PUSH3 0xA83 SWAP2 SWAP1 PUSH1 0x1 PUSH1 0x1 PUSH1 0xA0 SHL SUB AND PUSH1 0x1 PUSH3 0xD13 JUMP JUMPDEST POP POP PUSH1 0x0 DUP1 SLOAD PUSH1 0xFF NOT AND PUSH1 0x1 OR SWAP1 SSTORE POP POP POP POP JUMP JUMPDEST PUSH1 0x7 SLOAD PUSH1 0x1 PUSH1 0x1 PUSH1 0xA0 SHL SUB AND CALLER EQ PUSH3 0xAC5 JUMPI PUSH1 0x40 MLOAD PUSH3 0x461BCD PUSH1 0xE5 SHL DUP2 MSTORE PUSH1 0x4 ADD PUSH3 0x2DD SWAP1 PUSH3 0x12E9 JUMP JUMPDEST PUSH1 0xA DUP4 PUSH1 0x40 MLOAD PUSH3 0xAD7 SWAP2 SWAP1 PUSH3 0x10C1 JUMP JUMPDEST SWAP1 DUP2 MSTORE PUSH1 0x40 MLOAD SWAP1 DUP2 SWAP1 SUB PUSH1 0x20 ADD SWAP1 KECCAK256 PUSH1 0x2 ADD SLOAD PUSH1 0xFF AND PUSH3 0xB0C JUMPI PUSH1 0x40 MLOAD PUSH3 0x461BCD PUSH1 0xE5 SHL DUP2 MSTORE PUSH1 0x4 ADD PUSH3 0x2DD SWAP1 PUSH3 0x1268 JUMP JUMPDEST PUSH3 0xB16 PUSH3 0xDA3 JUMP JUMPDEST PUSH1 0x1 PUSH1 0x1 PUSH1 0xA0 SHL SUB DUP4 AND DUP2 MSTORE PUSH1 0x20 DUP2 ADD DUP3 SWAP1 MSTORE PUSH1 0x1 PUSH1 0x40 DUP1 DUP4 ADD SWAP2 SWAP1 SWAP2 MSTORE MLOAD DUP2 SWAP1 PUSH1 0xA SWAP1 PUSH3 0xB47 SWAP1 DUP8 SWAP1 PUSH3 0x10C1 JUMP JUMPDEST SWAP1 DUP2 MSTORE PUSH1 0x40 DUP1 MLOAD PUSH1 0x20 SWAP3 DUP2 SWAP1 SUB DUP4 ADD DUP2 KECCAK256 DUP5 MLOAD DUP2 SLOAD PUSH1 0x1 PUSH1 0x1 PUSH1 0xA0 SHL SUB NOT AND PUSH1 0x1 PUSH1 0x1 PUSH1 0xA0 SHL SUB SWAP2 DUP3 AND OR DUP3 SSTORE SWAP4 DUP6 ADD MLOAD PUSH1 0x1 DUP3 ADD SSTORE SWAP4 SWAP1 SWAP2 ADD MLOAD PUSH1 0x2 SWAP1 SWAP4 ADD DUP1 SLOAD PUSH1 0xFF NOT AND SWAP4 ISZERO ISZERO SWAP4 SWAP1 SWAP4 OR SWAP1 SWAP3 SSTORE DUP5 AND SWAP1 PUSH3 0xBA7 SWAP1 DUP7 SWAP1 PUSH3 0x10C1 JUMP JUMPDEST PUSH1 0x40 MLOAD DUP1 SWAP2 SUB SWAP1 KECCAK256 PUSH32 0x8CC152EAD098A9B76D7365EE16520DDC14962ED9AF8A753BDA931382AF61ABB7 DUP5 PUSH1 0x40 MLOAD PUSH3 0xBE0 SWAP2 SWAP1 PUSH3 0x13F2 JUMP JUMPDEST PUSH1 0x40 MLOAD DUP1 SWAP2 SUB SWAP1 LOG3 POP POP POP POP JUMP JUMPDEST PUSH1 0x7 SLOAD PUSH1 0x1 PUSH1 0x1 PUSH1 0xA0 SHL SUB AND CALLER EQ PUSH3 0xC1B JUMPI PUSH1 0x40 MLOAD PUSH3 0x461BCD PUSH1 0xE5 SHL DUP2 MSTORE PUSH1 0x4 ADD PUSH3 0x2DD SWAP1 PUSH3 0x12E9 JUMP JUMPDEST PUSH1 0x4 DUP1 SLOAD PUSH1 0x1 PUSH1 0x1 PUSH1 0xA0 SHL SUB NOT AND PUSH1 0x1 PUSH1 0x1 PUSH1 0xA0 SHL SUB SWAP3 SWAP1 SWAP3 AND SWAP2 SWAP1 SWAP2 OR SWAP1 SSTORE JUMP JUMPDEST PUSH1 0x0 PUSH3 0xC4B DUP3 DUP5 PUSH3 0x147B JUMP JUMPDEST SWAP4 SWAP3 POP POP POP JUMP JUMPDEST PUSH1 0x0 PUSH3 0xC4B DUP3 DUP5 PUSH3 0x145A JUMP JUMPDEST PUSH1 0x0 DUP1 SLOAD PUSH1 0x1 SLOAD PUSH1 0x3 SLOAD PUSH1 0x2 SLOAD PUSH1 0x5 SLOAD PUSH1 0x40 MLOAD DUP7 SWAP6 ADDRESS SWAP6 PUSH1 0x1 PUSH1 0x1 PUSH1 0xA0 SHL SUB PUSH3 0x10000 SWAP1 SWAP3 DIV DUP3 AND SWAP6 SWAP1 DUP3 AND SWAP5 SWAP1 DUP3 AND SWAP4 SWAP1 DUP3 AND SWAP3 SWAP2 AND SWAP1 PUSH3 0xCA3 SWAP1 PUSH3 0xDC3 JUMP JUMPDEST PUSH3 0xCB4 SWAP7 SWAP6 SWAP5 SWAP4 SWAP3 SWAP2 SWAP1 PUSH3 0x10F3 JUMP JUMPDEST PUSH1 0x40 MLOAD DUP1 SWAP2 SUB SWAP1 PUSH1 0x0 CREATE DUP1 ISZERO DUP1 ISZERO PUSH3 0xCD1 JUMPI RETURNDATASIZE PUSH1 0x0 DUP1 RETURNDATACOPY RETURNDATASIZE PUSH1 0x0 REVERT JUMPDEST POP PUSH1 0x8 DUP1 SLOAD SWAP2 SWAP3 POP PUSH1 0x0 PUSH3 0xCE6 DUP4 PUSH3 0x14D0 JUMP JUMPDEST SWAP1 SWAP2 SSTORE POP POP PUSH1 0x1 PUSH1 0x1 PUSH1 0xA0 SHL SUB DUP2 AND PUSH1 0x0 SWAP1 DUP2 MSTORE PUSH1 0x9 PUSH1 0x20 MSTORE PUSH1 0x40 SWAP1 KECCAK256 DUP1 SLOAD PUSH1 0xFF NOT AND PUSH1 0x1 OR SWAP1 SSTORE SWAP1 POP SWAP1 JUMP JUMPDEST PUSH3 0xD1D PUSH3 0xDA3 JUMP JUMPDEST PUSH1 0x1 PUSH1 0x1 PUSH1 0xA0 SHL SUB DUP4 AND DUP2 MSTORE PUSH1 0x20 DUP2 ADD DUP3 SWAP1 MSTORE PUSH1 0x1 PUSH1 0x40 DUP1 DUP4 ADD SWAP2 SWAP1 SWAP2 MSTORE MLOAD DUP2 SWAP1 PUSH1 0xA SWAP1 PUSH3 0xD4E SWAP1 DUP8 SWAP1 PUSH3 0x10C1 JUMP JUMPDEST SWAP1 DUP2 MSTORE PUSH1 0x40 DUP1 MLOAD PUSH1 0x20 SWAP3 DUP2 SWAP1 SUB DUP4 ADD SWAP1 KECCAK256 DUP4 MLOAD DUP2 SLOAD PUSH1 0x1 PUSH1 0x1 PUSH1 0xA0 SHL SUB NOT AND PUSH1 0x1 PUSH1 0x1 PUSH1 0xA0 SHL SUB SWAP1 SWAP2 AND OR DUP2 SSTORE SWAP2 DUP4 ADD MLOAD PUSH1 0x1 DUP4 ADD SSTORE SWAP2 SWAP1 SWAP2 ADD MLOAD PUSH1 0x2 SWAP1 SWAP2 ADD DUP1 SLOAD PUSH1 0xFF NOT AND SWAP2 ISZERO ISZERO SWAP2 SWAP1 SWAP2 OR SWAP1 SSTORE POP POP POP POP JUMP JUMPDEST PUSH1 0x40 DUP1 MLOAD PUSH1 0x60 DUP2 ADD DUP3 MSTORE PUSH1 0x0 DUP1 DUP3 MSTORE PUSH1 0x20 DUP3 ADD DUP2 SWAP1 MSTORE SWAP2 DUP2 ADD SWAP2 SWAP1 SWAP2 MSTORE SWAP1 JUMP JUMPDEST PUSH2 0x2622 DUP1 PUSH3 0x151B DUP4 CODECOPY ADD SWAP1 JUMP JUMPDEST DUP1 CALLDATALOAD PUSH1 0x1 PUSH1 0x1 PUSH1 0xA0 SHL SUB DUP2 AND DUP2 EQ PUSH3 0x32B JUMPI PUSH1 0x0 DUP1 REVERT JUMPDEST PUSH1 0x0 DUP3 PUSH1 0x1F DUP4 ADD SLT PUSH3 0xDFA JUMPI DUP1 DUP2 REVERT JUMPDEST DUP2 CALLDATALOAD PUSH3 0xE11 PUSH3 0xE0B DUP3 PUSH3 0x142F JUMP JUMPDEST PUSH3 0x13FB JUMP JUMPDEST DUP2 DUP2 MSTORE DUP5 PUSH1 0x20 DUP4 DUP7 ADD ADD GT ISZERO PUSH3 0xE26 JUMPI DUP3 DUP4 REVERT JUMPDEST DUP2 PUSH1 0x20 DUP6 ADD PUSH1 0x20 DUP4 ADD CALLDATACOPY SWAP1 DUP2 ADD PUSH1 0x20 ADD SWAP2 SWAP1 SWAP2 MSTORE SWAP3 SWAP2 POP POP JUMP JUMPDEST PUSH1 0x0 PUSH1 0x20 DUP3 DUP5 SUB SLT ISZERO PUSH3 0xE52 JUMPI DUP1 DUP2 REVERT JUMPDEST PUSH3 0xC4B DUP3 PUSH3 0xDD1 JUMP JUMPDEST PUSH1 0x0 DUP1 PUSH1 0x0 DUP1 PUSH1 0x0 DUP1 PUSH1 0xC0 DUP8 DUP10 SUB SLT ISZERO PUSH3 0xE76 JUMPI DUP2 DUP3 REVERT JUMPDEST PUSH3 0xE81 DUP8 PUSH3 0xDD1 JUMP JUMPDEST SWAP6 POP PUSH3 0xE91 PUSH1 0x20 DUP9 ADD PUSH3 0xDD1 JUMP JUMPDEST SWAP5 POP PUSH3 0xEA1 PUSH1 0x40 DUP9 ADD PUSH3 0xDD1 JUMP JUMPDEST SWAP4 POP PUSH3 0xEB1 PUSH1 0x60 DUP9 ADD PUSH3 0xDD1 JUMP JUMPDEST SWAP3 POP PUSH3 0xEC1 PUSH1 0x80 DUP9 ADD PUSH3 0xDD1 JUMP JUMPDEST SWAP2 POP PUSH3 0xED1 PUSH1 0xA0 DUP9 ADD PUSH3 0xDD1 JUMP JUMPDEST SWAP1 POP SWAP3 SWAP6 POP SWAP3 SWAP6 POP SWAP3 SWAP6 JUMP JUMPDEST PUSH1 0x0 DUP1 PUSH1 0x0 DUP1 PUSH1 0x0 PUSH1 0xA0 DUP7 DUP9 SUB SLT ISZERO PUSH3 0xEF5 JUMPI DUP1 DUP2 REVERT JUMPDEST PUSH3 0xF00 DUP7 PUSH3 0xDD1 JUMP JUMPDEST SWAP5 POP PUSH1 0x20 DUP7 ADD CALLDATALOAD PUSH8 0xFFFFFFFFFFFFFFFF DUP2 GT ISZERO PUSH3 0xF1C JUMPI DUP2 DUP3 REVERT JUMPDEST PUSH3 0xF2A DUP9 DUP3 DUP10 ADD PUSH3 0xDE9 JUMP JUMPDEST SWAP6 SWAP9 SWAP6 SWAP8 POP POP POP POP PUSH1 0x40 DUP5 ADD CALLDATALOAD SWAP4 PUSH1 0x60 DUP2 ADD CALLDATALOAD SWAP4 PUSH1 0x80 SWAP1 SWAP2 ADD CALLDATALOAD SWAP3 POP SWAP1 POP JUMP JUMPDEST PUSH1 0x0 DUP1 PUSH1 0x40 DUP4 DUP6 SUB SLT ISZERO PUSH3 0xF5D JUMPI DUP2 DUP3 REVERT JUMPDEST PUSH3 0xF68 DUP4 PUSH3 0xDD1 JUMP JUMPDEST SWAP5 PUSH1 0x20 SWAP4 SWAP1 SWAP4 ADD CALLDATALOAD SWAP4 POP POP POP JUMP JUMPDEST PUSH1 0x0 PUSH1 0x20 DUP3 DUP5 SUB SLT ISZERO PUSH3 0xF88 JUMPI DUP1 DUP2 REVERT JUMPDEST DUP2 MLOAD DUP1 ISZERO ISZERO DUP2 EQ PUSH3 0xC4B JUMPI DUP2 DUP3 REVERT JUMPDEST PUSH1 0x0 PUSH1 0x20 DUP3 DUP5 SUB SLT ISZERO PUSH3 0xFAA JUMPI DUP1 DUP2 REVERT JUMPDEST DUP2 MLOAD PUSH8 0xFFFFFFFFFFFFFFFF DUP2 GT ISZERO PUSH3 0xFC1 JUMPI DUP2 DUP3 REVERT JUMPDEST DUP3 ADD PUSH1 0x1F DUP2 ADD DUP5 SGT PUSH3 0xFD2 JUMPI DUP2 DUP3 REVERT JUMPDEST DUP1 MLOAD PUSH3 0xFE3 PUSH3 0xE0B DUP3 PUSH3 0x142F JUMP JUMPDEST DUP2 DUP2 MSTORE DUP6 PUSH1 0x20 DUP4 DUP6 ADD ADD GT ISZERO PUSH3 0xFF8 JUMPI DUP4 DUP5 REVERT JUMPDEST PUSH3 0x100B DUP3 PUSH1 0x20 DUP4 ADD PUSH1 0x20 DUP7 ADD PUSH3 0x149D JUMP JUMPDEST SWAP6 SWAP5 POP POP POP POP POP JUMP JUMPDEST PUSH1 0x0 DUP1 PUSH1 0x40 DUP4 DUP6 SUB SLT ISZERO PUSH3 0x1027 JUMPI DUP2 DUP3 REVERT JUMPDEST DUP3 CALLDATALOAD PUSH8 0xFFFFFFFFFFFFFFFF DUP2 GT ISZERO PUSH3 0x103E JUMPI DUP3 DUP4 REVERT JUMPDEST PUSH3 0x104C DUP6 DUP3 DUP7 ADD PUSH3 0xDE9 JUMP JUMPDEST SWAP3 POP POP PUSH3 0x105D PUSH1 0x20 DUP5 ADD PUSH3 0xDD1 JUMP JUMPDEST SWAP1 POP SWAP3 POP SWAP3 SWAP1 POP JUMP JUMPDEST PUSH1 0x0 DUP1 PUSH1 0x0 PUSH1 0x60 DUP5 DUP7 SUB SLT ISZERO PUSH3 0x107B JUMPI DUP3 DUP4 REVERT JUMPDEST DUP4 CALLDATALOAD PUSH8 0xFFFFFFFFFFFFFFFF DUP2 GT ISZERO PUSH3 0x1092 JUMPI DUP4 DUP5 REVERT JUMPDEST PUSH3 0x10A0 DUP7 DUP3 DUP8 ADD PUSH3 0xDE9 JUMP JUMPDEST SWAP4 POP POP PUSH3 0x10B1 PUSH1 0x20 DUP6 ADD PUSH3 0xDD1 JUMP JUMPDEST SWAP2 POP PUSH1 0x40 DUP5 ADD CALLDATALOAD SWAP1 POP SWAP3 POP SWAP3 POP SWAP3 JUMP JUMPDEST PUSH1 0x0 DUP3 MLOAD PUSH3 0x10D5 DUP2 DUP5 PUSH1 0x20 DUP8 ADD PUSH3 0x149D JUMP JUMPDEST SWAP2 SWAP1 SWAP2 ADD SWAP3 SWAP2 POP POP JUMP JUMPDEST PUSH1 0x1 PUSH1 0x1 PUSH1 0xA0 SHL SUB SWAP2 SWAP1 SWAP2 AND DUP2 MSTORE PUSH1 0x20 ADD SWAP1 JUMP JUMPDEST PUSH1 0x1 PUSH1 0x1 PUSH1 0xA0 SHL SUB SWAP7 DUP8 AND DUP2 MSTORE SWAP5 DUP7 AND PUSH1 0x20 DUP7 ADD MSTORE SWAP3 DUP6 AND PUSH1 0x40 DUP6 ADD MSTORE SWAP1 DUP5 AND PUSH1 0x60 DUP5 ADD MSTORE DUP4 AND PUSH1 0x80 DUP4 ADD MSTORE SWAP1 SWAP2 AND PUSH1 0xA0 DUP3 ADD MSTORE PUSH1 0xC0 ADD SWAP1 JUMP JUMPDEST PUSH1 0x0 PUSH1 0x1 DUP1 PUSH1 0xA0 SHL SUB DUP1 DUP11 AND DUP4 MSTORE DUP1 DUP10 AND PUSH1 0x20 DUP5 ADD MSTORE DUP1 DUP9 AND PUSH1 0x40 DUP5 ADD MSTORE POP PUSH1 0xE0 PUSH1 0x60 DUP4 ADD MSTORE DUP6 MLOAD DUP1 PUSH1 0xE0 DUP5 ADD MSTORE PUSH2 0x100 PUSH3 0x1170 DUP3 DUP3 DUP7 ADD PUSH1 0x20 DUP12 ADD PUSH3 0x149D JUMP JUMPDEST PUSH1 0x80 DUP5 ADD SWAP7 SWAP1 SWAP7 MSTORE PUSH1 0xA0 DUP4 ADD SWAP5 SWAP1 SWAP5 MSTORE POP PUSH1 0xC0 DUP2 ADD SWAP2 SWAP1 SWAP2 MSTORE PUSH1 0x1F SWAP1 SWAP2 ADD PUSH1 0x1F NOT AND ADD ADD SWAP5 SWAP4 POP POP POP POP JUMP JUMPDEST PUSH1 0x1 PUSH1 0x1 PUSH1 0xA0 SHL SUB SWAP5 DUP6 AND DUP2 MSTORE SWAP3 DUP5 AND PUSH1 0x20 DUP5 ADD MSTORE SWAP3 AND PUSH1 0x40 DUP3 ADD MSTORE PUSH1 0x60 DUP2 ADD SWAP2 SWAP1 SWAP2 MSTORE PUSH1 0x80 ADD SWAP1 JUMP JUMPDEST PUSH1 0x1 PUSH1 0x1 PUSH1 0xA0 SHL SUB SWAP3 SWAP1 SWAP3 AND DUP3 MSTORE PUSH1 0x20 DUP3 ADD MSTORE PUSH1 0x40 ADD SWAP1 JUMP JUMPDEST SWAP1 ISZERO ISZERO DUP2 MSTORE PUSH1 0x20 ADD SWAP1 JUMP JUMPDEST PUSH1 0x20 DUP1 DUP3 MSTORE PUSH1 0x19 SWAP1 DUP3 ADD MSTORE PUSH32 0x466163746F72793A20616D6F756E7420746F6F20736D616C6C00000000000000 PUSH1 0x40 DUP3 ADD MSTORE PUSH1 0x60 ADD SWAP1 JUMP JUMPDEST PUSH1 0x20 DUP1 DUP3 MSTORE PUSH1 0x27 SWAP1 DUP3 ADD MSTORE PUSH32 0x466163746F72793A2070657263656E74206E656564206265747765656E203120 PUSH1 0x40 DUP3 ADD MSTORE PUSH7 0x616E642031303 PUSH1 0xCC SHL PUSH1 0x60 DUP3 ADD MSTORE PUSH1 0x80 ADD SWAP1 JUMP JUMPDEST PUSH1 0x20 DUP1 DUP3 MSTORE PUSH1 0x18 SWAP1 DUP3 ADD MSTORE PUSH32 0x466163746F72793A20746F6B656E206E6F742065786973740000000000000000 PUSH1 0x40 DUP3 ADD MSTORE PUSH1 0x60 ADD SWAP1 JUMP JUMPDEST PUSH1 0x20 DUP1 DUP3 MSTORE PUSH1 0x2A SWAP1 DUP3 ADD MSTORE PUSH32 0x466163746F72793A20206C6F636B74696D65206E656564206265747765656E20 PUSH1 0x40 DUP3 ADD MSTORE PUSH10 0x3120616E642031383235 PUSH1 0xB0 SHL PUSH1 0x60 DUP3 ADD MSTORE PUSH1 0x80 ADD SWAP1 JUMP JUMPDEST PUSH1 0x20 DUP1 DUP3 MSTORE PUSH1 0x13 SWAP1 DUP3 ADD MSTORE PUSH19 0x2330B1BA37B93C9D1037B7363C9037BBB732B9 PUSH1 0x69 SHL PUSH1 0x40 DUP3 ADD MSTORE PUSH1 0x60 ADD SWAP1 JUMP JUMPDEST PUSH1 0x20 DUP1 DUP3 MSTORE PUSH1 0xE SWAP1 DUP3 ADD MSTORE PUSH14 0xDCDEE840CADCDEEACED0408AA89 PUSH1 0x93 SHL PUSH1 0x40 DUP3 ADD MSTORE PUSH1 0x60 ADD SWAP1 JUMP JUMPDEST PUSH1 0x20 DUP1 DUP3 MSTORE PUSH1 0xB SWAP1 DUP3 ADD MSTORE PUSH11 0x1A5B9A5D1A585B1A5E9959 PUSH1 0xAA SHL PUSH1 0x40 DUP3 ADD MSTORE PUSH1 0x60 ADD SWAP1 JUMP JUMPDEST PUSH1 0x20 DUP1 DUP3 MSTORE PUSH1 0x1C SWAP1 DUP3 ADD MSTORE PUSH32 0x466163746F72793A20746F206163636F756E742069732073656C662E00000000 PUSH1 0x40 DUP3 ADD MSTORE PUSH1 0x60 ADD SWAP1 JUMP JUMPDEST PUSH1 0x20 DUP1 DUP3 MSTORE PUSH1 0x10 SWAP1 DUP3 ADD MSTORE PUSH16 0x466163746F72793A2044616E67657221 PUSH1 0x80 SHL PUSH1 0x40 DUP3 ADD MSTORE PUSH1 0x60 ADD SWAP1 JUMP JUMPDEST PUSH1 0x20 DUP1 DUP3 MSTORE PUSH1 0x14 SWAP1 DUP3 ADD MSTORE PUSH20 0x119858DD1BDC9E4E881D1BDAD95B88195E1A5CDD PUSH1 0x62 SHL PUSH1 0x40 DUP3 ADD MSTORE PUSH1 0x60 ADD SWAP1 JUMP JUMPDEST SWAP1 DUP2 MSTORE PUSH1 0x20 ADD SWAP1 JUMP JUMPDEST PUSH1 0x40 MLOAD PUSH1 0x1F DUP3 ADD PUSH1 0x1F NOT AND DUP2 ADD PUSH8 0xFFFFFFFFFFFFFFFF DUP2 GT DUP3 DUP3 LT OR ISZERO PUSH3 0x1427 JUMPI PUSH3 0x1427 PUSH3 0x1504 JUMP JUMPDEST PUSH1 0x40 MSTORE SWAP2 SWAP1 POP JUMP JUMPDEST PUSH1 0x0 PUSH8 0xFFFFFFFFFFFFFFFF DUP3 GT ISZERO PUSH3 0x144C JUMPI PUSH3 0x144C PUSH3 0x1504 JUMP JUMPDEST POP PUSH1 0x1F ADD PUSH1 0x1F NOT AND PUSH1 0x20 ADD SWAP1 JUMP JUMPDEST PUSH1 0x0 DUP3 PUSH3 0x1476 JUMPI PUSH4 0x4E487B71 PUSH1 0xE0 SHL DUP2 MSTORE PUSH1 0x12 PUSH1 0x4 MSTORE PUSH1 0x24 DUP2 REVERT JUMPDEST POP DIV SWAP1 JUMP JUMPDEST PUSH1 0x0 DUP2 PUSH1 0x0 NOT DIV DUP4 GT DUP3 ISZERO ISZERO AND ISZERO PUSH3 0x1498 JUMPI PUSH3 0x1498 PUSH3 0x14EE JUMP JUMPDEST POP MUL SWAP1 JUMP JUMPDEST PUSH1 0x0 JUMPDEST DUP4 DUP2 LT ISZERO PUSH3 0x14BA JUMPI DUP2 DUP2 ADD MLOAD DUP4 DUP3 ADD MSTORE PUSH1 0x20 ADD PUSH3 0x14A0 JUMP JUMPDEST DUP4 DUP2 GT ISZERO PUSH3 0x14CA JUMPI PUSH1 0x0 DUP5 DUP5 ADD MSTORE JUMPDEST POP POP POP POP JUMP JUMPDEST PUSH1 0x0 PUSH1 0x0 NOT DUP3 EQ ISZERO PUSH3 0x14E7 JUMPI PUSH3 0x14E7 PUSH3 0x14EE JUMP JUMPDEST POP PUSH1 0x1 ADD SWAP1 JUMP JUMPDEST PUSH4 0x4E487B71 PUSH1 0xE0 SHL PUSH1 0x0 MSTORE PUSH1 0x11 PUSH1 0x4 MSTORE PUSH1 0x24 PUSH1 0x0 REVERT JUMPDEST PUSH4 0x4E487B71 PUSH1 0xE0 SHL PUSH1 0x0 MSTORE PUSH1 0x41 PUSH1 0x4 MSTORE PUSH1 0x24 PUSH1 0x0 REVERT INVALID PUSH1 0x80 PUSH1 0x40 MSTORE CALLVALUE DUP1 ISZERO PUSH3 0x11 JUMPI PUSH1 0x0 DUP1 REVERT JUMPDEST POP PUSH1 0x40 MLOAD PUSH3 0x2622 CODESIZE SUB DUP1 PUSH3 0x2622 DUP4 CODECOPY DUP2 ADD PUSH1 0x40 DUP2 SWAP1 MSTORE PUSH3 0x34 SWAP2 PUSH3 0xD8 JUMP JUMPDEST PUSH1 0x0 DUP1 SLOAD PUSH2 0x100 PUSH1 0x1 PUSH1 0xA8 SHL SUB NOT AND PUSH2 0x100 PUSH1 0x1 PUSH1 0x1 PUSH1 0xA0 SHL SUB SWAP9 DUP10 AND MUL OR SWAP1 SSTORE PUSH1 0x1 DUP1 SLOAD PUSH1 0x1 PUSH1 0x1 PUSH1 0xA0 SHL SUB NOT SWAP1 DUP2 AND SWAP7 DUP9 AND SWAP7 SWAP1 SWAP7 OR SWAP1 SSTORE PUSH1 0x2 DUP1 SLOAD DUP7 AND SWAP5 DUP8 AND SWAP5 SWAP1 SWAP5 OR SWAP1 SWAP4 SSTORE PUSH1 0x3 DUP1 SLOAD DUP6 AND SWAP3 DUP7 AND SWAP3 SWAP1 SWAP3 OR SWAP1 SWAP2 SSTORE PUSH1 0x5 DUP1 SLOAD DUP5 AND SWAP3 DUP6 AND SWAP3 SWAP1 SWAP3 OR SWAP1 SWAP2 SSTORE PUSH1 0x6 DUP1 SLOAD DUP4 AND SWAP2 SWAP1 SWAP4 AND OR SWAP1 SWAP2 SSTORE PUSH1 0x7 DUP1 SLOAD SWAP1 SWAP2 AND SWAP1 SSTORE PUSH3 0x158 JUMP JUMPDEST DUP1 MLOAD PUSH1 0x1 PUSH1 0x1 PUSH1 0xA0 SHL SUB DUP2 AND DUP2 EQ PUSH3 0xD3 JUMPI PUSH1 0x0 DUP1 REVERT JUMPDEST SWAP2 SWAP1 POP JUMP JUMPDEST PUSH1 0x0 DUP1 PUSH1 0x0 DUP1 PUSH1 0x0 DUP1 PUSH1 0xC0 DUP8 DUP10 SUB SLT ISZERO PUSH3 0xF1 JUMPI DUP2 DUP3 REVERT JUMPDEST PUSH3 0xFC DUP8 PUSH3 0xBB JUMP JUMPDEST SWAP6 POP PUSH3 0x10C PUSH1 0x20 DUP9 ADD PUSH3 0xBB JUMP JUMPDEST SWAP5 POP PUSH3 0x11C PUSH1 0x40 DUP9 ADD PUSH3 0xBB JUMP JUMPDEST SWAP4 POP PUSH3 0x12C PUSH1 0x60 DUP9 ADD PUSH3 0xBB JUMP JUMPDEST SWAP3 POP PUSH3 0x13C PUSH1 0x80 DUP9 ADD PUSH3 0xBB JUMP JUMPDEST SWAP2 POP PUSH3 0x14C PUSH1 0xA0 DUP9 ADD PUSH3 0xBB JUMP JUMPDEST SWAP1 POP SWAP3 SWAP6 POP SWAP3 SWAP6 POP SWAP3 SWAP6 JUMP JUMPDEST PUSH2 0x24BA DUP1 PUSH3 0x168 PUSH1 0x0 CODECOPY PUSH1 0x0 RETURN INVALID PUSH1 0x80 PUSH1 0x40 MSTORE PUSH1 0x4 CALLDATASIZE LT PUSH2 0xF3 JUMPI PUSH1 0x0 CALLDATALOAD PUSH1 0xE0 SHR DUP1 PUSH4 0x566FA0CB GT PUSH2 0x8A JUMPI DUP1 PUSH4 0xB578803F GT PUSH2 0x59 JUMPI DUP1 PUSH4 0xB578803F EQ PUSH2 0x24F JUMPI DUP1 PUSH4 0xBE7420B1 EQ PUSH2 0x272 JUMPI DUP1 PUSH4 0xC87E5117 EQ PUSH2 0x287 JUMPI DUP1 PUSH4 0xE25B3C95 EQ PUSH2 0x29C JUMPI PUSH2 0xF3 JUMP JUMPDEST DUP1 PUSH4 0x566FA0CB EQ PUSH2 0x1ED JUMPI DUP1 PUSH4 0x88FFE867 EQ PUSH2 0x20D JUMPI DUP1 PUSH4 0x8C5782CA EQ PUSH2 0x222 JUMPI DUP1 PUSH4 0x8FAE60A5 EQ PUSH2 0x247 JUMPI PUSH2 0xF3 JUMP JUMPDEST DUP1 PUSH4 0x2C6372C3 GT PUSH2 0xC6 JUMPI DUP1 PUSH4 0x2C6372C3 EQ PUSH2 0x17A JUMPI DUP1 PUSH4 0x43D726D6 EQ PUSH2 0x1A1 JUMPI DUP1 PUSH4 0x4DC415DE EQ PUSH2 0x1B6 JUMPI DUP1 PUSH4 0x4E69D560 EQ PUSH2 0x1CB JUMPI PUSH2 0xF3 JUMP JUMPDEST DUP1 PUSH4 0xD657191 EQ PUSH2 0xF8 JUMPI DUP1 PUSH4 0xE080192 EQ PUSH2 0x12E JUMPI DUP1 PUSH4 0x25787798 EQ PUSH2 0x145 JUMPI DUP1 PUSH4 0x29AC54A7 EQ PUSH2 0x165 JUMPI JUMPDEST PUSH1 0x0 DUP1 REVERT JUMPDEST CALLVALUE DUP1 ISZERO PUSH2 0x104 JUMPI PUSH1 0x0 DUP1 REVERT JUMPDEST POP PUSH2 0x10D PUSH2 0x2BE JUMP JUMPDEST PUSH1 0x40 MLOAD PUSH2 0x125 SWAP13 SWAP12 SWAP11 SWAP10 SWAP9 SWAP8 SWAP7 SWAP6 SWAP5 SWAP4 SWAP3 SWAP2 SWAP1 PUSH2 0x1F46 JUMP JUMPDEST PUSH1 0x40 MLOAD DUP1 SWAP2 SUB SWAP1 RETURN JUMPDEST CALLVALUE DUP1 ISZERO PUSH2 0x13A JUMPI PUSH1 0x0 DUP1 REVERT JUMPDEST POP PUSH2 0x143 PUSH2 0x45C JUMP JUMPDEST STOP JUMPDEST CALLVALUE DUP1 ISZERO PUSH2 0x151 JUMPI PUSH1 0x0 DUP1 REVERT JUMPDEST POP PUSH2 0x143 PUSH2 0x160 CALLDATASIZE PUSH1 0x4 PUSH2 0x1D08 JUMP JUMPDEST PUSH2 0x51D JUMP JUMPDEST CALLVALUE DUP1 ISZERO PUSH2 0x171 JUMPI PUSH1 0x0 DUP1 REVERT JUMPDEST POP PUSH2 0x143 PUSH2 0x695 JUMP JUMPDEST CALLVALUE DUP1 ISZERO PUSH2 0x186 JUMPI PUSH1 0x0 DUP1 REVERT JUMPDEST POP PUSH2 0x18F PUSH2 0x8AC JUMP JUMPDEST PUSH1 0x40 MLOAD PUSH2 0x125 SWAP7 SWAP6 SWAP5 SWAP4 SWAP3 SWAP2 SWAP1 PUSH2 0x1EDF JUMP JUMPDEST CALLVALUE DUP1 ISZERO PUSH2 0x1AD JUMPI PUSH1 0x0 DUP1 REVERT JUMPDEST POP PUSH2 0x143 PUSH2 0x8E3 JUMP JUMPDEST CALLVALUE DUP1 ISZERO PUSH2 0x1C2 JUMPI PUSH1 0x0 DUP1 REVERT JUMPDEST POP PUSH2 0x143 PUSH2 0xABA JUMP JUMPDEST CALLVALUE DUP1 ISZERO PUSH2 0x1D7 JUMPI PUSH1 0x0 DUP1 REVERT JUMPDEST POP PUSH2 0x1E0 PUSH2 0xB2F JUMP JUMPDEST PUSH1 0x40 MLOAD PUSH2 0x125 SWAP2 SWAP1 PUSH2 0x1F33 JUMP JUMPDEST CALLVALUE DUP1 ISZERO PUSH2 0x1F9 JUMPI PUSH1 0x0 DUP1 REVERT JUMPDEST POP PUSH2 0x143 PUSH2 0x208 CALLDATASIZE PUSH1 0x4 PUSH2 0x1CD0 JUMP JUMPDEST PUSH2 0xC73 JUMP JUMPDEST CALLVALUE DUP1 ISZERO PUSH2 0x219 JUMPI PUSH1 0x0 DUP1 REVERT JUMPDEST POP PUSH2 0x143 PUSH2 0xD52 JUMP JUMPDEST CALLVALUE DUP1 ISZERO PUSH2 0x22E JUMPI PUSH1 0x0 DUP1 REVERT JUMPDEST POP PUSH2 0x237 PUSH2 0xFAA JUMP JUMPDEST PUSH1 0x40 MLOAD PUSH2 0x125 SWAP5 SWAP4 SWAP3 SWAP2 SWAP1 PUSH2 0x237D JUMP JUMPDEST PUSH2 0x143 PUSH2 0xFC5 JUMP JUMPDEST CALLVALUE DUP1 ISZERO PUSH2 0x25B JUMPI PUSH1 0x0 DUP1 REVERT JUMPDEST POP PUSH2 0x264 PUSH2 0x1250 JUMP JUMPDEST PUSH1 0x40 MLOAD PUSH2 0x125 SWAP3 SWAP2 SWAP1 PUSH2 0x1F21 JUMP JUMPDEST CALLVALUE DUP1 ISZERO PUSH2 0x27E JUMPI PUSH1 0x0 DUP1 REVERT JUMPDEST POP PUSH2 0x143 PUSH2 0x126B JUMP JUMPDEST CALLVALUE DUP1 ISZERO PUSH2 0x293 JUMPI PUSH1 0x0 DUP1 REVERT JUMPDEST POP PUSH2 0x143 PUSH2 0x1313 JUMP JUMPDEST CALLVALUE DUP1 ISZERO PUSH2 0x2A8 JUMPI PUSH1 0x0 DUP1 REVERT JUMPDEST POP PUSH2 0x2B1 PUSH2 0x13FC JUMP JUMPDEST PUSH1 0x40 MLOAD PUSH2 0x125 SWAP2 SWAP1 PUSH2 0x1F16 JUMP JUMPDEST PUSH1 0x60 PUSH1 0x0 DUP1 DUP1 DUP1 DUP1 DUP1 DUP1 DUP1 DUP1 DUP1 DUP1 DUP1 PUSH1 0x1 PUSH1 0x0 SLOAD PUSH1 0xFF AND PUSH1 0x3 DUP2 GT ISZERO PUSH2 0x2F4 JUMPI PUSH4 0x4E487B71 PUSH1 0xE0 SHL PUSH1 0x0 MSTORE PUSH1 0x21 PUSH1 0x4 MSTORE PUSH1 0x24 PUSH1 0x0 REVERT JUMPDEST EQ DUP1 PUSH2 0x345 JUMPI POP PUSH1 0x3 PUSH1 0x0 SLOAD PUSH1 0xFF AND PUSH1 0x3 DUP2 GT ISZERO PUSH2 0x322 JUMPI PUSH4 0x4E487B71 PUSH1 0xE0 SHL PUSH1 0x0 MSTORE PUSH1 0x21 PUSH1 0x4 MSTORE PUSH1 0x24 PUSH1 0x0 REVERT JUMPDEST EQ DUP1 ISZERO PUSH2 0x345 JUMPI POP PUSH1 0x17 SLOAD PUSH1 0xFF AND ISZERO DUP1 ISZERO PUSH2 0x345 JUMPI POP PUSH1 0x17 SLOAD PUSH2 0x100 SWAP1 DIV PUSH1 0xFF AND ISZERO JUMPDEST ISZERO PUSH2 0x34E JUMPI POP PUSH1 0x1 JUMPDEST PUSH1 0xF SLOAD PUSH1 0x9 SLOAD PUSH1 0xA SLOAD PUSH1 0xB SLOAD PUSH1 0xC SLOAD PUSH1 0xD SLOAD PUSH1 0xE SLOAD PUSH1 0x11 SLOAD PUSH1 0x12 SLOAD PUSH1 0x0 SLOAD PUSH1 0x8 SWAP10 PUSH1 0x1 PUSH1 0x1 PUSH1 0xA0 SHL SUB SWAP1 DUP2 AND SWAP10 DUP2 AND SWAP9 AND SWAP7 SWAP6 SWAP5 SWAP4 SWAP3 SWAP2 SWAP1 PUSH1 0xFF AND PUSH1 0x3 DUP2 GT ISZERO PUSH2 0x3A8 JUMPI PUSH4 0x4E487B71 PUSH1 0xE0 SHL PUSH1 0x0 MSTORE PUSH1 0x21 PUSH1 0x4 MSTORE PUSH1 0x24 PUSH1 0x0 REVERT JUMPDEST DUP12 DUP12 DUP1 SLOAD PUSH2 0x3B5 SWAP1 PUSH2 0x2408 JUMP JUMPDEST DUP1 PUSH1 0x1F ADD PUSH1 0x20 DUP1 SWAP2 DIV MUL PUSH1 0x20 ADD PUSH1 0x40 MLOAD SWAP1 DUP2 ADD PUSH1 0x40 MSTORE DUP1 SWAP3 SWAP2 SWAP1 DUP2 DUP2 MSTORE PUSH1 0x20 ADD DUP3 DUP1 SLOAD PUSH2 0x3E1 SWAP1 PUSH2 0x2408 JUMP JUMPDEST DUP1 ISZERO PUSH2 0x42E JUMPI DUP1 PUSH1 0x1F LT PUSH2 0x403 JUMPI PUSH2 0x100 DUP1 DUP4 SLOAD DIV MUL DUP4 MSTORE SWAP2 PUSH1 0x20 ADD SWAP2 PUSH2 0x42E JUMP JUMPDEST DUP3 ADD SWAP2 SWAP1 PUSH1 0x0 MSTORE PUSH1 0x20 PUSH1 0x0 KECCAK256 SWAP1 JUMPDEST DUP2 SLOAD DUP2 MSTORE SWAP1 PUSH1 0x1 ADD SWAP1 PUSH1 0x20 ADD DUP1 DUP4 GT PUSH2 0x411 JUMPI DUP3 SWAP1 SUB PUSH1 0x1F AND DUP3 ADD SWAP2 JUMPDEST POP POP POP POP POP SWAP12 POP SWAP13 POP SWAP13 POP SWAP13 POP SWAP13 POP SWAP13 POP SWAP13 POP SWAP13 POP SWAP13 POP SWAP13 POP SWAP13 POP SWAP13 POP SWAP13 POP POP SWAP1 SWAP2 SWAP3 SWAP4 SWAP5 SWAP6 SWAP7 SWAP8 SWAP9 SWAP10 SWAP11 SWAP12 JUMP JUMPDEST PUSH1 0x1 PUSH1 0x0 SLOAD PUSH1 0xFF AND PUSH1 0x3 DUP2 GT ISZERO PUSH2 0x483 JUMPI PUSH4 0x4E487B71 PUSH1 0xE0 SHL PUSH1 0x0 MSTORE PUSH1 0x21 PUSH1 0x4 MSTORE PUSH1 0x24 PUSH1 0x0 REVERT JUMPDEST EQ PUSH2 0x4A9 JUMPI PUSH1 0x40 MLOAD PUSH3 0x461BCD PUSH1 0xE5 SHL DUP2 MSTORE PUSH1 0x4 ADD PUSH2 0x4A0 SWAP1 PUSH2 0x22F4 JUMP JUMPDEST PUSH1 0x40 MLOAD DUP1 SWAP2 SUB SWAP1 REVERT JUMPDEST PUSH1 0x9 SLOAD PUSH1 0x1 PUSH1 0x1 PUSH1 0xA0 SHL SUB AND CALLER EQ DUP1 PUSH2 0x4CC JUMPI POP PUSH1 0xA SLOAD PUSH1 0x1 PUSH1 0x1 PUSH1 0xA0 SHL SUB AND CALLER EQ JUMPDEST PUSH2 0x4E8 JUMPI PUSH1 0x40 MLOAD PUSH3 0x461BCD PUSH1 0xE5 SHL DUP2 MSTORE PUSH1 0x4 ADD PUSH2 0x4A0 SWAP1 PUSH2 0x202C JUMP JUMPDEST PUSH1 0xA SLOAD PUSH1 0x1 PUSH1 0x1 PUSH1 0xA0 SHL SUB AND CALLER EQ ISZERO PUSH2 0x50D JUMPI PUSH1 0x7 DUP1 SLOAD PUSH1 0xFF PUSH1 0xA0 SHL NOT AND SWAP1 SSTORE PUSH2 0x51B JUMP JUMPDEST PUSH1 0x7 DUP1 SLOAD PUSH1 0xFF PUSH1 0xA8 SHL NOT AND SWAP1 SSTORE JUMPDEST JUMP JUMPDEST PUSH1 0x0 SLOAD PUSH2 0x100 SWAP1 DIV PUSH1 0x1 PUSH1 0x1 PUSH1 0xA0 SHL SUB AND CALLER EQ PUSH2 0x54C JUMPI PUSH1 0x40 MLOAD PUSH3 0x461BCD PUSH1 0xE5 SHL DUP2 MSTORE PUSH1 0x4 ADD PUSH2 0x4A0 SWAP1 PUSH2 0x2059 JUMP JUMPDEST PUSH1 0x17 SLOAD PUSH3 0x10000 SWAP1 DIV PUSH1 0xFF AND ISZERO PUSH2 0x575 JUMPI PUSH1 0x40 MLOAD PUSH3 0x461BCD PUSH1 0xE5 SHL DUP2 MSTORE PUSH1 0x4 ADD PUSH2 0x4A0 SWAP1 PUSH2 0x2274 JUMP JUMPDEST PUSH2 0x57F DUP6 DUP9 PUSH2 0x1447 JUMP JUMPDEST PUSH2 0x59B JUMPI PUSH1 0x40 MLOAD PUSH3 0x461BCD PUSH1 0xE5 SHL DUP2 MSTORE PUSH1 0x4 ADD PUSH2 0x4A0 SWAP1 PUSH2 0x1FF5 JUMP JUMPDEST PUSH1 0x9 DUP1 SLOAD PUSH1 0x1 PUSH1 0x1 PUSH1 0xA0 SHL SUB DUP1 DUP11 AND PUSH1 0x1 PUSH1 0x1 PUSH1 0xA0 SHL SUB NOT SWAP3 DUP4 AND OR SWAP1 SWAP3 SSTORE PUSH1 0xA DUP1 SLOAD DUP10 DUP5 AND SWAP1 DUP4 AND OR SWAP1 SSTORE PUSH1 0xF DUP1 SLOAD SWAP3 DUP9 AND SWAP3 SWAP1 SWAP2 AND SWAP2 SWAP1 SWAP2 OR SWAP1 SSTORE DUP4 MLOAD PUSH2 0x5EB SWAP1 PUSH1 0x8 SWAP1 PUSH1 0x20 DUP8 ADD SWAP1 PUSH2 0x1C37 JUMP JUMPDEST POP PUSH1 0xE DUP4 SWAP1 SSTORE PUSH1 0xD DUP3 SWAP1 SSTORE PUSH2 0x60B PUSH1 0x64 PUSH2 0x605 DUP6 DUP6 PUSH2 0x15FC JUMP JUMPDEST SWAP1 PUSH2 0x160F JUMP JUMPDEST PUSH1 0xB DUP2 SWAP1 SSTORE PUSH2 0x61B SWAP1 DUP5 SWAP1 PUSH2 0x161B JUMP JUMPDEST PUSH1 0xC SSTORE PUSH1 0x11 DUP2 SWAP1 SSTORE PUSH1 0x64 DUP3 EQ DUP1 ISZERO PUSH2 0x63D JUMPI POP PUSH1 0xA SLOAD PUSH1 0x1 PUSH1 0x1 PUSH1 0xA0 SHL SUB AND ISZERO ISZERO JUMPDEST ISZERO PUSH2 0x673 JUMPI TIMESTAMP PUSH1 0x12 SSTORE PUSH1 0x11 SLOAD PUSH2 0x663 SWAP1 PUSH2 0x65A SWAP1 PUSH3 0x15180 PUSH2 0x15FC JUMP JUMPDEST PUSH1 0x12 SLOAD SWAP1 PUSH2 0x1627 JUMP JUMPDEST PUSH1 0x13 SSTORE PUSH2 0x66E PUSH2 0x1633 JUMP JUMPDEST PUSH2 0x67B JUMP JUMPDEST PUSH2 0x67B PUSH2 0x1649 JUMP JUMPDEST POP POP PUSH1 0x17 DUP1 SLOAD PUSH3 0xFF0000 NOT AND PUSH3 0x10000 OR SWAP1 SSTORE POP POP POP POP POP JUMP JUMPDEST PUSH1 0x1 SLOAD PUSH1 0xF SLOAD PUSH1 0x1 PUSH1 0x1 PUSH1 0xA0 SHL SUB SWAP1 DUP2 AND SWAP2 AND EQ PUSH2 0x6C5 JUMPI PUSH1 0x40 MLOAD PUSH3 0x461BCD PUSH1 0xE5 SHL DUP2 MSTORE PUSH1 0x4 ADD PUSH2 0x4A0 SWAP1 PUSH2 0x234B JUMP JUMPDEST PUSH1 0x3 PUSH1 0x0 SLOAD PUSH1 0xFF AND PUSH1 0x3 DUP2 GT ISZERO PUSH2 0x6EC JUMPI PUSH4 0x4E487B71 PUSH1 0xE0 SHL PUSH1 0x0 MSTORE PUSH1 0x21 PUSH1 0x4 MSTORE PUSH1 0x24 PUSH1 0x0 REVERT JUMPDEST EQ PUSH2 0x709 JUMPI PUSH1 0x40 MLOAD PUSH3 0x461BCD PUSH1 0xE5 SHL DUP2 MSTORE PUSH1 0x4 ADD PUSH2 0x4A0 SWAP1 PUSH2 0x231F JUMP JUMPDEST PUSH1 0x9 SLOAD PUSH1 0x1 PUSH1 0x1 PUSH1 0xA0 SHL SUB AND CALLER EQ DUP1 PUSH2 0x72C JUMPI POP PUSH1 0xA SLOAD PUSH1 0x1 PUSH1 0x1 PUSH1 0xA0 SHL SUB AND CALLER EQ JUMPDEST PUSH2 0x748 JUMPI PUSH1 0x40 MLOAD PUSH3 0x461BCD PUSH1 0xE5 SHL DUP2 MSTORE PUSH1 0x4 ADD PUSH2 0x4A0 SWAP1 PUSH2 0x202C JUMP JUMPDEST PUSH1 0x9 SLOAD PUSH1 0x1 PUSH1 0x1 PUSH1 0xA0 SHL SUB AND CALLER EQ ISZERO PUSH2 0x796 JUMPI PUSH1 0x7 SLOAD PUSH1 0x1 PUSH1 0xB0 SHL SWAP1 DIV PUSH1 0xFF AND PUSH2 0x784 JUMPI PUSH1 0x40 MLOAD PUSH3 0x461BCD PUSH1 0xE5 SHL DUP2 MSTORE PUSH1 0x4 ADD PUSH2 0x4A0 SWAP1 PUSH2 0x21EF JUMP JUMPDEST PUSH1 0x7 DUP1 SLOAD PUSH1 0xFF PUSH1 0xB0 SHL NOT AND SWAP1 SSTORE PUSH2 0x7CD JUMP JUMPDEST PUSH1 0x7 SLOAD PUSH1 0x1 PUSH1 0xB8 SHL SWAP1 DIV PUSH1 0xFF AND PUSH2 0x7BF JUMPI PUSH1 0x40 MLOAD PUSH3 0x461BCD PUSH1 0xE5 SHL DUP2 MSTORE PUSH1 0x4 ADD PUSH2 0x4A0 SWAP1 PUSH2 0x21EF JUMP JUMPDEST PUSH1 0x7 DUP1 SLOAD PUSH1 0xFF PUSH1 0xB8 SHL NOT AND SWAP1 SSTORE JUMPDEST PUSH1 0x5 SLOAD PUSH1 0x40 MLOAD PUSH4 0x10416CC7 PUSH1 0xE0 SHL DUP2 MSTORE PUSH1 0x1 PUSH1 0x1 PUSH1 0xA0 SHL SUB SWAP1 SWAP2 AND SWAP1 PUSH4 0x10416CC7 SWAP1 PUSH2 0x7FD SWAP1 CALLER SWAP1 PUSH1 0x4 ADD PUSH2 0x1E88 JUMP JUMPDEST PUSH1 0x0 PUSH1 0x40 MLOAD DUP1 DUP4 SUB DUP2 PUSH1 0x0 DUP8 DUP1 EXTCODESIZE ISZERO DUP1 ISZERO PUSH2 0x817 JUMPI PUSH1 0x0 DUP1 REVERT JUMPDEST POP GAS CALL ISZERO DUP1 ISZERO PUSH2 0x82B JUMPI RETURNDATASIZE PUSH1 0x0 DUP1 RETURNDATACOPY RETURNDATASIZE PUSH1 0x0 REVERT JUMPDEST POP POP PUSH1 0x17 SLOAD PUSH1 0xFF AND ISZERO SWAP2 POP DUP2 SWAP1 POP PUSH2 0x84B JUMPI POP PUSH1 0x17 SLOAD PUSH2 0x100 SWAP1 DIV PUSH1 0xFF AND ISZERO JUMPDEST ISZERO PUSH2 0x87B JUMPI PUSH1 0x10 DUP1 SLOAD PUSH1 0x1 PUSH1 0x1 PUSH1 0xA0 SHL SUB NOT AND CALLER OR SWAP1 SSTORE TIMESTAMP PUSH1 0x14 SSTORE PUSH2 0x86E PUSH2 0x165B JUMP JUMPDEST PUSH2 0x876 PUSH2 0x1733 JUMP JUMPDEST PUSH2 0x51B JUMP JUMPDEST PUSH1 0x7 SLOAD PUSH1 0x1 PUSH1 0xB0 SHL SWAP1 DIV PUSH1 0xFF AND ISZERO DUP1 ISZERO PUSH2 0x89F JUMPI POP PUSH1 0x7 SLOAD PUSH1 0x1 PUSH1 0xB8 SHL SWAP1 DIV PUSH1 0xFF AND ISZERO JUMPDEST ISZERO PUSH2 0x51B JUMPI PUSH2 0x51B PUSH2 0x1633 JUMP JUMPDEST PUSH1 0x10 SLOAD PUSH1 0x12 SLOAD PUSH1 0x13 SLOAD PUSH1 0x14 SLOAD PUSH1 0x7 SLOAD PUSH1 0x1 PUSH1 0x1 PUSH1 0xA0 SHL SUB SWAP1 SWAP5 AND SWAP4 PUSH1 0xFF PUSH1 0x1 PUSH1 0xA0 SHL DUP3 DIV DUP2 AND SWAP2 PUSH1 0x1 PUSH1 0xA8 SHL SWAP1 DIV AND SWAP1 SWAP2 SWAP3 SWAP4 SWAP5 SWAP6 JUMP JUMPDEST PUSH1 0x2 PUSH1 0x0 SLOAD PUSH1 0xFF AND PUSH1 0x3 DUP2 GT ISZERO PUSH2 0x90A JUMPI PUSH4 0x4E487B71 PUSH1 0xE0 SHL PUSH1 0x0 MSTORE PUSH1 0x21 PUSH1 0x4 MSTORE PUSH1 0x24 PUSH1 0x0 REVERT JUMPDEST EQ ISZERO PUSH2 0x928 JUMPI PUSH1 0x40 MLOAD PUSH3 0x461BCD PUSH1 0xE5 SHL DUP2 MSTORE PUSH1 0x4 ADD PUSH2 0x4A0 SWAP1 PUSH2 0x2112 JUMP JUMPDEST PUSH1 0x3 PUSH1 0x0 SLOAD PUSH1 0xFF AND PUSH1 0x3 DUP2 GT ISZERO PUSH2 0x94F JUMPI PUSH4 0x4E487B71 PUSH1 0xE0 SHL PUSH1 0x0 MSTORE PUSH1 0x21 PUSH1 0x4 MSTORE PUSH1 0x24 PUSH1 0x0 REVERT JUMPDEST EQ ISZERO PUSH2 0x96D JUMPI PUSH1 0x40 MLOAD PUSH3 0x461BCD PUSH1 0xE5 SHL DUP2 MSTORE PUSH1 0x4 ADD PUSH2 0x4A0 SWAP1 PUSH2 0x216F JUMP JUMPDEST PUSH1 0x9 SLOAD PUSH1 0x1 PUSH1 0x1 PUSH1 0xA0 SHL SUB AND CALLER EQ DUP1 PUSH2 0x990 JUMPI POP PUSH1 0xA SLOAD PUSH1 0x1 PUSH1 0x1 PUSH1 0xA0 SHL SUB AND CALLER EQ JUMPDEST PUSH2 0x9AC JUMPI PUSH1 0x40 MLOAD PUSH3 0x461BCD PUSH1 0xE5 SHL DUP2 MSTORE PUSH1 0x4 ADD PUSH2 0x4A0 SWAP1 PUSH2 0x202C JUMP JUMPDEST PUSH2 0x9B4 PUSH2 0x13FC JUMP JUMPDEST ISZERO PUSH2 0x9C1 JUMPI PUSH2 0x9C1 PUSH2 0x1747 JUMP JUMPDEST PUSH1 0x0 DUP1 SLOAD PUSH1 0xFF AND PUSH1 0x3 DUP2 GT ISZERO PUSH2 0x9E7 JUMPI PUSH4 0x4E487B71 PUSH1 0xE0 SHL PUSH1 0x0 MSTORE PUSH1 0x21 PUSH1 0x4 MSTORE PUSH1 0x24 PUSH1 0x0 REVERT JUMPDEST EQ ISZERO PUSH2 0xA1F JUMPI PUSH1 0x9 SLOAD PUSH1 0x1 PUSH1 0x1 PUSH1 0xA0 SHL SUB AND CALLER EQ PUSH2 0xA17 JUMPI PUSH1 0x40 MLOAD PUSH3 0x461BCD PUSH1 0xE5 SHL DUP2 MSTORE PUSH1 0x4 ADD PUSH2 0x4A0 SWAP1 PUSH2 0x202C JUMP JUMPDEST PUSH2 0xA1F PUSH2 0x1747 JUMP JUMPDEST PUSH1 0x1 PUSH1 0x0 SLOAD PUSH1 0xFF AND PUSH1 0x3 DUP2 GT ISZERO PUSH2 0xA46 JUMPI PUSH4 0x4E487B71 PUSH1 0xE0 SHL PUSH1 0x0 MSTORE PUSH1 0x21 PUSH1 0x4 MSTORE PUSH1 0x24 PUSH1 0x0 REVERT JUMPDEST EQ ISZERO PUSH2 0x51B JUMPI PUSH1 0x9 SLOAD PUSH1 0x1 PUSH1 0x1 PUSH1 0xA0 SHL SUB AND CALLER EQ ISZERO PUSH2 0xA77 JUMPI PUSH1 0x7 DUP1 SLOAD PUSH1 0xFF PUSH1 0xA0 SHL NOT AND PUSH1 0x1 PUSH1 0xA0 SHL OR SWAP1 SSTORE PUSH2 0xA8B JUMP JUMPDEST PUSH1 0x7 DUP1 SLOAD PUSH1 0xFF PUSH1 0xA8 SHL NOT AND PUSH1 0x1 PUSH1 0xA8 SHL OR SWAP1 SSTORE JUMPDEST PUSH1 0x7 SLOAD PUSH1 0x1 PUSH1 0xA0 SHL SWAP1 DIV PUSH1 0xFF AND DUP1 ISZERO PUSH2 0xAAD JUMPI POP PUSH1 0x7 SLOAD PUSH1 0x1 PUSH1 0xA8 SHL SWAP1 DIV PUSH1 0xFF AND JUMPDEST ISZERO PUSH2 0x51B JUMPI PUSH2 0x51B PUSH2 0x1747 JUMP JUMPDEST PUSH1 0xA SLOAD PUSH1 0x1 PUSH1 0x1 PUSH1 0xA0 SHL SUB AND CALLER EQ PUSH2 0xAE4 JUMPI PUSH1 0x40 MLOAD PUSH3 0x461BCD PUSH1 0xE5 SHL DUP2 MSTORE PUSH1 0x4 ADD PUSH2 0x4A0 SWAP1 PUSH2 0x219D JUMP JUMPDEST PUSH1 0x0 DUP1 SLOAD PUSH1 0xFF AND PUSH1 0x3 DUP2 GT ISZERO PUSH2 0xB0A JUMPI PUSH4 0x4E487B71 PUSH1 0xE0 SHL PUSH1 0x0 MSTORE PUSH1 0x21 PUSH1 0x4 MSTORE PUSH1 0x24 PUSH1 0x0 REVERT JUMPDEST EQ PUSH2 0xB27 JUMPI PUSH1 0x40 MLOAD PUSH3 0x461BCD PUSH1 0xE5 SHL DUP2 MSTORE PUSH1 0x4 ADD PUSH2 0x4A0 SWAP1 PUSH2 0x2244 JUMP JUMPDEST PUSH2 0x51B PUSH2 0x1747 JUMP JUMPDEST PUSH1 0x0 SLOAD PUSH1 0x60 SWAP1 PUSH1 0xFF AND PUSH1 0x3 DUP2 GT ISZERO PUSH2 0xB57 JUMPI PUSH4 0x4E487B71 PUSH1 0xE0 SHL PUSH1 0x0 MSTORE PUSH1 0x21 PUSH1 0x4 MSTORE PUSH1 0x24 PUSH1 0x0 REVERT JUMPDEST PUSH2 0xB83 JUMPI POP PUSH1 0x40 DUP1 MLOAD DUP1 DUP3 ADD SWAP1 SWAP2 MSTORE PUSH1 0xB DUP2 MSTORE PUSH11 0x1A5B9A5D1A585B1A5E9959 PUSH1 0xAA SHL PUSH1 0x20 DUP3 ADD MSTORE PUSH2 0xC70 JUMP JUMPDEST PUSH1 0x0 SLOAD PUSH1 0xFF AND PUSH1 0x3 DUP2 GT ISZERO PUSH2 0xBA8 JUMPI PUSH4 0x4E487B71 PUSH1 0xE0 SHL PUSH1 0x0 MSTORE PUSH1 0x21 PUSH1 0x4 MSTORE PUSH1 0x24 PUSH1 0x0 REVERT JUMPDEST PUSH1 0x1 EQ ISZERO PUSH2 0xBD3 JUMPI POP PUSH1 0x40 DUP1 MLOAD DUP1 DUP3 ADD SWAP1 SWAP2 MSTORE PUSH1 0x6 DUP2 MSTORE PUSH6 0x1859DC995959 PUSH1 0xD2 SHL PUSH1 0x20 DUP3 ADD MSTORE PUSH2 0xC70 JUMP JUMPDEST PUSH1 0x0 SLOAD PUSH1 0xFF AND PUSH1 0x3 DUP2 GT ISZERO PUSH2 0xBF8 JUMPI PUSH4 0x4E487B71 PUSH1 0xE0 SHL PUSH1 0x0 MSTORE PUSH1 0x21 PUSH1 0x4 MSTORE PUSH1 0x24 PUSH1 0x0 REVERT JUMPDEST PUSH1 0x3 EQ ISZERO PUSH2 0xC24 JUMPI POP PUSH1 0x40 DUP1 MLOAD DUP1 DUP3 ADD SWAP1 SWAP2 MSTORE PUSH1 0x7 DUP2 MSTORE PUSH7 0x1C1B195919D959 PUSH1 0xCA SHL PUSH1 0x20 DUP3 ADD MSTORE PUSH2 0xC70 JUMP JUMPDEST PUSH1 0x0 SLOAD PUSH1 0xFF AND PUSH1 0x3 DUP2 GT ISZERO PUSH2 0xC49 JUMPI PUSH4 0x4E487B71 PUSH1 0xE0 SHL PUSH1 0x0 MSTORE PUSH1 0x21 PUSH1 0x4 MSTORE PUSH1 0x24 PUSH1 0x0 REVERT JUMPDEST PUSH1 0x2 EQ ISZERO PUSH2 0xC70 JUMPI POP PUSH1 0x40 DUP1 MLOAD DUP1 DUP3 ADD SWAP1 SWAP2 MSTORE PUSH1 0x6 DUP2 MSTORE PUSH6 0x18DB1BDCD959 PUSH1 0xD2 SHL PUSH1 0x20 DUP3 ADD MSTORE JUMPDEST SWAP1 JUMP JUMPDEST PUSH1 0x9 SLOAD PUSH1 0x1 PUSH1 0x1 PUSH1 0xA0 SHL SUB AND CALLER EQ PUSH2 0xC9D JUMPI PUSH1 0x40 MLOAD PUSH3 0x461BCD PUSH1 0xE5 SHL DUP2 MSTORE PUSH1 0x4 ADD PUSH2 0x4A0 SWAP1 PUSH2 0x2299 JUMP JUMPDEST PUSH1 0xA SLOAD PUSH1 0x1 PUSH1 0x1 PUSH1 0xA0 SHL SUB AND ISZERO DUP1 ISZERO PUSH2 0xCB8 JUMPI POP PUSH1 0xD SLOAD PUSH1 0x64 EQ JUMPDEST PUSH2 0xCD4 JUMPI PUSH1 0x40 MLOAD PUSH3 0x461BCD PUSH1 0xE5 SHL DUP2 MSTORE PUSH1 0x4 ADD PUSH2 0x4A0 SWAP1 PUSH2 0x22BD JUMP JUMPDEST PUSH1 0x1 PUSH1 0x1 PUSH1 0xA0 SHL SUB DUP2 AND ISZERO DUP1 ISZERO SWAP1 PUSH2 0xCF5 JUMPI POP PUSH1 0x1 PUSH1 0x1 PUSH1 0xA0 SHL SUB DUP2 AND CALLER EQ ISZERO JUMPDEST PUSH2 0xD11 JUMPI PUSH1 0x40 MLOAD PUSH3 0x461BCD PUSH1 0xE5 SHL DUP2 MSTORE PUSH1 0x4 ADD PUSH2 0x4A0 SWAP1 PUSH2 0x213F JUMP JUMPDEST PUSH1 0xA DUP1 SLOAD PUSH1 0x1 PUSH1 0x1 PUSH1 0xA0 SHL SUB NOT AND PUSH1 0x1 PUSH1 0x1 PUSH1 0xA0 SHL SUB DUP4 AND OR SWAP1 SSTORE TIMESTAMP PUSH1 0x12 SSTORE PUSH1 0x11 SLOAD PUSH2 0xD44 SWAP1 PUSH2 0x65A SWAP1 PUSH3 0x15180 PUSH2 0x15FC JUMP JUMPDEST PUSH1 0x13 SSTORE PUSH2 0xD4F PUSH2 0x1633 JUMP JUMPDEST POP JUMP JUMPDEST PUSH1 0x1 SLOAD PUSH1 0xF SLOAD PUSH1 0x1 PUSH1 0x1 PUSH1 0xA0 SHL SUB SWAP1 DUP2 AND SWAP2 AND EQ PUSH2 0xD82 JUMPI PUSH1 0x40 MLOAD PUSH3 0x461BCD PUSH1 0xE5 SHL DUP2 MSTORE PUSH1 0x4 ADD PUSH2 0x4A0 SWAP1 PUSH2 0x234B JUMP JUMPDEST PUSH1 0x3 PUSH1 0x0 SLOAD PUSH1 0xFF AND PUSH1 0x3 DUP2 GT ISZERO PUSH2 0xDA9 JUMPI PUSH4 0x4E487B71 PUSH1 0xE0 SHL PUSH1 0x0 MSTORE PUSH1 0x21 PUSH1 0x4 MSTORE PUSH1 0x24 PUSH1 0x0 REVERT JUMPDEST EQ PUSH2 0xDC6 JUMPI PUSH1 0x40 MLOAD PUSH3 0x461BCD PUSH1 0xE5 SHL DUP2 MSTORE PUSH1 0x4 ADD PUSH2 0x4A0 SWAP1 PUSH2 0x231F JUMP JUMPDEST PUSH1 0x9 SLOAD PUSH1 0x1 PUSH1 0x1 PUSH1 0xA0 SHL SUB AND CALLER EQ DUP1 PUSH2 0xDE9 JUMPI POP PUSH1 0xA SLOAD PUSH1 0x1 PUSH1 0x1 PUSH1 0xA0 SHL SUB AND CALLER EQ JUMPDEST PUSH2 0xE05 JUMPI PUSH1 0x40 MLOAD PUSH3 0x461BCD PUSH1 0xE5 SHL DUP2 MSTORE PUSH1 0x4 ADD PUSH2 0x4A0 SWAP1 PUSH2 0x202C JUMP JUMPDEST PUSH1 0x3 PUSH1 0x0 SLOAD PUSH1 0xFF AND PUSH1 0x3 DUP2 GT ISZERO PUSH2 0xE2C JUMPI PUSH4 0x4E487B71 PUSH1 0xE0 SHL PUSH1 0x0 MSTORE PUSH1 0x21 PUSH1 0x4 MSTORE PUSH1 0x24 PUSH1 0x0 REVERT JUMPDEST EQ DUP1 PUSH2 0xE5C JUMPI POP PUSH1 0x1 PUSH1 0x0 SLOAD PUSH1 0xFF AND PUSH1 0x3 DUP2 GT ISZERO PUSH2 0xE5A JUMPI PUSH4 0x4E487B71 PUSH1 0xE0 SHL PUSH1 0x0 MSTORE PUSH1 0x21 PUSH1 0x4 MSTORE PUSH1 0x24 PUSH1 0x0 REVERT JUMPDEST EQ JUMPDEST PUSH2 0xE78 JUMPI PUSH1 0x40 MLOAD PUSH3 0x461BCD PUSH1 0xE5 SHL DUP2 MSTORE PUSH1 0x4 ADD PUSH2 0x4A0 SWAP1 PUSH2 0x202C JUMP JUMPDEST PUSH2 0xE80 PUSH2 0x13FC JUMP JUMPDEST ISZERO PUSH2 0xE9D JUMPI PUSH1 0x40 MLOAD PUSH3 0x461BCD PUSH1 0xE5 SHL DUP2 MSTORE PUSH1 0x4 ADD PUSH2 0x4A0 SWAP1 PUSH2 0x20B3 JUMP JUMPDEST PUSH1 0x9 SLOAD PUSH1 0x0 SWAP1 PUSH1 0x1 PUSH1 0x1 PUSH1 0xA0 SHL SUB AND CALLER EQ ISZERO PUSH2 0xEF9 JUMPI PUSH1 0x7 SLOAD PUSH1 0x1 PUSH1 0xB0 SHL SWAP1 DIV PUSH1 0xFF AND ISZERO PUSH2 0xEDD JUMPI PUSH1 0x40 MLOAD PUSH3 0x461BCD PUSH1 0xE5 SHL DUP2 MSTORE PUSH1 0x4 ADD PUSH2 0x4A0 SWAP1 PUSH2 0x21C7 JUMP JUMPDEST POP PUSH1 0x7 DUP1 SLOAD PUSH1 0xFF PUSH1 0xB0 SHL NOT AND PUSH1 0x1 PUSH1 0xB0 SHL OR SWAP1 SSTORE PUSH1 0xB SLOAD PUSH2 0xF3B JUMP JUMPDEST PUSH1 0x7 SLOAD PUSH1 0x1 PUSH1 0xB8 SHL SWAP1 DIV PUSH1 0xFF AND ISZERO PUSH2 0xF23 JUMPI PUSH1 0x40 MLOAD PUSH3 0x461BCD PUSH1 0xE5 SHL DUP2 MSTORE PUSH1 0x4 ADD PUSH2 0x4A0 SWAP1 PUSH2 0x21C7 JUMP JUMPDEST POP PUSH1 0x7 DUP1 SLOAD PUSH1 0xFF PUSH1 0xB8 SHL NOT AND PUSH1 0x1 PUSH1 0xB8 SHL OR SWAP1 SSTORE PUSH1 0xC SLOAD JUMPDEST PUSH2 0xF43 PUSH2 0x176D JUMP JUMPDEST PUSH1 0x5 SLOAD PUSH1 0x40 MLOAD PUSH4 0x3A1D9A29 PUSH1 0xE1 SHL DUP2 MSTORE PUSH1 0x1 PUSH1 0x1 PUSH1 0xA0 SHL SUB SWAP1 SWAP2 AND SWAP1 PUSH4 0x743B3452 SWAP1 PUSH2 0xF75 SWAP1 CALLER SWAP1 DUP6 SWAP1 PUSH1 0x4 ADD PUSH2 0x1EC6 JUMP JUMPDEST PUSH1 0x0 PUSH1 0x40 MLOAD DUP1 DUP4 SUB DUP2 PUSH1 0x0 DUP8 DUP1 EXTCODESIZE ISZERO DUP1 ISZERO PUSH2 0xF8F JUMPI PUSH1 0x0 DUP1 REVERT JUMPDEST POP GAS CALL ISZERO DUP1 ISZERO PUSH2 0xFA3 JUMPI RETURNDATASIZE PUSH1 0x0 DUP1 RETURNDATACOPY RETURNDATASIZE PUSH1 0x0 REVERT JUMPDEST POP POP POP POP POP JUMP JUMPDEST PUSH1 0x15 SLOAD PUSH1 0x17 SLOAD PUSH1 0x16 SLOAD PUSH1 0xFF DUP1 DUP4 AND SWAP3 PUSH2 0x100 SWAP1 DIV AND SWAP1 SWAP2 SWAP3 SWAP4 JUMP JUMPDEST PUSH1 0xA SLOAD PUSH1 0x1 PUSH1 0x1 PUSH1 0xA0 SHL SUB AND CALLER EQ PUSH2 0xFEF JUMPI PUSH1 0x40 MLOAD PUSH3 0x461BCD PUSH1 0xE5 SHL DUP2 MSTORE PUSH1 0x4 ADD PUSH2 0x4A0 SWAP1 PUSH2 0x219D JUMP JUMPDEST PUSH1 0x0 DUP1 SLOAD PUSH1 0xFF AND PUSH1 0x3 DUP2 GT ISZERO PUSH2 0x1015 JUMPI PUSH4 0x4E487B71 PUSH1 0xE0 SHL PUSH1 0x0 MSTORE PUSH1 0x21 PUSH1 0x4 MSTORE PUSH1 0x24 PUSH1 0x0 REVERT JUMPDEST EQ PUSH2 0x1032 JUMPI PUSH1 0x40 MLOAD PUSH3 0x461BCD PUSH1 0xE5 SHL DUP2 MSTORE PUSH1 0x4 ADD PUSH2 0x4A0 SWAP1 PUSH2 0x2244 JUMP JUMPDEST PUSH1 0x7 SLOAD PUSH1 0xF SLOAD PUSH1 0x1 PUSH1 0x1 PUSH1 0xA0 SHL SUB SWAP1 DUP2 AND SWAP2 AND EQ ISZERO PUSH2 0x1160 JUMPI PUSH1 0xC SLOAD CALLVALUE LT ISZERO PUSH2 0x106D JUMPI PUSH1 0x40 MLOAD PUSH3 0x461BCD PUSH1 0xE5 SHL DUP2 MSTORE PUSH1 0x4 ADD PUSH2 0x4A0 SWAP1 PUSH2 0x20EA JUMP JUMPDEST PUSH1 0x6 PUSH1 0x0 SWAP1 SLOAD SWAP1 PUSH2 0x100 EXP SWAP1 DIV PUSH1 0x1 PUSH1 0x1 PUSH1 0xA0 SHL SUB AND PUSH1 0x1 PUSH1 0x1 PUSH1 0xA0 SHL SUB AND PUSH4 0xD0E30DB0 CALLVALUE PUSH1 0x40 MLOAD DUP3 PUSH4 0xFFFFFFFF AND PUSH1 0xE0 SHL DUP2 MSTORE PUSH1 0x4 ADD PUSH1 0x0 PUSH1 0x40 MLOAD DUP1 DUP4 SUB DUP2 DUP6 DUP9 DUP1 EXTCODESIZE ISZERO DUP1 ISZERO PUSH2 0x10BD JUMPI PUSH1 0x0 DUP1 REVERT JUMPDEST POP GAS CALL ISZERO DUP1 ISZERO PUSH2 0x10D1 JUMPI RETURNDATASIZE PUSH1 0x0 DUP1 RETURNDATACOPY RETURNDATASIZE PUSH1 0x0 REVERT JUMPDEST POP POP PUSH1 0x6 SLOAD PUSH1 0x40 MLOAD PUSH4 0xA9059CBB PUSH1 0xE0 SHL DUP2 MSTORE PUSH1 0x1 PUSH1 0x1 PUSH1 0xA0 SHL SUB SWAP1 SWAP2 AND SWAP4 POP PUSH4 0xA9059CBB SWAP3 POP PUSH2 0x1108 SWAP2 POP ADDRESS SWAP1 CALLVALUE SWAP1 PUSH1 0x4 ADD PUSH2 0x1EC6 JUMP JUMPDEST PUSH1 0x20 PUSH1 0x40 MLOAD DUP1 DUP4 SUB DUP2 PUSH1 0x0 DUP8 DUP1 EXTCODESIZE ISZERO DUP1 ISZERO PUSH2 0x1122 JUMPI PUSH1 0x0 DUP1 REVERT JUMPDEST POP GAS CALL ISZERO DUP1 ISZERO PUSH2 0x1136 JUMPI RETURNDATASIZE PUSH1 0x0 DUP1 RETURNDATACOPY RETURNDATASIZE PUSH1 0x0 REVERT JUMPDEST POP POP POP POP PUSH1 0x40 MLOAD RETURNDATASIZE PUSH1 0x1F NOT PUSH1 0x1F DUP3 ADD AND DUP3 ADD DUP1 PUSH1 0x40 MSTORE POP DUP2 ADD SWAP1 PUSH2 0x115A SWAP2 SWAP1 PUSH2 0x1E05 JUMP JUMPDEST POP PUSH2 0x11F5 JUMP JUMPDEST PUSH1 0x3 SLOAD PUSH1 0xF SLOAD PUSH1 0xA SLOAD PUSH1 0xC SLOAD PUSH1 0x40 MLOAD PUSH4 0x478DA03D PUSH1 0xE1 SHL DUP2 MSTORE PUSH1 0x1 PUSH1 0x1 PUSH1 0xA0 SHL SUB SWAP5 DUP6 AND SWAP5 PUSH4 0x8F1B407A SWAP5 PUSH2 0x11A1 SWAP5 SWAP1 DUP3 AND SWAP4 SWAP2 AND SWAP2 ADDRESS SWAP2 SWAP1 PUSH1 0x4 ADD PUSH2 0x1E9C JUMP JUMPDEST PUSH1 0x20 PUSH1 0x40 MLOAD DUP1 DUP4 SUB DUP2 PUSH1 0x0 DUP8 DUP1 EXTCODESIZE ISZERO DUP1 ISZERO PUSH2 0x11BB JUMPI PUSH1 0x0 DUP1 REVERT JUMPDEST POP GAS CALL ISZERO DUP1 ISZERO PUSH2 0x11CF JUMPI RETURNDATASIZE PUSH1 0x0 DUP1 RETURNDATACOPY RETURNDATASIZE PUSH1 0x0 REVERT JUMPDEST POP POP POP POP PUSH1 0x40 MLOAD RETURNDATASIZE PUSH1 0x1F NOT PUSH1 0x1F DUP3 ADD AND DUP3 ADD DUP1 PUSH1 0x40 MSTORE POP DUP2 ADD SWAP1 PUSH2 0x11F3 SWAP2 SWAP1 PUSH2 0x1E05 JUMP JUMPDEST POP JUMPDEST PUSH1 0xF SLOAD PUSH1 0xA SLOAD PUSH2 0x1211 SWAP2 PUSH1 0x1 PUSH1 0x1 PUSH1 0xA0 SHL SUB SWAP1 DUP2 AND SWAP2 AND PUSH2 0x1447 JUMP JUMPDEST PUSH2 0x122D JUMPI PUSH1 0x40 MLOAD PUSH3 0x461BCD PUSH1 0xE5 SHL DUP2 MSTORE PUSH1 0x4 ADD PUSH2 0x4A0 SWAP1 PUSH2 0x1FBE JUMP JUMPDEST TIMESTAMP PUSH1 0x12 SSTORE PUSH1 0x11 SLOAD PUSH2 0x1245 SWAP1 PUSH2 0x65A SWAP1 PUSH3 0x15180 PUSH2 0x15FC JUMP JUMPDEST PUSH1 0x13 SSTORE PUSH2 0x51B PUSH2 0x1633 JUMP JUMPDEST PUSH1 0x7 SLOAD PUSH1 0xFF PUSH1 0x1 PUSH1 0xB0 SHL DUP3 DIV DUP2 AND SWAP2 PUSH1 0x1 PUSH1 0xB8 SHL SWAP1 DIV AND SWAP1 SWAP2 JUMP JUMPDEST PUSH1 0x1 PUSH1 0x0 SLOAD PUSH1 0xFF AND PUSH1 0x3 DUP2 GT ISZERO PUSH2 0x1292 JUMPI PUSH4 0x4E487B71 PUSH1 0xE0 SHL PUSH1 0x0 MSTORE PUSH1 0x21 PUSH1 0x4 MSTORE PUSH1 0x24 PUSH1 0x0 REVERT JUMPDEST EQ PUSH2 0x12AF JUMPI PUSH1 0x40 MLOAD PUSH3 0x461BCD PUSH1 0xE5 SHL DUP2 MSTORE PUSH1 0x4 ADD PUSH2 0x4A0 SWAP1 PUSH2 0x22F4 JUMP JUMPDEST PUSH1 0x9 SLOAD PUSH1 0x1 PUSH1 0x1 PUSH1 0xA0 SHL SUB AND CALLER EQ DUP1 PUSH2 0x12D2 JUMPI POP PUSH1 0xA SLOAD PUSH1 0x1 PUSH1 0x1 PUSH1 0xA0 SHL SUB AND CALLER EQ JUMPDEST PUSH2 0x12EE JUMPI PUSH1 0x40 MLOAD PUSH3 0x461BCD PUSH1 0xE5 SHL DUP2 MSTORE PUSH1 0x4 ADD PUSH2 0x4A0 SWAP1 PUSH2 0x202C JUMP JUMPDEST PUSH1 0x9 SLOAD PUSH1 0x1 PUSH1 0x1 PUSH1 0xA0 SHL SUB AND CALLER EQ ISZERO PUSH2 0x50D JUMPI PUSH1 0x7 DUP1 SLOAD PUSH1 0xFF PUSH1 0xA0 SHL NOT AND SWAP1 SSTORE PUSH2 0x51B JUMP JUMPDEST PUSH1 0x1 SLOAD PUSH1 0xF SLOAD PUSH1 0x1 PUSH1 0x1 PUSH1 0xA0 SHL SUB SWAP1 DUP2 AND SWAP2 AND EQ PUSH2 0x1343 JUMPI PUSH1 0x40 MLOAD PUSH3 0x461BCD PUSH1 0xE5 SHL DUP2 MSTORE PUSH1 0x4 ADD PUSH2 0x4A0 SWAP1 PUSH2 0x234B JUMP JUMPDEST PUSH1 0x3 PUSH1 0x0 SLOAD PUSH1 0xFF AND PUSH1 0x3 DUP2 GT ISZERO PUSH2 0x136A JUMPI PUSH4 0x4E487B71 PUSH1 0xE0 SHL PUSH1 0x0 MSTORE PUSH1 0x21 PUSH1 0x4 MSTORE PUSH1 0x24 PUSH1 0x0 REVERT JUMPDEST EQ PUSH2 0x1387 JUMPI PUSH1 0x40 MLOAD PUSH3 0x461BCD PUSH1 0xE5 SHL DUP2 MSTORE PUSH1 0x4 ADD PUSH2 0x4A0 SWAP1 PUSH2 0x231F JUMP JUMPDEST PUSH1 0x9 SLOAD PUSH1 0x1 PUSH1 0x1 PUSH1 0xA0 SHL SUB AND CALLER EQ DUP1 PUSH2 0x13AA JUMPI POP PUSH1 0xA SLOAD PUSH1 0x1 PUSH1 0x1 PUSH1 0xA0 SHL SUB AND CALLER EQ JUMPDEST PUSH2 0x13C6 JUMPI PUSH1 0x40 MLOAD PUSH3 0x461BCD PUSH1 0xE5 SHL DUP2 MSTORE PUSH1 0x4 ADD PUSH2 0x4A0 SWAP1 PUSH2 0x202C JUMP JUMPDEST PUSH2 0x13CE PUSH2 0x13FC JUMP JUMPDEST PUSH2 0x13EA JUMPI PUSH1 0x40 MLOAD PUSH3 0x461BCD PUSH1 0xE5 SHL DUP2 MSTORE PUSH1 0x4 ADD PUSH2 0x4A0 SWAP1 PUSH2 0x2219 JUMP JUMPDEST PUSH2 0x13F4 PUSH1 0x64 PUSH2 0x1781 JUMP JUMPDEST PUSH2 0x51B PUSH2 0x165B JUMP JUMPDEST PUSH1 0x0 DUP1 PUSH1 0x0 SLOAD PUSH1 0xFF AND PUSH1 0x3 DUP2 GT ISZERO PUSH2 0x1424 JUMPI PUSH4 0x4E487B71 PUSH1 0xE0 SHL PUSH1 0x0 MSTORE PUSH1 0x21 PUSH1 0x4 MSTORE PUSH1 0x24 PUSH1 0x0 REVERT JUMPDEST EQ DUP1 PUSH2 0x1430 JUMPI POP PUSH1 0x13 SLOAD ISZERO JUMPDEST ISZERO PUSH2 0x143D JUMPI POP PUSH1 0x0 PUSH2 0xC70 JUMP JUMPDEST POP PUSH1 0x13 SLOAD TIMESTAMP LT ISZERO SWAP1 JUMP JUMPDEST PUSH1 0x7 SLOAD PUSH1 0x0 SWAP1 DUP2 SWAP1 PUSH1 0x1 PUSH1 0x1 PUSH1 0xA0 SHL SUB DUP6 DUP2 AND SWAP2 AND EQ ISZERO PUSH2 0x14E9 JUMPI PUSH1 0x6 SLOAD PUSH1 0x40 MLOAD PUSH4 0x70A08231 PUSH1 0xE0 SHL DUP2 MSTORE PUSH1 0x1 PUSH1 0x1 PUSH1 0xA0 SHL SUB SWAP1 SWAP2 AND SWAP1 PUSH4 0x70A08231 SWAP1 PUSH2 0x1492 SWAP1 ADDRESS SWAP1 PUSH1 0x4 ADD PUSH2 0x1E88 JUMP JUMPDEST PUSH1 0x20 PUSH1 0x40 MLOAD DUP1 DUP4 SUB DUP2 DUP7 DUP1 EXTCODESIZE ISZERO DUP1 ISZERO PUSH2 0x14AA JUMPI PUSH1 0x0 DUP1 REVERT JUMPDEST POP GAS STATICCALL ISZERO DUP1 ISZERO PUSH2 0x14BE JUMPI RETURNDATASIZE PUSH1 0x0 DUP1 RETURNDATACOPY RETURNDATASIZE PUSH1 0x0 REVERT JUMPDEST POP POP POP POP PUSH1 0x40 MLOAD RETURNDATASIZE PUSH1 0x1F NOT PUSH1 0x1F DUP3 ADD AND DUP3 ADD DUP1 PUSH1 0x40 MSTORE POP DUP2 ADD SWAP1 PUSH2 0x14E2 SWAP2 SWAP1 PUSH2 0x1E25 JUMP JUMPDEST SWAP1 POP PUSH2 0x15AE JUMP JUMPDEST PUSH1 0x1 SLOAD PUSH1 0x1 PUSH1 0x1 PUSH1 0xA0 SHL SUB DUP6 DUP2 AND SWAP2 AND EQ ISZERO PUSH2 0x152F JUMPI PUSH1 0x2 SLOAD PUSH1 0x40 MLOAD PUSH4 0x70A08231 PUSH1 0xE0 SHL DUP2 MSTORE PUSH1 0x1 PUSH1 0x1 PUSH1 0xA0 SHL SUB SWAP1 SWAP2 AND SWAP1 PUSH4 0x70A08231 SWAP1 PUSH2 0x1492 SWAP1 ADDRESS SWAP1 PUSH1 0x4 ADD PUSH2 0x1E88 JUMP JUMPDEST PUSH1 0x40 MLOAD PUSH4 0x70A08231 PUSH1 0xE0 SHL DUP2 MSTORE PUSH1 0x1 PUSH1 0x1 PUSH1 0xA0 SHL SUB DUP6 AND SWAP1 PUSH4 0x70A08231 SWAP1 PUSH2 0x155B SWAP1 ADDRESS SWAP1 PUSH1 0x4 ADD PUSH2 0x1E88 JUMP JUMPDEST PUSH1 0x20 PUSH1 0x40 MLOAD DUP1 DUP4 SUB DUP2 DUP7 DUP1 EXTCODESIZE ISZERO DUP1 ISZERO PUSH2 0x1573 JUMPI PUSH1 0x0 DUP1 REVERT JUMPDEST POP GAS STATICCALL ISZERO DUP1 ISZERO PUSH2 0x1587 JUMPI RETURNDATASIZE PUSH1 0x0 DUP1 RETURNDATACOPY RETURNDATASIZE PUSH1 0x0 REVERT JUMPDEST POP POP POP POP PUSH1 0x40 MLOAD RETURNDATASIZE PUSH1 0x1F NOT PUSH1 0x1F DUP3 ADD AND DUP3 ADD DUP1 PUSH1 0x40 MSTORE POP DUP2 ADD SWAP1 PUSH2 0x15AB SWAP2 SWAP1 PUSH2 0x1E25 JUMP JUMPDEST SWAP1 POP JUMPDEST PUSH1 0x9 SLOAD PUSH1 0x1 PUSH1 0x1 PUSH1 0xA0 SHL SUB DUP5 DUP2 AND SWAP2 AND EQ ISZERO PUSH2 0x15DD JUMPI PUSH1 0xB SLOAD DUP2 EQ ISZERO PUSH2 0x15D8 JUMPI PUSH1 0x1 SWAP2 POP POP PUSH2 0x15F6 JUMP JUMPDEST PUSH2 0x15F0 JUMP JUMPDEST PUSH1 0xE SLOAD DUP2 LT PUSH2 0x15F0 JUMPI PUSH1 0x1 SWAP2 POP POP PUSH2 0x15F6 JUMP JUMPDEST PUSH1 0x0 SWAP2 POP POP JUMPDEST SWAP3 SWAP2 POP POP JUMP JUMPDEST PUSH1 0x0 PUSH2 0x1608 DUP3 DUP5 PUSH2 0x23D2 JUMP JUMPDEST SWAP4 SWAP3 POP POP POP JUMP JUMPDEST PUSH1 0x0 PUSH2 0x1608 DUP3 DUP5 PUSH2 0x23B2 JUMP JUMPDEST PUSH1 0x0 PUSH2 0x1608 DUP3 DUP5 PUSH2 0x23F1 JUMP JUMPDEST PUSH1 0x0 PUSH2 0x1608 DUP3 DUP5 PUSH2 0x239A JUMP JUMPDEST PUSH1 0x0 DUP1 SLOAD PUSH1 0x1 SWAP2 SWAP1 PUSH1 0xFF NOT AND DUP3 DUP1 JUMPDEST MUL OR SWAP1 SSTORE POP JUMP JUMPDEST PUSH1 0x0 DUP1 SLOAD DUP2 SWAP1 PUSH1 0xFF NOT AND PUSH1 0x1 DUP3 PUSH2 0x1642 JUMP JUMPDEST PUSH1 0x9 SLOAD PUSH1 0x1 PUSH1 0x1 PUSH1 0xA0 SHL SUB AND CALLER EQ ISZERO PUSH2 0x16CD JUMPI PUSH1 0x7 SLOAD PUSH1 0x1 PUSH1 0xB0 SHL SWAP1 DIV PUSH1 0xFF AND ISZERO DUP1 ISZERO PUSH2 0x168B JUMPI POP PUSH1 0x17 SLOAD PUSH1 0xFF AND ISZERO JUMPDEST PUSH2 0x16A7 JUMPI PUSH1 0x40 MLOAD PUSH3 0x461BCD PUSH1 0xE5 SHL DUP2 MSTORE PUSH1 0x4 ADD PUSH2 0x4A0 SWAP1 PUSH2 0x2085 JUMP JUMPDEST PUSH1 0x17 DUP1 SLOAD PUSH1 0xFF NOT AND PUSH1 0x1 OR SWAP1 SSTORE PUSH1 0x9 SLOAD PUSH1 0x15 SLOAD PUSH2 0x876 SWAP2 PUSH1 0x1 PUSH1 0x1 PUSH1 0xA0 SHL SUB AND SWAP1 PUSH2 0x17F8 JUMP JUMPDEST PUSH1 0x7 SLOAD PUSH1 0x1 PUSH1 0xB8 SHL SWAP1 DIV PUSH1 0xFF AND ISZERO DUP1 ISZERO PUSH2 0x16EF JUMPI POP PUSH1 0x17 SLOAD PUSH2 0x100 SWAP1 DIV PUSH1 0xFF AND ISZERO JUMPDEST PUSH2 0x170B JUMPI PUSH1 0x40 MLOAD PUSH3 0x461BCD PUSH1 0xE5 SHL DUP2 MSTORE PUSH1 0x4 ADD PUSH2 0x4A0 SWAP1 PUSH2 0x2085 JUMP JUMPDEST PUSH1 0x17 DUP1 SLOAD PUSH2 0xFF00 NOT AND PUSH2 0x100 OR SWAP1 SSTORE PUSH1 0xA SLOAD PUSH1 0x16 SLOAD PUSH2 0x51B SWAP2 PUSH1 0x1 PUSH1 0x1 PUSH1 0xA0 SHL SUB AND SWAP1 PUSH2 0x17F8 JUMP JUMPDEST PUSH1 0x0 DUP1 SLOAD PUSH1 0x2 SWAP2 SWAP1 PUSH1 0xFF NOT AND PUSH1 0x1 DUP4 PUSH2 0x1642 JUMP JUMPDEST PUSH1 0x10 DUP1 SLOAD PUSH1 0x1 PUSH1 0x1 PUSH1 0xA0 SHL SUB NOT AND CALLER OR SWAP1 SSTORE TIMESTAMP PUSH1 0x14 SSTORE PUSH2 0x1765 PUSH2 0x1A44 JUMP JUMPDEST PUSH2 0x51B PUSH2 0x1733 JUMP JUMPDEST PUSH1 0x0 DUP1 SLOAD PUSH1 0x3 SWAP2 SWAP1 PUSH1 0xFF NOT AND PUSH1 0x1 DUP4 PUSH2 0x1642 JUMP JUMPDEST PUSH2 0x179B PUSH1 0x64 PUSH2 0x605 DUP4 PUSH1 0xB SLOAD PUSH2 0x15FC SWAP1 SWAP2 SWAP1 PUSH4 0xFFFFFFFF AND JUMP JUMPDEST PUSH1 0x15 SSTORE PUSH1 0x1 PUSH1 0x0 SLOAD PUSH1 0xFF AND PUSH1 0x3 DUP2 GT ISZERO PUSH2 0x17C5 JUMPI PUSH4 0x4E487B71 PUSH1 0xE0 SHL PUSH1 0x0 MSTORE PUSH1 0x21 PUSH1 0x4 MSTORE PUSH1 0x24 PUSH1 0x0 REVERT JUMPDEST EQ DUP1 ISZERO PUSH2 0x17D3 JUMPI POP PUSH1 0xC SLOAD ISZERO ISZERO JUMPDEST ISZERO PUSH2 0xD4F JUMPI PUSH2 0x17F2 PUSH1 0x64 PUSH2 0x605 DUP4 PUSH1 0xC SLOAD PUSH2 0x15FC SWAP1 SWAP2 SWAP1 PUSH4 0xFFFFFFFF AND JUMP JUMPDEST PUSH1 0x16 SSTORE POP JUMP JUMPDEST PUSH1 0x7 SLOAD PUSH1 0xF SLOAD PUSH1 0x1 PUSH1 0x1 PUSH1 0xA0 SHL SUB SWAP1 DUP2 AND SWAP2 AND EQ ISZERO PUSH2 0x18AF JUMPI PUSH1 0x6 SLOAD PUSH1 0x40 MLOAD PUSH4 0x2E1A7D4D PUSH1 0xE0 SHL DUP2 MSTORE PUSH1 0x1 PUSH1 0x1 PUSH1 0xA0 SHL SUB SWAP1 SWAP2 AND SWAP1 PUSH4 0x2E1A7D4D SWAP1 PUSH2 0x1841 SWAP1 DUP5 SWAP1 PUSH1 0x4 ADD PUSH2 0x2374 JUMP JUMPDEST PUSH1 0x0 PUSH1 0x40 MLOAD DUP1 DUP4 SUB DUP2 PUSH1 0x0 DUP8 DUP1 EXTCODESIZE ISZERO DUP1 ISZERO PUSH2 0x185B JUMPI PUSH1 0x0 DUP1 REVERT JUMPDEST POP GAS CALL ISZERO DUP1 ISZERO PUSH2 0x186F JUMPI RETURNDATASIZE PUSH1 0x0 DUP1 RETURNDATACOPY RETURNDATASIZE PUSH1 0x0 REVERT JUMPDEST POP POP PUSH1 0x40 MLOAD PUSH1 0x1 PUSH1 0x1 PUSH1 0xA0 SHL SUB DUP6 AND SWAP3 POP DUP4 ISZERO PUSH2 0x8FC MUL SWAP2 POP DUP4 SWAP1 PUSH1 0x0 DUP2 DUP2 DUP2 DUP6 DUP9 DUP9 CALL SWAP4 POP POP POP POP ISZERO DUP1 ISZERO PUSH2 0x18A9 JUMPI RETURNDATASIZE PUSH1 0x0 DUP1 RETURNDATACOPY RETURNDATASIZE PUSH1 0x0 REVERT JUMPDEST POP PUSH2 0x1A40 JUMP JUMPDEST PUSH1 0x1 SLOAD PUSH1 0xF SLOAD PUSH1 0x1 PUSH1 0x1 PUSH1 0xA0 SHL SUB SWAP1 DUP2 AND SWAP2 AND EQ ISZERO PUSH2 0x19BA JUMPI PUSH1 0x2 SLOAD PUSH1 0x3 SLOAD PUSH1 0x40 MLOAD PUSH4 0x95EA7B3 PUSH1 0xE0 SHL DUP2 MSTORE PUSH1 0x1 PUSH1 0x1 PUSH1 0xA0 SHL SUB SWAP3 DUP4 AND SWAP3 PUSH4 0x95EA7B3 SWAP3 PUSH2 0x18FE SWAP3 SWAP2 AND SWAP1 DUP6 SWAP1 PUSH1 0x4 ADD PUSH2 0x1EC6 JUMP JUMPDEST PUSH1 0x20 PUSH1 0x40 MLOAD DUP1 DUP4 SUB DUP2 PUSH1 0x0 DUP8 DUP1 EXTCODESIZE ISZERO DUP1 ISZERO PUSH2 0x1918 JUMPI PUSH1 0x0 DUP1 REVERT JUMPDEST POP GAS CALL ISZERO DUP1 ISZERO PUSH2 0x192C JUMPI RETURNDATASIZE PUSH1 0x0 DUP1 RETURNDATACOPY RETURNDATASIZE PUSH1 0x0 REVERT JUMPDEST POP POP POP POP PUSH1 0x40 MLOAD RETURNDATASIZE PUSH1 0x1F NOT PUSH1 0x1F DUP3 ADD AND DUP3 ADD DUP1 PUSH1 0x40 MSTORE POP DUP2 ADD SWAP1 PUSH2 0x1950 SWAP2 SWAP1 PUSH2 0x1E05 JUMP JUMPDEST POP PUSH1 0x3 SLOAD PUSH1 0x40 MLOAD PUSH4 0x6DA8C6D9 PUSH1 0xE1 SHL DUP2 MSTORE PUSH1 0x1 PUSH1 0x1 PUSH1 0xA0 SHL SUB SWAP1 SWAP2 AND SWAP1 PUSH4 0xDB518DB2 SWAP1 PUSH2 0x1983 SWAP1 DUP6 SWAP1 DUP6 SWAP1 PUSH1 0x4 ADD PUSH2 0x1EC6 JUMP JUMPDEST PUSH1 0x0 PUSH1 0x40 MLOAD DUP1 DUP4 SUB DUP2 PUSH1 0x0 DUP8 DUP1 EXTCODESIZE ISZERO DUP1 ISZERO PUSH2 0x199D JUMPI PUSH1 0x0 DUP1 REVERT JUMPDEST POP GAS CALL ISZERO DUP1 ISZERO PUSH2 0x19B1 JUMPI RETURNDATASIZE PUSH1 0x0 DUP1 RETURNDATACOPY RETURNDATASIZE PUSH1 0x0 REVERT JUMPDEST POP POP POP POP PUSH2 0x1A40 JUMP JUMPDEST PUSH1 0xF SLOAD PUSH1 0x40 MLOAD PUSH4 0xA9059CBB PUSH1 0xE0 SHL DUP2 MSTORE PUSH1 0x1 PUSH1 0x1 PUSH1 0xA0 SHL SUB SWAP1 SWAP2 AND SWAP1 PUSH4 0xA9059CBB SWAP1 PUSH2 0x19EC SWAP1 DUP6 SWAP1 DUP6 SWAP1 PUSH1 0x4 ADD PUSH2 0x1EC6 JUMP JUMPDEST PUSH1 0x20 PUSH1 0x40 MLOAD DUP1 DUP4 SUB DUP2 PUSH1 0x0 DUP8 DUP1 EXTCODESIZE ISZERO DUP1 ISZERO PUSH2 0x1A06 JUMPI PUSH1 0x0 DUP1 REVERT JUMPDEST POP GAS CALL ISZERO DUP1 ISZERO PUSH2 0x1A1A JUMPI RETURNDATASIZE PUSH1 0x0 DUP1 RETURNDATACOPY RETURNDATASIZE PUSH1 0x0 REVERT JUMPDEST POP POP POP POP PUSH1 0x40 MLOAD RETURNDATASIZE PUSH1 0x1F NOT PUSH1 0x1F DUP3 ADD AND DUP3 ADD DUP1 PUSH1 0x40 MSTORE POP DUP2 ADD SWAP1 PUSH2 0x1A3E SWAP2 SWAP1 PUSH2 0x1E05 JUMP JUMPDEST POP JUMPDEST POP POP JUMP JUMPDEST PUSH1 0x0 DUP1 SLOAD PUSH1 0xFF AND PUSH1 0x3 DUP2 GT ISZERO PUSH2 0x1A6A JUMPI PUSH4 0x4E487B71 PUSH1 0xE0 SHL PUSH1 0x0 MSTORE PUSH1 0x21 PUSH1 0x4 MSTORE PUSH1 0x24 PUSH1 0x0 REVERT JUMPDEST EQ DUP1 PUSH2 0x1A79 JUMPI POP PUSH2 0x1A79 PUSH2 0x13FC JUMP JUMPDEST ISZERO PUSH2 0x1A8D JUMPI PUSH2 0x1A88 PUSH1 0x64 PUSH2 0x1781 JUMP JUMPDEST PUSH2 0x1BE5 JUMP JUMPDEST PUSH1 0x0 PUSH2 0x1AAD PUSH3 0x15180 PUSH2 0x605 PUSH1 0x12 SLOAD PUSH1 0x14 SLOAD PUSH2 0x161B SWAP1 SWAP2 SWAP1 PUSH4 0xFFFFFFFF AND JUMP JUMPDEST PUSH1 0x11 SLOAD SWAP1 SWAP2 POP PUSH1 0x0 SWAP1 PUSH2 0x1AD0 SWAP1 PUSH2 0x605 PUSH2 0x7D0 PUSH2 0x1ACA DUP4 DUP8 PUSH2 0x161B JUMP JUMPDEST SWAP1 PUSH2 0x15FC JUMP JUMPDEST SWAP1 POP DUP2 PUSH2 0x1AE6 JUMPI PUSH2 0x1AE1 PUSH1 0x50 PUSH2 0x1781 JUMP JUMPDEST PUSH2 0x1B2B JUMP JUMPDEST PUSH1 0x64 DUP2 LT ISZERO PUSH2 0x1AF9 JUMPI PUSH2 0x1AE1 PUSH1 0x63 PUSH2 0x1781 JUMP JUMPDEST PUSH2 0x7D0 DUP2 GT ISZERO PUSH2 0x1B0D JUMPI PUSH2 0x1AE1 PUSH1 0x50 PUSH2 0x1781 JUMP JUMPDEST PUSH2 0x1B2B PUSH2 0x1B1B DUP3 PUSH1 0x64 PUSH2 0x160F JUMP JUMPDEST PUSH2 0x1B26 SWAP1 PUSH1 0x64 PUSH2 0x23F1 JUMP JUMPDEST PUSH2 0x1781 JUMP JUMPDEST PUSH1 0x0 PUSH2 0x1B50 PUSH2 0x1B47 PUSH1 0x16 SLOAD PUSH1 0x15 SLOAD PUSH2 0x1627 SWAP1 SWAP2 SWAP1 PUSH4 0xFFFFFFFF AND JUMP JUMPDEST PUSH1 0xE SLOAD SWAP1 PUSH2 0x161B JUMP JUMPDEST SWAP1 POP PUSH2 0x1BE1 PUSH1 0x0 PUSH1 0x1 SWAP1 SLOAD SWAP1 PUSH2 0x100 EXP SWAP1 DIV PUSH1 0x1 PUSH1 0x1 PUSH1 0xA0 SHL SUB AND PUSH1 0x1 PUSH1 0x1 PUSH1 0xA0 SHL SUB AND PUSH4 0x50228201 PUSH1 0x40 MLOAD DUP2 PUSH4 0xFFFFFFFF AND PUSH1 0xE0 SHL DUP2 MSTORE PUSH1 0x4 ADD PUSH1 0x20 PUSH1 0x40 MLOAD DUP1 DUP4 SUB DUP2 DUP7 DUP1 EXTCODESIZE ISZERO DUP1 ISZERO PUSH2 0x1BA3 JUMPI PUSH1 0x0 DUP1 REVERT JUMPDEST POP GAS STATICCALL ISZERO DUP1 ISZERO PUSH2 0x1BB7 JUMPI RETURNDATASIZE PUSH1 0x0 DUP1 RETURNDATACOPY RETURNDATASIZE PUSH1 0x0 REVERT JUMPDEST POP POP POP POP PUSH1 0x40 MLOAD RETURNDATASIZE PUSH1 0x1F NOT PUSH1 0x1F DUP3 ADD AND DUP3 ADD DUP1 PUSH1 0x40 MSTORE POP DUP2 ADD SWAP1 PUSH2 0x1BDB SWAP2 SWAP1 PUSH2 0x1CEC JUMP JUMPDEST DUP3 PUSH2 0x17F8 JUMP JUMPDEST POP POP POP JUMPDEST PUSH1 0x17 DUP1 SLOAD PUSH2 0xFF00 NOT PUSH1 0xFF NOT SWAP1 SWAP2 AND PUSH1 0x1 OR AND PUSH2 0x100 OR SWAP1 SSTORE PUSH1 0x9 SLOAD PUSH1 0x15 SLOAD PUSH2 0x1C16 SWAP2 PUSH1 0x1 PUSH1 0x1 PUSH1 0xA0 SHL SUB AND SWAP1 PUSH2 0x17F8 JUMP JUMPDEST PUSH1 0x16 SLOAD ISZERO PUSH2 0x51B JUMPI PUSH1 0xA SLOAD PUSH1 0x16 SLOAD PUSH2 0x51B SWAP2 PUSH1 0x1 PUSH1 0x1 PUSH1 0xA0 SHL SUB AND SWAP1 PUSH2 0x17F8 JUMP JUMPDEST DUP3 DUP1 SLOAD PUSH2 0x1C43 SWAP1 PUSH2 0x2408 JUMP JUMPDEST SWAP1 PUSH1 0x0 MSTORE PUSH1 0x20 PUSH1 0x0 KECCAK256 SWAP1 PUSH1 0x1F ADD PUSH1 0x20 SWAP1 DIV DUP2 ADD SWAP3 DUP3 PUSH2 0x1C65 JUMPI PUSH1 0x0 DUP6 SSTORE PUSH2 0x1CAB JUMP JUMPDEST DUP3 PUSH1 0x1F LT PUSH2 0x1C7E JUMPI DUP1 MLOAD PUSH1 0xFF NOT AND DUP4 DUP1 ADD OR DUP6 SSTORE PUSH2 0x1CAB JUMP JUMPDEST DUP3 DUP1 ADD PUSH1 0x1 ADD DUP6 SSTORE DUP3 ISZERO PUSH2 0x1CAB JUMPI SWAP2 DUP3 ADD JUMPDEST DUP3 DUP2 GT ISZERO PUSH2 0x1CAB JUMPI DUP3 MLOAD DUP3 SSTORE SWAP2 PUSH1 0x20 ADD SWAP2 SWAP1 PUSH1 0x1 ADD SWAP1 PUSH2 0x1C90 JUMP JUMPDEST POP PUSH2 0x1CB7 SWAP3 SWAP2 POP PUSH2 0x1CBB JUMP JUMPDEST POP SWAP1 JUMP JUMPDEST JUMPDEST DUP1 DUP3 GT ISZERO PUSH2 0x1CB7 JUMPI PUSH1 0x0 DUP2 SSTORE PUSH1 0x1 ADD PUSH2 0x1CBC JUMP JUMPDEST PUSH1 0x0 PUSH1 0x20 DUP3 DUP5 SUB SLT ISZERO PUSH2 0x1CE1 JUMPI DUP1 DUP2 REVERT JUMPDEST DUP2 CALLDATALOAD PUSH2 0x1608 DUP2 PUSH2 0x246F JUMP JUMPDEST PUSH1 0x0 PUSH1 0x20 DUP3 DUP5 SUB SLT ISZERO PUSH2 0x1CFD JUMPI DUP1 DUP2 REVERT JUMPDEST DUP2 MLOAD PUSH2 0x1608 DUP2 PUSH2 0x246F JUMP JUMPDEST PUSH1 0x0 DUP1 PUSH1 0x0 DUP1 PUSH1 0x0 DUP1 PUSH1 0x0 PUSH1 0xE0 DUP9 DUP11 SUB SLT ISZERO PUSH2 0x1D22 JUMPI DUP3 DUP4 REVERT JUMPDEST DUP8 CALLDATALOAD PUSH2 0x1D2D DUP2 PUSH2 0x246F JUMP JUMPDEST SWAP7 POP PUSH1 0x20 DUP9 ADD CALLDATALOAD PUSH2 0x1D3D DUP2 PUSH2 0x246F JUMP JUMPDEST SWAP6 POP PUSH1 0x40 DUP9 ADD CALLDATALOAD PUSH2 0x1D4D DUP2 PUSH2 0x246F JUMP JUMPDEST SWAP5 POP PUSH1 0x60 DUP9 ADD CALLDATALOAD PUSH8 0xFFFFFFFFFFFFFFFF DUP1 DUP3 GT ISZERO PUSH2 0x1D69 JUMPI DUP5 DUP6 REVERT JUMPDEST DUP2 DUP11 ADD SWAP2 POP DUP11 PUSH1 0x1F DUP4 ADD SLT PUSH2 0x1D7C JUMPI DUP5 DUP6 REVERT JUMPDEST DUP2 CALLDATALOAD DUP2 DUP2 GT ISZERO PUSH2 0x1D8E JUMPI PUSH2 0x1D8E PUSH2 0x2459 JUMP JUMPDEST PUSH1 0x40 MLOAD PUSH1 0x1F DUP3 ADD PUSH1 0x1F NOT SWAP1 DUP2 AND PUSH1 0x3F ADD AND DUP2 ADD SWAP1 DUP4 DUP3 GT DUP2 DUP4 LT OR ISZERO PUSH2 0x1DB6 JUMPI PUSH2 0x1DB6 PUSH2 0x2459 JUMP JUMPDEST DUP2 PUSH1 0x40 MSTORE DUP3 DUP2 MSTORE DUP14 PUSH1 0x20 DUP5 DUP8 ADD ADD GT ISZERO PUSH2 0x1DCE JUMPI DUP8 DUP9 REVERT JUMPDEST DUP3 PUSH1 0x20 DUP7 ADD PUSH1 0x20 DUP4 ADD CALLDATACOPY SWAP2 DUP3 ADD PUSH1 0x20 ADD SWAP7 SWAP1 SWAP7 MSTORE SWAP9 SWAP12 SWAP8 SWAP11 POP SWAP6 SWAP9 PUSH1 0x80 DUP2 ADD CALLDATALOAD SWAP8 PUSH1 0xA0 DUP3 ADD CALLDATALOAD SWAP8 POP PUSH1 0xC0 SWAP1 SWAP2 ADD CALLDATALOAD SWAP6 POP SWAP4 POP POP POP POP JUMP JUMPDEST PUSH1 0x0 PUSH1 0x20 DUP3 DUP5 SUB SLT ISZERO PUSH2 0x1E16 JUMPI DUP1 DUP2 REVERT JUMPDEST DUP2 MLOAD DUP1 ISZERO ISZERO DUP2 EQ PUSH2 0x1608 JUMPI DUP2 DUP3 REVERT JUMPDEST PUSH1 0x0 PUSH1 0x20 DUP3 DUP5 SUB SLT ISZERO PUSH2 0x1E36 JUMPI DUP1 DUP2 REVERT JUMPDEST POP MLOAD SWAP2 SWAP1 POP JUMP JUMPDEST PUSH1 0x0 DUP2 MLOAD DUP1 DUP5 MSTORE DUP2 JUMPDEST DUP2 DUP2 LT ISZERO PUSH2 0x1E62 JUMPI PUSH1 0x20 DUP2 DUP6 ADD DUP2 ADD MLOAD DUP7 DUP4 ADD DUP3 ADD MSTORE ADD PUSH2 0x1E46 JUMP JUMPDEST DUP2 DUP2 GT ISZERO PUSH2 0x1E73 JUMPI DUP3 PUSH1 0x20 DUP4 DUP8 ADD ADD MSTORE JUMPDEST POP PUSH1 0x1F ADD PUSH1 0x1F NOT AND SWAP3 SWAP1 SWAP3 ADD PUSH1 0x20 ADD SWAP3 SWAP2 POP POP JUMP JUMPDEST PUSH1 0x1 PUSH1 0x1 PUSH1 0xA0 SHL SUB SWAP2 SWAP1 SWAP2 AND DUP2 MSTORE PUSH1 0x20 ADD SWAP1 JUMP JUMPDEST PUSH1 0x1 PUSH1 0x1 PUSH1 0xA0 SHL SUB SWAP5 DUP6 AND DUP2 MSTORE SWAP3 DUP5 AND PUSH1 0x20 DUP5 ADD MSTORE SWAP3 AND PUSH1 0x40 DUP3 ADD MSTORE PUSH1 0x60 DUP2 ADD SWAP2 SWAP1 SWAP2 MSTORE PUSH1 0x80 ADD SWAP1 JUMP JUMPDEST PUSH1 0x1 PUSH1 0x1 PUSH1 0xA0 SHL SUB SWAP3 SWAP1 SWAP3 AND DUP3 MSTORE PUSH1 0x20 DUP3 ADD MSTORE PUSH1 0x40 ADD SWAP1 JUMP JUMPDEST PUSH1 0x1 PUSH1 0x1 PUSH1 0xA0 SHL SUB SWAP7 SWAP1 SWAP7 AND DUP7 MSTORE PUSH1 0x20 DUP7 ADD SWAP5 SWAP1 SWAP5 MSTORE PUSH1 0x40 DUP6 ADD SWAP3 SWAP1 SWAP3 MSTORE PUSH1 0x60 DUP5 ADD MSTORE ISZERO ISZERO PUSH1 0x80 DUP4 ADD MSTORE ISZERO ISZERO PUSH1 0xA0 DUP3 ADD MSTORE PUSH1 0xC0 ADD SWAP1 JUMP JUMPDEST SWAP1 ISZERO ISZERO DUP2 MSTORE PUSH1 0x20 ADD SWAP1 JUMP JUMPDEST SWAP2 ISZERO ISZERO DUP3 MSTORE ISZERO ISZERO PUSH1 0x20 DUP3 ADD MSTORE PUSH1 0x40 ADD SWAP1 JUMP JUMPDEST PUSH1 0x0 PUSH1 0x20 DUP3 MSTORE PUSH2 0x1608 PUSH1 0x20 DUP4 ADD DUP5 PUSH2 0x1E3D JUMP JUMPDEST PUSH1 0x0 PUSH2 0x180 DUP3 MSTORE PUSH2 0x1F5B PUSH2 0x180 DUP4 ADD DUP16 PUSH2 0x1E3D JUMP JUMPDEST PUSH1 0x1 PUSH1 0x1 PUSH1 0xA0 SHL SUB SWAP14 DUP15 AND PUSH1 0x20 DUP5 ADD MSTORE SWAP12 DUP14 AND PUSH1 0x40 DUP4 ADD MSTORE POP SWAP9 SWAP1 SWAP11 AND PUSH1 0x60 DUP10 ADD MSTORE PUSH1 0x80 DUP9 ADD SWAP7 SWAP1 SWAP7 MSTORE PUSH1 0xA0 DUP8 ADD SWAP5 SWAP1 SWAP5 MSTORE PUSH1 0xC0 DUP7 ADD SWAP3 SWAP1 SWAP3 MSTORE PUSH1 0xE0 DUP6 ADD MSTORE PUSH2 0x100 DUP5 ADD MSTORE PUSH2 0x120 DUP4 ADD MSTORE PUSH2 0x140 DUP3 ADD MSTORE SWAP2 ISZERO ISZERO PUSH2 0x160 SWAP1 SWAP3 ADD SWAP2 SWAP1 SWAP2 MSTORE SWAP2 SWAP1 POP JUMP JUMPDEST PUSH1 0x20 DUP1 DUP3 MSTORE PUSH1 0x18 SWAP1 DUP3 ADD MSTORE PUSH32 0x4C696E6B3A206465706F736974206E6F7420656E6F7567680000000000000000 PUSH1 0x40 DUP3 ADD MSTORE PUSH1 0x60 ADD SWAP1 JUMP JUMPDEST PUSH1 0x20 DUP1 DUP3 MSTORE PUSH1 0x1E SWAP1 DUP3 ADD MSTORE PUSH32 0x4C696E6B3A207573657241206465706F736974206E6F7420656E6F7567680000 PUSH1 0x40 DUP3 ADD MSTORE PUSH1 0x60 ADD SWAP1 JUMP JUMPDEST PUSH1 0x20 DUP1 DUP3 MSTORE PUSH1 0x13 SWAP1 DUP3 ADD MSTORE PUSH19 0x131A5B9ACE881858D8D95CDCC819195B9A5959 PUSH1 0x6A SHL PUSH1 0x40 DUP3 ADD MSTORE PUSH1 0x60 ADD SWAP1 JUMP JUMPDEST PUSH1 0x20 DUP1 DUP3 MSTORE PUSH1 0x12 SWAP1 DUP3 ADD MSTORE PUSH18 0x4C696E6B3A206F6E6C7920666163746F7279 PUSH1 0x70 SHL PUSH1 0x40 DUP3 ADD MSTORE PUSH1 0x60 ADD SWAP1 JUMP JUMPDEST PUSH1 0x20 DUP1 DUP3 MSTORE PUSH1 0x14 SWAP1 DUP3 ADD MSTORE PUSH20 0x2634B7359D1030B1B1B2B9B9903232B734B2B21 PUSH1 0x65 SHL PUSH1 0x40 DUP3 ADD MSTORE PUSH1 0x60 ADD SWAP1 JUMP JUMPDEST PUSH1 0x20 DUP1 DUP3 MSTORE PUSH1 0x1C SWAP1 DUP3 ADD MSTORE PUSH32 0x4C696E6B3A2063616E7420706C65646765206F6E206578706972652000000000 PUSH1 0x40 DUP3 ADD MSTORE PUSH1 0x60 ADD SWAP1 JUMP JUMPDEST PUSH1 0x20 DUP1 DUP3 MSTORE PUSH1 0xE SWAP1 DUP3 ADD MSTORE PUSH14 0xDCDEE840CADCDEEACED0408AA89 PUSH1 0x93 SHL PUSH1 0x40 DUP3 ADD MSTORE PUSH1 0x60 ADD SWAP1 JUMP JUMPDEST PUSH1 0x20 DUP1 DUP3 MSTORE PUSH1 0x13 SWAP1 DUP3 ADD MSTORE PUSH19 0x131A5B9ACE881BDB9B1E481D5B98DB1BDCD959 PUSH1 0x6A SHL PUSH1 0x40 DUP3 ADD MSTORE PUSH1 0x60 ADD SWAP1 JUMP JUMPDEST PUSH1 0x20 DUP1 DUP3 MSTORE PUSH1 0x16 SWAP1 DUP3 ADD MSTORE PUSH22 0x4C696E6B3A20756E6C617766756C2061646472657373 PUSH1 0x50 SHL PUSH1 0x40 DUP3 ADD MSTORE PUSH1 0x60 ADD SWAP1 JUMP JUMPDEST PUSH1 0x20 DUP1 DUP3 MSTORE PUSH1 0x14 SWAP1 DUP3 ADD MSTORE PUSH20 0x131A5B9ACE881BDB9B1E481D5B9C1B195919D959 PUSH1 0x62 SHL PUSH1 0x40 DUP3 ADD MSTORE PUSH1 0x60 ADD SWAP1 JUMP JUMPDEST PUSH1 0x20 DUP1 DUP3 MSTORE PUSH1 0x10 SWAP1 DUP3 ADD MSTORE PUSH16 0x2634B7359D103737B63C903AB9B2B921 PUSH1 0x81 SHL PUSH1 0x40 DUP3 ADD MSTORE PUSH1 0x60 ADD SWAP1 JUMP JUMPDEST PUSH1 0x20 DUP1 DUP3 MSTORE PUSH1 0xE SWAP1 DUP3 ADD MSTORE PUSH14 0x4C696E6B3A207265706C65646765 PUSH1 0x90 SHL PUSH1 0x40 DUP3 ADD MSTORE PUSH1 0x60 ADD SWAP1 JUMP JUMPDEST PUSH1 0x20 DUP1 DUP3 MSTORE PUSH1 0x10 SWAP1 DUP3 ADD MSTORE PUSH16 0x131A5B9ACE881B9BC81C1B195919D959 PUSH1 0x82 SHL PUSH1 0x40 DUP3 ADD MSTORE PUSH1 0x60 ADD SWAP1 JUMP JUMPDEST PUSH1 0x20 DUP1 DUP3 MSTORE PUSH1 0x11 SWAP1 DUP3 ADD MSTORE PUSH17 0x4C696E6B3A206F6E6C7920457870697265 PUSH1 0x78 SHL PUSH1 0x40 DUP3 ADD MSTORE PUSH1 0x60 ADD SWAP1 JUMP JUMPDEST PUSH1 0x20 DUP1 DUP3 MSTORE PUSH1 0x16 SWAP1 DUP3 ADD MSTORE PUSH22 0x131A5B9ACE881BDB9B1E481A5B9A5D1A585B1A5E9959 PUSH1 0x52 SHL PUSH1 0x40 DUP3 ADD MSTORE PUSH1 0x60 ADD SWAP1 JUMP JUMPDEST PUSH1 0x20 DUP1 DUP3 MSTORE PUSH1 0xB SWAP1 DUP3 ADD MSTORE PUSH11 0x1A5B9A5D1A585B1A5E9959 PUSH1 0xAA SHL PUSH1 0x40 DUP3 ADD MSTORE PUSH1 0x60 ADD SWAP1 JUMP JUMPDEST PUSH1 0x20 DUP1 DUP3 MSTORE PUSH1 0xA SWAP1 DUP3 ADD MSTORE PUSH10 0x6F6E6C79207573657241 PUSH1 0xB0 SHL PUSH1 0x40 DUP3 ADD MSTORE PUSH1 0x60 ADD SWAP1 JUMP JUMPDEST PUSH1 0x20 DUP1 DUP3 MSTORE PUSH1 0x18 SWAP1 DUP3 ADD MSTORE PUSH32 0x4C696E6B3A206F6E6C79204564697461626C65204C696E6B0000000000000000 PUSH1 0x40 DUP3 ADD MSTORE PUSH1 0x60 ADD SWAP1 JUMP JUMPDEST PUSH1 0x20 DUP1 DUP3 MSTORE PUSH1 0x11 SWAP1 DUP3 ADD MSTORE PUSH17 0x131A5B9ACE881BDB9B1E481859DC995959 PUSH1 0x7A SHL PUSH1 0x40 DUP3 ADD MSTORE PUSH1 0x60 ADD SWAP1 JUMP JUMPDEST PUSH1 0x20 DUP1 DUP3 MSTORE PUSH1 0x12 SWAP1 DUP3 ADD MSTORE PUSH18 0x131A5B9ACE881BDB9B1E481C1B195919D959 PUSH1 0x72 SHL PUSH1 0x40 DUP3 ADD MSTORE PUSH1 0x60 ADD SWAP1 JUMP JUMPDEST PUSH1 0x20 DUP1 DUP3 MSTORE PUSH1 0xF SWAP1 DUP3 ADD MSTORE PUSH15 0x4C696E6B3A206F6E6C79206C756361 PUSH1 0x88 SHL PUSH1 0x40 DUP3 ADD MSTORE PUSH1 0x60 ADD SWAP1 JUMP JUMPDEST SWAP1 DUP2 MSTORE PUSH1 0x20 ADD SWAP1 JUMP JUMPDEST SWAP4 DUP5 MSTORE SWAP2 ISZERO ISZERO PUSH1 0x20 DUP5 ADD MSTORE PUSH1 0x40 DUP4 ADD MSTORE ISZERO ISZERO PUSH1 0x60 DUP3 ADD MSTORE PUSH1 0x80 ADD SWAP1 JUMP JUMPDEST PUSH1 0x0 DUP3 NOT DUP3 GT ISZERO PUSH2 0x23AD JUMPI PUSH2 0x23AD PUSH2 0x2443 JUMP JUMPDEST POP ADD SWAP1 JUMP JUMPDEST PUSH1 0x0 DUP3 PUSH2 0x23CD JUMPI PUSH4 0x4E487B71 PUSH1 0xE0 SHL DUP2 MSTORE PUSH1 0x12 PUSH1 0x4 MSTORE PUSH1 0x24 DUP2 REVERT JUMPDEST POP DIV SWAP1 JUMP JUMPDEST PUSH1 0x0 DUP2 PUSH1 0x0 NOT DIV DUP4 GT DUP3 ISZERO ISZERO AND ISZERO PUSH2 0x23EC JUMPI PUSH2 0x23EC PUSH2 0x2443 JUMP JUMPDEST POP MUL SWAP1 JUMP JUMPDEST PUSH1 0x0 DUP3 DUP3 LT ISZERO PUSH2 0x2403 JUMPI PUSH2 0x2403 PUSH2 0x2443 JUMP JUMPDEST POP SUB SWAP1 JUMP JUMPDEST PUSH1 0x2 DUP2 DIV PUSH1 0x1 DUP3 AND DUP1 PUSH2 0x241C JUMPI PUSH1 0x7F DUP3 AND SWAP2 POP JUMPDEST PUSH1 0x20 DUP3 LT DUP2 EQ ISZERO PUSH2 0x243D JUMPI PUSH4 0x4E487B71 PUSH1 0xE0 SHL PUSH1 0x0 MSTORE PUSH1 0x22 PUSH1 0x4 MSTORE PUSH1 0x24 PUSH1 0x0 REVERT JUMPDEST POP SWAP2 SWAP1 POP JUMP JUMPDEST PUSH4 0x4E487B71 PUSH1 0xE0 SHL PUSH1 0x0 MSTORE PUSH1 0x11 PUSH1 0x4 MSTORE PUSH1 0x24 PUSH1 0x0 REVERT JUMPDEST PUSH4 0x4E487B71 PUSH1 0xE0 SHL PUSH1 0x0 MSTORE PUSH1 0x41 PUSH1 0x4 MSTORE PUSH1 0x24 PUSH1 0x0 REVERT JUMPDEST PUSH1 0x1 PUSH1 0x1 PUSH1 0xA0 SHL SUB DUP2 AND DUP2 EQ PUSH2 0xD4F JUMPI PUSH1 0x0 DUP1 REVERT INVALID LOG2 PUSH5 0x6970667358 0x22 SLT KECCAK256 0xD3 0xD6 SAR 0xD 0xB8 DIFFICULTY SWAP8 DUP9 0xB5 0x5F ADDMOD 0xE0 0x2E 0xDE NUMBER 0xEF SWAP6 PUSH17 0xA0D5C3BE9D31BEE8E41B43AE158364736F PUSH13 0x63430008010033A26469706673 PC 0x22 SLT KECCAK256 PUSH7 0x775098889B6C2D 0xB0 CODESIZE DIFFICULTY 0xAE CALLCODE 0xD6 PUSH8 0x1563EEF63F332819 PUSH14 0x1D23BC6D7B13C9E264736F6C6343 STOP ADDMOD ADD STOP CALLER "
		},
		"gasEstimates": {
			"creation": {
				"codeDepositCost": "3043600",
				"executionCost": "3349",
				"totalCost": "3046949"
			},
			"external": {
				"addToken(address,uint256)": "infinite",
				"createLink(address,string,uint256,uint256,uint256)": "infinite",
				"getCollector()": "1159",
				"initialize(address,address,address,address,address,address)": "infinite",
				"isAllowedToken(string,address)": "infinite",
				"isLink(address)": "infinite",
				"owner()": "1115",
				"setCollector(address)": "22099",
				"setOwner(address)": "22012",
				"setPledger(address)": "22033",
				"setRisk()": "21956",
				"totalLink()": "1051",
				"updateTokenConfig(string,address,uint256)": "infinite"
			},
			"internal": {
				"_addTokenMap(string memory,address,uint256)": "infinite",
				"_createLink()": "infinite"
			}
		},
		"methodIdentifiers": {
			"addToken(address,uint256)": "af81c5b9",
			"createLink(address,string,uint256,uint256,uint256)": "4aff6754",
			"getCollector()": "50228201",
			"initialize(address,address,address,address,address,address)": "cc2a9a5b",
			"isAllowedToken(string,address)": "65498de8",
			"isLink(address)": "372bd79e",
			"owner()": "8da5cb5b",
			"setCollector(address)": "fb5b82d0",
			"setOwner(address)": "13af4035",
			"setPledger(address)": "aff075f4",
			"setRisk()": "5a819f4d",
			"totalLink()": "3679dc46",
			"updateTokenConfig(string,address,uint256)": "e4f13f57"
		}
	},
	"abi": [
		{
			"anonymous": false,
			"inputs": [
				{
					"indexed": true,
					"internalType": "address",
					"name": "_creater",
					"type": "address"
				},
				{
					"indexed": true,
					"internalType": "string",
					"name": "_symbol",
					"type": "string"
				},
				{
					"indexed": false,
					"internalType": "address",
					"name": "_link",
					"type": "address"
				}
			],
			"name": "LinkCreated",
			"type": "event"
		},
		{
			"anonymous": false,
			"inputs": [
				{
					"indexed": true,
					"internalType": "string",
					"name": "_symbol",
					"type": "string"
				},
				{
					"indexed": true,
					"internalType": "address",
					"name": "_tokenAddr",
					"type": "address"
				},
				{
					"indexed": false,
					"internalType": "uint256",
					"name": "_minAmount",
					"type": "uint256"
				}
			],
			"name": "UpdatetokenConfig",
			"type": "event"
		},
		{
			"inputs": [
				{
					"internalType": "address",
					"name": "_tokenAddr",
					"type": "address"
				},
				{
					"internalType": "uint256",
					"name": "_minAmount",
					"type": "uint256"
				}
			],
			"name": "addToken",
			"outputs": [],
			"stateMutability": "nonpayable",
			"type": "function"
		},
		{
			"inputs": [
				{
					"internalType": "address",
					"name": "_userB",
					"type": "address"
				},
				{
					"internalType": "string",
					"name": "_symbol",
					"type": "string"
				},
				{
					"internalType": "uint256",
					"name": "_tatalPlan",
					"type": "uint256"
				},
				{
					"internalType": "uint256",
					"name": "_percentA",
					"type": "uint256"
				},
				{
					"internalType": "uint256",
					"name": "_lockDays",
					"type": "uint256"
				}
			],
			"name": "createLink",
			"outputs": [
				{
					"internalType": "address",
					"name": "",
					"type": "address"
				}
			],
			"stateMutability": "payable",
			"type": "function"
		},
		{
			"inputs": [],
			"name": "getCollector",
			"outputs": [
				{
					"internalType": "address",
					"name": "",
					"type": "address"
				}
			],
			"stateMutability": "view",
			"type": "function"
		},
		{
			"inputs": [
				{
					"internalType": "address",
					"name": "_luca",
					"type": "address"
				},
				{
					"internalType": "address",
					"name": "_wluca",
					"type": "address"
				},
				{
					"internalType": "address",
					"name": "_trader",
					"type": "address"
				},
				{
					"internalType": "address",
					"name": "_weth",
					"type": "address"
				},
				{
					"internalType": "address",
					"name": "_collector",
					"type": "address"
				},
				{
					"internalType": "address",
					"name": "_pledger",
					"type": "address"
				}
			],
			"name": "initialize",
			"outputs": [],
			"stateMutability": "nonpayable",
			"type": "function"
		},
		{
			"inputs": [
				{
					"internalType": "string",
					"name": "_symbol",
					"type": "string"
				},
				{
					"internalType": "address",
					"name": "_addr",
					"type": "address"
				}
			],
			"name": "isAllowedToken",
			"outputs": [
				{
					"internalType": "bool",
					"name": "",
					"type": "bool"
				}
			],
			"stateMutability": "view",
			"type": "function"
		},
		{
			"inputs": [
				{
					"internalType": "address",
					"name": "_link",
					"type": "address"
				}
			],
			"name": "isLink",
			"outputs": [
				{
					"internalType": "bool",
					"name": "",
					"type": "bool"
				}
			],
			"stateMutability": "view",
			"type": "function"
		},
		{
			"inputs": [],
			"name": "owner",
			"outputs": [
				{
					"internalType": "address",
					"name": "",
					"type": "address"
				}
			],
			"stateMutability": "view",
			"type": "function"
		},
		{
			"inputs": [
				{
					"internalType": "address",
					"name": "_user",
					"type": "address"
				}
			],
			"name": "setCollector",
			"outputs": [],
			"stateMutability": "nonpayable",
			"type": "function"
		},
		{
			"inputs": [
				{
					"internalType": "address",
					"name": "_user",
					"type": "address"
				}
			],
			"name": "setOwner",
			"outputs": [],
			"stateMutability": "nonpayable",
			"type": "function"
		},
		{
			"inputs": [
				{
					"internalType": "address",
					"name": "_user",
					"type": "address"
				}
			],
			"name": "setPledger",
			"outputs": [],
			"stateMutability": "nonpayable",
			"type": "function"
		},
		{
			"inputs": [],
			"name": "setRisk",
			"outputs": [],
			"stateMutability": "nonpayable",
			"type": "function"
		},
		{
			"inputs": [],
			"name": "totalLink",
			"outputs": [
				{
					"internalType": "uint256",
					"name": "",
					"type": "uint256"
				}
			],
			"stateMutability": "view",
			"type": "function"
		},
		{
			"inputs": [
				{
					"internalType": "string",
					"name": "_symbol",
					"type": "string"
				},
				{
					"internalType": "address",
					"name": "_tokenAddr",
					"type": "address"
				},
				{
					"internalType": "uint256",
					"name": "_minAmount",
					"type": "uint256"
				}
			],
			"name": "updateTokenConfig",
			"outputs": [],
			"stateMutability": "nonpayable",
			"type": "function"
		}
	]
}